{
	"contracts/LandRegistryNFT.sol": {
		"LandRegistryNFT": {
			"abi": [
				{
					"inputs": [
						{
							"internalType": "address",
							"name": "ministryAdmin",
							"type": "address"
						}
					],
					"stateMutability": "nonpayable",
					"type": "constructor"
				},
				{
					"anonymous": false,
					"inputs": [
						{
							"indexed": true,
							"internalType": "uint256",
							"name": "tokenId",
							"type": "uint256"
						},
						{
							"indexed": false,
							"internalType": "string",
							"name": "docHash",
							"type": "string"
						}
					],
					"name": "ParcelDocumentAdded",
					"type": "event"
				},
				{
					"anonymous": false,
					"inputs": [
						{
							"indexed": true,
							"internalType": "uint256",
							"name": "tokenId",
							"type": "uint256"
						},
						{
							"indexed": false,
							"internalType": "string",
							"name": "lrNumber",
							"type": "string"
						},
						{
							"indexed": false,
							"internalType": "string",
							"name": "county",
							"type": "string"
						},
						{
							"indexed": true,
							"internalType": "address",
							"name": "owner",
							"type": "address"
						}
					],
					"name": "ParcelRegistered",
					"type": "event"
				},
				{
					"anonymous": false,
					"inputs": [
						{
							"indexed": true,
							"internalType": "uint256",
							"name": "tokenId",
							"type": "uint256"
						},
						{
							"indexed": false,
							"internalType": "enum LandRegistryNFT.ParcelStatus",
							"name": "newStatus",
							"type": "uint8"
						},
						{
							"indexed": false,
							"internalType": "string",
							"name": "reason",
							"type": "string"
						}
					],
					"name": "ParcelStatusChanged",
					"type": "event"
				},
				{
					"anonymous": false,
					"inputs": [
						{
							"indexed": true,
							"internalType": "uint256",
							"name": "tokenId",
							"type": "uint256"
						},
						{
							"indexed": true,
							"internalType": "address",
							"name": "from",
							"type": "address"
						},
						{
							"indexed": true,
							"internalType": "address",
							"name": "to",
							"type": "address"
						}
					],
					"name": "ParcelTransferred",
					"type": "event"
				},
				{
					"anonymous": false,
					"inputs": [
						{
							"indexed": true,
							"internalType": "bytes32",
							"name": "role",
							"type": "bytes32"
						},
						{
							"indexed": true,
							"internalType": "address",
							"name": "account",
							"type": "address"
						}
					],
					"name": "RoleGranted",
					"type": "event"
				},
				{
					"anonymous": false,
					"inputs": [
						{
							"indexed": true,
							"internalType": "bytes32",
							"name": "role",
							"type": "bytes32"
						},
						{
							"indexed": true,
							"internalType": "address",
							"name": "account",
							"type": "address"
						}
					],
					"name": "RoleRevoked",
					"type": "event"
				},
				{
					"anonymous": false,
					"inputs": [
						{
							"indexed": true,
							"internalType": "address",
							"name": "from",
							"type": "address"
						},
						{
							"indexed": true,
							"internalType": "address",
							"name": "to",
							"type": "address"
						},
						{
							"indexed": true,
							"internalType": "uint256",
							"name": "tokenId",
							"type": "uint256"
						}
					],
					"name": "Transfer",
					"type": "event"
				},
				{
					"inputs": [],
					"name": "DEFAULT_ADMIN_ROLE",
					"outputs": [
						{
							"internalType": "bytes32",
							"name": "",
							"type": "bytes32"
						}
					],
					"stateMutability": "view",
					"type": "function"
				},
				{
					"inputs": [],
					"name": "REGISTRAR_ROLE",
					"outputs": [
						{
							"internalType": "bytes32",
							"name": "",
							"type": "bytes32"
						}
					],
					"stateMutability": "view",
					"type": "function"
				},
				{
					"inputs": [
						{
							"internalType": "uint256",
							"name": "tokenId",
							"type": "uint256"
						},
						{
							"internalType": "string",
							"name": "docHash",
							"type": "string"
						}
					],
					"name": "addParcelDocument",
					"outputs": [],
					"stateMutability": "nonpayable",
					"type": "function"
				},
				{
					"inputs": [
						{
							"internalType": "address",
							"name": "account",
							"type": "address"
						}
					],
					"name": "addRegistrar",
					"outputs": [],
					"stateMutability": "nonpayable",
					"type": "function"
				},
				{
					"inputs": [
						{
							"internalType": "address",
							"name": "owner",
							"type": "address"
						}
					],
					"name": "balanceOf",
					"outputs": [
						{
							"internalType": "uint256",
							"name": "",
							"type": "uint256"
						}
					],
					"stateMutability": "view",
					"type": "function"
				},
				{
					"inputs": [
						{
							"internalType": "uint256",
							"name": "tokenId",
							"type": "uint256"
						}
					],
					"name": "getParcel",
					"outputs": [
						{
							"internalType": "string",
							"name": "",
							"type": "string"
						},
						{
							"internalType": "string",
							"name": "",
							"type": "string"
						},
						{
							"internalType": "string",
							"name": "",
							"type": "string"
						},
						{
							"internalType": "enum LandRegistryNFT.ParcelStatus",
							"name": "",
							"type": "uint8"
						},
						{
							"internalType": "uint256",
							"name": "",
							"type": "uint256"
						},
						{
							"internalType": "address",
							"name": "",
							"type": "address"
						}
					],
					"stateMutability": "view",
					"type": "function"
				},
				{
					"inputs": [
						{
							"internalType": "uint256",
							"name": "tokenId",
							"type": "uint256"
						}
					],
					"name": "getParcelDocuments",
					"outputs": [
						{
							"internalType": "string[]",
							"name": "",
							"type": "string[]"
						}
					],
					"stateMutability": "view",
					"type": "function"
				},
				{
					"inputs": [
						{
							"internalType": "bytes32",
							"name": "role",
							"type": "bytes32"
						},
						{
							"internalType": "address",
							"name": "account",
							"type": "address"
						}
					],
					"name": "hasRole",
					"outputs": [
						{
							"internalType": "bool",
							"name": "",
							"type": "bool"
						}
					],
					"stateMutability": "view",
					"type": "function"
				},
				{
					"inputs": [],
					"name": "name",
					"outputs": [
						{
							"internalType": "string",
							"name": "",
							"type": "string"
						}
					],
					"stateMutability": "view",
					"type": "function"
				},
				{
					"inputs": [
						{
							"internalType": "uint256",
							"name": "tokenId",
							"type": "uint256"
						}
					],
					"name": "ownerOf",
					"outputs": [
						{
							"internalType": "address",
							"name": "",
							"type": "address"
						}
					],
					"stateMutability": "view",
					"type": "function"
				},
				{
					"inputs": [
						{
							"internalType": "uint256",
							"name": "",
							"type": "uint256"
						},
						{
							"internalType": "uint256",
							"name": "",
							"type": "uint256"
						}
					],
					"name": "parcelDocuments",
					"outputs": [
						{
							"internalType": "string",
							"name": "",
							"type": "string"
						}
					],
					"stateMutability": "view",
					"type": "function"
				},
				{
					"inputs": [
						{
							"internalType": "uint256",
							"name": "",
							"type": "uint256"
						}
					],
					"name": "parcels",
					"outputs": [
						{
							"internalType": "string",
							"name": "lrNumber",
							"type": "string"
						},
						{
							"internalType": "string",
							"name": "county",
							"type": "string"
						},
						{
							"internalType": "string",
							"name": "coordinatesHash",
							"type": "string"
						},
						{
							"internalType": "string",
							"name": "ownerIdHash",
							"type": "string"
						},
						{
							"internalType": "enum LandRegistryNFT.ParcelStatus",
							"name": "status",
							"type": "uint8"
						},
						{
							"internalType": "uint256",
							"name": "registeredAt",
							"type": "uint256"
						}
					],
					"stateMutability": "view",
					"type": "function"
				},
				{
					"inputs": [
						{
							"internalType": "address",
							"name": "owner",
							"type": "address"
						},
						{
							"internalType": "string",
							"name": "lrNumber",
							"type": "string"
						},
						{
							"internalType": "string",
							"name": "county",
							"type": "string"
						},
						{
							"internalType": "string",
							"name": "coordinatesHash",
							"type": "string"
						},
						{
							"internalType": "string",
							"name": "ownerIdHash",
							"type": "string"
						}
					],
					"name": "registerParcel",
					"outputs": [
						{
							"internalType": "uint256",
							"name": "",
							"type": "uint256"
						}
					],
					"stateMutability": "nonpayable",
					"type": "function"
				},
				{
					"inputs": [
						{
							"internalType": "address",
							"name": "account",
							"type": "address"
						}
					],
					"name": "removeRegistrar",
					"outputs": [],
					"stateMutability": "nonpayable",
					"type": "function"
				},
				{
					"inputs": [
						{
							"internalType": "uint256",
							"name": "tokenId",
							"type": "uint256"
						},
						{
							"internalType": "address",
							"name": "to",
							"type": "address"
						}
					],
					"name": "safeTransferParcel",
					"outputs": [],
					"stateMutability": "nonpayable",
					"type": "function"
				},
				{
					"inputs": [
						{
							"internalType": "uint256",
							"name": "tokenId",
							"type": "uint256"
						},
						{
							"internalType": "enum LandRegistryNFT.ParcelStatus",
							"name": "newStatus",
							"type": "uint8"
						},
						{
							"internalType": "string",
							"name": "reason",
							"type": "string"
						}
					],
					"name": "setParcelStatus",
					"outputs": [],
					"stateMutability": "nonpayable",
					"type": "function"
				},
				{
					"inputs": [],
					"name": "symbol",
					"outputs": [
						{
							"internalType": "string",
							"name": "",
							"type": "string"
						}
					],
					"stateMutability": "view",
					"type": "function"
				},
				{
					"inputs": [
						{
							"internalType": "uint256",
							"name": "tokenId",
							"type": "uint256"
						},
						{
							"internalType": "string",
							"name": "newCoordinatesHash",
							"type": "string"
						},
						{
							"internalType": "string",
							"name": "newOwnerIdHash",
							"type": "string"
						}
					],
					"name": "updateParcelMetadata",
					"outputs": [],
					"stateMutability": "nonpayable",
					"type": "function"
				}
			],
			"devdoc": {
				"kind": "dev",
				"methods": {},
				"version": 1
			},
			"evm": {
				"assembly": "    /* \"contracts/LandRegistryNFT.sol\":137:4679  contract LandRegistryNFT is ERC721, AccessControl {... */\n  mstore(0x40, 0x80)\n    /* \"contracts/LandRegistryNFT.sol\":1088:1283  constructor(address ministryAdmin)... */\n  callvalue\n  dup1\n  iszero\n  tag_1\n  jumpi\n  revert(0x00, 0x00)\ntag_1:\n  pop\n  mload(0x40)\n  sub(codesize, bytecodeSize)\n  dup1\n  bytecodeSize\n  dup4\n  codecopy\n  dup2\n  dup2\n  add\n  0x40\n  mstore\n  dup2\n  add\n  swap1\n  tag_2\n  swap2\n  swap1\n  tag_3\n  jump\t// in\ntag_2:\n    /* \"contracts/ERC721.sol\":361:472  constructor(string memory _name, string memory _symbol) {... */\n  mload(0x40)\n  dup1\n  0x40\n  add\n  0x40\n  mstore\n  dup1\n  0x11\n  dup2\n  mstore\n  0x20\n  add\n  0x4b656e79614c616e645265676973747279000000000000000000000000000000\n  dup2\n  mstore\n  pop\n  mload(0x40)\n  dup1\n  0x40\n  add\n  0x40\n  mstore\n  dup1\n  0x03\n  dup2\n  mstore\n  0x20\n  add\n  0x4b4c520000000000000000000000000000000000000000000000000000000000\n  dup2\n  mstore\n  pop\n    /* \"contracts/ERC721.sol\":434:439  _name */\n  dup2\n    /* \"contracts/ERC721.sol\":427:431  name */\n  0x00\n    /* \"contracts/ERC721.sol\":427:439  name = _name */\n  swap1\n  dup2\n  tag_7\n  swap2\n  swap1\n  tag_8\n  jump\t// in\ntag_7:\n  pop\n    /* \"contracts/ERC721.sol\":458:465  _symbol */\n  dup1\n    /* \"contracts/ERC721.sol\":449:455  symbol */\n  0x01\n    /* \"contracts/ERC721.sol\":449:465  symbol = _symbol */\n  swap1\n  dup2\n  tag_9\n  swap2\n  swap1\n  tag_8\n  jump\t// in\ntag_9:\n  pop\n    /* \"contracts/ERC721.sol\":361:472  constructor(string memory _name, string memory _symbol) {... */\n  pop\n  pop\n    /* \"contracts/LandRegistryNFT.sol\":1180:1225  _grantRole(DEFAULT_ADMIN_ROLE, ministryAdmin) */\n  tag_11\n    /* \"contracts/AccessControl.sol\":262:266  0x00 */\n  0x00\n    /* \"contracts/LandRegistryNFT.sol\":1191:1209  DEFAULT_ADMIN_ROLE */\n  0x00\n  shl\n    /* \"contracts/LandRegistryNFT.sol\":1211:1224  ministryAdmin */\n  dup3\n    /* \"contracts/LandRegistryNFT.sol\":1180:1190  _grantRole */\n  shl(0x20, tag_12)\n    /* \"contracts/LandRegistryNFT.sol\":1180:1225  _grantRole(DEFAULT_ADMIN_ROLE, ministryAdmin) */\n  0x20\n  shr\n  jump\t// in\ntag_11:\n    /* \"contracts/LandRegistryNFT.sol\":1235:1276  _grantRole(REGISTRAR_ROLE, ministryAdmin) */\n  tag_13\n    /* \"contracts/LandRegistryNFT.sol\":276:303  keccak256(\"REGISTRAR_ROLE\") */\n  0xedcc084d3dcd65a1f7f23c65c46722faca6953d28e43150a467cf43e5c309238\n    /* \"contracts/LandRegistryNFT.sol\":1262:1275  ministryAdmin */\n  dup3\n    /* \"contracts/LandRegistryNFT.sol\":1235:1245  _grantRole */\n  shl(0x20, tag_12)\n    /* \"contracts/LandRegistryNFT.sol\":1235:1276  _grantRole(REGISTRAR_ROLE, ministryAdmin) */\n  0x20\n  shr\n  jump\t// in\ntag_13:\n    /* \"contracts/LandRegistryNFT.sol\":1088:1283  constructor(address ministryAdmin)... */\n  pop\n    /* \"contracts/LandRegistryNFT.sol\":137:4679  contract LandRegistryNFT is ERC721, AccessControl {... */\n  jump(tag_14)\n    /* \"contracts/AccessControl.sol\":665:819  function _grantRole(bytes32 role, address account) internal {... */\ntag_12:\n    /* \"contracts/AccessControl.sol\":767:771  true */\n  0x01\n    /* \"contracts/AccessControl.sol\":735:741  _roles */\n  0x04\n    /* \"contracts/AccessControl.sol\":735:747  _roles[role] */\n  0x00\n    /* \"contracts/AccessControl.sol\":742:746  role */\n  dup5\n    /* \"contracts/AccessControl.sol\":735:747  _roles[role] */\n  dup2\n  mstore\n  0x20\n  add\n  swap1\n  dup2\n  mstore\n  0x20\n  add\n  0x00\n  keccak256\n    /* \"contracts/AccessControl.sol\":735:755  _roles[role].members */\n  0x00\n  add\n    /* \"contracts/AccessControl.sol\":735:764  _roles[role].members[account] */\n  0x00\n    /* \"contracts/AccessControl.sol\":756:763  account */\n  dup4\n    /* \"contracts/AccessControl.sol\":735:764  _roles[role].members[account] */\n  0xffffffffffffffffffffffffffffffffffffffff\n  and\n  0xffffffffffffffffffffffffffffffffffffffff\n  and\n  dup2\n  mstore\n  0x20\n  add\n  swap1\n  dup2\n  mstore\n  0x20\n  add\n  0x00\n  keccak256\n  0x00\n    /* \"contracts/AccessControl.sol\":735:771  _roles[role].members[account] = true */\n  0x0100\n  exp\n  dup2\n  sload\n  dup2\n  0xff\n  mul\n  not\n  and\n  swap1\n  dup4\n  iszero\n  iszero\n  mul\n  or\n  swap1\n  sstore\n  pop\n    /* \"contracts/AccessControl.sol\":804:811  account */\n  dup1\n    /* \"contracts/AccessControl.sol\":786:812  RoleGranted(role, account) */\n  0xffffffffffffffffffffffffffffffffffffffff\n  and\n    /* \"contracts/AccessControl.sol\":798:802  role */\n  dup3\n    /* \"contracts/AccessControl.sol\":786:812  RoleGranted(role, account) */\n  0x2ae6a113c0ed5b78a53413ffbb7679881f11145ccfba4fb92e863dfcd5a1d2f3\n  mload(0x40)\n  mload(0x40)\n  dup1\n  swap2\n  sub\n  swap1\n  log3\n    /* \"contracts/AccessControl.sol\":665:819  function _grantRole(bytes32 role, address account) internal {... */\n  pop\n  pop\n  jump\t// out\n    /* \"#utility.yul\":88:205   */\ntag_17:\n    /* \"#utility.yul\":197:198   */\n  0x00\n    /* \"#utility.yul\":194:195   */\n  0x00\n    /* \"#utility.yul\":187:199   */\n  revert\n    /* \"#utility.yul\":334:460   */\ntag_19:\n    /* \"#utility.yul\":371:378   */\n  0x00\n    /* \"#utility.yul\":411:453   */\n  0xffffffffffffffffffffffffffffffffffffffff\n    /* \"#utility.yul\":404:409   */\n  dup3\n    /* \"#utility.yul\":400:454   */\n  and\n    /* \"#utility.yul\":389:454   */\n  swap1\n  pop\n    /* \"#utility.yul\":334:460   */\n  swap2\n  swap1\n  pop\n  jump\t// out\n    /* \"#utility.yul\":466:562   */\ntag_20:\n    /* \"#utility.yul\":503:510   */\n  0x00\n    /* \"#utility.yul\":532:556   */\n  tag_49\n    /* \"#utility.yul\":550:555   */\n  dup3\n    /* \"#utility.yul\":532:556   */\n  tag_19\n  jump\t// in\ntag_49:\n    /* \"#utility.yul\":521:556   */\n  swap1\n  pop\n    /* \"#utility.yul\":466:562   */\n  swap2\n  swap1\n  pop\n  jump\t// out\n    /* \"#utility.yul\":568:690   */\ntag_21:\n    /* \"#utility.yul\":641:665   */\n  tag_51\n    /* \"#utility.yul\":659:664   */\n  dup2\n    /* \"#utility.yul\":641:665   */\n  tag_20\n  jump\t// in\ntag_51:\n    /* \"#utility.yul\":634:639   */\n  dup2\n    /* \"#utility.yul\":631:666   */\n  eq\n    /* \"#utility.yul\":621:684   */\n  tag_52\n  jumpi\n    /* \"#utility.yul\":680:681   */\n  0x00\n    /* \"#utility.yul\":677:678   */\n  0x00\n    /* \"#utility.yul\":670:682   */\n  revert\n    /* \"#utility.yul\":621:684   */\ntag_52:\n    /* \"#utility.yul\":568:690   */\n  pop\n  jump\t// out\n    /* \"#utility.yul\":696:839   */\ntag_22:\n    /* \"#utility.yul\":753:758   */\n  0x00\n    /* \"#utility.yul\":784:790   */\n  dup2\n    /* \"#utility.yul\":778:791   */\n  mload\n    /* \"#utility.yul\":769:791   */\n  swap1\n  pop\n    /* \"#utility.yul\":800:833   */\n  tag_54\n    /* \"#utility.yul\":827:832   */\n  dup2\n    /* \"#utility.yul\":800:833   */\n  tag_21\n  jump\t// in\ntag_54:\n    /* \"#utility.yul\":696:839   */\n  swap3\n  swap2\n  pop\n  pop\n  jump\t// out\n    /* \"#utility.yul\":845:1196   */\ntag_3:\n    /* \"#utility.yul\":915:921   */\n  0x00\n    /* \"#utility.yul\":964:966   */\n  0x20\n    /* \"#utility.yul\":952:961   */\n  dup3\n    /* \"#utility.yul\":943:950   */\n  dup5\n    /* \"#utility.yul\":939:962   */\n  sub\n    /* \"#utility.yul\":935:967   */\n  slt\n    /* \"#utility.yul\":932:1051   */\n  iszero\n  tag_56\n  jumpi\n    /* \"#utility.yul\":970:1049   */\n  tag_57\n  tag_17\n  jump\t// in\ntag_57:\n    /* \"#utility.yul\":932:1051   */\ntag_56:\n    /* \"#utility.yul\":1090:1091   */\n  0x00\n    /* \"#utility.yul\":1115:1179   */\n  tag_58\n    /* \"#utility.yul\":1171:1178   */\n  dup5\n    /* \"#utility.yul\":1162:1168   */\n  dup3\n    /* \"#utility.yul\":1151:1160   */\n  dup6\n    /* \"#utility.yul\":1147:1169   */\n  add\n    /* \"#utility.yul\":1115:1179   */\n  tag_22\n  jump\t// in\ntag_58:\n    /* \"#utility.yul\":1105:1179   */\n  swap2\n  pop\n    /* \"#utility.yul\":1061:1189   */\n  pop\n    /* \"#utility.yul\":845:1196   */\n  swap3\n  swap2\n  pop\n  pop\n  jump\t// out\n    /* \"#utility.yul\":1202:1301   */\ntag_23:\n    /* \"#utility.yul\":1254:1260   */\n  0x00\n    /* \"#utility.yul\":1288:1293   */\n  dup2\n    /* \"#utility.yul\":1282:1294   */\n  mload\n    /* \"#utility.yul\":1272:1294   */\n  swap1\n  pop\n    /* \"#utility.yul\":1202:1301   */\n  swap2\n  swap1\n  pop\n  jump\t// out\n    /* \"#utility.yul\":1307:1487   */\ntag_24:\n    /* \"#utility.yul\":1355:1432   */\n  0x4e487b7100000000000000000000000000000000000000000000000000000000\n    /* \"#utility.yul\":1352:1353   */\n  0x00\n    /* \"#utility.yul\":1345:1433   */\n  mstore\n    /* \"#utility.yul\":1452:1456   */\n  0x41\n    /* \"#utility.yul\":1449:1450   */\n  0x04\n    /* \"#utility.yul\":1442:1457   */\n  mstore\n    /* \"#utility.yul\":1476:1480   */\n  0x24\n    /* \"#utility.yul\":1473:1474   */\n  0x00\n    /* \"#utility.yul\":1466:1481   */\n  revert\n    /* \"#utility.yul\":1493:1673   */\ntag_25:\n    /* \"#utility.yul\":1541:1618   */\n  0x4e487b7100000000000000000000000000000000000000000000000000000000\n    /* \"#utility.yul\":1538:1539   */\n  0x00\n    /* \"#utility.yul\":1531:1619   */\n  mstore\n    /* \"#utility.yul\":1638:1642   */\n  0x22\n    /* \"#utility.yul\":1635:1636   */\n  0x04\n    /* \"#utility.yul\":1628:1643   */\n  mstore\n    /* \"#utility.yul\":1662:1666   */\n  0x24\n    /* \"#utility.yul\":1659:1660   */\n  0x00\n    /* \"#utility.yul\":1652:1667   */\n  revert\n    /* \"#utility.yul\":1679:1999   */\ntag_26:\n    /* \"#utility.yul\":1723:1729   */\n  0x00\n    /* \"#utility.yul\":1760:1761   */\n  0x02\n    /* \"#utility.yul\":1754:1758   */\n  dup3\n    /* \"#utility.yul\":1750:1762   */\n  div\n    /* \"#utility.yul\":1740:1762   */\n  swap1\n  pop\n    /* \"#utility.yul\":1807:1808   */\n  0x01\n    /* \"#utility.yul\":1801:1805   */\n  dup3\n    /* \"#utility.yul\":1797:1809   */\n  and\n    /* \"#utility.yul\":1828:1846   */\n  dup1\n    /* \"#utility.yul\":1818:1899   */\n  tag_63\n  jumpi\n    /* \"#utility.yul\":1884:1888   */\n  0x7f\n    /* \"#utility.yul\":1876:1882   */\n  dup3\n    /* \"#utility.yul\":1872:1889   */\n  and\n    /* \"#utility.yul\":1862:1889   */\n  swap2\n  pop\n    /* \"#utility.yul\":1818:1899   */\ntag_63:\n    /* \"#utility.yul\":1946:1948   */\n  0x20\n    /* \"#utility.yul\":1938:1944   */\n  dup3\n    /* \"#utility.yul\":1935:1949   */\n  lt\n    /* \"#utility.yul\":1915:1933   */\n  dup2\n    /* \"#utility.yul\":1912:1950   */\n  sub\n    /* \"#utility.yul\":1909:1993   */\n  tag_64\n  jumpi\n    /* \"#utility.yul\":1965:1983   */\n  tag_65\n  tag_25\n  jump\t// in\ntag_65:\n    /* \"#utility.yul\":1909:1993   */\ntag_64:\n    /* \"#utility.yul\":1730:1999   */\n  pop\n    /* \"#utility.yul\":1679:1999   */\n  swap2\n  swap1\n  pop\n  jump\t// out\n    /* \"#utility.yul\":2005:2146   */\ntag_27:\n    /* \"#utility.yul\":2054:2058   */\n  0x00\n    /* \"#utility.yul\":2077:2080   */\n  dup2\n    /* \"#utility.yul\":2069:2080   */\n  swap1\n  pop\n    /* \"#utility.yul\":2100:2103   */\n  dup2\n    /* \"#utility.yul\":2097:2098   */\n  0x00\n    /* \"#utility.yul\":2090:2104   */\n  mstore\n    /* \"#utility.yul\":2134:2138   */\n  0x20\n    /* \"#utility.yul\":2131:2132   */\n  0x00\n    /* \"#utility.yul\":2121:2139   */\n  keccak256\n    /* \"#utility.yul\":2113:2139   */\n  swap1\n  pop\n    /* \"#utility.yul\":2005:2146   */\n  swap2\n  swap1\n  pop\n  jump\t// out\n    /* \"#utility.yul\":2152:2245   */\ntag_28:\n    /* \"#utility.yul\":2189:2195   */\n  0x00\n    /* \"#utility.yul\":2236:2238   */\n  0x20\n    /* \"#utility.yul\":2231:2233   */\n  0x1f\n    /* \"#utility.yul\":2224:2229   */\n  dup4\n    /* \"#utility.yul\":2220:2234   */\n  add\n    /* \"#utility.yul\":2216:2239   */\n  div\n    /* \"#utility.yul\":2206:2239   */\n  swap1\n  pop\n    /* \"#utility.yul\":2152:2245   */\n  swap2\n  swap1\n  pop\n  jump\t// out\n    /* \"#utility.yul\":2251:2358   */\ntag_29:\n    /* \"#utility.yul\":2295:2303   */\n  0x00\n    /* \"#utility.yul\":2345:2350   */\n  dup3\n    /* \"#utility.yul\":2339:2343   */\n  dup3\n    /* \"#utility.yul\":2335:2351   */\n  shl\n    /* \"#utility.yul\":2314:2351   */\n  swap1\n  pop\n    /* \"#utility.yul\":2251:2358   */\n  swap3\n  swap2\n  pop\n  pop\n  jump\t// out\n    /* \"#utility.yul\":2364:2757   */\ntag_30:\n    /* \"#utility.yul\":2433:2439   */\n  0x00\n    /* \"#utility.yul\":2483:2484   */\n  0x08\n    /* \"#utility.yul\":2471:2481   */\n  dup4\n    /* \"#utility.yul\":2467:2485   */\n  mul\n    /* \"#utility.yul\":2506:2603   */\n  tag_70\n    /* \"#utility.yul\":2536:2602   */\n  0xffffffffffffffffffffffffffffffffffffffffffffffffffffffffffffffff\n    /* \"#utility.yul\":2525:2534   */\n  dup3\n    /* \"#utility.yul\":2506:2603   */\n  tag_29\n  jump\t// in\ntag_70:\n    /* \"#utility.yul\":2624:2663   */\n  tag_71\n    /* \"#utility.yul\":2654:2662   */\n  dup7\n    /* \"#utility.yul\":2643:2652   */\n  dup4\n    /* \"#utility.yul\":2624:2663   */\n  tag_29\n  jump\t// in\ntag_71:\n    /* \"#utility.yul\":2612:2663   */\n  swap6\n  pop\n    /* \"#utility.yul\":2696:2700   */\n  dup1\n    /* \"#utility.yul\":2692:2701   */\n  not\n    /* \"#utility.yul\":2685:2690   */\n  dup5\n    /* \"#utility.yul\":2681:2702   */\n  and\n    /* \"#utility.yul\":2672:2702   */\n  swap4\n  pop\n    /* \"#utility.yul\":2745:2749   */\n  dup1\n    /* \"#utility.yul\":2735:2743   */\n  dup7\n    /* \"#utility.yul\":2731:2750   */\n  and\n    /* \"#utility.yul\":2724:2729   */\n  dup5\n    /* \"#utility.yul\":2721:2751   */\n  or\n    /* \"#utility.yul\":2711:2751   */\n  swap3\n  pop\n    /* \"#utility.yul\":2440:2757   */\n  pop\n  pop\n    /* \"#utility.yul\":2364:2757   */\n  swap4\n  swap3\n  pop\n  pop\n  pop\n  jump\t// out\n    /* \"#utility.yul\":2763:2840   */\ntag_31:\n    /* \"#utility.yul\":2800:2807   */\n  0x00\n    /* \"#utility.yul\":2829:2834   */\n  dup2\n    /* \"#utility.yul\":2818:2834   */\n  swap1\n  pop\n    /* \"#utility.yul\":2763:2840   */\n  swap2\n  swap1\n  pop\n  jump\t// out\n    /* \"#utility.yul\":2846:2906   */\ntag_32:\n    /* \"#utility.yul\":2874:2877   */\n  0x00\n    /* \"#utility.yul\":2895:2900   */\n  dup2\n    /* \"#utility.yul\":2888:2900   */\n  swap1\n  pop\n    /* \"#utility.yul\":2846:2906   */\n  swap2\n  swap1\n  pop\n  jump\t// out\n    /* \"#utility.yul\":2912:3054   */\ntag_33:\n    /* \"#utility.yul\":2962:2971   */\n  0x00\n    /* \"#utility.yul\":2995:3048   */\n  tag_75\n    /* \"#utility.yul\":3013:3047   */\n  tag_76\n    /* \"#utility.yul\":3022:3046   */\n  tag_77\n    /* \"#utility.yul\":3040:3045   */\n  dup5\n    /* \"#utility.yul\":3022:3046   */\n  tag_31\n  jump\t// in\ntag_77:\n    /* \"#utility.yul\":3013:3047   */\n  tag_32\n  jump\t// in\ntag_76:\n    /* \"#utility.yul\":2995:3048   */\n  tag_31\n  jump\t// in\ntag_75:\n    /* \"#utility.yul\":2982:3048   */\n  swap1\n  pop\n    /* \"#utility.yul\":2912:3054   */\n  swap2\n  swap1\n  pop\n  jump\t// out\n    /* \"#utility.yul\":3060:3135   */\ntag_34:\n    /* \"#utility.yul\":3103:3106   */\n  0x00\n    /* \"#utility.yul\":3124:3129   */\n  dup2\n    /* \"#utility.yul\":3117:3129   */\n  swap1\n  pop\n    /* \"#utility.yul\":3060:3135   */\n  swap2\n  swap1\n  pop\n  jump\t// out\n    /* \"#utility.yul\":3141:3410   */\ntag_35:\n    /* \"#utility.yul\":3251:3290   */\n  tag_80\n    /* \"#utility.yul\":3282:3289   */\n  dup4\n    /* \"#utility.yul\":3251:3290   */\n  tag_33\n  jump\t// in\ntag_80:\n    /* \"#utility.yul\":3312:3403   */\n  tag_81\n    /* \"#utility.yul\":3361:3402   */\n  tag_82\n    /* \"#utility.yul\":3385:3401   */\n  dup3\n    /* \"#utility.yul\":3361:3402   */\n  tag_34\n  jump\t// in\ntag_82:\n    /* \"#utility.yul\":3353:3359   */\n  dup5\n    /* \"#utility.yul\":3346:3350   */\n  dup5\n    /* \"#utility.yul\":3340:3351   */\n  sload\n    /* \"#utility.yul\":3312:3403   */\n  tag_30\n  jump\t// in\ntag_81:\n    /* \"#utility.yul\":3306:3310   */\n  dup3\n    /* \"#utility.yul\":3299:3404   */\n  sstore\n    /* \"#utility.yul\":3217:3410   */\n  pop\n    /* \"#utility.yul\":3141:3410   */\n  pop\n  pop\n  pop\n  jump\t// out\n    /* \"#utility.yul\":3416:3489   */\ntag_36:\n    /* \"#utility.yul\":3461:3464   */\n  0x00\n    /* \"#utility.yul\":3482:3483   */\n  0x00\n    /* \"#utility.yul\":3475:3483   */\n  swap1\n  pop\n    /* \"#utility.yul\":3416:3489   */\n  swap1\n  jump\t// out\n    /* \"#utility.yul\":3495:3684   */\ntag_37:\n    /* \"#utility.yul\":3572:3604   */\n  tag_85\n  tag_36\n  jump\t// in\ntag_85:\n    /* \"#utility.yul\":3613:3678   */\n  tag_86\n    /* \"#utility.yul\":3671:3677   */\n  dup2\n    /* \"#utility.yul\":3663:3669   */\n  dup5\n    /* \"#utility.yul\":3657:3661   */\n  dup5\n    /* \"#utility.yul\":3613:3678   */\n  tag_35\n  jump\t// in\ntag_86:\n    /* \"#utility.yul\":3548:3684   */\n  pop\n    /* \"#utility.yul\":3495:3684   */\n  pop\n  pop\n  jump\t// out\n    /* \"#utility.yul\":3690:3876   */\ntag_38:\n    /* \"#utility.yul\":3750:3870   */\ntag_88:\n    /* \"#utility.yul\":3767:3770   */\n  dup2\n    /* \"#utility.yul\":3760:3765   */\n  dup2\n    /* \"#utility.yul\":3757:3771   */\n  lt\n    /* \"#utility.yul\":3750:3870   */\n  iszero\n  tag_90\n  jumpi\n    /* \"#utility.yul\":3821:3860   */\n  tag_91\n    /* \"#utility.yul\":3858:3859   */\n  0x00\n    /* \"#utility.yul\":3851:3856   */\n  dup3\n    /* \"#utility.yul\":3821:3860   */\n  tag_37\n  jump\t// in\ntag_91:\n    /* \"#utility.yul\":3794:3795   */\n  0x01\n    /* \"#utility.yul\":3787:3792   */\n  dup2\n    /* \"#utility.yul\":3783:3796   */\n  add\n    /* \"#utility.yul\":3774:3796   */\n  swap1\n  pop\n    /* \"#utility.yul\":3750:3870   */\n  jump(tag_88)\ntag_90:\n    /* \"#utility.yul\":3690:3876   */\n  pop\n  pop\n  jump\t// out\n    /* \"#utility.yul\":3882:4425   */\ntag_39:\n    /* \"#utility.yul\":3983:3985   */\n  0x1f\n    /* \"#utility.yul\":3978:3981   */\n  dup3\n    /* \"#utility.yul\":3975:3986   */\n  gt\n    /* \"#utility.yul\":3972:4418   */\n  iszero\n  tag_93\n  jumpi\n    /* \"#utility.yul\":4017:4055   */\n  tag_94\n    /* \"#utility.yul\":4049:4054   */\n  dup2\n    /* \"#utility.yul\":4017:4055   */\n  tag_27\n  jump\t// in\ntag_94:\n    /* \"#utility.yul\":4101:4130   */\n  tag_95\n    /* \"#utility.yul\":4119:4129   */\n  dup5\n    /* \"#utility.yul\":4101:4130   */\n  tag_28\n  jump\t// in\ntag_95:\n    /* \"#utility.yul\":4091:4099   */\n  dup2\n    /* \"#utility.yul\":4087:4131   */\n  add\n    /* \"#utility.yul\":4284:4286   */\n  0x20\n    /* \"#utility.yul\":4272:4282   */\n  dup6\n    /* \"#utility.yul\":4269:4287   */\n  lt\n    /* \"#utility.yul\":4266:4315   */\n  iszero\n  tag_96\n  jumpi\n    /* \"#utility.yul\":4305:4313   */\n  dup2\n    /* \"#utility.yul\":4290:4313   */\n  swap1\n  pop\n    /* \"#utility.yul\":4266:4315   */\ntag_96:\n    /* \"#utility.yul\":4328:4408   */\n  tag_97\n    /* \"#utility.yul\":4384:4406   */\n  tag_98\n    /* \"#utility.yul\":4402:4405   */\n  dup6\n    /* \"#utility.yul\":4384:4406   */\n  tag_28\n  jump\t// in\ntag_98:\n    /* \"#utility.yul\":4374:4382   */\n  dup4\n    /* \"#utility.yul\":4370:4407   */\n  add\n    /* \"#utility.yul\":4357:4368   */\n  dup3\n    /* \"#utility.yul\":4328:4408   */\n  tag_38\n  jump\t// in\ntag_97:\n    /* \"#utility.yul\":3987:4418   */\n  pop\n  pop\n    /* \"#utility.yul\":3972:4418   */\ntag_93:\n    /* \"#utility.yul\":3882:4425   */\n  pop\n  pop\n  pop\n  jump\t// out\n    /* \"#utility.yul\":4431:4548   */\ntag_40:\n    /* \"#utility.yul\":4485:4493   */\n  0x00\n    /* \"#utility.yul\":4535:4540   */\n  dup3\n    /* \"#utility.yul\":4529:4533   */\n  dup3\n    /* \"#utility.yul\":4525:4541   */\n  shr\n    /* \"#utility.yul\":4504:4541   */\n  swap1\n  pop\n    /* \"#utility.yul\":4431:4548   */\n  swap3\n  swap2\n  pop\n  pop\n  jump\t// out\n    /* \"#utility.yul\":4554:4723   */\ntag_41:\n    /* \"#utility.yul\":4598:4604   */\n  0x00\n    /* \"#utility.yul\":4631:4682   */\n  tag_101\n    /* \"#utility.yul\":4679:4680   */\n  0x00\n    /* \"#utility.yul\":4675:4681   */\n  not\n    /* \"#utility.yul\":4667:4672   */\n  dup5\n    /* \"#utility.yul\":4664:4665   */\n  0x08\n    /* \"#utility.yul\":4660:4673   */\n  mul\n    /* \"#utility.yul\":4631:4682   */\n  tag_40\n  jump\t// in\ntag_101:\n    /* \"#utility.yul\":4627:4683   */\n  not\n    /* \"#utility.yul\":4712:4716   */\n  dup1\n    /* \"#utility.yul\":4706:4710   */\n  dup4\n    /* \"#utility.yul\":4702:4717   */\n  and\n    /* \"#utility.yul\":4692:4717   */\n  swap2\n  pop\n    /* \"#utility.yul\":4605:4723   */\n  pop\n    /* \"#utility.yul\":4554:4723   */\n  swap3\n  swap2\n  pop\n  pop\n  jump\t// out\n    /* \"#utility.yul\":4728:5023   */\ntag_42:\n    /* \"#utility.yul\":4804:4808   */\n  0x00\n    /* \"#utility.yul\":4950:4979   */\n  tag_103\n    /* \"#utility.yul\":4975:4978   */\n  dup4\n    /* \"#utility.yul\":4969:4973   */\n  dup4\n    /* \"#utility.yul\":4950:4979   */\n  tag_41\n  jump\t// in\ntag_103:\n    /* \"#utility.yul\":4942:4979   */\n  swap2\n  pop\n    /* \"#utility.yul\":5012:5015   */\n  dup3\n    /* \"#utility.yul\":5009:5010   */\n  0x02\n    /* \"#utility.yul\":5005:5016   */\n  mul\n    /* \"#utility.yul\":4999:5003   */\n  dup3\n    /* \"#utility.yul\":4996:5017   */\n  or\n    /* \"#utility.yul\":4988:5017   */\n  swap1\n  pop\n    /* \"#utility.yul\":4728:5023   */\n  swap3\n  swap2\n  pop\n  pop\n  jump\t// out\n    /* \"#utility.yul\":5028:6423   */\ntag_8:\n    /* \"#utility.yul\":5145:5182   */\n  tag_105\n    /* \"#utility.yul\":5178:5181   */\n  dup3\n    /* \"#utility.yul\":5145:5182   */\n  tag_23\n  jump\t// in\ntag_105:\n    /* \"#utility.yul\":5247:5265   */\n  0xffffffffffffffff\n    /* \"#utility.yul\":5239:5245   */\n  dup2\n    /* \"#utility.yul\":5236:5266   */\n  gt\n    /* \"#utility.yul\":5233:5289   */\n  iszero\n  tag_106\n  jumpi\n    /* \"#utility.yul\":5269:5287   */\n  tag_107\n  tag_24\n  jump\t// in\ntag_107:\n    /* \"#utility.yul\":5233:5289   */\ntag_106:\n    /* \"#utility.yul\":5313:5351   */\n  tag_108\n    /* \"#utility.yul\":5345:5349   */\n  dup3\n    /* \"#utility.yul\":5339:5350   */\n  sload\n    /* \"#utility.yul\":5313:5351   */\n  tag_26\n  jump\t// in\ntag_108:\n    /* \"#utility.yul\":5398:5465   */\n  tag_109\n    /* \"#utility.yul\":5458:5464   */\n  dup3\n    /* \"#utility.yul\":5450:5456   */\n  dup3\n    /* \"#utility.yul\":5444:5448   */\n  dup6\n    /* \"#utility.yul\":5398:5465   */\n  tag_39\n  jump\t// in\ntag_109:\n    /* \"#utility.yul\":5492:5493   */\n  0x00\n    /* \"#utility.yul\":5516:5520   */\n  0x20\n    /* \"#utility.yul\":5503:5520   */\n  swap1\n  pop\n    /* \"#utility.yul\":5548:5550   */\n  0x1f\n    /* \"#utility.yul\":5540:5546   */\n  dup4\n    /* \"#utility.yul\":5537:5551   */\n  gt\n    /* \"#utility.yul\":5565:5566   */\n  0x01\n    /* \"#utility.yul\":5560:6178   */\n  dup2\n  eq\n  tag_111\n  jumpi\n    /* \"#utility.yul\":6222:6223   */\n  0x00\n    /* \"#utility.yul\":6239:6245   */\n  dup5\n    /* \"#utility.yul\":6236:6313   */\n  iszero\n  tag_112\n  jumpi\n    /* \"#utility.yul\":6288:6297   */\n  dup3\n    /* \"#utility.yul\":6283:6286   */\n  dup8\n    /* \"#utility.yul\":6279:6298   */\n  add\n    /* \"#utility.yul\":6273:6299   */\n  mload\n    /* \"#utility.yul\":6264:6299   */\n  swap1\n  pop\n    /* \"#utility.yul\":6236:6313   */\ntag_112:\n    /* \"#utility.yul\":6339:6406   */\n  tag_113\n    /* \"#utility.yul\":6399:6405   */\n  dup6\n    /* \"#utility.yul\":6392:6397   */\n  dup3\n    /* \"#utility.yul\":6339:6406   */\n  tag_42\n  jump\t// in\ntag_113:\n    /* \"#utility.yul\":6333:6337   */\n  dup7\n    /* \"#utility.yul\":6326:6407   */\n  sstore\n    /* \"#utility.yul\":6195:6417   */\n  pop\n    /* \"#utility.yul\":5530:6417   */\n  jump(tag_110)\n    /* \"#utility.yul\":5560:6178   */\ntag_111:\n    /* \"#utility.yul\":5612:5616   */\n  0x1f\n    /* \"#utility.yul\":5608:5617   */\n  not\n    /* \"#utility.yul\":5600:5606   */\n  dup5\n    /* \"#utility.yul\":5596:5618   */\n  and\n    /* \"#utility.yul\":5646:5683   */\n  tag_114\n    /* \"#utility.yul\":5678:5682   */\n  dup7\n    /* \"#utility.yul\":5646:5683   */\n  tag_27\n  jump\t// in\ntag_114:\n    /* \"#utility.yul\":5705:5706   */\n  0x00\n    /* \"#utility.yul\":5719:5927   */\ntag_115:\n    /* \"#utility.yul\":5733:5740   */\n  dup3\n    /* \"#utility.yul\":5730:5731   */\n  dup2\n    /* \"#utility.yul\":5727:5741   */\n  lt\n    /* \"#utility.yul\":5719:5927   */\n  iszero\n  tag_117\n  jumpi\n    /* \"#utility.yul\":5812:5821   */\n  dup5\n    /* \"#utility.yul\":5807:5810   */\n  dup10\n    /* \"#utility.yul\":5803:5822   */\n  add\n    /* \"#utility.yul\":5797:5823   */\n  mload\n    /* \"#utility.yul\":5789:5795   */\n  dup3\n    /* \"#utility.yul\":5782:5824   */\n  sstore\n    /* \"#utility.yul\":5863:5864   */\n  0x01\n    /* \"#utility.yul\":5855:5861   */\n  dup3\n    /* \"#utility.yul\":5851:5865   */\n  add\n    /* \"#utility.yul\":5841:5865   */\n  swap2\n  pop\n    /* \"#utility.yul\":5910:5912   */\n  0x20\n    /* \"#utility.yul\":5899:5908   */\n  dup6\n    /* \"#utility.yul\":5895:5913   */\n  add\n    /* \"#utility.yul\":5882:5913   */\n  swap5\n  pop\n    /* \"#utility.yul\":5756:5760   */\n  0x20\n    /* \"#utility.yul\":5753:5754   */\n  dup2\n    /* \"#utility.yul\":5749:5761   */\n  add\n    /* \"#utility.yul\":5744:5761   */\n  swap1\n  pop\n    /* \"#utility.yul\":5719:5927   */\n  jump(tag_115)\ntag_117:\n    /* \"#utility.yul\":5955:5961   */\n  dup7\n    /* \"#utility.yul\":5946:5953   */\n  dup4\n    /* \"#utility.yul\":5943:5962   */\n  lt\n    /* \"#utility.yul\":5940:6119   */\n  iszero\n  tag_118\n  jumpi\n    /* \"#utility.yul\":6013:6022   */\n  dup5\n    /* \"#utility.yul\":6008:6011   */\n  dup10\n    /* \"#utility.yul\":6004:6023   */\n  add\n    /* \"#utility.yul\":5998:6024   */\n  mload\n    /* \"#utility.yul\":6056:6104   */\n  tag_119\n    /* \"#utility.yul\":6098:6102   */\n  0x1f\n    /* \"#utility.yul\":6090:6096   */\n  dup10\n    /* \"#utility.yul\":6086:6103   */\n  and\n    /* \"#utility.yul\":6075:6084   */\n  dup3\n    /* \"#utility.yul\":6056:6104   */\n  tag_41\n  jump\t// in\ntag_119:\n    /* \"#utility.yul\":6048:6054   */\n  dup4\n    /* \"#utility.yul\":6041:6105   */\n  sstore\n    /* \"#utility.yul\":5963:6119   */\n  pop\n    /* \"#utility.yul\":5940:6119   */\ntag_118:\n    /* \"#utility.yul\":6165:6166   */\n  0x01\n    /* \"#utility.yul\":6161:6162   */\n  0x02\n    /* \"#utility.yul\":6153:6159   */\n  dup9\n    /* \"#utility.yul\":6149:6163   */\n  mul\n    /* \"#utility.yul\":6145:6167   */\n  add\n    /* \"#utility.yul\":6139:6143   */\n  dup9\n    /* \"#utility.yul\":6132:6168   */\n  sstore\n    /* \"#utility.yul\":5567:6178   */\n  pop\n  pop\n  pop\n    /* \"#utility.yul\":5530:6417   */\ntag_110:\n  pop\n    /* \"#utility.yul\":5120:6423   */\n  pop\n  pop\n  pop\n    /* \"#utility.yul\":5028:6423   */\n  pop\n  pop\n  jump\t// out\n    /* \"contracts/LandRegistryNFT.sol\":137:4679  contract LandRegistryNFT is ERC721, AccessControl {... */\ntag_14:\n  dataSize(sub_0)\n  dup1\n  dataOffset(sub_0)\n  0x00\n  codecopy\n  0x00\n  return\nstop\n\nsub_0: assembly {\n        /* \"contracts/LandRegistryNFT.sol\":137:4679  contract LandRegistryNFT is ERC721, AccessControl {... */\n      mstore(0x40, 0x80)\n      callvalue\n      dup1\n      iszero\n      tag_1\n      jumpi\n      revert(0x00, 0x00)\n    tag_1:\n      pop\n      jumpi(tag_2, lt(calldatasize, 0x04))\n      shr(0xe0, calldataload(0x00))\n      dup1\n      0x95d89b41\n      gt\n      tag_21\n      jumpi\n      dup1\n      0xaf92a693\n      gt\n      tag_22\n      jumpi\n      dup1\n      0xaf92a693\n      eq\n      tag_16\n      jumpi\n      dup1\n      0xb9238fb3\n      eq\n      tag_17\n      jumpi\n      dup1\n      0xba904eed\n      eq\n      tag_18\n      jumpi\n      dup1\n      0xbdca2f67\n      eq\n      tag_19\n      jumpi\n      dup1\n      0xf68e9553\n      eq\n      tag_20\n      jumpi\n      jump(tag_2)\n    tag_22:\n      dup1\n      0x95d89b41\n      eq\n      tag_12\n      jumpi\n      dup1\n      0xa0fa8ede\n      eq\n      tag_13\n      jumpi\n      dup1\n      0xa217fddf\n      eq\n      tag_14\n      jumpi\n      dup1\n      0xa3384f83\n      eq\n      tag_15\n      jumpi\n      jump(tag_2)\n    tag_21:\n      dup1\n      0x6352211e\n      gt\n      tag_23\n      jumpi\n      dup1\n      0x6352211e\n      eq\n      tag_7\n      jumpi\n      dup1\n      0x6b5b94f3\n      eq\n      tag_8\n      jumpi\n      dup1\n      0x70a08231\n      eq\n      tag_9\n      jumpi\n      dup1\n      0x7ad00f60\n      eq\n      tag_10\n      jumpi\n      dup1\n      0x91d14854\n      eq\n      tag_11\n      jumpi\n      jump(tag_2)\n    tag_23:\n      dup1\n      0x06fdde03\n      eq\n      tag_3\n      jumpi\n      dup1\n      0x22bdfd0e\n      eq\n      tag_4\n      jumpi\n      dup1\n      0x4d0434f2\n      eq\n      tag_5\n      jumpi\n      dup1\n      0x4f1c4b84\n      eq\n      tag_6\n      jumpi\n    tag_2:\n      revert(0x00, 0x00)\n        /* \"contracts/ERC721.sol\":121:139  string public name */\n    tag_3:\n      tag_24\n      tag_25\n      jump\t// in\n    tag_24:\n      mload(0x40)\n      tag_26\n      swap2\n      swap1\n      tag_27\n      jump\t// in\n    tag_26:\n      mload(0x40)\n      dup1\n      swap2\n      sub\n      swap1\n      return\n        /* \"contracts/LandRegistryNFT.sol\":1616:2476  function registerParcel(... */\n    tag_4:\n      tag_28\n      0x04\n      dup1\n      calldatasize\n      sub\n      dup2\n      add\n      swap1\n      tag_29\n      swap2\n      swap1\n      tag_30\n      jump\t// in\n    tag_29:\n      tag_31\n      jump\t// in\n    tag_28:\n      mload(0x40)\n      tag_32\n      swap2\n      swap1\n      tag_33\n      jump\t// in\n    tag_32:\n      mload(0x40)\n      dup1\n      swap2\n      sub\n      swap1\n      return\n        /* \"contracts/LandRegistryNFT.sol\":3821:4204  function getParcel(uint256 tokenId)... */\n    tag_5:\n      tag_34\n      0x04\n      dup1\n      calldatasize\n      sub\n      dup2\n      add\n      swap1\n      tag_35\n      swap2\n      swap1\n      tag_36\n      jump\t// in\n    tag_35:\n      tag_37\n      jump\t// in\n    tag_34:\n      mload(0x40)\n      tag_38\n      swap7\n      swap6\n      swap5\n      swap4\n      swap3\n      swap2\n      swap1\n      tag_39\n      jump\t// in\n    tag_38:\n      mload(0x40)\n      dup1\n      swap2\n      sub\n      swap1\n      return\n        /* \"contracts/LandRegistryNFT.sol\":2482:2809  function safeTransferParcel(uint256 tokenId, address to) external onlyActive(tokenId) {... */\n    tag_6:\n      tag_40\n      0x04\n      dup1\n      calldatasize\n      sub\n      dup2\n      add\n      swap1\n      tag_41\n      swap2\n      swap1\n      tag_42\n      jump\t// in\n    tag_41:\n      tag_43\n      jump\t// in\n    tag_40:\n      stop\n        /* \"contracts/ERC721.sol\":642:836  function ownerOf(uint256 tokenId) public view returns (address) {... */\n    tag_7:\n      tag_44\n      0x04\n      dup1\n      calldatasize\n      sub\n      dup2\n      add\n      swap1\n      tag_45\n      swap2\n      swap1\n      tag_36\n      jump\t// in\n    tag_45:\n      tag_46\n      jump\t// in\n    tag_44:\n      mload(0x40)\n      tag_47\n      swap2\n      swap1\n      tag_48\n      jump\t// in\n    tag_47:\n      mload(0x40)\n      dup1\n      swap2\n      sub\n      swap1\n      return\n        /* \"contracts/LandRegistryNFT.sol\":3385:3815  function updateParcelMetadata(uint256 tokenId, string calldata newCoordinatesHash, string calldata newOwnerIdHash)... */\n    tag_8:\n      tag_49\n      0x04\n      dup1\n      calldatasize\n      sub\n      dup2\n      add\n      swap1\n      tag_50\n      swap2\n      swap1\n      tag_51\n      jump\t// in\n    tag_50:\n      tag_52\n      jump\t// in\n    tag_49:\n      stop\n        /* \"contracts/ERC721.sol\":478:636  function balanceOf(address owner) public view returns (uint256) {... */\n    tag_9:\n      tag_53\n      0x04\n      dup1\n      calldatasize\n      sub\n      dup2\n      add\n      swap1\n      tag_54\n      swap2\n      swap1\n      tag_55\n      jump\t// in\n    tag_54:\n      tag_56\n      jump\t// in\n    tag_53:\n      mload(0x40)\n      tag_57\n      swap2\n      swap1\n      tag_33\n      jump\t// in\n    tag_57:\n      mload(0x40)\n      dup1\n      swap2\n      sub\n      swap1\n      return\n        /* \"contracts/LandRegistryNFT.sol\":658:709  mapping(uint256 => string[]) public parcelDocuments */\n    tag_10:\n      tag_58\n      0x04\n      dup1\n      calldatasize\n      sub\n      dup2\n      add\n      swap1\n      tag_59\n      swap2\n      swap1\n      tag_60\n      jump\t// in\n    tag_59:\n      tag_61\n      jump\t// in\n    tag_58:\n      mload(0x40)\n      tag_62\n      swap2\n      swap1\n      tag_27\n      jump\t// in\n    tag_62:\n      mload(0x40)\n      dup1\n      swap2\n      sub\n      swap1\n      return\n        /* \"contracts/AccessControl.sol\":531:659  function hasRole(bytes32 role, address account) public view returns (bool) {... */\n    tag_11:\n      tag_63\n      0x04\n      dup1\n      calldatasize\n      sub\n      dup2\n      add\n      swap1\n      tag_64\n      swap2\n      swap1\n      tag_65\n      jump\t// in\n    tag_64:\n      tag_66\n      jump\t// in\n    tag_63:\n      mload(0x40)\n      tag_67\n      swap2\n      swap1\n      tag_68\n      jump\t// in\n    tag_67:\n      mload(0x40)\n      dup1\n      swap2\n      sub\n      swap1\n      return\n        /* \"contracts/ERC721.sol\":145:165  string public symbol */\n    tag_12:\n      tag_69\n      tag_70\n      jump\t// in\n    tag_69:\n      mload(0x40)\n      tag_71\n      swap2\n      swap1\n      tag_27\n      jump\t// in\n    tag_71:\n      mload(0x40)\n      dup1\n      swap2\n      sub\n      swap1\n      return\n        /* \"contracts/LandRegistryNFT.sol\":611:652  mapping(uint256 => Parcel) public parcels */\n    tag_13:\n      tag_72\n      0x04\n      dup1\n      calldatasize\n      sub\n      dup2\n      add\n      swap1\n      tag_73\n      swap2\n      swap1\n      tag_36\n      jump\t// in\n    tag_73:\n      tag_74\n      jump\t// in\n    tag_72:\n      mload(0x40)\n      tag_75\n      swap7\n      swap6\n      swap5\n      swap4\n      swap3\n      swap2\n      swap1\n      tag_76\n      jump\t// in\n    tag_75:\n      mload(0x40)\n      dup1\n      swap2\n      sub\n      swap1\n      return\n        /* \"contracts/AccessControl.sol\":217:266  bytes32 public constant DEFAULT_ADMIN_ROLE = 0x00 */\n    tag_14:\n      tag_77\n      tag_78\n      jump\t// in\n    tag_77:\n      mload(0x40)\n      tag_79\n      swap2\n      swap1\n      tag_80\n      jump\t// in\n    tag_79:\n      mload(0x40)\n      dup1\n      swap2\n      sub\n      swap1\n      return\n        /* \"contracts/LandRegistryNFT.sol\":3120:3379  function addParcelDocument(uint256 tokenId, string calldata docHash) external onlyRegistrar {... */\n    tag_15:\n      tag_81\n      0x04\n      dup1\n      calldatasize\n      sub\n      dup2\n      add\n      swap1\n      tag_82\n      swap2\n      swap1\n      tag_83\n      jump\t// in\n    tag_82:\n      tag_84\n      jump\t// in\n    tag_81:\n      stop\n        /* \"contracts/LandRegistryNFT.sol\":4409:4538  function addRegistrar(address account) external onlyRole(DEFAULT_ADMIN_ROLE) {... */\n    tag_16:\n      tag_85\n      0x04\n      dup1\n      calldatasize\n      sub\n      dup2\n      add\n      swap1\n      tag_86\n      swap2\n      swap1\n      tag_55\n      jump\t// in\n    tag_86:\n      tag_87\n      jump\t// in\n    tag_85:\n      stop\n        /* \"contracts/LandRegistryNFT.sol\":2815:3114  function setParcelStatus(uint256 tokenId, ParcelStatus newStatus, string calldata reason)... */\n    tag_17:\n      tag_88\n      0x04\n      dup1\n      calldatasize\n      sub\n      dup2\n      add\n      swap1\n      tag_89\n      swap2\n      swap1\n      tag_90\n      jump\t// in\n    tag_89:\n      tag_91\n      jump\t// in\n    tag_88:\n      stop\n        /* \"contracts/LandRegistryNFT.sol\":4544:4677  function removeRegistrar(address account) external onlyRole(DEFAULT_ADMIN_ROLE) {... */\n    tag_18:\n      tag_92\n      0x04\n      dup1\n      calldatasize\n      sub\n      dup2\n      add\n      swap1\n      tag_93\n      swap2\n      swap1\n      tag_55\n      jump\t// in\n    tag_93:\n      tag_94\n      jump\t// in\n    tag_92:\n      stop\n        /* \"contracts/LandRegistryNFT.sol\":4210:4403  function getParcelDocuments(uint256 tokenId) external view returns (string[] memory) {... */\n    tag_19:\n      tag_95\n      0x04\n      dup1\n      calldatasize\n      sub\n      dup2\n      add\n      swap1\n      tag_96\n      swap2\n      swap1\n      tag_36\n      jump\t// in\n    tag_96:\n      tag_97\n      jump\t// in\n    tag_95:\n      mload(0x40)\n      tag_98\n      swap2\n      swap1\n      tag_99\n      jump\t// in\n    tag_98:\n      mload(0x40)\n      dup1\n      swap2\n      sub\n      swap1\n      return\n        /* \"contracts/LandRegistryNFT.sol\":235:303  bytes32 public constant REGISTRAR_ROLE = keccak256(\"REGISTRAR_ROLE\") */\n    tag_20:\n      tag_100\n      tag_101\n      jump\t// in\n    tag_100:\n      mload(0x40)\n      tag_102\n      swap2\n      swap1\n      tag_80\n      jump\t// in\n    tag_102:\n      mload(0x40)\n      dup1\n      swap2\n      sub\n      swap1\n      return\n        /* \"contracts/ERC721.sol\":121:139  string public name */\n    tag_25:\n      0x00\n      dup1\n      sload\n      tag_103\n      swap1\n      tag_104\n      jump\t// in\n    tag_103:\n      dup1\n      0x1f\n      add\n      0x20\n      dup1\n      swap2\n      div\n      mul\n      0x20\n      add\n      mload(0x40)\n      swap1\n      dup2\n      add\n      0x40\n      mstore\n      dup1\n      swap3\n      swap2\n      swap1\n      dup2\n      dup2\n      mstore\n      0x20\n      add\n      dup3\n      dup1\n      sload\n      tag_105\n      swap1\n      tag_104\n      jump\t// in\n    tag_105:\n      dup1\n      iszero\n      tag_106\n      jumpi\n      dup1\n      0x1f\n      lt\n      tag_107\n      jumpi\n      0x0100\n      dup1\n      dup4\n      sload\n      div\n      mul\n      dup4\n      mstore\n      swap2\n      0x20\n      add\n      swap2\n      jump(tag_106)\n    tag_107:\n      dup3\n      add\n      swap2\n      swap1\n      0x00\n      mstore\n      keccak256(0x00, 0x20)\n      swap1\n    tag_108:\n      dup2\n      sload\n      dup2\n      mstore\n      swap1\n      0x01\n      add\n      swap1\n      0x20\n      add\n      dup1\n      dup4\n      gt\n      tag_108\n      jumpi\n      dup3\n      swap1\n      sub\n      0x1f\n      and\n      dup3\n      add\n      swap2\n    tag_106:\n      pop\n      pop\n      pop\n      pop\n      pop\n      dup2\n      jump\t// out\n        /* \"contracts/LandRegistryNFT.sol\":1616:2476  function registerParcel(... */\n    tag_31:\n        /* \"contracts/LandRegistryNFT.sol\":1845:1852  uint256 */\n      0x00\n        /* \"contracts/LandRegistryNFT.sol\":1332:1367  hasRole(REGISTRAR_ROLE, msg.sender) */\n      tag_110\n        /* \"contracts/LandRegistryNFT.sol\":276:303  keccak256(\"REGISTRAR_ROLE\") */\n      0xedcc084d3dcd65a1f7f23c65c46722faca6953d28e43150a467cf43e5c309238\n        /* \"contracts/LandRegistryNFT.sol\":1356:1366  msg.sender */\n      caller\n        /* \"contracts/LandRegistryNFT.sol\":1332:1339  hasRole */\n      tag_66\n        /* \"contracts/LandRegistryNFT.sol\":1332:1367  hasRole(REGISTRAR_ROLE, msg.sender) */\n      jump\t// in\n    tag_110:\n        /* \"contracts/LandRegistryNFT.sol\":1324:1385  require(hasRole(REGISTRAR_ROLE, msg.sender), \"Not registrar\") */\n      tag_111\n      jumpi\n      mload(0x40)\n      0x08c379a000000000000000000000000000000000000000000000000000000000\n      dup2\n      mstore\n      0x04\n      add\n      tag_112\n      swap1\n      tag_113\n      jump\t// in\n    tag_112:\n      mload(0x40)\n      dup1\n      swap2\n      sub\n      swap1\n      revert\n    tag_111:\n        /* \"contracts/LandRegistryNFT.sol\":1889:1890  0 */\n      0x00\n        /* \"contracts/LandRegistryNFT.sol\":1872:1891  owner != address(0) */\n      0xffffffffffffffffffffffffffffffffffffffff\n      and\n        /* \"contracts/LandRegistryNFT.sol\":1872:1877  owner */\n      dup11\n        /* \"contracts/LandRegistryNFT.sol\":1872:1891  owner != address(0) */\n      0xffffffffffffffffffffffffffffffffffffffff\n      and\n      sub\n        /* \"contracts/LandRegistryNFT.sol\":1864:1909  require(owner != address(0), \"Invalid owner\") */\n      tag_115\n      jumpi\n      mload(0x40)\n      0x08c379a000000000000000000000000000000000000000000000000000000000\n      dup2\n      mstore\n      0x04\n      add\n      tag_116\n      swap1\n      tag_117\n      jump\t// in\n    tag_116:\n      mload(0x40)\n      dup1\n      swap2\n      sub\n      swap1\n      revert\n    tag_115:\n        /* \"contracts/LandRegistryNFT.sol\":1952:1953  0 */\n      0x00\n        /* \"contracts/LandRegistryNFT.sol\":1933:1941  lrNumber */\n      dup10\n      dup10\n        /* \"contracts/LandRegistryNFT.sol\":1927:1949  bytes(lrNumber).length */\n      swap1\n      pop\n        /* \"contracts/LandRegistryNFT.sol\":1927:1953  bytes(lrNumber).length > 0 */\n      gt\n        /* \"contracts/LandRegistryNFT.sol\":1919:1976  require(bytes(lrNumber).length > 0, \"LR number required\") */\n      tag_118\n      jumpi\n      mload(0x40)\n      0x08c379a000000000000000000000000000000000000000000000000000000000\n      dup2\n      mstore\n      0x04\n      add\n      tag_119\n      swap1\n      tag_120\n      jump\t// in\n    tag_119:\n      mload(0x40)\n      dup1\n      swap2\n      sub\n      swap1\n      revert\n    tag_118:\n        /* \"contracts/LandRegistryNFT.sol\":1987:2014  _tokenIdCounter.increment() */\n      tag_121\n        /* \"contracts/LandRegistryNFT.sol\":1987:2002  _tokenIdCounter */\n      0x05\n        /* \"contracts/LandRegistryNFT.sol\":1987:2012  _tokenIdCounter.increment */\n      tag_122\n        /* \"contracts/LandRegistryNFT.sol\":1987:2014  _tokenIdCounter.increment() */\n      jump\t// in\n    tag_121:\n        /* \"contracts/LandRegistryNFT.sol\":2024:2039  uint256 tokenId */\n      0x00\n        /* \"contracts/LandRegistryNFT.sol\":2042:2067  _tokenIdCounter.current() */\n      tag_123\n        /* \"contracts/LandRegistryNFT.sol\":2042:2057  _tokenIdCounter */\n      0x05\n        /* \"contracts/LandRegistryNFT.sol\":2042:2065  _tokenIdCounter.current */\n      tag_124\n        /* \"contracts/LandRegistryNFT.sol\":2042:2067  _tokenIdCounter.current() */\n      jump\t// in\n    tag_123:\n        /* \"contracts/LandRegistryNFT.sol\":2024:2067  uint256 tokenId = _tokenIdCounter.current() */\n      swap1\n      pop\n        /* \"contracts/LandRegistryNFT.sol\":2078:2103  _safeMint(owner, tokenId) */\n      tag_125\n        /* \"contracts/LandRegistryNFT.sol\":2088:2093  owner */\n      dup12\n        /* \"contracts/LandRegistryNFT.sol\":2095:2102  tokenId */\n      dup3\n        /* \"contracts/LandRegistryNFT.sol\":2078:2087  _safeMint */\n      tag_126\n        /* \"contracts/LandRegistryNFT.sol\":2078:2103  _safeMint(owner, tokenId) */\n      jump\t// in\n    tag_125:\n        /* \"contracts/LandRegistryNFT.sol\":2133:2379  Parcel({... */\n      mload(0x40)\n      dup1\n      0xc0\n      add\n      0x40\n      mstore\n      dup1\n        /* \"contracts/LandRegistryNFT.sol\":2164:2172  lrNumber */\n      dup12\n      dup12\n        /* \"contracts/LandRegistryNFT.sol\":2133:2379  Parcel({... */\n      dup1\n      dup1\n      0x1f\n      add\n      0x20\n      dup1\n      swap2\n      div\n      mul\n      0x20\n      add\n      mload(0x40)\n      swap1\n      dup2\n      add\n      0x40\n      mstore\n      dup1\n      swap4\n      swap3\n      swap2\n      swap1\n      dup2\n      dup2\n      mstore\n      0x20\n      add\n      dup4\n      dup4\n      dup1\n      dup3\n      dup5\n      calldatacopy\n      0x00\n      dup2\n      dup5\n      add\n      mstore\n      not(0x1f)\n      0x1f\n      dup3\n      add\n      and\n      swap1\n      pop\n      dup1\n      dup4\n      add\n      swap3\n      pop\n      pop\n      pop\n      pop\n      pop\n      pop\n      pop\n      dup2\n      mstore\n      0x20\n      add\n        /* \"contracts/LandRegistryNFT.sol\":2194:2200  county */\n      dup10\n      dup10\n        /* \"contracts/LandRegistryNFT.sol\":2133:2379  Parcel({... */\n      dup1\n      dup1\n      0x1f\n      add\n      0x20\n      dup1\n      swap2\n      div\n      mul\n      0x20\n      add\n      mload(0x40)\n      swap1\n      dup2\n      add\n      0x40\n      mstore\n      dup1\n      swap4\n      swap3\n      swap2\n      swap1\n      dup2\n      dup2\n      mstore\n      0x20\n      add\n      dup4\n      dup4\n      dup1\n      dup3\n      dup5\n      calldatacopy\n      0x00\n      dup2\n      dup5\n      add\n      mstore\n      not(0x1f)\n      0x1f\n      dup3\n      add\n      and\n      swap1\n      pop\n      dup1\n      dup4\n      add\n      swap3\n      pop\n      pop\n      pop\n      pop\n      pop\n      pop\n      pop\n      dup2\n      mstore\n      0x20\n      add\n        /* \"contracts/LandRegistryNFT.sol\":2231:2246  coordinatesHash */\n      dup8\n      dup8\n        /* \"contracts/LandRegistryNFT.sol\":2133:2379  Parcel({... */\n      dup1\n      dup1\n      0x1f\n      add\n      0x20\n      dup1\n      swap2\n      div\n      mul\n      0x20\n      add\n      mload(0x40)\n      swap1\n      dup2\n      add\n      0x40\n      mstore\n      dup1\n      swap4\n      swap3\n      swap2\n      swap1\n      dup2\n      dup2\n      mstore\n      0x20\n      add\n      dup4\n      dup4\n      dup1\n      dup3\n      dup5\n      calldatacopy\n      0x00\n      dup2\n      dup5\n      add\n      mstore\n      not(0x1f)\n      0x1f\n      dup3\n      add\n      and\n      swap1\n      pop\n      dup1\n      dup4\n      add\n      swap3\n      pop\n      pop\n      pop\n      pop\n      pop\n      pop\n      pop\n      dup2\n      mstore\n      0x20\n      add\n        /* \"contracts/LandRegistryNFT.sol\":2273:2284  ownerIdHash */\n      dup6\n      dup6\n        /* \"contracts/LandRegistryNFT.sol\":2133:2379  Parcel({... */\n      dup1\n      dup1\n      0x1f\n      add\n      0x20\n      dup1\n      swap2\n      div\n      mul\n      0x20\n      add\n      mload(0x40)\n      swap1\n      dup2\n      add\n      0x40\n      mstore\n      dup1\n      swap4\n      swap3\n      swap2\n      swap1\n      dup2\n      dup2\n      mstore\n      0x20\n      add\n      dup4\n      dup4\n      dup1\n      dup3\n      dup5\n      calldatacopy\n      0x00\n      dup2\n      dup5\n      add\n      mstore\n      not(0x1f)\n      0x1f\n      dup3\n      add\n      and\n      swap1\n      pop\n      dup1\n      dup4\n      add\n      swap3\n      pop\n      pop\n      pop\n      pop\n      pop\n      pop\n      pop\n      dup2\n      mstore\n      0x20\n      add\n        /* \"contracts/LandRegistryNFT.sol\":2306:2325  ParcelStatus.Active */\n      0x00\n        /* \"contracts/LandRegistryNFT.sol\":2133:2379  Parcel({... */\n      0x03\n      dup2\n      gt\n      iszero\n      tag_127\n      jumpi\n      tag_128\n      tag_129\n      jump\t// in\n    tag_128:\n    tag_127:\n      dup2\n      mstore\n      0x20\n      add\n        /* \"contracts/LandRegistryNFT.sol\":2353:2368  block.timestamp */\n      timestamp\n        /* \"contracts/LandRegistryNFT.sol\":2133:2379  Parcel({... */\n      dup2\n      mstore\n      pop\n        /* \"contracts/LandRegistryNFT.sol\":2114:2121  parcels */\n      0x06\n        /* \"contracts/LandRegistryNFT.sol\":2114:2130  parcels[tokenId] */\n      0x00\n        /* \"contracts/LandRegistryNFT.sol\":2122:2129  tokenId */\n      dup4\n        /* \"contracts/LandRegistryNFT.sol\":2114:2130  parcels[tokenId] */\n      dup2\n      mstore\n      0x20\n      add\n      swap1\n      dup2\n      mstore\n      0x20\n      add\n      0x00\n      keccak256\n        /* \"contracts/LandRegistryNFT.sol\":2114:2379  parcels[tokenId] = Parcel({... */\n      0x00\n      dup3\n      add\n      mload\n      dup2\n      0x00\n      add\n      swap1\n      dup2\n      tag_130\n      swap2\n      swap1\n      tag_131\n      jump\t// in\n    tag_130:\n      pop\n      0x20\n      dup3\n      add\n      mload\n      dup2\n      0x01\n      add\n      swap1\n      dup2\n      tag_132\n      swap2\n      swap1\n      tag_131\n      jump\t// in\n    tag_132:\n      pop\n      0x40\n      dup3\n      add\n      mload\n      dup2\n      0x02\n      add\n      swap1\n      dup2\n      tag_133\n      swap2\n      swap1\n      tag_131\n      jump\t// in\n    tag_133:\n      pop\n      0x60\n      dup3\n      add\n      mload\n      dup2\n      0x03\n      add\n      swap1\n      dup2\n      tag_134\n      swap2\n      swap1\n      tag_131\n      jump\t// in\n    tag_134:\n      pop\n      0x80\n      dup3\n      add\n      mload\n      dup2\n      0x04\n      add\n      exp(0x0100, 0x00)\n      dup2\n      sload\n      dup2\n      0xff\n      mul\n      not\n      and\n      swap1\n      dup4\n      0x03\n      dup2\n      gt\n      iszero\n      tag_135\n      jumpi\n      tag_136\n      tag_129\n      jump\t// in\n    tag_136:\n    tag_135:\n      mul\n      or\n      swap1\n      sstore\n      pop\n      0xa0\n      dup3\n      add\n      mload\n      dup2\n      0x05\n      add\n      sstore\n      swap1\n      pop\n      pop\n        /* \"contracts/LandRegistryNFT.sol\":2439:2444  owner */\n      dup11\n        /* \"contracts/LandRegistryNFT.sol\":2395:2445  ParcelRegistered(tokenId, lrNumber, county, owner) */\n      0xffffffffffffffffffffffffffffffffffffffff\n      and\n        /* \"contracts/LandRegistryNFT.sol\":2412:2419  tokenId */\n      dup2\n        /* \"contracts/LandRegistryNFT.sol\":2395:2445  ParcelRegistered(tokenId, lrNumber, county, owner) */\n      0x2c9480c346df503f2f99e98b4234dfbfada212344a74d353e63500ceb9b7c19f\n        /* \"contracts/LandRegistryNFT.sol\":2421:2429  lrNumber */\n      dup13\n      dup13\n        /* \"contracts/LandRegistryNFT.sol\":2431:2437  county */\n      dup13\n      dup13\n        /* \"contracts/LandRegistryNFT.sol\":2395:2445  ParcelRegistered(tokenId, lrNumber, county, owner) */\n      mload(0x40)\n      tag_137\n      swap5\n      swap4\n      swap3\n      swap2\n      swap1\n      tag_138\n      jump\t// in\n    tag_137:\n      mload(0x40)\n      dup1\n      swap2\n      sub\n      swap1\n      log3\n        /* \"contracts/LandRegistryNFT.sol\":2462:2469  tokenId */\n      dup1\n        /* \"contracts/LandRegistryNFT.sol\":2455:2469  return tokenId */\n      swap2\n      pop\n      pop\n        /* \"contracts/LandRegistryNFT.sol\":1616:2476  function registerParcel(... */\n      swap10\n      swap9\n      pop\n      pop\n      pop\n      pop\n      pop\n      pop\n      pop\n      pop\n      pop\n      jump\t// out\n        /* \"contracts/LandRegistryNFT.sol\":3821:4204  function getParcel(uint256 tokenId)... */\n    tag_37:\n        /* \"contracts/LandRegistryNFT.sol\":3901:3914  string memory */\n      0x60\n        /* \"contracts/LandRegistryNFT.sol\":3916:3929  string memory */\n      dup1\n        /* \"contracts/LandRegistryNFT.sol\":3931:3944  string memory */\n      0x60\n        /* \"contracts/LandRegistryNFT.sol\":3946:3958  ParcelStatus */\n      0x00\n        /* \"contracts/LandRegistryNFT.sol\":3960:3967  uint256 */\n      0x00\n        /* \"contracts/LandRegistryNFT.sol\":3969:3976  address */\n      0x00\n        /* \"contracts/LandRegistryNFT.sol\":4009:4025  _exists(tokenId) */\n      tag_140\n        /* \"contracts/LandRegistryNFT.sol\":4017:4024  tokenId */\n      dup8\n        /* \"contracts/LandRegistryNFT.sol\":4009:4016  _exists */\n      tag_141\n        /* \"contracts/LandRegistryNFT.sol\":4009:4025  _exists(tokenId) */\n      jump\t// in\n    tag_140:\n        /* \"contracts/LandRegistryNFT.sol\":4001:4051  require(_exists(tokenId), \"Parcel does not exist\") */\n      tag_142\n      jumpi\n      mload(0x40)\n      0x08c379a000000000000000000000000000000000000000000000000000000000\n      dup2\n      mstore\n      0x04\n      add\n      tag_143\n      swap1\n      tag_144\n      jump\t// in\n    tag_143:\n      mload(0x40)\n      dup1\n      swap2\n      sub\n      swap1\n      revert\n    tag_142:\n        /* \"contracts/LandRegistryNFT.sol\":4061:4076  Parcel memory p */\n      0x00\n        /* \"contracts/LandRegistryNFT.sol\":4079:4086  parcels */\n      0x06\n        /* \"contracts/LandRegistryNFT.sol\":4079:4095  parcels[tokenId] */\n      0x00\n        /* \"contracts/LandRegistryNFT.sol\":4087:4094  tokenId */\n      dup10\n        /* \"contracts/LandRegistryNFT.sol\":4079:4095  parcels[tokenId] */\n      dup2\n      mstore\n      0x20\n      add\n      swap1\n      dup2\n      mstore\n      0x20\n      add\n      0x00\n      keccak256\n        /* \"contracts/LandRegistryNFT.sol\":4061:4095  Parcel memory p = parcels[tokenId] */\n      mload(0x40)\n      dup1\n      0xc0\n      add\n      0x40\n      mstore\n      swap1\n      dup2\n      0x00\n      dup3\n      add\n      dup1\n      sload\n      tag_145\n      swap1\n      tag_104\n      jump\t// in\n    tag_145:\n      dup1\n      0x1f\n      add\n      0x20\n      dup1\n      swap2\n      div\n      mul\n      0x20\n      add\n      mload(0x40)\n      swap1\n      dup2\n      add\n      0x40\n      mstore\n      dup1\n      swap3\n      swap2\n      swap1\n      dup2\n      dup2\n      mstore\n      0x20\n      add\n      dup3\n      dup1\n      sload\n      tag_146\n      swap1\n      tag_104\n      jump\t// in\n    tag_146:\n      dup1\n      iszero\n      tag_147\n      jumpi\n      dup1\n      0x1f\n      lt\n      tag_148\n      jumpi\n      0x0100\n      dup1\n      dup4\n      sload\n      div\n      mul\n      dup4\n      mstore\n      swap2\n      0x20\n      add\n      swap2\n      jump(tag_147)\n    tag_148:\n      dup3\n      add\n      swap2\n      swap1\n      0x00\n      mstore\n      keccak256(0x00, 0x20)\n      swap1\n    tag_149:\n      dup2\n      sload\n      dup2\n      mstore\n      swap1\n      0x01\n      add\n      swap1\n      0x20\n      add\n      dup1\n      dup4\n      gt\n      tag_149\n      jumpi\n      dup3\n      swap1\n      sub\n      0x1f\n      and\n      dup3\n      add\n      swap2\n    tag_147:\n      pop\n      pop\n      pop\n      pop\n      pop\n      dup2\n      mstore\n      0x20\n      add\n      0x01\n      dup3\n      add\n      dup1\n      sload\n      tag_150\n      swap1\n      tag_104\n      jump\t// in\n    tag_150:\n      dup1\n      0x1f\n      add\n      0x20\n      dup1\n      swap2\n      div\n      mul\n      0x20\n      add\n      mload(0x40)\n      swap1\n      dup2\n      add\n      0x40\n      mstore\n      dup1\n      swap3\n      swap2\n      swap1\n      dup2\n      dup2\n      mstore\n      0x20\n      add\n      dup3\n      dup1\n      sload\n      tag_151\n      swap1\n      tag_104\n      jump\t// in\n    tag_151:\n      dup1\n      iszero\n      tag_152\n      jumpi\n      dup1\n      0x1f\n      lt\n      tag_153\n      jumpi\n      0x0100\n      dup1\n      dup4\n      sload\n      div\n      mul\n      dup4\n      mstore\n      swap2\n      0x20\n      add\n      swap2\n      jump(tag_152)\n    tag_153:\n      dup3\n      add\n      swap2\n      swap1\n      0x00\n      mstore\n      keccak256(0x00, 0x20)\n      swap1\n    tag_154:\n      dup2\n      sload\n      dup2\n      mstore\n      swap1\n      0x01\n      add\n      swap1\n      0x20\n      add\n      dup1\n      dup4\n      gt\n      tag_154\n      jumpi\n      dup3\n      swap1\n      sub\n      0x1f\n      and\n      dup3\n      add\n      swap2\n    tag_152:\n      pop\n      pop\n      pop\n      pop\n      pop\n      dup2\n      mstore\n      0x20\n      add\n      0x02\n      dup3\n      add\n      dup1\n      sload\n      tag_155\n      swap1\n      tag_104\n      jump\t// in\n    tag_155:\n      dup1\n      0x1f\n      add\n      0x20\n      dup1\n      swap2\n      div\n      mul\n      0x20\n      add\n      mload(0x40)\n      swap1\n      dup2\n      add\n      0x40\n      mstore\n      dup1\n      swap3\n      swap2\n      swap1\n      dup2\n      dup2\n      mstore\n      0x20\n      add\n      dup3\n      dup1\n      sload\n      tag_156\n      swap1\n      tag_104\n      jump\t// in\n    tag_156:\n      dup1\n      iszero\n      tag_157\n      jumpi\n      dup1\n      0x1f\n      lt\n      tag_158\n      jumpi\n      0x0100\n      dup1\n      dup4\n      sload\n      div\n      mul\n      dup4\n      mstore\n      swap2\n      0x20\n      add\n      swap2\n      jump(tag_157)\n    tag_158:\n      dup3\n      add\n      swap2\n      swap1\n      0x00\n      mstore\n      keccak256(0x00, 0x20)\n      swap1\n    tag_159:\n      dup2\n      sload\n      dup2\n      mstore\n      swap1\n      0x01\n      add\n      swap1\n      0x20\n      add\n      dup1\n      dup4\n      gt\n      tag_159\n      jumpi\n      dup3\n      swap1\n      sub\n      0x1f\n      and\n      dup3\n      add\n      swap2\n    tag_157:\n      pop\n      pop\n      pop\n      pop\n      pop\n      dup2\n      mstore\n      0x20\n      add\n      0x03\n      dup3\n      add\n      dup1\n      sload\n      tag_160\n      swap1\n      tag_104\n      jump\t// in\n    tag_160:\n      dup1\n      0x1f\n      add\n      0x20\n      dup1\n      swap2\n      div\n      mul\n      0x20\n      add\n      mload(0x40)\n      swap1\n      dup2\n      add\n      0x40\n      mstore\n      dup1\n      swap3\n      swap2\n      swap1\n      dup2\n      dup2\n      mstore\n      0x20\n      add\n      dup3\n      dup1\n      sload\n      tag_161\n      swap1\n      tag_104\n      jump\t// in\n    tag_161:\n      dup1\n      iszero\n      tag_162\n      jumpi\n      dup1\n      0x1f\n      lt\n      tag_163\n      jumpi\n      0x0100\n      dup1\n      dup4\n      sload\n      div\n      mul\n      dup4\n      mstore\n      swap2\n      0x20\n      add\n      swap2\n      jump(tag_162)\n    tag_163:\n      dup3\n      add\n      swap2\n      swap1\n      0x00\n      mstore\n      keccak256(0x00, 0x20)\n      swap1\n    tag_164:\n      dup2\n      sload\n      dup2\n      mstore\n      swap1\n      0x01\n      add\n      swap1\n      0x20\n      add\n      dup1\n      dup4\n      gt\n      tag_164\n      jumpi\n      dup3\n      swap1\n      sub\n      0x1f\n      and\n      dup3\n      add\n      swap2\n    tag_162:\n      pop\n      pop\n      pop\n      pop\n      pop\n      dup2\n      mstore\n      0x20\n      add\n      0x04\n      dup3\n      add\n      0x00\n      swap1\n      sload\n      swap1\n      0x0100\n      exp\n      swap1\n      div\n      0xff\n      and\n      0x03\n      dup2\n      gt\n      iszero\n      tag_165\n      jumpi\n      tag_166\n      tag_129\n      jump\t// in\n    tag_166:\n    tag_165:\n      0x03\n      dup2\n      gt\n      iszero\n      tag_167\n      jumpi\n      tag_168\n      tag_129\n      jump\t// in\n    tag_168:\n    tag_167:\n      dup2\n      mstore\n      0x20\n      add\n      0x05\n      dup3\n      add\n      sload\n      dup2\n      mstore\n      pop\n      pop\n      swap1\n      pop\n        /* \"contracts/LandRegistryNFT.sol\":4113:4114  p */\n      dup1\n        /* \"contracts/LandRegistryNFT.sol\":4113:4123  p.lrNumber */\n      0x00\n      add\n      mload\n        /* \"contracts/LandRegistryNFT.sol\":4125:4126  p */\n      dup2\n        /* \"contracts/LandRegistryNFT.sol\":4125:4133  p.county */\n      0x20\n      add\n      mload\n        /* \"contracts/LandRegistryNFT.sol\":4135:4136  p */\n      dup3\n        /* \"contracts/LandRegistryNFT.sol\":4135:4152  p.coordinatesHash */\n      0x40\n      add\n      mload\n        /* \"contracts/LandRegistryNFT.sol\":4154:4155  p */\n      dup4\n        /* \"contracts/LandRegistryNFT.sol\":4154:4162  p.status */\n      0x80\n      add\n      mload\n        /* \"contracts/LandRegistryNFT.sol\":4164:4165  p */\n      dup5\n        /* \"contracts/LandRegistryNFT.sol\":4164:4178  p.registeredAt */\n      0xa0\n      add\n      mload\n        /* \"contracts/LandRegistryNFT.sol\":4180:4196  ownerOf(tokenId) */\n      tag_169\n        /* \"contracts/LandRegistryNFT.sol\":4188:4195  tokenId */\n      dup14\n        /* \"contracts/LandRegistryNFT.sol\":4180:4187  ownerOf */\n      tag_46\n        /* \"contracts/LandRegistryNFT.sol\":4180:4196  ownerOf(tokenId) */\n      jump\t// in\n    tag_169:\n        /* \"contracts/LandRegistryNFT.sol\":4105:4197  return (p.lrNumber, p.county, p.coordinatesHash, p.status, p.registeredAt, ownerOf(tokenId)) */\n      swap7\n      pop\n      swap7\n      pop\n      swap7\n      pop\n      swap7\n      pop\n      swap7\n      pop\n      swap7\n      pop\n      pop\n        /* \"contracts/LandRegistryNFT.sol\":3821:4204  function getParcel(uint256 tokenId)... */\n      swap2\n      swap4\n      swap6\n      pop\n      swap2\n      swap4\n      swap6\n      jump\t// out\n        /* \"contracts/LandRegistryNFT.sol\":2482:2809  function safeTransferParcel(uint256 tokenId, address to) external onlyActive(tokenId) {... */\n    tag_43:\n        /* \"contracts/LandRegistryNFT.sol\":2559:2566  tokenId */\n      dup2\n        /* \"contracts/LandRegistryNFT.sol\":1464:1480  _exists(tokenId) */\n      tag_171\n        /* \"contracts/LandRegistryNFT.sol\":1472:1479  tokenId */\n      dup2\n        /* \"contracts/LandRegistryNFT.sol\":1464:1471  _exists */\n      tag_141\n        /* \"contracts/LandRegistryNFT.sol\":1464:1480  _exists(tokenId) */\n      jump\t// in\n    tag_171:\n        /* \"contracts/LandRegistryNFT.sol\":1456:1506  require(_exists(tokenId), \"Parcel does not exist\") */\n      tag_172\n      jumpi\n      mload(0x40)\n      0x08c379a000000000000000000000000000000000000000000000000000000000\n      dup2\n      mstore\n      0x04\n      add\n      tag_173\n      swap1\n      tag_144\n      jump\t// in\n    tag_173:\n      mload(0x40)\n      dup1\n      swap2\n      sub\n      swap1\n      revert\n    tag_172:\n        /* \"contracts/LandRegistryNFT.sol\":1551:1570  ParcelStatus.Active */\n      0x00\n        /* \"contracts/LandRegistryNFT.sol\":1524:1570  parcels[tokenId].status == ParcelStatus.Active */\n      0x03\n      dup2\n      gt\n      iszero\n      tag_174\n      jumpi\n      tag_175\n      tag_129\n      jump\t// in\n    tag_175:\n    tag_174:\n        /* \"contracts/LandRegistryNFT.sol\":1524:1531  parcels */\n      0x06\n        /* \"contracts/LandRegistryNFT.sol\":1524:1540  parcels[tokenId] */\n      0x00\n        /* \"contracts/LandRegistryNFT.sol\":1532:1539  tokenId */\n      dup4\n        /* \"contracts/LandRegistryNFT.sol\":1524:1540  parcels[tokenId] */\n      dup2\n      mstore\n      0x20\n      add\n      swap1\n      dup2\n      mstore\n      0x20\n      add\n      0x00\n      keccak256\n        /* \"contracts/LandRegistryNFT.sol\":1524:1547  parcels[tokenId].status */\n      0x04\n      add\n      0x00\n      swap1\n      sload\n      swap1\n      0x0100\n      exp\n      swap1\n      div\n      0xff\n      and\n        /* \"contracts/LandRegistryNFT.sol\":1524:1570  parcels[tokenId].status == ParcelStatus.Active */\n      0x03\n      dup2\n      gt\n      iszero\n      tag_176\n      jumpi\n      tag_177\n      tag_129\n      jump\t// in\n    tag_177:\n    tag_176:\n      eq\n        /* \"contracts/LandRegistryNFT.sol\":1516:1592  require(parcels[tokenId].status == ParcelStatus.Active, \"Parcel not active\") */\n      tag_178\n      jumpi\n      mload(0x40)\n      0x08c379a000000000000000000000000000000000000000000000000000000000\n      dup2\n      mstore\n      0x04\n      add\n      tag_179\n      swap1\n      tag_180\n      jump\t// in\n    tag_179:\n      mload(0x40)\n      dup1\n      swap2\n      sub\n      swap1\n      revert\n    tag_178:\n        /* \"contracts/LandRegistryNFT.sol\":2600:2601  0 */\n      0x00\n        /* \"contracts/LandRegistryNFT.sol\":2586:2602  to != address(0) */\n      0xffffffffffffffffffffffffffffffffffffffff\n      and\n        /* \"contracts/LandRegistryNFT.sol\":2586:2588  to */\n      dup3\n        /* \"contracts/LandRegistryNFT.sol\":2586:2602  to != address(0) */\n      0xffffffffffffffffffffffffffffffffffffffff\n      and\n      sub\n        /* \"contracts/LandRegistryNFT.sol\":2578:2624  require(to != address(0), \"Invalid recipient\") */\n      tag_182\n      jumpi\n      mload(0x40)\n      0x08c379a000000000000000000000000000000000000000000000000000000000\n      dup2\n      mstore\n      0x04\n      add\n      tag_183\n      swap1\n      tag_184\n      jump\t// in\n    tag_183:\n      mload(0x40)\n      dup1\n      swap2\n      sub\n      swap1\n      revert\n    tag_182:\n        /* \"contracts/LandRegistryNFT.sol\":2662:2672  msg.sender */\n      caller\n        /* \"contracts/LandRegistryNFT.sol\":2642:2672  ownerOf(tokenId) == msg.sender */\n      0xffffffffffffffffffffffffffffffffffffffff\n      and\n        /* \"contracts/LandRegistryNFT.sol\":2642:2658  ownerOf(tokenId) */\n      tag_185\n        /* \"contracts/LandRegistryNFT.sol\":2650:2657  tokenId */\n      dup5\n        /* \"contracts/LandRegistryNFT.sol\":2642:2649  ownerOf */\n      tag_46\n        /* \"contracts/LandRegistryNFT.sol\":2642:2658  ownerOf(tokenId) */\n      jump\t// in\n    tag_185:\n        /* \"contracts/LandRegistryNFT.sol\":2642:2672  ownerOf(tokenId) == msg.sender */\n      0xffffffffffffffffffffffffffffffffffffffff\n      and\n      eq\n        /* \"contracts/LandRegistryNFT.sol\":2634:2693  require(ownerOf(tokenId) == msg.sender, \"Not parcel owner\") */\n      tag_186\n      jumpi\n      mload(0x40)\n      0x08c379a000000000000000000000000000000000000000000000000000000000\n      dup2\n      mstore\n      0x04\n      add\n      tag_187\n      swap1\n      tag_188\n      jump\t// in\n    tag_187:\n      mload(0x40)\n      dup1\n      swap2\n      sub\n      swap1\n      revert\n    tag_186:\n        /* \"contracts/LandRegistryNFT.sol\":2703:2745  _safeTransfer(msg.sender, to, tokenId, \"\") */\n      tag_189\n        /* \"contracts/LandRegistryNFT.sol\":2717:2727  msg.sender */\n      caller\n        /* \"contracts/LandRegistryNFT.sol\":2729:2731  to */\n      dup4\n        /* \"contracts/LandRegistryNFT.sol\":2733:2740  tokenId */\n      dup6\n        /* \"contracts/LandRegistryNFT.sol\":2703:2745  _safeTransfer(msg.sender, to, tokenId, \"\") */\n      mload(0x40)\n      dup1\n      0x20\n      add\n      0x40\n      mstore\n      dup1\n      0x00\n      dup2\n      mstore\n      pop\n        /* \"contracts/LandRegistryNFT.sol\":2703:2716  _safeTransfer */\n      tag_190\n        /* \"contracts/LandRegistryNFT.sol\":2703:2745  _safeTransfer(msg.sender, to, tokenId, \"\") */\n      jump\t// in\n    tag_189:\n        /* \"contracts/LandRegistryNFT.sol\":2799:2801  to */\n      dup2\n        /* \"contracts/LandRegistryNFT.sol\":2760:2802  ParcelTransferred(tokenId, msg.sender, to) */\n      0xffffffffffffffffffffffffffffffffffffffff\n      and\n        /* \"contracts/LandRegistryNFT.sol\":2787:2797  msg.sender */\n      caller\n        /* \"contracts/LandRegistryNFT.sol\":2760:2802  ParcelTransferred(tokenId, msg.sender, to) */\n      0xffffffffffffffffffffffffffffffffffffffff\n      and\n        /* \"contracts/LandRegistryNFT.sol\":2778:2785  tokenId */\n      dup5\n        /* \"contracts/LandRegistryNFT.sol\":2760:2802  ParcelTransferred(tokenId, msg.sender, to) */\n      0x26b9f0805d5ccecdc6d6f1f7d73613306cd67c0a244e342aa69b32799f5ff2b6\n      mload(0x40)\n      mload(0x40)\n      dup1\n      swap2\n      sub\n      swap1\n      log4\n        /* \"contracts/LandRegistryNFT.sol\":2482:2809  function safeTransferParcel(uint256 tokenId, address to) external onlyActive(tokenId) {... */\n      pop\n      pop\n      pop\n      jump\t// out\n        /* \"contracts/ERC721.sol\":642:836  function ownerOf(uint256 tokenId) public view returns (address) {... */\n    tag_46:\n        /* \"contracts/ERC721.sol\":697:704  address */\n      0x00\n        /* \"contracts/ERC721.sol\":716:729  address owner */\n      0x00\n        /* \"contracts/ERC721.sol\":732:739  _owners */\n      0x02\n        /* \"contracts/ERC721.sol\":732:748  _owners[tokenId] */\n      0x00\n        /* \"contracts/ERC721.sol\":740:747  tokenId */\n      dup5\n        /* \"contracts/ERC721.sol\":732:748  _owners[tokenId] */\n      dup2\n      mstore\n      0x20\n      add\n      swap1\n      dup2\n      mstore\n      0x20\n      add\n      0x00\n      keccak256\n      0x00\n      swap1\n      sload\n      swap1\n      0x0100\n      exp\n      swap1\n      div\n      0xffffffffffffffffffffffffffffffffffffffff\n      and\n        /* \"contracts/ERC721.sol\":716:748  address owner = _owners[tokenId] */\n      swap1\n      pop\n        /* \"contracts/ERC721.sol\":783:784  0 */\n      0x00\n        /* \"contracts/ERC721.sol\":766:785  owner != address(0) */\n      0xffffffffffffffffffffffffffffffffffffffff\n      and\n        /* \"contracts/ERC721.sol\":766:771  owner */\n      dup2\n        /* \"contracts/ERC721.sol\":766:785  owner != address(0) */\n      0xffffffffffffffffffffffffffffffffffffffff\n      and\n      sub\n        /* \"contracts/ERC721.sol\":758:807  require(owner != address(0), \"Nonexistent token\") */\n      tag_192\n      jumpi\n      mload(0x40)\n      0x08c379a000000000000000000000000000000000000000000000000000000000\n      dup2\n      mstore\n      0x04\n      add\n      tag_193\n      swap1\n      tag_194\n      jump\t// in\n    tag_193:\n      mload(0x40)\n      dup1\n      swap2\n      sub\n      swap1\n      revert\n    tag_192:\n        /* \"contracts/ERC721.sol\":824:829  owner */\n      dup1\n        /* \"contracts/ERC721.sol\":817:829  return owner */\n      swap2\n      pop\n      pop\n        /* \"contracts/ERC721.sol\":642:836  function ownerOf(uint256 tokenId) public view returns (address) {... */\n      swap2\n      swap1\n      pop\n      jump\t// out\n        /* \"contracts/LandRegistryNFT.sol\":3385:3815  function updateParcelMetadata(uint256 tokenId, string calldata newCoordinatesHash, string calldata newOwnerIdHash)... */\n    tag_52:\n        /* \"contracts/LandRegistryNFT.sol\":1332:1367  hasRole(REGISTRAR_ROLE, msg.sender) */\n      tag_196\n        /* \"contracts/LandRegistryNFT.sol\":276:303  keccak256(\"REGISTRAR_ROLE\") */\n      0xedcc084d3dcd65a1f7f23c65c46722faca6953d28e43150a467cf43e5c309238\n        /* \"contracts/LandRegistryNFT.sol\":1356:1366  msg.sender */\n      caller\n        /* \"contracts/LandRegistryNFT.sol\":1332:1339  hasRole */\n      tag_66\n        /* \"contracts/LandRegistryNFT.sol\":1332:1367  hasRole(REGISTRAR_ROLE, msg.sender) */\n      jump\t// in\n    tag_196:\n        /* \"contracts/LandRegistryNFT.sol\":1324:1385  require(hasRole(REGISTRAR_ROLE, msg.sender), \"Not registrar\") */\n      tag_197\n      jumpi\n      mload(0x40)\n      0x08c379a000000000000000000000000000000000000000000000000000000000\n      dup2\n      mstore\n      0x04\n      add\n      tag_198\n      swap1\n      tag_113\n      jump\t// in\n    tag_198:\n      mload(0x40)\n      dup1\n      swap2\n      sub\n      swap1\n      revert\n    tag_197:\n        /* \"contracts/LandRegistryNFT.sol\":3553:3569  _exists(tokenId) */\n      tag_200\n        /* \"contracts/LandRegistryNFT.sol\":3561:3568  tokenId */\n      dup6\n        /* \"contracts/LandRegistryNFT.sol\":3553:3560  _exists */\n      tag_141\n        /* \"contracts/LandRegistryNFT.sol\":3553:3569  _exists(tokenId) */\n      jump\t// in\n    tag_200:\n        /* \"contracts/LandRegistryNFT.sol\":3545:3595  require(_exists(tokenId), \"Parcel does not exist\") */\n      tag_201\n      jumpi\n      mload(0x40)\n      0x08c379a000000000000000000000000000000000000000000000000000000000\n      dup2\n      mstore\n      0x04\n      add\n      tag_202\n      swap1\n      tag_144\n      jump\t// in\n    tag_202:\n      mload(0x40)\n      dup1\n      swap2\n      sub\n      swap1\n      revert\n    tag_201:\n        /* \"contracts/LandRegistryNFT.sol\":3605:3621  Parcel storage p */\n      0x00\n        /* \"contracts/LandRegistryNFT.sol\":3624:3631  parcels */\n      0x06\n        /* \"contracts/LandRegistryNFT.sol\":3624:3640  parcels[tokenId] */\n      0x00\n        /* \"contracts/LandRegistryNFT.sol\":3632:3639  tokenId */\n      dup8\n        /* \"contracts/LandRegistryNFT.sol\":3624:3640  parcels[tokenId] */\n      dup2\n      mstore\n      0x20\n      add\n      swap1\n      dup2\n      mstore\n      0x20\n      add\n      0x00\n      keccak256\n        /* \"contracts/LandRegistryNFT.sol\":3605:3640  Parcel storage p = parcels[tokenId] */\n      swap1\n      pop\n        /* \"contracts/LandRegistryNFT.sol\":3689:3690  0 */\n      0x00\n        /* \"contracts/LandRegistryNFT.sol\":3660:3678  newCoordinatesHash */\n      dup6\n      dup6\n        /* \"contracts/LandRegistryNFT.sol\":3654:3686  bytes(newCoordinatesHash).length */\n      swap1\n      pop\n        /* \"contracts/LandRegistryNFT.sol\":3654:3690  bytes(newCoordinatesHash).length > 0 */\n      gt\n        /* \"contracts/LandRegistryNFT.sol\":3650:3730  if (bytes(newCoordinatesHash).length > 0) p.coordinatesHash = newCoordinatesHash */\n      iszero\n      tag_203\n      jumpi\n        /* \"contracts/LandRegistryNFT.sol\":3712:3730  newCoordinatesHash */\n      dup5\n      dup5\n        /* \"contracts/LandRegistryNFT.sol\":3692:3693  p */\n      dup3\n        /* \"contracts/LandRegistryNFT.sol\":3692:3709  p.coordinatesHash */\n      0x02\n      add\n        /* \"contracts/LandRegistryNFT.sol\":3692:3730  p.coordinatesHash = newCoordinatesHash */\n      swap2\n      dup3\n      tag_204\n      swap3\n      swap2\n      swap1\n      tag_205\n      jump\t// in\n    tag_204:\n      pop\n        /* \"contracts/LandRegistryNFT.sol\":3650:3730  if (bytes(newCoordinatesHash).length > 0) p.coordinatesHash = newCoordinatesHash */\n    tag_203:\n        /* \"contracts/LandRegistryNFT.sol\":3775:3776  0 */\n      0x00\n        /* \"contracts/LandRegistryNFT.sol\":3750:3764  newOwnerIdHash */\n      dup4\n      dup4\n        /* \"contracts/LandRegistryNFT.sol\":3744:3772  bytes(newOwnerIdHash).length */\n      swap1\n      pop\n        /* \"contracts/LandRegistryNFT.sol\":3744:3776  bytes(newOwnerIdHash).length > 0 */\n      gt\n        /* \"contracts/LandRegistryNFT.sol\":3740:3808  if (bytes(newOwnerIdHash).length > 0) p.ownerIdHash = newOwnerIdHash */\n      iszero\n      tag_206\n      jumpi\n        /* \"contracts/LandRegistryNFT.sol\":3794:3808  newOwnerIdHash */\n      dup3\n      dup3\n        /* \"contracts/LandRegistryNFT.sol\":3778:3779  p */\n      dup3\n        /* \"contracts/LandRegistryNFT.sol\":3778:3791  p.ownerIdHash */\n      0x03\n      add\n        /* \"contracts/LandRegistryNFT.sol\":3778:3808  p.ownerIdHash = newOwnerIdHash */\n      swap2\n      dup3\n      tag_207\n      swap3\n      swap2\n      swap1\n      tag_205\n      jump\t// in\n    tag_207:\n      pop\n        /* \"contracts/LandRegistryNFT.sol\":3740:3808  if (bytes(newOwnerIdHash).length > 0) p.ownerIdHash = newOwnerIdHash */\n    tag_206:\n        /* \"contracts/LandRegistryNFT.sol\":3535:3815  {... */\n      pop\n        /* \"contracts/LandRegistryNFT.sol\":3385:3815  function updateParcelMetadata(uint256 tokenId, string calldata newCoordinatesHash, string calldata newOwnerIdHash)... */\n      pop\n      pop\n      pop\n      pop\n      pop\n      jump\t// out\n        /* \"contracts/ERC721.sol\":478:636  function balanceOf(address owner) public view returns (uint256) {... */\n    tag_56:\n        /* \"contracts/ERC721.sol\":533:540  uint256 */\n      0x00\n        /* \"contracts/ERC721.sol\":577:578  0 */\n      0x00\n        /* \"contracts/ERC721.sol\":560:579  owner != address(0) */\n      0xffffffffffffffffffffffffffffffffffffffff\n      and\n        /* \"contracts/ERC721.sol\":560:565  owner */\n      dup3\n        /* \"contracts/ERC721.sol\":560:579  owner != address(0) */\n      0xffffffffffffffffffffffffffffffffffffffff\n      and\n      sub\n        /* \"contracts/ERC721.sol\":552:596  require(owner != address(0), \"Zero address\") */\n      tag_209\n      jumpi\n      mload(0x40)\n      0x08c379a000000000000000000000000000000000000000000000000000000000\n      dup2\n      mstore\n      0x04\n      add\n      tag_210\n      swap1\n      tag_211\n      jump\t// in\n    tag_210:\n      mload(0x40)\n      dup1\n      swap2\n      sub\n      swap1\n      revert\n    tag_209:\n        /* \"contracts/ERC721.sol\":613:622  _balances */\n      0x03\n        /* \"contracts/ERC721.sol\":613:629  _balances[owner] */\n      0x00\n        /* \"contracts/ERC721.sol\":623:628  owner */\n      dup4\n        /* \"contracts/ERC721.sol\":613:629  _balances[owner] */\n      0xffffffffffffffffffffffffffffffffffffffff\n      and\n      0xffffffffffffffffffffffffffffffffffffffff\n      and\n      dup2\n      mstore\n      0x20\n      add\n      swap1\n      dup2\n      mstore\n      0x20\n      add\n      0x00\n      keccak256\n      sload\n        /* \"contracts/ERC721.sol\":606:629  return _balances[owner] */\n      swap1\n      pop\n        /* \"contracts/ERC721.sol\":478:636  function balanceOf(address owner) public view returns (uint256) {... */\n      swap2\n      swap1\n      pop\n      jump\t// out\n        /* \"contracts/LandRegistryNFT.sol\":658:709  mapping(uint256 => string[]) public parcelDocuments */\n    tag_61:\n      mstore(0x20, 0x07)\n      dup2\n      0x00\n      mstore\n      keccak256(0x00, 0x40)\n      dup2\n      dup2\n      sload\n      dup2\n      lt\n      tag_212\n      jumpi\n      0x00\n      dup1\n      revert\n    tag_212:\n      swap1\n      0x00\n      mstore\n      keccak256(0x00, 0x20)\n      add\n      0x00\n      swap2\n      pop\n      swap2\n      pop\n      pop\n      dup1\n      sload\n      tag_214\n      swap1\n      tag_104\n      jump\t// in\n    tag_214:\n      dup1\n      0x1f\n      add\n      0x20\n      dup1\n      swap2\n      div\n      mul\n      0x20\n      add\n      mload(0x40)\n      swap1\n      dup2\n      add\n      0x40\n      mstore\n      dup1\n      swap3\n      swap2\n      swap1\n      dup2\n      dup2\n      mstore\n      0x20\n      add\n      dup3\n      dup1\n      sload\n      tag_215\n      swap1\n      tag_104\n      jump\t// in\n    tag_215:\n      dup1\n      iszero\n      tag_216\n      jumpi\n      dup1\n      0x1f\n      lt\n      tag_217\n      jumpi\n      0x0100\n      dup1\n      dup4\n      sload\n      div\n      mul\n      dup4\n      mstore\n      swap2\n      0x20\n      add\n      swap2\n      jump(tag_216)\n    tag_217:\n      dup3\n      add\n      swap2\n      swap1\n      0x00\n      mstore\n      keccak256(0x00, 0x20)\n      swap1\n    tag_218:\n      dup2\n      sload\n      dup2\n      mstore\n      swap1\n      0x01\n      add\n      swap1\n      0x20\n      add\n      dup1\n      dup4\n      gt\n      tag_218\n      jumpi\n      dup3\n      swap1\n      sub\n      0x1f\n      and\n      dup3\n      add\n      swap2\n    tag_216:\n      pop\n      pop\n      pop\n      pop\n      pop\n      dup2\n      jump\t// out\n        /* \"contracts/AccessControl.sol\":531:659  function hasRole(bytes32 role, address account) public view returns (bool) {... */\n    tag_66:\n        /* \"contracts/AccessControl.sol\":600:604  bool */\n      0x00\n        /* \"contracts/AccessControl.sol\":623:629  _roles */\n      0x04\n        /* \"contracts/AccessControl.sol\":623:635  _roles[role] */\n      0x00\n        /* \"contracts/AccessControl.sol\":630:634  role */\n      dup5\n        /* \"contracts/AccessControl.sol\":623:635  _roles[role] */\n      dup2\n      mstore\n      0x20\n      add\n      swap1\n      dup2\n      mstore\n      0x20\n      add\n      0x00\n      keccak256\n        /* \"contracts/AccessControl.sol\":623:643  _roles[role].members */\n      0x00\n      add\n        /* \"contracts/AccessControl.sol\":623:652  _roles[role].members[account] */\n      0x00\n        /* \"contracts/AccessControl.sol\":644:651  account */\n      dup4\n        /* \"contracts/AccessControl.sol\":623:652  _roles[role].members[account] */\n      0xffffffffffffffffffffffffffffffffffffffff\n      and\n      0xffffffffffffffffffffffffffffffffffffffff\n      and\n      dup2\n      mstore\n      0x20\n      add\n      swap1\n      dup2\n      mstore\n      0x20\n      add\n      0x00\n      keccak256\n      0x00\n      swap1\n      sload\n      swap1\n      0x0100\n      exp\n      swap1\n      div\n      0xff\n      and\n        /* \"contracts/AccessControl.sol\":616:652  return _roles[role].members[account] */\n      swap1\n      pop\n        /* \"contracts/AccessControl.sol\":531:659  function hasRole(bytes32 role, address account) public view returns (bool) {... */\n      swap3\n      swap2\n      pop\n      pop\n      jump\t// out\n        /* \"contracts/ERC721.sol\":145:165  string public symbol */\n    tag_70:\n      0x01\n      dup1\n      sload\n      tag_220\n      swap1\n      tag_104\n      jump\t// in\n    tag_220:\n      dup1\n      0x1f\n      add\n      0x20\n      dup1\n      swap2\n      div\n      mul\n      0x20\n      add\n      mload(0x40)\n      swap1\n      dup2\n      add\n      0x40\n      mstore\n      dup1\n      swap3\n      swap2\n      swap1\n      dup2\n      dup2\n      mstore\n      0x20\n      add\n      dup3\n      dup1\n      sload\n      tag_221\n      swap1\n      tag_104\n      jump\t// in\n    tag_221:\n      dup1\n      iszero\n      tag_222\n      jumpi\n      dup1\n      0x1f\n      lt\n      tag_223\n      jumpi\n      0x0100\n      dup1\n      dup4\n      sload\n      div\n      mul\n      dup4\n      mstore\n      swap2\n      0x20\n      add\n      swap2\n      jump(tag_222)\n    tag_223:\n      dup3\n      add\n      swap2\n      swap1\n      0x00\n      mstore\n      keccak256(0x00, 0x20)\n      swap1\n    tag_224:\n      dup2\n      sload\n      dup2\n      mstore\n      swap1\n      0x01\n      add\n      swap1\n      0x20\n      add\n      dup1\n      dup4\n      gt\n      tag_224\n      jumpi\n      dup3\n      swap1\n      sub\n      0x1f\n      and\n      dup3\n      add\n      swap2\n    tag_222:\n      pop\n      pop\n      pop\n      pop\n      pop\n      dup2\n      jump\t// out\n        /* \"contracts/LandRegistryNFT.sol\":611:652  mapping(uint256 => Parcel) public parcels */\n    tag_74:\n      mstore(0x20, 0x06)\n      dup1\n      0x00\n      mstore\n      keccak256(0x00, 0x40)\n      0x00\n      swap2\n      pop\n      swap1\n      pop\n      dup1\n      0x00\n      add\n      dup1\n      sload\n      tag_225\n      swap1\n      tag_104\n      jump\t// in\n    tag_225:\n      dup1\n      0x1f\n      add\n      0x20\n      dup1\n      swap2\n      div\n      mul\n      0x20\n      add\n      mload(0x40)\n      swap1\n      dup2\n      add\n      0x40\n      mstore\n      dup1\n      swap3\n      swap2\n      swap1\n      dup2\n      dup2\n      mstore\n      0x20\n      add\n      dup3\n      dup1\n      sload\n      tag_226\n      swap1\n      tag_104\n      jump\t// in\n    tag_226:\n      dup1\n      iszero\n      tag_227\n      jumpi\n      dup1\n      0x1f\n      lt\n      tag_228\n      jumpi\n      0x0100\n      dup1\n      dup4\n      sload\n      div\n      mul\n      dup4\n      mstore\n      swap2\n      0x20\n      add\n      swap2\n      jump(tag_227)\n    tag_228:\n      dup3\n      add\n      swap2\n      swap1\n      0x00\n      mstore\n      keccak256(0x00, 0x20)\n      swap1\n    tag_229:\n      dup2\n      sload\n      dup2\n      mstore\n      swap1\n      0x01\n      add\n      swap1\n      0x20\n      add\n      dup1\n      dup4\n      gt\n      tag_229\n      jumpi\n      dup3\n      swap1\n      sub\n      0x1f\n      and\n      dup3\n      add\n      swap2\n    tag_227:\n      pop\n      pop\n      pop\n      pop\n      pop\n      swap1\n      dup1\n      0x01\n      add\n      dup1\n      sload\n      tag_230\n      swap1\n      tag_104\n      jump\t// in\n    tag_230:\n      dup1\n      0x1f\n      add\n      0x20\n      dup1\n      swap2\n      div\n      mul\n      0x20\n      add\n      mload(0x40)\n      swap1\n      dup2\n      add\n      0x40\n      mstore\n      dup1\n      swap3\n      swap2\n      swap1\n      dup2\n      dup2\n      mstore\n      0x20\n      add\n      dup3\n      dup1\n      sload\n      tag_231\n      swap1\n      tag_104\n      jump\t// in\n    tag_231:\n      dup1\n      iszero\n      tag_232\n      jumpi\n      dup1\n      0x1f\n      lt\n      tag_233\n      jumpi\n      0x0100\n      dup1\n      dup4\n      sload\n      div\n      mul\n      dup4\n      mstore\n      swap2\n      0x20\n      add\n      swap2\n      jump(tag_232)\n    tag_233:\n      dup3\n      add\n      swap2\n      swap1\n      0x00\n      mstore\n      keccak256(0x00, 0x20)\n      swap1\n    tag_234:\n      dup2\n      sload\n      dup2\n      mstore\n      swap1\n      0x01\n      add\n      swap1\n      0x20\n      add\n      dup1\n      dup4\n      gt\n      tag_234\n      jumpi\n      dup3\n      swap1\n      sub\n      0x1f\n      and\n      dup3\n      add\n      swap2\n    tag_232:\n      pop\n      pop\n      pop\n      pop\n      pop\n      swap1\n      dup1\n      0x02\n      add\n      dup1\n      sload\n      tag_235\n      swap1\n      tag_104\n      jump\t// in\n    tag_235:\n      dup1\n      0x1f\n      add\n      0x20\n      dup1\n      swap2\n      div\n      mul\n      0x20\n      add\n      mload(0x40)\n      swap1\n      dup2\n      add\n      0x40\n      mstore\n      dup1\n      swap3\n      swap2\n      swap1\n      dup2\n      dup2\n      mstore\n      0x20\n      add\n      dup3\n      dup1\n      sload\n      tag_236\n      swap1\n      tag_104\n      jump\t// in\n    tag_236:\n      dup1\n      iszero\n      tag_237\n      jumpi\n      dup1\n      0x1f\n      lt\n      tag_238\n      jumpi\n      0x0100\n      dup1\n      dup4\n      sload\n      div\n      mul\n      dup4\n      mstore\n      swap2\n      0x20\n      add\n      swap2\n      jump(tag_237)\n    tag_238:\n      dup3\n      add\n      swap2\n      swap1\n      0x00\n      mstore\n      keccak256(0x00, 0x20)\n      swap1\n    tag_239:\n      dup2\n      sload\n      dup2\n      mstore\n      swap1\n      0x01\n      add\n      swap1\n      0x20\n      add\n      dup1\n      dup4\n      gt\n      tag_239\n      jumpi\n      dup3\n      swap1\n      sub\n      0x1f\n      and\n      dup3\n      add\n      swap2\n    tag_237:\n      pop\n      pop\n      pop\n      pop\n      pop\n      swap1\n      dup1\n      0x03\n      add\n      dup1\n      sload\n      tag_240\n      swap1\n      tag_104\n      jump\t// in\n    tag_240:\n      dup1\n      0x1f\n      add\n      0x20\n      dup1\n      swap2\n      div\n      mul\n      0x20\n      add\n      mload(0x40)\n      swap1\n      dup2\n      add\n      0x40\n      mstore\n      dup1\n      swap3\n      swap2\n      swap1\n      dup2\n      dup2\n      mstore\n      0x20\n      add\n      dup3\n      dup1\n      sload\n      tag_241\n      swap1\n      tag_104\n      jump\t// in\n    tag_241:\n      dup1\n      iszero\n      tag_242\n      jumpi\n      dup1\n      0x1f\n      lt\n      tag_243\n      jumpi\n      0x0100\n      dup1\n      dup4\n      sload\n      div\n      mul\n      dup4\n      mstore\n      swap2\n      0x20\n      add\n      swap2\n      jump(tag_242)\n    tag_243:\n      dup3\n      add\n      swap2\n      swap1\n      0x00\n      mstore\n      keccak256(0x00, 0x20)\n      swap1\n    tag_244:\n      dup2\n      sload\n      dup2\n      mstore\n      swap1\n      0x01\n      add\n      swap1\n      0x20\n      add\n      dup1\n      dup4\n      gt\n      tag_244\n      jumpi\n      dup3\n      swap1\n      sub\n      0x1f\n      and\n      dup3\n      add\n      swap2\n    tag_242:\n      pop\n      pop\n      pop\n      pop\n      pop\n      swap1\n      dup1\n      0x04\n      add\n      0x00\n      swap1\n      sload\n      swap1\n      0x0100\n      exp\n      swap1\n      div\n      0xff\n      and\n      swap1\n      dup1\n      0x05\n      add\n      sload\n      swap1\n      pop\n      dup7\n      jump\t// out\n        /* \"contracts/AccessControl.sol\":217:266  bytes32 public constant DEFAULT_ADMIN_ROLE = 0x00 */\n    tag_78:\n        /* \"contracts/AccessControl.sol\":262:266  0x00 */\n      0x00\n        /* \"contracts/AccessControl.sol\":217:266  bytes32 public constant DEFAULT_ADMIN_ROLE = 0x00 */\n      0x00\n      shl\n      dup2\n      jump\t// out\n        /* \"contracts/LandRegistryNFT.sol\":3120:3379  function addParcelDocument(uint256 tokenId, string calldata docHash) external onlyRegistrar {... */\n    tag_84:\n        /* \"contracts/LandRegistryNFT.sol\":1332:1367  hasRole(REGISTRAR_ROLE, msg.sender) */\n      tag_246\n        /* \"contracts/LandRegistryNFT.sol\":276:303  keccak256(\"REGISTRAR_ROLE\") */\n      0xedcc084d3dcd65a1f7f23c65c46722faca6953d28e43150a467cf43e5c309238\n        /* \"contracts/LandRegistryNFT.sol\":1356:1366  msg.sender */\n      caller\n        /* \"contracts/LandRegistryNFT.sol\":1332:1339  hasRole */\n      tag_66\n        /* \"contracts/LandRegistryNFT.sol\":1332:1367  hasRole(REGISTRAR_ROLE, msg.sender) */\n      jump\t// in\n    tag_246:\n        /* \"contracts/LandRegistryNFT.sol\":1324:1385  require(hasRole(REGISTRAR_ROLE, msg.sender), \"Not registrar\") */\n      tag_247\n      jumpi\n      mload(0x40)\n      0x08c379a000000000000000000000000000000000000000000000000000000000\n      dup2\n      mstore\n      0x04\n      add\n      tag_248\n      swap1\n      tag_113\n      jump\t// in\n    tag_248:\n      mload(0x40)\n      dup1\n      swap2\n      sub\n      swap1\n      revert\n    tag_247:\n        /* \"contracts/LandRegistryNFT.sol\":3230:3246  _exists(tokenId) */\n      tag_250\n        /* \"contracts/LandRegistryNFT.sol\":3238:3245  tokenId */\n      dup4\n        /* \"contracts/LandRegistryNFT.sol\":3230:3237  _exists */\n      tag_141\n        /* \"contracts/LandRegistryNFT.sol\":3230:3246  _exists(tokenId) */\n      jump\t// in\n    tag_250:\n        /* \"contracts/LandRegistryNFT.sol\":3222:3272  require(_exists(tokenId), \"Parcel does not exist\") */\n      tag_251\n      jumpi\n      mload(0x40)\n      0x08c379a000000000000000000000000000000000000000000000000000000000\n      dup2\n      mstore\n      0x04\n      add\n      tag_252\n      swap1\n      tag_144\n      jump\t// in\n    tag_252:\n      mload(0x40)\n      dup1\n      swap2\n      sub\n      swap1\n      revert\n    tag_251:\n        /* \"contracts/LandRegistryNFT.sol\":3282:3297  parcelDocuments */\n      0x07\n        /* \"contracts/LandRegistryNFT.sol\":3282:3306  parcelDocuments[tokenId] */\n      0x00\n        /* \"contracts/LandRegistryNFT.sol\":3298:3305  tokenId */\n      dup5\n        /* \"contracts/LandRegistryNFT.sol\":3282:3306  parcelDocuments[tokenId] */\n      dup2\n      mstore\n      0x20\n      add\n      swap1\n      dup2\n      mstore\n      0x20\n      add\n      0x00\n      keccak256\n        /* \"contracts/LandRegistryNFT.sol\":3312:3319  docHash */\n      dup3\n      dup3\n        /* \"contracts/LandRegistryNFT.sol\":3282:3320  parcelDocuments[tokenId].push(docHash) */\n      swap1\n      swap2\n      dup1\n      0x01\n      dup2\n      sload\n      add\n      dup1\n      dup3\n      sstore\n      dup1\n      swap2\n      pop\n      pop\n      0x01\n      swap1\n      sub\n      swap1\n      0x00\n      mstore\n      keccak256(0x00, 0x20)\n      add\n      0x00\n      swap1\n      swap2\n      swap3\n      swap1\n      swap2\n      swap3\n      swap1\n      swap2\n      swap3\n      swap1\n      swap2\n      swap3\n      pop\n      swap2\n      dup3\n      tag_254\n      swap3\n      swap2\n      swap1\n      tag_205\n      jump\t// in\n    tag_254:\n      pop\n        /* \"contracts/LandRegistryNFT.sol\":3355:3362  tokenId */\n      dup3\n        /* \"contracts/LandRegistryNFT.sol\":3335:3372  ParcelDocumentAdded(tokenId, docHash) */\n      0x6caebdcd73cbcb009fab607ceb05aa2625597ee6a3861bef11d3ace03eee65d1\n        /* \"contracts/LandRegistryNFT.sol\":3364:3371  docHash */\n      dup4\n      dup4\n        /* \"contracts/LandRegistryNFT.sol\":3335:3372  ParcelDocumentAdded(tokenId, docHash) */\n      mload(0x40)\n      tag_255\n      swap3\n      swap2\n      swap1\n      tag_256\n      jump\t// in\n    tag_255:\n      mload(0x40)\n      dup1\n      swap2\n      sub\n      swap1\n      log2\n        /* \"contracts/LandRegistryNFT.sol\":3120:3379  function addParcelDocument(uint256 tokenId, string calldata docHash) external onlyRegistrar {... */\n      pop\n      pop\n      pop\n      jump\t// out\n        /* \"contracts/LandRegistryNFT.sol\":4409:4538  function addRegistrar(address account) external onlyRole(DEFAULT_ADMIN_ROLE) {... */\n    tag_87:\n        /* \"contracts/AccessControl.sol\":262:266  0x00 */\n      0x00\n        /* \"contracts/LandRegistryNFT.sol\":4466:4484  DEFAULT_ADMIN_ROLE */\n      0x00\n      shl\n        /* \"contracts/AccessControl.sol\":464:489  hasRole(role, msg.sender) */\n      tag_258\n        /* \"contracts/AccessControl.sol\":472:476  role */\n      dup2\n        /* \"contracts/AccessControl.sol\":478:488  msg.sender */\n      caller\n        /* \"contracts/AccessControl.sol\":464:471  hasRole */\n      tag_66\n        /* \"contracts/AccessControl.sol\":464:489  hasRole(role, msg.sender) */\n      jump\t// in\n    tag_258:\n        /* \"contracts/AccessControl.sol\":456:507  require(hasRole(role, msg.sender), \"Access denied\") */\n      tag_259\n      jumpi\n      mload(0x40)\n      0x08c379a000000000000000000000000000000000000000000000000000000000\n      dup2\n      mstore\n      0x04\n      add\n      tag_260\n      swap1\n      tag_261\n      jump\t// in\n    tag_260:\n      mload(0x40)\n      dup1\n      swap2\n      sub\n      swap1\n      revert\n    tag_259:\n        /* \"contracts/LandRegistryNFT.sol\":4496:4531  _grantRole(REGISTRAR_ROLE, account) */\n      tag_263\n        /* \"contracts/LandRegistryNFT.sol\":276:303  keccak256(\"REGISTRAR_ROLE\") */\n      0xedcc084d3dcd65a1f7f23c65c46722faca6953d28e43150a467cf43e5c309238\n        /* \"contracts/LandRegistryNFT.sol\":4523:4530  account */\n      dup4\n        /* \"contracts/LandRegistryNFT.sol\":4496:4506  _grantRole */\n      tag_264\n        /* \"contracts/LandRegistryNFT.sol\":4496:4531  _grantRole(REGISTRAR_ROLE, account) */\n      jump\t// in\n    tag_263:\n        /* \"contracts/LandRegistryNFT.sol\":4409:4538  function addRegistrar(address account) external onlyRole(DEFAULT_ADMIN_ROLE) {... */\n      pop\n      pop\n      jump\t// out\n        /* \"contracts/LandRegistryNFT.sol\":2815:3114  function setParcelStatus(uint256 tokenId, ParcelStatus newStatus, string calldata reason)... */\n    tag_91:\n        /* \"contracts/LandRegistryNFT.sol\":1332:1367  hasRole(REGISTRAR_ROLE, msg.sender) */\n      tag_266\n        /* \"contracts/LandRegistryNFT.sol\":276:303  keccak256(\"REGISTRAR_ROLE\") */\n      0xedcc084d3dcd65a1f7f23c65c46722faca6953d28e43150a467cf43e5c309238\n        /* \"contracts/LandRegistryNFT.sol\":1356:1366  msg.sender */\n      caller\n        /* \"contracts/LandRegistryNFT.sol\":1332:1339  hasRole */\n      tag_66\n        /* \"contracts/LandRegistryNFT.sol\":1332:1367  hasRole(REGISTRAR_ROLE, msg.sender) */\n      jump\t// in\n    tag_266:\n        /* \"contracts/LandRegistryNFT.sol\":1324:1385  require(hasRole(REGISTRAR_ROLE, msg.sender), \"Not registrar\") */\n      tag_267\n      jumpi\n      mload(0x40)\n      0x08c379a000000000000000000000000000000000000000000000000000000000\n      dup2\n      mstore\n      0x04\n      add\n      tag_268\n      swap1\n      tag_113\n      jump\t// in\n    tag_268:\n      mload(0x40)\n      dup1\n      swap2\n      sub\n      swap1\n      revert\n    tag_267:\n        /* \"contracts/LandRegistryNFT.sol\":2958:2974  _exists(tokenId) */\n      tag_270\n        /* \"contracts/LandRegistryNFT.sol\":2966:2973  tokenId */\n      dup5\n        /* \"contracts/LandRegistryNFT.sol\":2958:2965  _exists */\n      tag_141\n        /* \"contracts/LandRegistryNFT.sol\":2958:2974  _exists(tokenId) */\n      jump\t// in\n    tag_270:\n        /* \"contracts/LandRegistryNFT.sol\":2950:3000  require(_exists(tokenId), \"Parcel does not exist\") */\n      tag_271\n      jumpi\n      mload(0x40)\n      0x08c379a000000000000000000000000000000000000000000000000000000000\n      dup2\n      mstore\n      0x04\n      add\n      tag_272\n      swap1\n      tag_144\n      jump\t// in\n    tag_272:\n      mload(0x40)\n      dup1\n      swap2\n      sub\n      swap1\n      revert\n    tag_271:\n        /* \"contracts/LandRegistryNFT.sol\":3036:3045  newStatus */\n      dup3\n        /* \"contracts/LandRegistryNFT.sol\":3010:3017  parcels */\n      0x06\n        /* \"contracts/LandRegistryNFT.sol\":3010:3026  parcels[tokenId] */\n      0x00\n        /* \"contracts/LandRegistryNFT.sol\":3018:3025  tokenId */\n      dup7\n        /* \"contracts/LandRegistryNFT.sol\":3010:3026  parcels[tokenId] */\n      dup2\n      mstore\n      0x20\n      add\n      swap1\n      dup2\n      mstore\n      0x20\n      add\n      0x00\n      keccak256\n        /* \"contracts/LandRegistryNFT.sol\":3010:3033  parcels[tokenId].status */\n      0x04\n      add\n      0x00\n        /* \"contracts/LandRegistryNFT.sol\":3010:3045  parcels[tokenId].status = newStatus */\n      0x0100\n      exp\n      dup2\n      sload\n      dup2\n      0xff\n      mul\n      not\n      and\n      swap1\n      dup4\n      0x03\n      dup2\n      gt\n      iszero\n      tag_273\n      jumpi\n      tag_274\n      tag_129\n      jump\t// in\n    tag_274:\n    tag_273:\n      mul\n      or\n      swap1\n      sstore\n      pop\n        /* \"contracts/LandRegistryNFT.sol\":3080:3087  tokenId */\n      dup4\n        /* \"contracts/LandRegistryNFT.sol\":3060:3107  ParcelStatusChanged(tokenId, newStatus, reason) */\n      0x0df137f228c4a282196c6c7a66e306be2b21ef02fae4ce1480f1ab71f90c6aa5\n        /* \"contracts/LandRegistryNFT.sol\":3089:3098  newStatus */\n      dup5\n        /* \"contracts/LandRegistryNFT.sol\":3100:3106  reason */\n      dup5\n      dup5\n        /* \"contracts/LandRegistryNFT.sol\":3060:3107  ParcelStatusChanged(tokenId, newStatus, reason) */\n      mload(0x40)\n      tag_275\n      swap4\n      swap3\n      swap2\n      swap1\n      tag_276\n      jump\t// in\n    tag_275:\n      mload(0x40)\n      dup1\n      swap2\n      sub\n      swap1\n      log2\n        /* \"contracts/LandRegistryNFT.sol\":2815:3114  function setParcelStatus(uint256 tokenId, ParcelStatus newStatus, string calldata reason)... */\n      pop\n      pop\n      pop\n      pop\n      jump\t// out\n        /* \"contracts/LandRegistryNFT.sol\":4544:4677  function removeRegistrar(address account) external onlyRole(DEFAULT_ADMIN_ROLE) {... */\n    tag_94:\n        /* \"contracts/AccessControl.sol\":262:266  0x00 */\n      0x00\n        /* \"contracts/LandRegistryNFT.sol\":4604:4622  DEFAULT_ADMIN_ROLE */\n      0x00\n      shl\n        /* \"contracts/AccessControl.sol\":464:489  hasRole(role, msg.sender) */\n      tag_278\n        /* \"contracts/AccessControl.sol\":472:476  role */\n      dup2\n        /* \"contracts/AccessControl.sol\":478:488  msg.sender */\n      caller\n        /* \"contracts/AccessControl.sol\":464:471  hasRole */\n      tag_66\n        /* \"contracts/AccessControl.sol\":464:489  hasRole(role, msg.sender) */\n      jump\t// in\n    tag_278:\n        /* \"contracts/AccessControl.sol\":456:507  require(hasRole(role, msg.sender), \"Access denied\") */\n      tag_279\n      jumpi\n      mload(0x40)\n      0x08c379a000000000000000000000000000000000000000000000000000000000\n      dup2\n      mstore\n      0x04\n      add\n      tag_280\n      swap1\n      tag_261\n      jump\t// in\n    tag_280:\n      mload(0x40)\n      dup1\n      swap2\n      sub\n      swap1\n      revert\n    tag_279:\n        /* \"contracts/LandRegistryNFT.sol\":4634:4670  _revokeRole(REGISTRAR_ROLE, account) */\n      tag_282\n        /* \"contracts/LandRegistryNFT.sol\":276:303  keccak256(\"REGISTRAR_ROLE\") */\n      0xedcc084d3dcd65a1f7f23c65c46722faca6953d28e43150a467cf43e5c309238\n        /* \"contracts/LandRegistryNFT.sol\":4662:4669  account */\n      dup4\n        /* \"contracts/LandRegistryNFT.sol\":4634:4645  _revokeRole */\n      tag_283\n        /* \"contracts/LandRegistryNFT.sol\":4634:4670  _revokeRole(REGISTRAR_ROLE, account) */\n      jump\t// in\n    tag_282:\n        /* \"contracts/LandRegistryNFT.sol\":4544:4677  function removeRegistrar(address account) external onlyRole(DEFAULT_ADMIN_ROLE) {... */\n      pop\n      pop\n      jump\t// out\n        /* \"contracts/LandRegistryNFT.sol\":4210:4403  function getParcelDocuments(uint256 tokenId) external view returns (string[] memory) {... */\n    tag_97:\n        /* \"contracts/LandRegistryNFT.sol\":4278:4293  string[] memory */\n      0x60\n        /* \"contracts/LandRegistryNFT.sol\":4313:4329  _exists(tokenId) */\n      tag_285\n        /* \"contracts/LandRegistryNFT.sol\":4321:4328  tokenId */\n      dup3\n        /* \"contracts/LandRegistryNFT.sol\":4313:4320  _exists */\n      tag_141\n        /* \"contracts/LandRegistryNFT.sol\":4313:4329  _exists(tokenId) */\n      jump\t// in\n    tag_285:\n        /* \"contracts/LandRegistryNFT.sol\":4305:4355  require(_exists(tokenId), \"Parcel does not exist\") */\n      tag_286\n      jumpi\n      mload(0x40)\n      0x08c379a000000000000000000000000000000000000000000000000000000000\n      dup2\n      mstore\n      0x04\n      add\n      tag_287\n      swap1\n      tag_144\n      jump\t// in\n    tag_287:\n      mload(0x40)\n      dup1\n      swap2\n      sub\n      swap1\n      revert\n    tag_286:\n        /* \"contracts/LandRegistryNFT.sol\":4372:4387  parcelDocuments */\n      0x07\n        /* \"contracts/LandRegistryNFT.sol\":4372:4396  parcelDocuments[tokenId] */\n      0x00\n        /* \"contracts/LandRegistryNFT.sol\":4388:4395  tokenId */\n      dup4\n        /* \"contracts/LandRegistryNFT.sol\":4372:4396  parcelDocuments[tokenId] */\n      dup2\n      mstore\n      0x20\n      add\n      swap1\n      dup2\n      mstore\n      0x20\n      add\n      0x00\n      keccak256\n        /* \"contracts/LandRegistryNFT.sol\":4365:4396  return parcelDocuments[tokenId] */\n      dup1\n      sload\n      dup1\n      0x20\n      mul\n      0x20\n      add\n      mload(0x40)\n      swap1\n      dup2\n      add\n      0x40\n      mstore\n      dup1\n      swap3\n      swap2\n      swap1\n      dup2\n      dup2\n      mstore\n      0x20\n      add\n      0x00\n      swap1\n    tag_288:\n      dup3\n      dup3\n      lt\n      iszero\n      tag_289\n      jumpi\n      dup4\n      dup3\n      swap1\n      0x00\n      mstore\n      keccak256(0x00, 0x20)\n      add\n      dup1\n      sload\n      tag_291\n      swap1\n      tag_104\n      jump\t// in\n    tag_291:\n      dup1\n      0x1f\n      add\n      0x20\n      dup1\n      swap2\n      div\n      mul\n      0x20\n      add\n      mload(0x40)\n      swap1\n      dup2\n      add\n      0x40\n      mstore\n      dup1\n      swap3\n      swap2\n      swap1\n      dup2\n      dup2\n      mstore\n      0x20\n      add\n      dup3\n      dup1\n      sload\n      tag_292\n      swap1\n      tag_104\n      jump\t// in\n    tag_292:\n      dup1\n      iszero\n      tag_293\n      jumpi\n      dup1\n      0x1f\n      lt\n      tag_294\n      jumpi\n      0x0100\n      dup1\n      dup4\n      sload\n      div\n      mul\n      dup4\n      mstore\n      swap2\n      0x20\n      add\n      swap2\n      jump(tag_293)\n    tag_294:\n      dup3\n      add\n      swap2\n      swap1\n      0x00\n      mstore\n      keccak256(0x00, 0x20)\n      swap1\n    tag_295:\n      dup2\n      sload\n      dup2\n      mstore\n      swap1\n      0x01\n      add\n      swap1\n      0x20\n      add\n      dup1\n      dup4\n      gt\n      tag_295\n      jumpi\n      dup3\n      swap1\n      sub\n      0x1f\n      and\n      dup3\n      add\n      swap2\n    tag_293:\n      pop\n      pop\n      pop\n      pop\n      pop\n      dup2\n      mstore\n      0x20\n      add\n      swap1\n      0x01\n      add\n      swap1\n      jump(tag_288)\n    tag_289:\n      pop\n      pop\n      pop\n      pop\n      swap1\n      pop\n        /* \"contracts/LandRegistryNFT.sol\":4210:4403  function getParcelDocuments(uint256 tokenId) external view returns (string[] memory) {... */\n      swap2\n      swap1\n      pop\n      jump\t// out\n        /* \"contracts/LandRegistryNFT.sol\":235:303  bytes32 public constant REGISTRAR_ROLE = keccak256(\"REGISTRAR_ROLE\") */\n    tag_101:\n        /* \"contracts/LandRegistryNFT.sol\":276:303  keccak256(\"REGISTRAR_ROLE\") */\n      0xedcc084d3dcd65a1f7f23c65c46722faca6953d28e43150a467cf43e5c309238\n        /* \"contracts/LandRegistryNFT.sol\":235:303  bytes32 public constant REGISTRAR_ROLE = keccak256(\"REGISTRAR_ROLE\") */\n      dup2\n      jump\t// out\n        /* \"contracts/Counters.sol\":251:340  function increment(Counter storage counter) internal {... */\n    tag_122:\n        /* \"contracts/Counters.sol\":332:333  1 */\n      0x01\n        /* \"contracts/Counters.sol\":314:321  counter */\n      dup2\n        /* \"contracts/Counters.sol\":314:328  counter._value */\n      0x00\n      add\n      0x00\n        /* \"contracts/Counters.sol\":314:333  counter._value += 1 */\n      dup3\n      dup3\n      sload\n      tag_297\n      swap2\n      swap1\n      tag_298\n      jump\t// in\n    tag_297:\n      swap3\n      pop\n      pop\n      dup2\n      swap1\n      sstore\n      pop\n        /* \"contracts/Counters.sol\":251:340  function increment(Counter storage counter) internal {... */\n      pop\n      jump\t// out\n        /* \"contracts/Counters.sol\":133:245  function current(Counter storage counter) internal view returns (uint256) {... */\n    tag_124:\n        /* \"contracts/Counters.sol\":198:205  uint256 */\n      0x00\n        /* \"contracts/Counters.sol\":224:231  counter */\n      dup2\n        /* \"contracts/Counters.sol\":224:238  counter._value */\n      0x00\n      add\n      sload\n        /* \"contracts/Counters.sol\":217:238  return counter._value */\n      swap1\n      pop\n        /* \"contracts/Counters.sol\":133:245  function current(Counter storage counter) internal view returns (uint256) {... */\n      swap2\n      swap1\n      pop\n      jump\t// out\n        /* \"contracts/ERC721.sol\":965:1312  function _safeMint(address to, uint256 tokenId) internal virtual {... */\n    tag_126:\n        /* \"contracts/ERC721.sol\":1062:1063  0 */\n      0x00\n        /* \"contracts/ERC721.sol\":1048:1064  to != address(0) */\n      0xffffffffffffffffffffffffffffffffffffffff\n      and\n        /* \"contracts/ERC721.sol\":1048:1050  to */\n      dup3\n        /* \"contracts/ERC721.sol\":1048:1064  to != address(0) */\n      0xffffffffffffffffffffffffffffffffffffffff\n      and\n      sub\n        /* \"contracts/ERC721.sol\":1040:1081  require(to != address(0), \"Zero address\") */\n      tag_301\n      jumpi\n      mload(0x40)\n      0x08c379a000000000000000000000000000000000000000000000000000000000\n      dup2\n      mstore\n      0x04\n      add\n      tag_302\n      swap1\n      tag_211\n      jump\t// in\n    tag_302:\n      mload(0x40)\n      dup1\n      swap2\n      sub\n      swap1\n      revert\n    tag_301:\n        /* \"contracts/ERC721.sol\":1100:1116  _exists(tokenId) */\n      tag_303\n        /* \"contracts/ERC721.sol\":1108:1115  tokenId */\n      dup2\n        /* \"contracts/ERC721.sol\":1100:1107  _exists */\n      tag_141\n        /* \"contracts/ERC721.sol\":1100:1116  _exists(tokenId) */\n      jump\t// in\n    tag_303:\n        /* \"contracts/ERC721.sol\":1099:1116  !_exists(tokenId) */\n      iszero\n        /* \"contracts/ERC721.sol\":1091:1135  require(!_exists(tokenId), \"Already minted\") */\n      tag_304\n      jumpi\n      mload(0x40)\n      0x08c379a000000000000000000000000000000000000000000000000000000000\n      dup2\n      mstore\n      0x04\n      add\n      tag_305\n      swap1\n      tag_306\n      jump\t// in\n    tag_305:\n      mload(0x40)\n      dup1\n      swap2\n      sub\n      swap1\n      revert\n    tag_304:\n        /* \"contracts/ERC721.sol\":1163:1164  1 */\n      0x01\n        /* \"contracts/ERC721.sol\":1146:1155  _balances */\n      0x03\n        /* \"contracts/ERC721.sol\":1146:1159  _balances[to] */\n      0x00\n        /* \"contracts/ERC721.sol\":1156:1158  to */\n      dup5\n        /* \"contracts/ERC721.sol\":1146:1159  _balances[to] */\n      0xffffffffffffffffffffffffffffffffffffffff\n      and\n      0xffffffffffffffffffffffffffffffffffffffff\n      and\n      dup2\n      mstore\n      0x20\n      add\n      swap1\n      dup2\n      mstore\n      0x20\n      add\n      0x00\n      keccak256\n      0x00\n        /* \"contracts/ERC721.sol\":1146:1164  _balances[to] += 1 */\n      dup3\n      dup3\n      sload\n      tag_307\n      swap2\n      swap1\n      tag_298\n      jump\t// in\n    tag_307:\n      swap3\n      pop\n      pop\n      dup2\n      swap1\n      sstore\n      pop\n        /* \"contracts/ERC721.sol\":1193:1195  to */\n      dup2\n        /* \"contracts/ERC721.sol\":1174:1181  _owners */\n      0x02\n        /* \"contracts/ERC721.sol\":1174:1190  _owners[tokenId] */\n      0x00\n        /* \"contracts/ERC721.sol\":1182:1189  tokenId */\n      dup4\n        /* \"contracts/ERC721.sol\":1174:1190  _owners[tokenId] */\n      dup2\n      mstore\n      0x20\n      add\n      swap1\n      dup2\n      mstore\n      0x20\n      add\n      0x00\n      keccak256\n      0x00\n        /* \"contracts/ERC721.sol\":1174:1195  _owners[tokenId] = to */\n      0x0100\n      exp\n      dup2\n      sload\n      dup2\n      0xffffffffffffffffffffffffffffffffffffffff\n      mul\n      not\n      and\n      swap1\n      dup4\n      0xffffffffffffffffffffffffffffffffffffffff\n      and\n      mul\n      or\n      swap1\n      sstore\n      pop\n        /* \"contracts/ERC721.sol\":1235:1242  tokenId */\n      dup1\n        /* \"contracts/ERC721.sol\":1231:1233  to */\n      dup3\n        /* \"contracts/ERC721.sol\":1210:1243  Transfer(address(0), to, tokenId) */\n      0xffffffffffffffffffffffffffffffffffffffff\n      and\n        /* \"contracts/ERC721.sol\":1227:1228  0 */\n      0x00\n        /* \"contracts/ERC721.sol\":1210:1243  Transfer(address(0), to, tokenId) */\n      0xffffffffffffffffffffffffffffffffffffffff\n      and\n      0xddf252ad1be2c89b69c2b068fc378daa952ba7f163c4a11628f55a4df523b3ef\n      mload(0x40)\n      mload(0x40)\n      dup1\n      swap2\n      sub\n      swap1\n      log4\n        /* \"contracts/ERC721.sol\":1254:1305  _checkOnERC721Received(address(0), to, tokenId, \"\") */\n      tag_308\n        /* \"contracts/ERC721.sol\":1285:1286  0 */\n      0x00\n        /* \"contracts/ERC721.sol\":1289:1291  to */\n      dup4\n        /* \"contracts/ERC721.sol\":1293:1300  tokenId */\n      dup4\n        /* \"contracts/ERC721.sol\":1254:1305  _checkOnERC721Received(address(0), to, tokenId, \"\") */\n      mload(0x40)\n      dup1\n      0x20\n      add\n      0x40\n      mstore\n      dup1\n      0x00\n      dup2\n      mstore\n      pop\n        /* \"contracts/ERC721.sol\":1254:1276  _checkOnERC721Received */\n      tag_309\n        /* \"contracts/ERC721.sol\":1254:1305  _checkOnERC721Received(address(0), to, tokenId, \"\") */\n      jump\t// in\n    tag_308:\n        /* \"contracts/ERC721.sol\":965:1312  function _safeMint(address to, uint256 tokenId) internal virtual {... */\n      pop\n      pop\n      jump\t// out\n        /* \"contracts/ERC721.sol\":842:959  function _exists(uint256 tokenId) internal view returns (bool) {... */\n    tag_141:\n        /* \"contracts/ERC721.sol\":899:903  bool */\n      0x00\n        /* \"contracts/ERC721.sol\":950:951  0 */\n      0x00\n        /* \"contracts/ERC721.sol\":922:952  _owners[tokenId] != address(0) */\n      0xffffffffffffffffffffffffffffffffffffffff\n      and\n        /* \"contracts/ERC721.sol\":922:929  _owners */\n      0x02\n        /* \"contracts/ERC721.sol\":922:938  _owners[tokenId] */\n      0x00\n        /* \"contracts/ERC721.sol\":930:937  tokenId */\n      dup5\n        /* \"contracts/ERC721.sol\":922:938  _owners[tokenId] */\n      dup2\n      mstore\n      0x20\n      add\n      swap1\n      dup2\n      mstore\n      0x20\n      add\n      0x00\n      keccak256\n      0x00\n      swap1\n      sload\n      swap1\n      0x0100\n      exp\n      swap1\n      div\n      0xffffffffffffffffffffffffffffffffffffffff\n      and\n        /* \"contracts/ERC721.sol\":922:952  _owners[tokenId] != address(0) */\n      0xffffffffffffffffffffffffffffffffffffffff\n      and\n      eq\n      iszero\n        /* \"contracts/ERC721.sol\":915:952  return _owners[tokenId] != address(0) */\n      swap1\n      pop\n        /* \"contracts/ERC721.sol\":842:959  function _exists(uint256 tokenId) internal view returns (bool) {... */\n      swap2\n      swap1\n      pop\n      jump\t// out\n        /* \"contracts/ERC721.sol\":1318:1762  function _safeTransfer(... */\n    tag_190:\n        /* \"contracts/ERC721.sol\":1496:1500  from */\n      dup4\n        /* \"contracts/ERC721.sol\":1476:1500  ownerOf(tokenId) == from */\n      0xffffffffffffffffffffffffffffffffffffffff\n      and\n        /* \"contracts/ERC721.sol\":1476:1492  ownerOf(tokenId) */\n      tag_312\n        /* \"contracts/ERC721.sol\":1484:1491  tokenId */\n      dup4\n        /* \"contracts/ERC721.sol\":1476:1483  ownerOf */\n      tag_46\n        /* \"contracts/ERC721.sol\":1476:1492  ownerOf(tokenId) */\n      jump\t// in\n    tag_312:\n        /* \"contracts/ERC721.sol\":1476:1500  ownerOf(tokenId) == from */\n      0xffffffffffffffffffffffffffffffffffffffff\n      and\n      eq\n        /* \"contracts/ERC721.sol\":1468:1514  require(ownerOf(tokenId) == from, \"Not owner\") */\n      tag_313\n      jumpi\n      mload(0x40)\n      0x08c379a000000000000000000000000000000000000000000000000000000000\n      dup2\n      mstore\n      0x04\n      add\n      tag_314\n      swap1\n      tag_315\n      jump\t// in\n    tag_314:\n      mload(0x40)\n      dup1\n      swap2\n      sub\n      swap1\n      revert\n    tag_313:\n        /* \"contracts/ERC721.sol\":1546:1547  0 */\n      0x00\n        /* \"contracts/ERC721.sol\":1532:1548  to != address(0) */\n      0xffffffffffffffffffffffffffffffffffffffff\n      and\n        /* \"contracts/ERC721.sol\":1532:1534  to */\n      dup4\n        /* \"contracts/ERC721.sol\":1532:1548  to != address(0) */\n      0xffffffffffffffffffffffffffffffffffffffff\n      and\n      sub\n        /* \"contracts/ERC721.sol\":1524:1565  require(to != address(0), \"Zero address\") */\n      tag_316\n      jumpi\n      mload(0x40)\n      0x08c379a000000000000000000000000000000000000000000000000000000000\n      dup2\n      mstore\n      0x04\n      add\n      tag_317\n      swap1\n      tag_211\n      jump\t// in\n    tag_317:\n      mload(0x40)\n      dup1\n      swap2\n      sub\n      swap1\n      revert\n    tag_316:\n        /* \"contracts/ERC721.sol\":1595:1596  1 */\n      0x01\n        /* \"contracts/ERC721.sol\":1576:1585  _balances */\n      0x03\n        /* \"contracts/ERC721.sol\":1576:1591  _balances[from] */\n      0x00\n        /* \"contracts/ERC721.sol\":1586:1590  from */\n      dup7\n        /* \"contracts/ERC721.sol\":1576:1591  _balances[from] */\n      0xffffffffffffffffffffffffffffffffffffffff\n      and\n      0xffffffffffffffffffffffffffffffffffffffff\n      and\n      dup2\n      mstore\n      0x20\n      add\n      swap1\n      dup2\n      mstore\n      0x20\n      add\n      0x00\n      keccak256\n      0x00\n        /* \"contracts/ERC721.sol\":1576:1596  _balances[from] -= 1 */\n      dup3\n      dup3\n      sload\n      tag_318\n      swap2\n      swap1\n      tag_319\n      jump\t// in\n    tag_318:\n      swap3\n      pop\n      pop\n      dup2\n      swap1\n      sstore\n      pop\n        /* \"contracts/ERC721.sol\":1623:1624  1 */\n      0x01\n        /* \"contracts/ERC721.sol\":1606:1615  _balances */\n      0x03\n        /* \"contracts/ERC721.sol\":1606:1619  _balances[to] */\n      0x00\n        /* \"contracts/ERC721.sol\":1616:1618  to */\n      dup6\n        /* \"contracts/ERC721.sol\":1606:1619  _balances[to] */\n      0xffffffffffffffffffffffffffffffffffffffff\n      and\n      0xffffffffffffffffffffffffffffffffffffffff\n      and\n      dup2\n      mstore\n      0x20\n      add\n      swap1\n      dup2\n      mstore\n      0x20\n      add\n      0x00\n      keccak256\n      0x00\n        /* \"contracts/ERC721.sol\":1606:1624  _balances[to] += 1 */\n      dup3\n      dup3\n      sload\n      tag_320\n      swap2\n      swap1\n      tag_298\n      jump\t// in\n    tag_320:\n      swap3\n      pop\n      pop\n      dup2\n      swap1\n      sstore\n      pop\n        /* \"contracts/ERC721.sol\":1653:1655  to */\n      dup3\n        /* \"contracts/ERC721.sol\":1634:1641  _owners */\n      0x02\n        /* \"contracts/ERC721.sol\":1634:1650  _owners[tokenId] */\n      0x00\n        /* \"contracts/ERC721.sol\":1642:1649  tokenId */\n      dup5\n        /* \"contracts/ERC721.sol\":1634:1650  _owners[tokenId] */\n      dup2\n      mstore\n      0x20\n      add\n      swap1\n      dup2\n      mstore\n      0x20\n      add\n      0x00\n      keccak256\n      0x00\n        /* \"contracts/ERC721.sol\":1634:1655  _owners[tokenId] = to */\n      0x0100\n      exp\n      dup2\n      sload\n      dup2\n      0xffffffffffffffffffffffffffffffffffffffff\n      mul\n      not\n      and\n      swap1\n      dup4\n      0xffffffffffffffffffffffffffffffffffffffff\n      and\n      mul\n      or\n      swap1\n      sstore\n      pop\n        /* \"contracts/ERC721.sol\":1689:1696  tokenId */\n      dup2\n        /* \"contracts/ERC721.sol\":1685:1687  to */\n      dup4\n        /* \"contracts/ERC721.sol\":1670:1697  Transfer(from, to, tokenId) */\n      0xffffffffffffffffffffffffffffffffffffffff\n      and\n        /* \"contracts/ERC721.sol\":1679:1683  from */\n      dup6\n        /* \"contracts/ERC721.sol\":1670:1697  Transfer(from, to, tokenId) */\n      0xffffffffffffffffffffffffffffffffffffffff\n      and\n      0xddf252ad1be2c89b69c2b068fc378daa952ba7f163c4a11628f55a4df523b3ef\n      mload(0x40)\n      mload(0x40)\n      dup1\n      swap2\n      sub\n      swap1\n      log4\n        /* \"contracts/ERC721.sol\":1708:1755  _checkOnERC721Received(from, to, tokenId, data) */\n      tag_321\n        /* \"contracts/ERC721.sol\":1731:1735  from */\n      dup5\n        /* \"contracts/ERC721.sol\":1737:1739  to */\n      dup5\n        /* \"contracts/ERC721.sol\":1741:1748  tokenId */\n      dup5\n        /* \"contracts/ERC721.sol\":1750:1754  data */\n      dup5\n        /* \"contracts/ERC721.sol\":1708:1730  _checkOnERC721Received */\n      tag_309\n        /* \"contracts/ERC721.sol\":1708:1755  _checkOnERC721Received(from, to, tokenId, data) */\n      jump\t// in\n    tag_321:\n        /* \"contracts/ERC721.sol\":1318:1762  function _safeTransfer(... */\n      pop\n      pop\n      pop\n      pop\n      jump\t// out\n        /* \"contracts/AccessControl.sol\":665:819  function _grantRole(bytes32 role, address account) internal {... */\n    tag_264:\n        /* \"contracts/AccessControl.sol\":767:771  true */\n      0x01\n        /* \"contracts/AccessControl.sol\":735:741  _roles */\n      0x04\n        /* \"contracts/AccessControl.sol\":735:747  _roles[role] */\n      0x00\n        /* \"contracts/AccessControl.sol\":742:746  role */\n      dup5\n        /* \"contracts/AccessControl.sol\":735:747  _roles[role] */\n      dup2\n      mstore\n      0x20\n      add\n      swap1\n      dup2\n      mstore\n      0x20\n      add\n      0x00\n      keccak256\n        /* \"contracts/AccessControl.sol\":735:755  _roles[role].members */\n      0x00\n      add\n        /* \"contracts/AccessControl.sol\":735:764  _roles[role].members[account] */\n      0x00\n        /* \"contracts/AccessControl.sol\":756:763  account */\n      dup4\n        /* \"contracts/AccessControl.sol\":735:764  _roles[role].members[account] */\n      0xffffffffffffffffffffffffffffffffffffffff\n      and\n      0xffffffffffffffffffffffffffffffffffffffff\n      and\n      dup2\n      mstore\n      0x20\n      add\n      swap1\n      dup2\n      mstore\n      0x20\n      add\n      0x00\n      keccak256\n      0x00\n        /* \"contracts/AccessControl.sol\":735:771  _roles[role].members[account] = true */\n      0x0100\n      exp\n      dup2\n      sload\n      dup2\n      0xff\n      mul\n      not\n      and\n      swap1\n      dup4\n      iszero\n      iszero\n      mul\n      or\n      swap1\n      sstore\n      pop\n        /* \"contracts/AccessControl.sol\":804:811  account */\n      dup1\n        /* \"contracts/AccessControl.sol\":786:812  RoleGranted(role, account) */\n      0xffffffffffffffffffffffffffffffffffffffff\n      and\n        /* \"contracts/AccessControl.sol\":798:802  role */\n      dup3\n        /* \"contracts/AccessControl.sol\":786:812  RoleGranted(role, account) */\n      0x2ae6a113c0ed5b78a53413ffbb7679881f11145ccfba4fb92e863dfcd5a1d2f3\n      mload(0x40)\n      mload(0x40)\n      dup1\n      swap2\n      sub\n      swap1\n      log3\n        /* \"contracts/AccessControl.sol\":665:819  function _grantRole(bytes32 role, address account) internal {... */\n      pop\n      pop\n      jump\t// out\n        /* \"contracts/AccessControl.sol\":825:981  function _revokeRole(bytes32 role, address account) internal {... */\n    tag_283:\n        /* \"contracts/AccessControl.sol\":928:933  false */\n      0x00\n        /* \"contracts/AccessControl.sol\":896:902  _roles */\n      0x04\n        /* \"contracts/AccessControl.sol\":896:908  _roles[role] */\n      0x00\n        /* \"contracts/AccessControl.sol\":903:907  role */\n      dup5\n        /* \"contracts/AccessControl.sol\":896:908  _roles[role] */\n      dup2\n      mstore\n      0x20\n      add\n      swap1\n      dup2\n      mstore\n      0x20\n      add\n      0x00\n      keccak256\n        /* \"contracts/AccessControl.sol\":896:916  _roles[role].members */\n      0x00\n      add\n        /* \"contracts/AccessControl.sol\":896:925  _roles[role].members[account] */\n      0x00\n        /* \"contracts/AccessControl.sol\":917:924  account */\n      dup4\n        /* \"contracts/AccessControl.sol\":896:925  _roles[role].members[account] */\n      0xffffffffffffffffffffffffffffffffffffffff\n      and\n      0xffffffffffffffffffffffffffffffffffffffff\n      and\n      dup2\n      mstore\n      0x20\n      add\n      swap1\n      dup2\n      mstore\n      0x20\n      add\n      0x00\n      keccak256\n      0x00\n        /* \"contracts/AccessControl.sol\":896:933  _roles[role].members[account] = false */\n      0x0100\n      exp\n      dup2\n      sload\n      dup2\n      0xff\n      mul\n      not\n      and\n      swap1\n      dup4\n      iszero\n      iszero\n      mul\n      or\n      swap1\n      sstore\n      pop\n        /* \"contracts/AccessControl.sol\":966:973  account */\n      dup1\n        /* \"contracts/AccessControl.sol\":948:974  RoleRevoked(role, account) */\n      0xffffffffffffffffffffffffffffffffffffffff\n      and\n        /* \"contracts/AccessControl.sol\":960:964  role */\n      dup3\n        /* \"contracts/AccessControl.sol\":948:974  RoleRevoked(role, account) */\n      0x155aaafb6329a2098580462df33ec4b7441b19729b9601c5fc17ae1cf99a8a52\n      mload(0x40)\n      mload(0x40)\n      dup1\n      swap2\n      sub\n      swap1\n      log3\n        /* \"contracts/AccessControl.sol\":825:981  function _revokeRole(bytes32 role, address account) internal {... */\n      pop\n      pop\n      jump\t// out\n        /* \"contracts/ERC721.sol\":1768:2425  function _checkOnERC721Received(... */\n    tag_309:\n        /* \"contracts/ERC721.sol\":2001:2002  0 */\n      0x00\n        /* \"contracts/ERC721.sol\":1984:1986  to */\n      dup4\n        /* \"contracts/ERC721.sol\":1984:1998  to.code.length */\n      0xffffffffffffffffffffffffffffffffffffffff\n      and\n      extcodesize\n        /* \"contracts/ERC721.sol\":1984:2002  to.code.length > 0 */\n      gt\n        /* \"contracts/ERC721.sol\":1980:2419  if (to.code.length > 0) {... */\n      iszero\n      tag_325\n      jumpi\n        /* \"contracts/ERC721.sol\":2038:2040  to */\n      dup3\n        /* \"contracts/ERC721.sol\":2022:2058  IERC721Receiver(to).onERC721Received */\n      0xffffffffffffffffffffffffffffffffffffffff\n      and\n      0x150b7a02\n        /* \"contracts/ERC721.sol\":2059:2069  msg.sender */\n      caller\n        /* \"contracts/ERC721.sol\":2071:2075  from */\n      dup7\n        /* \"contracts/ERC721.sol\":2077:2084  tokenId */\n      dup6\n        /* \"contracts/ERC721.sol\":2086:2090  data */\n      dup6\n        /* \"contracts/ERC721.sol\":2022:2091  IERC721Receiver(to).onERC721Received(msg.sender, from, tokenId, data) */\n      mload(0x40)\n      dup6\n      0xffffffff\n      and\n      0xe0\n      shl\n      dup2\n      mstore\n      0x04\n      add\n      tag_326\n      swap5\n      swap4\n      swap3\n      swap2\n      swap1\n      tag_327\n      jump\t// in\n    tag_326:\n      0x20\n      mload(0x40)\n      dup1\n      dup4\n      sub\n      dup2\n      0x00\n      dup8\n      gas\n      call\n      swap3\n      pop\n      pop\n      pop\n      dup1\n      iszero\n      tag_328\n      jumpi\n      pop\n      mload(0x40)\n      returndatasize\n      not(0x1f)\n      0x1f\n      dup3\n      add\n      and\n      dup3\n      add\n      dup1\n      0x40\n      mstore\n      pop\n      dup2\n      add\n      swap1\n      tag_329\n      swap2\n      swap1\n      tag_330\n      jump\t// in\n    tag_329:\n      0x01\n    tag_328:\n        /* \"contracts/ERC721.sol\":2018:2409  try IERC721Receiver(to).onERC721Received(msg.sender, from, tokenId, data)... */\n      tag_331\n      jumpi\n        /* \"contracts/ERC721.sol\":2354:2394  revert(\"Transfer to non ERC721Receiver\") */\n      mload(0x40)\n      0x08c379a000000000000000000000000000000000000000000000000000000000\n      dup2\n      mstore\n      0x04\n      add\n      tag_335\n      swap1\n      tag_336\n      jump\t// in\n    tag_335:\n      mload(0x40)\n      dup1\n      swap2\n      sub\n      swap1\n      revert\n        /* \"contracts/ERC721.sol\":2018:2409  try IERC721Receiver(to).onERC721Received(msg.sender, from, tokenId, data)... */\n    tag_331:\n        /* \"contracts/ERC721.sol\":2201:2242  IERC721Receiver.onERC721Received.selector */\n      shl(0xe0, 0x150b7a02)\n        /* \"contracts/ERC721.sol\":2191:2242  retval == IERC721Receiver.onERC721Received.selector */\n      not(0xffffffffffffffffffffffffffffffffffffffffffffffffffffffff)\n      and\n        /* \"contracts/ERC721.sol\":2191:2197  retval */\n      dup2\n        /* \"contracts/ERC721.sol\":2191:2242  retval == IERC721Receiver.onERC721Received.selector */\n      not(0xffffffffffffffffffffffffffffffffffffffffffffffffffffffff)\n      and\n      eq\n        /* \"contracts/ERC721.sol\":2162:2314  require(... */\n      tag_338\n      jumpi\n      mload(0x40)\n      0x08c379a000000000000000000000000000000000000000000000000000000000\n      dup2\n      mstore\n      0x04\n      add\n      tag_339\n      swap1\n      tag_340\n      jump\t// in\n    tag_339:\n      mload(0x40)\n      dup1\n      swap2\n      sub\n      swap1\n      revert\n    tag_338:\n        /* \"contracts/ERC721.sol\":2108:2329  returns (bytes4 retval)... */\n      pop\n        /* \"contracts/ERC721.sol\":1980:2419  if (to.code.length > 0) {... */\n    tag_325:\n        /* \"contracts/ERC721.sol\":1768:2425  function _checkOnERC721Received(... */\n      pop\n      pop\n      pop\n      pop\n      jump\t// out\n        /* \"#utility.yul\":7:106   */\n    tag_341:\n        /* \"#utility.yul\":59:65   */\n      0x00\n        /* \"#utility.yul\":93:98   */\n      dup2\n        /* \"#utility.yul\":87:99   */\n      mload\n        /* \"#utility.yul\":77:99   */\n      swap1\n      pop\n        /* \"#utility.yul\":7:106   */\n      swap2\n      swap1\n      pop\n      jump\t// out\n        /* \"#utility.yul\":112:281   */\n    tag_342:\n        /* \"#utility.yul\":196:207   */\n      0x00\n        /* \"#utility.yul\":230:236   */\n      dup3\n        /* \"#utility.yul\":225:228   */\n      dup3\n        /* \"#utility.yul\":218:237   */\n      mstore\n        /* \"#utility.yul\":270:274   */\n      0x20\n        /* \"#utility.yul\":265:268   */\n      dup3\n        /* \"#utility.yul\":261:275   */\n      add\n        /* \"#utility.yul\":246:275   */\n      swap1\n      pop\n        /* \"#utility.yul\":112:281   */\n      swap3\n      swap2\n      pop\n      pop\n      jump\t// out\n        /* \"#utility.yul\":287:426   */\n    tag_343:\n        /* \"#utility.yul\":376:382   */\n      dup3\n        /* \"#utility.yul\":371:374   */\n      dup2\n        /* \"#utility.yul\":366:369   */\n      dup4\n        /* \"#utility.yul\":360:383   */\n      mcopy\n        /* \"#utility.yul\":417:418   */\n      0x00\n        /* \"#utility.yul\":408:414   */\n      dup4\n        /* \"#utility.yul\":403:406   */\n      dup4\n        /* \"#utility.yul\":399:415   */\n      add\n        /* \"#utility.yul\":392:419   */\n      mstore\n        /* \"#utility.yul\":287:426   */\n      pop\n      pop\n      pop\n      jump\t// out\n        /* \"#utility.yul\":432:534   */\n    tag_344:\n        /* \"#utility.yul\":473:479   */\n      0x00\n        /* \"#utility.yul\":524:526   */\n      0x1f\n        /* \"#utility.yul\":520:527   */\n      not\n        /* \"#utility.yul\":515:517   */\n      0x1f\n        /* \"#utility.yul\":508:513   */\n      dup4\n        /* \"#utility.yul\":504:518   */\n      add\n        /* \"#utility.yul\":500:528   */\n      and\n        /* \"#utility.yul\":490:528   */\n      swap1\n      pop\n        /* \"#utility.yul\":432:534   */\n      swap2\n      swap1\n      pop\n      jump\t// out\n        /* \"#utility.yul\":540:917   */\n    tag_345:\n        /* \"#utility.yul\":628:631   */\n      0x00\n        /* \"#utility.yul\":656:695   */\n      tag_443\n        /* \"#utility.yul\":689:694   */\n      dup3\n        /* \"#utility.yul\":656:695   */\n      tag_341\n      jump\t// in\n    tag_443:\n        /* \"#utility.yul\":711:782   */\n      tag_444\n        /* \"#utility.yul\":775:781   */\n      dup2\n        /* \"#utility.yul\":770:773   */\n      dup6\n        /* \"#utility.yul\":711:782   */\n      tag_342\n      jump\t// in\n    tag_444:\n        /* \"#utility.yul\":704:782   */\n      swap4\n      pop\n        /* \"#utility.yul\":791:856   */\n      tag_445\n        /* \"#utility.yul\":849:855   */\n      dup2\n        /* \"#utility.yul\":844:847   */\n      dup6\n        /* \"#utility.yul\":837:841   */\n      0x20\n        /* \"#utility.yul\":830:835   */\n      dup7\n        /* \"#utility.yul\":826:842   */\n      add\n        /* \"#utility.yul\":791:856   */\n      tag_343\n      jump\t// in\n    tag_445:\n        /* \"#utility.yul\":881:910   */\n      tag_446\n        /* \"#utility.yul\":903:909   */\n      dup2\n        /* \"#utility.yul\":881:910   */\n      tag_344\n      jump\t// in\n    tag_446:\n        /* \"#utility.yul\":876:879   */\n      dup5\n        /* \"#utility.yul\":872:911   */\n      add\n        /* \"#utility.yul\":865:911   */\n      swap2\n      pop\n        /* \"#utility.yul\":632:917   */\n      pop\n        /* \"#utility.yul\":540:917   */\n      swap3\n      swap2\n      pop\n      pop\n      jump\t// out\n        /* \"#utility.yul\":923:1236   */\n    tag_27:\n        /* \"#utility.yul\":1036:1040   */\n      0x00\n        /* \"#utility.yul\":1074:1076   */\n      0x20\n        /* \"#utility.yul\":1063:1072   */\n      dup3\n        /* \"#utility.yul\":1059:1077   */\n      add\n        /* \"#utility.yul\":1051:1077   */\n      swap1\n      pop\n        /* \"#utility.yul\":1123:1132   */\n      dup2\n        /* \"#utility.yul\":1117:1121   */\n      dup2\n        /* \"#utility.yul\":1113:1133   */\n      sub\n        /* \"#utility.yul\":1109:1110   */\n      0x00\n        /* \"#utility.yul\":1098:1107   */\n      dup4\n        /* \"#utility.yul\":1094:1111   */\n      add\n        /* \"#utility.yul\":1087:1134   */\n      mstore\n        /* \"#utility.yul\":1151:1229   */\n      tag_448\n        /* \"#utility.yul\":1224:1228   */\n      dup2\n        /* \"#utility.yul\":1215:1221   */\n      dup5\n        /* \"#utility.yul\":1151:1229   */\n      tag_345\n      jump\t// in\n    tag_448:\n        /* \"#utility.yul\":1143:1229   */\n      swap1\n      pop\n        /* \"#utility.yul\":923:1236   */\n      swap3\n      swap2\n      pop\n      pop\n      jump\t// out\n        /* \"#utility.yul\":1323:1440   */\n    tag_347:\n        /* \"#utility.yul\":1432:1433   */\n      0x00\n        /* \"#utility.yul\":1429:1430   */\n      0x00\n        /* \"#utility.yul\":1422:1434   */\n      revert\n        /* \"#utility.yul\":1446:1563   */\n    tag_348:\n        /* \"#utility.yul\":1555:1556   */\n      0x00\n        /* \"#utility.yul\":1552:1553   */\n      0x00\n        /* \"#utility.yul\":1545:1557   */\n      revert\n        /* \"#utility.yul\":1569:1695   */\n    tag_349:\n        /* \"#utility.yul\":1606:1613   */\n      0x00\n        /* \"#utility.yul\":1646:1688   */\n      0xffffffffffffffffffffffffffffffffffffffff\n        /* \"#utility.yul\":1639:1644   */\n      dup3\n        /* \"#utility.yul\":1635:1689   */\n      and\n        /* \"#utility.yul\":1624:1689   */\n      swap1\n      pop\n        /* \"#utility.yul\":1569:1695   */\n      swap2\n      swap1\n      pop\n      jump\t// out\n        /* \"#utility.yul\":1701:1797   */\n    tag_350:\n        /* \"#utility.yul\":1738:1745   */\n      0x00\n        /* \"#utility.yul\":1767:1791   */\n      tag_454\n        /* \"#utility.yul\":1785:1790   */\n      dup3\n        /* \"#utility.yul\":1767:1791   */\n      tag_349\n      jump\t// in\n    tag_454:\n        /* \"#utility.yul\":1756:1791   */\n      swap1\n      pop\n        /* \"#utility.yul\":1701:1797   */\n      swap2\n      swap1\n      pop\n      jump\t// out\n        /* \"#utility.yul\":1803:1925   */\n    tag_351:\n        /* \"#utility.yul\":1876:1900   */\n      tag_456\n        /* \"#utility.yul\":1894:1899   */\n      dup2\n        /* \"#utility.yul\":1876:1900   */\n      tag_350\n      jump\t// in\n    tag_456:\n        /* \"#utility.yul\":1869:1874   */\n      dup2\n        /* \"#utility.yul\":1866:1901   */\n      eq\n        /* \"#utility.yul\":1856:1919   */\n      tag_457\n      jumpi\n        /* \"#utility.yul\":1915:1916   */\n      0x00\n        /* \"#utility.yul\":1912:1913   */\n      0x00\n        /* \"#utility.yul\":1905:1917   */\n      revert\n        /* \"#utility.yul\":1856:1919   */\n    tag_457:\n        /* \"#utility.yul\":1803:1925   */\n      pop\n      jump\t// out\n        /* \"#utility.yul\":1931:2070   */\n    tag_352:\n        /* \"#utility.yul\":1977:1982   */\n      0x00\n        /* \"#utility.yul\":2015:2021   */\n      dup2\n        /* \"#utility.yul\":2002:2022   */\n      calldataload\n        /* \"#utility.yul\":1993:2022   */\n      swap1\n      pop\n        /* \"#utility.yul\":2031:2064   */\n      tag_459\n        /* \"#utility.yul\":2058:2063   */\n      dup2\n        /* \"#utility.yul\":2031:2064   */\n      tag_351\n      jump\t// in\n    tag_459:\n        /* \"#utility.yul\":1931:2070   */\n      swap3\n      swap2\n      pop\n      pop\n      jump\t// out\n        /* \"#utility.yul\":2076:2193   */\n    tag_353:\n        /* \"#utility.yul\":2185:2186   */\n      0x00\n        /* \"#utility.yul\":2182:2183   */\n      0x00\n        /* \"#utility.yul\":2175:2187   */\n      revert\n        /* \"#utility.yul\":2199:2316   */\n    tag_354:\n        /* \"#utility.yul\":2308:2309   */\n      0x00\n        /* \"#utility.yul\":2305:2306   */\n      0x00\n        /* \"#utility.yul\":2298:2310   */\n      revert\n        /* \"#utility.yul\":2322:2439   */\n    tag_355:\n        /* \"#utility.yul\":2431:2432   */\n      0x00\n        /* \"#utility.yul\":2428:2429   */\n      0x00\n        /* \"#utility.yul\":2421:2433   */\n      revert\n        /* \"#utility.yul\":2459:3012   */\n    tag_356:\n        /* \"#utility.yul\":2517:2525   */\n      0x00\n        /* \"#utility.yul\":2527:2533   */\n      0x00\n        /* \"#utility.yul\":2577:2580   */\n      dup4\n        /* \"#utility.yul\":2570:2574   */\n      0x1f\n        /* \"#utility.yul\":2562:2568   */\n      dup5\n        /* \"#utility.yul\":2558:2575   */\n      add\n        /* \"#utility.yul\":2554:2581   */\n      slt\n        /* \"#utility.yul\":2544:2666   */\n      tag_464\n      jumpi\n        /* \"#utility.yul\":2585:2664   */\n      tag_465\n      tag_353\n      jump\t// in\n    tag_465:\n        /* \"#utility.yul\":2544:2666   */\n    tag_464:\n        /* \"#utility.yul\":2698:2704   */\n      dup3\n        /* \"#utility.yul\":2685:2705   */\n      calldataload\n        /* \"#utility.yul\":2675:2705   */\n      swap1\n      pop\n        /* \"#utility.yul\":2728:2746   */\n      0xffffffffffffffff\n        /* \"#utility.yul\":2720:2726   */\n      dup2\n        /* \"#utility.yul\":2717:2747   */\n      gt\n        /* \"#utility.yul\":2714:2831   */\n      iszero\n      tag_466\n      jumpi\n        /* \"#utility.yul\":2750:2829   */\n      tag_467\n      tag_354\n      jump\t// in\n    tag_467:\n        /* \"#utility.yul\":2714:2831   */\n    tag_466:\n        /* \"#utility.yul\":2864:2868   */\n      0x20\n        /* \"#utility.yul\":2856:2862   */\n      dup4\n        /* \"#utility.yul\":2852:2869   */\n      add\n        /* \"#utility.yul\":2840:2869   */\n      swap2\n      pop\n        /* \"#utility.yul\":2918:2921   */\n      dup4\n        /* \"#utility.yul\":2910:2914   */\n      0x01\n        /* \"#utility.yul\":2902:2908   */\n      dup3\n        /* \"#utility.yul\":2898:2915   */\n      mul\n        /* \"#utility.yul\":2888:2896   */\n      dup4\n        /* \"#utility.yul\":2884:2916   */\n      add\n        /* \"#utility.yul\":2881:2922   */\n      gt\n        /* \"#utility.yul\":2878:3006   */\n      iszero\n      tag_468\n      jumpi\n        /* \"#utility.yul\":2925:3004   */\n      tag_469\n      tag_355\n      jump\t// in\n    tag_469:\n        /* \"#utility.yul\":2878:3006   */\n    tag_468:\n        /* \"#utility.yul\":2459:3012   */\n      swap3\n      pop\n      swap3\n      swap1\n      pop\n      jump\t// out\n        /* \"#utility.yul\":3018:4729   */\n    tag_30:\n        /* \"#utility.yul\":3161:3167   */\n      0x00\n        /* \"#utility.yul\":3169:3175   */\n      0x00\n        /* \"#utility.yul\":3177:3183   */\n      0x00\n        /* \"#utility.yul\":3185:3191   */\n      0x00\n        /* \"#utility.yul\":3193:3199   */\n      0x00\n        /* \"#utility.yul\":3201:3207   */\n      0x00\n        /* \"#utility.yul\":3209:3215   */\n      0x00\n        /* \"#utility.yul\":3217:3223   */\n      0x00\n        /* \"#utility.yul\":3225:3231   */\n      0x00\n        /* \"#utility.yul\":3274:3277   */\n      0xa0\n        /* \"#utility.yul\":3262:3271   */\n      dup11\n        /* \"#utility.yul\":3253:3260   */\n      dup13\n        /* \"#utility.yul\":3249:3272   */\n      sub\n        /* \"#utility.yul\":3245:3278   */\n      slt\n        /* \"#utility.yul\":3242:3362   */\n      iszero\n      tag_471\n      jumpi\n        /* \"#utility.yul\":3281:3360   */\n      tag_472\n      tag_347\n      jump\t// in\n    tag_472:\n        /* \"#utility.yul\":3242:3362   */\n    tag_471:\n        /* \"#utility.yul\":3401:3402   */\n      0x00\n        /* \"#utility.yul\":3426:3479   */\n      tag_473\n        /* \"#utility.yul\":3471:3478   */\n      dup13\n        /* \"#utility.yul\":3462:3468   */\n      dup3\n        /* \"#utility.yul\":3451:3460   */\n      dup14\n        /* \"#utility.yul\":3447:3469   */\n      add\n        /* \"#utility.yul\":3426:3479   */\n      tag_352\n      jump\t// in\n    tag_473:\n        /* \"#utility.yul\":3416:3479   */\n      swap10\n      pop\n        /* \"#utility.yul\":3372:3489   */\n      pop\n        /* \"#utility.yul\":3556:3558   */\n      0x20\n        /* \"#utility.yul\":3545:3554   */\n      dup11\n        /* \"#utility.yul\":3541:3559   */\n      add\n        /* \"#utility.yul\":3528:3560   */\n      calldataload\n        /* \"#utility.yul\":3587:3605   */\n      0xffffffffffffffff\n        /* \"#utility.yul\":3579:3585   */\n      dup2\n        /* \"#utility.yul\":3576:3606   */\n      gt\n        /* \"#utility.yul\":3573:3690   */\n      iszero\n      tag_474\n      jumpi\n        /* \"#utility.yul\":3609:3688   */\n      tag_475\n      tag_348\n      jump\t// in\n    tag_475:\n        /* \"#utility.yul\":3573:3690   */\n    tag_474:\n        /* \"#utility.yul\":3722:3787   */\n      tag_476\n        /* \"#utility.yul\":3779:3786   */\n      dup13\n        /* \"#utility.yul\":3770:3776   */\n      dup3\n        /* \"#utility.yul\":3759:3768   */\n      dup14\n        /* \"#utility.yul\":3755:3777   */\n      add\n        /* \"#utility.yul\":3722:3787   */\n      tag_356\n      jump\t// in\n    tag_476:\n        /* \"#utility.yul\":3704:3787   */\n      swap9\n      pop\n      swap9\n      pop\n        /* \"#utility.yul\":3499:3797   */\n      pop\n        /* \"#utility.yul\":3864:3866   */\n      0x40\n        /* \"#utility.yul\":3853:3862   */\n      dup11\n        /* \"#utility.yul\":3849:3867   */\n      add\n        /* \"#utility.yul\":3836:3868   */\n      calldataload\n        /* \"#utility.yul\":3895:3913   */\n      0xffffffffffffffff\n        /* \"#utility.yul\":3887:3893   */\n      dup2\n        /* \"#utility.yul\":3884:3914   */\n      gt\n        /* \"#utility.yul\":3881:3998   */\n      iszero\n      tag_477\n      jumpi\n        /* \"#utility.yul\":3917:3996   */\n      tag_478\n      tag_348\n      jump\t// in\n    tag_478:\n        /* \"#utility.yul\":3881:3998   */\n    tag_477:\n        /* \"#utility.yul\":4030:4095   */\n      tag_479\n        /* \"#utility.yul\":4087:4094   */\n      dup13\n        /* \"#utility.yul\":4078:4084   */\n      dup3\n        /* \"#utility.yul\":4067:4076   */\n      dup14\n        /* \"#utility.yul\":4063:4085   */\n      add\n        /* \"#utility.yul\":4030:4095   */\n      tag_356\n      jump\t// in\n    tag_479:\n        /* \"#utility.yul\":4012:4095   */\n      swap7\n      pop\n      swap7\n      pop\n        /* \"#utility.yul\":3807:4105   */\n      pop\n        /* \"#utility.yul\":4172:4174   */\n      0x60\n        /* \"#utility.yul\":4161:4170   */\n      dup11\n        /* \"#utility.yul\":4157:4175   */\n      add\n        /* \"#utility.yul\":4144:4176   */\n      calldataload\n        /* \"#utility.yul\":4203:4221   */\n      0xffffffffffffffff\n        /* \"#utility.yul\":4195:4201   */\n      dup2\n        /* \"#utility.yul\":4192:4222   */\n      gt\n        /* \"#utility.yul\":4189:4306   */\n      iszero\n      tag_480\n      jumpi\n        /* \"#utility.yul\":4225:4304   */\n      tag_481\n      tag_348\n      jump\t// in\n    tag_481:\n        /* \"#utility.yul\":4189:4306   */\n    tag_480:\n        /* \"#utility.yul\":4338:4403   */\n      tag_482\n        /* \"#utility.yul\":4395:4402   */\n      dup13\n        /* \"#utility.yul\":4386:4392   */\n      dup3\n        /* \"#utility.yul\":4375:4384   */\n      dup14\n        /* \"#utility.yul\":4371:4393   */\n      add\n        /* \"#utility.yul\":4338:4403   */\n      tag_356\n      jump\t// in\n    tag_482:\n        /* \"#utility.yul\":4320:4403   */\n      swap5\n      pop\n      swap5\n      pop\n        /* \"#utility.yul\":4115:4413   */\n      pop\n        /* \"#utility.yul\":4480:4483   */\n      0x80\n        /* \"#utility.yul\":4469:4478   */\n      dup11\n        /* \"#utility.yul\":4465:4484   */\n      add\n        /* \"#utility.yul\":4452:4485   */\n      calldataload\n        /* \"#utility.yul\":4512:4530   */\n      0xffffffffffffffff\n        /* \"#utility.yul\":4504:4510   */\n      dup2\n        /* \"#utility.yul\":4501:4531   */\n      gt\n        /* \"#utility.yul\":4498:4615   */\n      iszero\n      tag_483\n      jumpi\n        /* \"#utility.yul\":4534:4613   */\n      tag_484\n      tag_348\n      jump\t// in\n    tag_484:\n        /* \"#utility.yul\":4498:4615   */\n    tag_483:\n        /* \"#utility.yul\":4647:4712   */\n      tag_485\n        /* \"#utility.yul\":4704:4711   */\n      dup13\n        /* \"#utility.yul\":4695:4701   */\n      dup3\n        /* \"#utility.yul\":4684:4693   */\n      dup14\n        /* \"#utility.yul\":4680:4702   */\n      add\n        /* \"#utility.yul\":4647:4712   */\n      tag_356\n      jump\t// in\n    tag_485:\n        /* \"#utility.yul\":4629:4712   */\n      swap3\n      pop\n      swap3\n      pop\n        /* \"#utility.yul\":4423:4722   */\n      pop\n        /* \"#utility.yul\":3018:4729   */\n      swap3\n      swap6\n      swap9\n      pop\n      swap3\n      swap6\n      swap9\n      pop\n      swap3\n      swap6\n      swap9\n      jump\t// out\n        /* \"#utility.yul\":4735:4812   */\n    tag_357:\n        /* \"#utility.yul\":4772:4779   */\n      0x00\n        /* \"#utility.yul\":4801:4806   */\n      dup2\n        /* \"#utility.yul\":4790:4806   */\n      swap1\n      pop\n        /* \"#utility.yul\":4735:4812   */\n      swap2\n      swap1\n      pop\n      jump\t// out\n        /* \"#utility.yul\":4818:4936   */\n    tag_358:\n        /* \"#utility.yul\":4905:4929   */\n      tag_488\n        /* \"#utility.yul\":4923:4928   */\n      dup2\n        /* \"#utility.yul\":4905:4929   */\n      tag_357\n      jump\t// in\n    tag_488:\n        /* \"#utility.yul\":4900:4903   */\n      dup3\n        /* \"#utility.yul\":4893:4930   */\n      mstore\n        /* \"#utility.yul\":4818:4936   */\n      pop\n      pop\n      jump\t// out\n        /* \"#utility.yul\":4942:5164   */\n    tag_33:\n        /* \"#utility.yul\":5035:5039   */\n      0x00\n        /* \"#utility.yul\":5073:5075   */\n      0x20\n        /* \"#utility.yul\":5062:5071   */\n      dup3\n        /* \"#utility.yul\":5058:5076   */\n      add\n        /* \"#utility.yul\":5050:5076   */\n      swap1\n      pop\n        /* \"#utility.yul\":5086:5157   */\n      tag_490\n        /* \"#utility.yul\":5154:5155   */\n      0x00\n        /* \"#utility.yul\":5143:5152   */\n      dup4\n        /* \"#utility.yul\":5139:5156   */\n      add\n        /* \"#utility.yul\":5130:5136   */\n      dup5\n        /* \"#utility.yul\":5086:5157   */\n      tag_358\n      jump\t// in\n    tag_490:\n        /* \"#utility.yul\":4942:5164   */\n      swap3\n      swap2\n      pop\n      pop\n      jump\t// out\n        /* \"#utility.yul\":5170:5292   */\n    tag_359:\n        /* \"#utility.yul\":5243:5267   */\n      tag_492\n        /* \"#utility.yul\":5261:5266   */\n      dup2\n        /* \"#utility.yul\":5243:5267   */\n      tag_357\n      jump\t// in\n    tag_492:\n        /* \"#utility.yul\":5236:5241   */\n      dup2\n        /* \"#utility.yul\":5233:5268   */\n      eq\n        /* \"#utility.yul\":5223:5286   */\n      tag_493\n      jumpi\n        /* \"#utility.yul\":5282:5283   */\n      0x00\n        /* \"#utility.yul\":5279:5280   */\n      0x00\n        /* \"#utility.yul\":5272:5284   */\n      revert\n        /* \"#utility.yul\":5223:5286   */\n    tag_493:\n        /* \"#utility.yul\":5170:5292   */\n      pop\n      jump\t// out\n        /* \"#utility.yul\":5298:5437   */\n    tag_360:\n        /* \"#utility.yul\":5344:5349   */\n      0x00\n        /* \"#utility.yul\":5382:5388   */\n      dup2\n        /* \"#utility.yul\":5369:5389   */\n      calldataload\n        /* \"#utility.yul\":5360:5389   */\n      swap1\n      pop\n        /* \"#utility.yul\":5398:5431   */\n      tag_495\n        /* \"#utility.yul\":5425:5430   */\n      dup2\n        /* \"#utility.yul\":5398:5431   */\n      tag_359\n      jump\t// in\n    tag_495:\n        /* \"#utility.yul\":5298:5437   */\n      swap3\n      swap2\n      pop\n      pop\n      jump\t// out\n        /* \"#utility.yul\":5443:5772   */\n    tag_36:\n        /* \"#utility.yul\":5502:5508   */\n      0x00\n        /* \"#utility.yul\":5551:5553   */\n      0x20\n        /* \"#utility.yul\":5539:5548   */\n      dup3\n        /* \"#utility.yul\":5530:5537   */\n      dup5\n        /* \"#utility.yul\":5526:5549   */\n      sub\n        /* \"#utility.yul\":5522:5554   */\n      slt\n        /* \"#utility.yul\":5519:5638   */\n      iszero\n      tag_497\n      jumpi\n        /* \"#utility.yul\":5557:5636   */\n      tag_498\n      tag_347\n      jump\t// in\n    tag_498:\n        /* \"#utility.yul\":5519:5638   */\n    tag_497:\n        /* \"#utility.yul\":5677:5678   */\n      0x00\n        /* \"#utility.yul\":5702:5755   */\n      tag_499\n        /* \"#utility.yul\":5747:5754   */\n      dup5\n        /* \"#utility.yul\":5738:5744   */\n      dup3\n        /* \"#utility.yul\":5727:5736   */\n      dup6\n        /* \"#utility.yul\":5723:5745   */\n      add\n        /* \"#utility.yul\":5702:5755   */\n      tag_360\n      jump\t// in\n    tag_499:\n        /* \"#utility.yul\":5692:5755   */\n      swap2\n      pop\n        /* \"#utility.yul\":5648:5765   */\n      pop\n        /* \"#utility.yul\":5443:5772   */\n      swap3\n      swap2\n      pop\n      pop\n      jump\t// out\n        /* \"#utility.yul\":5778:5958   */\n    tag_129:\n        /* \"#utility.yul\":5826:5903   */\n      0x4e487b7100000000000000000000000000000000000000000000000000000000\n        /* \"#utility.yul\":5823:5824   */\n      0x00\n        /* \"#utility.yul\":5816:5904   */\n      mstore\n        /* \"#utility.yul\":5923:5927   */\n      0x21\n        /* \"#utility.yul\":5920:5921   */\n      0x04\n        /* \"#utility.yul\":5913:5928   */\n      mstore\n        /* \"#utility.yul\":5947:5951   */\n      0x24\n        /* \"#utility.yul\":5944:5945   */\n      0x00\n        /* \"#utility.yul\":5937:5952   */\n      revert\n        /* \"#utility.yul\":5964:6085   */\n    tag_361:\n        /* \"#utility.yul\":6053:6054   */\n      0x04\n        /* \"#utility.yul\":6046:6051   */\n      dup2\n        /* \"#utility.yul\":6043:6055   */\n      lt\n        /* \"#utility.yul\":6033:6079   */\n      tag_502\n      jumpi\n        /* \"#utility.yul\":6059:6077   */\n      tag_503\n      tag_129\n      jump\t// in\n    tag_503:\n        /* \"#utility.yul\":6033:6079   */\n    tag_502:\n        /* \"#utility.yul\":5964:6085   */\n      pop\n      jump\t// out\n        /* \"#utility.yul\":6091:6234   */\n    tag_362:\n        /* \"#utility.yul\":6144:6151   */\n      0x00\n        /* \"#utility.yul\":6173:6178   */\n      dup2\n        /* \"#utility.yul\":6162:6178   */\n      swap1\n      pop\n        /* \"#utility.yul\":6179:6228   */\n      tag_505\n        /* \"#utility.yul\":6222:6227   */\n      dup3\n        /* \"#utility.yul\":6179:6228   */\n      tag_361\n      jump\t// in\n    tag_505:\n        /* \"#utility.yul\":6091:6234   */\n      swap2\n      swap1\n      pop\n      jump\t// out\n        /* \"#utility.yul\":6240:6383   */\n    tag_363:\n        /* \"#utility.yul\":6304:6313   */\n      0x00\n        /* \"#utility.yul\":6337:6377   */\n      tag_507\n        /* \"#utility.yul\":6371:6376   */\n      dup3\n        /* \"#utility.yul\":6337:6377   */\n      tag_362\n      jump\t// in\n    tag_507:\n        /* \"#utility.yul\":6324:6377   */\n      swap1\n      pop\n        /* \"#utility.yul\":6240:6383   */\n      swap2\n      swap1\n      pop\n      jump\t// out\n        /* \"#utility.yul\":6389:6548   */\n    tag_364:\n        /* \"#utility.yul\":6490:6541   */\n      tag_509\n        /* \"#utility.yul\":6535:6540   */\n      dup2\n        /* \"#utility.yul\":6490:6541   */\n      tag_363\n      jump\t// in\n    tag_509:\n        /* \"#utility.yul\":6485:6488   */\n      dup3\n        /* \"#utility.yul\":6478:6542   */\n      mstore\n        /* \"#utility.yul\":6389:6548   */\n      pop\n      pop\n      jump\t// out\n        /* \"#utility.yul\":6554:6672   */\n    tag_365:\n        /* \"#utility.yul\":6641:6665   */\n      tag_511\n        /* \"#utility.yul\":6659:6664   */\n      dup2\n        /* \"#utility.yul\":6641:6665   */\n      tag_350\n      jump\t// in\n    tag_511:\n        /* \"#utility.yul\":6636:6639   */\n      dup3\n        /* \"#utility.yul\":6629:6666   */\n      mstore\n        /* \"#utility.yul\":6554:6672   */\n      pop\n      pop\n      jump\t// out\n        /* \"#utility.yul\":6678:7754   */\n    tag_39:\n        /* \"#utility.yul\":6985:6989   */\n      0x00\n        /* \"#utility.yul\":7023:7026   */\n      0xc0\n        /* \"#utility.yul\":7012:7021   */\n      dup3\n        /* \"#utility.yul\":7008:7027   */\n      add\n        /* \"#utility.yul\":7000:7027   */\n      swap1\n      pop\n        /* \"#utility.yul\":7073:7082   */\n      dup2\n        /* \"#utility.yul\":7067:7071   */\n      dup2\n        /* \"#utility.yul\":7063:7083   */\n      sub\n        /* \"#utility.yul\":7059:7060   */\n      0x00\n        /* \"#utility.yul\":7048:7057   */\n      dup4\n        /* \"#utility.yul\":7044:7061   */\n      add\n        /* \"#utility.yul\":7037:7084   */\n      mstore\n        /* \"#utility.yul\":7101:7179   */\n      tag_513\n        /* \"#utility.yul\":7174:7178   */\n      dup2\n        /* \"#utility.yul\":7165:7171   */\n      dup10\n        /* \"#utility.yul\":7101:7179   */\n      tag_345\n      jump\t// in\n    tag_513:\n        /* \"#utility.yul\":7093:7179   */\n      swap1\n      pop\n        /* \"#utility.yul\":7226:7235   */\n      dup2\n        /* \"#utility.yul\":7220:7224   */\n      dup2\n        /* \"#utility.yul\":7216:7236   */\n      sub\n        /* \"#utility.yul\":7211:7213   */\n      0x20\n        /* \"#utility.yul\":7200:7209   */\n      dup4\n        /* \"#utility.yul\":7196:7214   */\n      add\n        /* \"#utility.yul\":7189:7237   */\n      mstore\n        /* \"#utility.yul\":7254:7332   */\n      tag_514\n        /* \"#utility.yul\":7327:7331   */\n      dup2\n        /* \"#utility.yul\":7318:7324   */\n      dup9\n        /* \"#utility.yul\":7254:7332   */\n      tag_345\n      jump\t// in\n    tag_514:\n        /* \"#utility.yul\":7246:7332   */\n      swap1\n      pop\n        /* \"#utility.yul\":7379:7388   */\n      dup2\n        /* \"#utility.yul\":7373:7377   */\n      dup2\n        /* \"#utility.yul\":7369:7389   */\n      sub\n        /* \"#utility.yul\":7364:7366   */\n      0x40\n        /* \"#utility.yul\":7353:7362   */\n      dup4\n        /* \"#utility.yul\":7349:7367   */\n      add\n        /* \"#utility.yul\":7342:7390   */\n      mstore\n        /* \"#utility.yul\":7407:7485   */\n      tag_515\n        /* \"#utility.yul\":7480:7484   */\n      dup2\n        /* \"#utility.yul\":7471:7477   */\n      dup8\n        /* \"#utility.yul\":7407:7485   */\n      tag_345\n      jump\t// in\n    tag_515:\n        /* \"#utility.yul\":7399:7485   */\n      swap1\n      pop\n        /* \"#utility.yul\":7495:7581   */\n      tag_516\n        /* \"#utility.yul\":7577:7579   */\n      0x60\n        /* \"#utility.yul\":7566:7575   */\n      dup4\n        /* \"#utility.yul\":7562:7580   */\n      add\n        /* \"#utility.yul\":7553:7559   */\n      dup7\n        /* \"#utility.yul\":7495:7581   */\n      tag_364\n      jump\t// in\n    tag_516:\n        /* \"#utility.yul\":7591:7664   */\n      tag_517\n        /* \"#utility.yul\":7659:7662   */\n      0x80\n        /* \"#utility.yul\":7648:7657   */\n      dup4\n        /* \"#utility.yul\":7644:7663   */\n      add\n        /* \"#utility.yul\":7635:7641   */\n      dup6\n        /* \"#utility.yul\":7591:7664   */\n      tag_358\n      jump\t// in\n    tag_517:\n        /* \"#utility.yul\":7674:7747   */\n      tag_518\n        /* \"#utility.yul\":7742:7745   */\n      0xa0\n        /* \"#utility.yul\":7731:7740   */\n      dup4\n        /* \"#utility.yul\":7727:7746   */\n      add\n        /* \"#utility.yul\":7718:7724   */\n      dup5\n        /* \"#utility.yul\":7674:7747   */\n      tag_365\n      jump\t// in\n    tag_518:\n        /* \"#utility.yul\":6678:7754   */\n      swap8\n      swap7\n      pop\n      pop\n      pop\n      pop\n      pop\n      pop\n      pop\n      jump\t// out\n        /* \"#utility.yul\":7760:8234   */\n    tag_42:\n        /* \"#utility.yul\":7828:7834   */\n      0x00\n        /* \"#utility.yul\":7836:7842   */\n      0x00\n        /* \"#utility.yul\":7885:7887   */\n      0x40\n        /* \"#utility.yul\":7873:7882   */\n      dup4\n        /* \"#utility.yul\":7864:7871   */\n      dup6\n        /* \"#utility.yul\":7860:7883   */\n      sub\n        /* \"#utility.yul\":7856:7888   */\n      slt\n        /* \"#utility.yul\":7853:7972   */\n      iszero\n      tag_520\n      jumpi\n        /* \"#utility.yul\":7891:7970   */\n      tag_521\n      tag_347\n      jump\t// in\n    tag_521:\n        /* \"#utility.yul\":7853:7972   */\n    tag_520:\n        /* \"#utility.yul\":8011:8012   */\n      0x00\n        /* \"#utility.yul\":8036:8089   */\n      tag_522\n        /* \"#utility.yul\":8081:8088   */\n      dup6\n        /* \"#utility.yul\":8072:8078   */\n      dup3\n        /* \"#utility.yul\":8061:8070   */\n      dup7\n        /* \"#utility.yul\":8057:8079   */\n      add\n        /* \"#utility.yul\":8036:8089   */\n      tag_360\n      jump\t// in\n    tag_522:\n        /* \"#utility.yul\":8026:8089   */\n      swap3\n      pop\n        /* \"#utility.yul\":7982:8099   */\n      pop\n        /* \"#utility.yul\":8138:8140   */\n      0x20\n        /* \"#utility.yul\":8164:8217   */\n      tag_523\n        /* \"#utility.yul\":8209:8216   */\n      dup6\n        /* \"#utility.yul\":8200:8206   */\n      dup3\n        /* \"#utility.yul\":8189:8198   */\n      dup7\n        /* \"#utility.yul\":8185:8207   */\n      add\n        /* \"#utility.yul\":8164:8217   */\n      tag_352\n      jump\t// in\n    tag_523:\n        /* \"#utility.yul\":8154:8217   */\n      swap2\n      pop\n        /* \"#utility.yul\":8109:8227   */\n      pop\n        /* \"#utility.yul\":7760:8234   */\n      swap3\n      pop\n      swap3\n      swap1\n      pop\n      jump\t// out\n        /* \"#utility.yul\":8240:8462   */\n    tag_48:\n        /* \"#utility.yul\":8333:8337   */\n      0x00\n        /* \"#utility.yul\":8371:8373   */\n      0x20\n        /* \"#utility.yul\":8360:8369   */\n      dup3\n        /* \"#utility.yul\":8356:8374   */\n      add\n        /* \"#utility.yul\":8348:8374   */\n      swap1\n      pop\n        /* \"#utility.yul\":8384:8455   */\n      tag_525\n        /* \"#utility.yul\":8452:8453   */\n      0x00\n        /* \"#utility.yul\":8441:8450   */\n      dup4\n        /* \"#utility.yul\":8437:8454   */\n      add\n        /* \"#utility.yul\":8428:8434   */\n      dup5\n        /* \"#utility.yul\":8384:8455   */\n      tag_365\n      jump\t// in\n    tag_525:\n        /* \"#utility.yul\":8240:8462   */\n      swap3\n      swap2\n      pop\n      pop\n      jump\t// out\n        /* \"#utility.yul\":8468:9487   */\n    tag_51:\n        /* \"#utility.yul\":8569:8575   */\n      0x00\n        /* \"#utility.yul\":8577:8583   */\n      0x00\n        /* \"#utility.yul\":8585:8591   */\n      0x00\n        /* \"#utility.yul\":8593:8599   */\n      0x00\n        /* \"#utility.yul\":8601:8607   */\n      0x00\n        /* \"#utility.yul\":8650:8652   */\n      0x60\n        /* \"#utility.yul\":8638:8647   */\n      dup7\n        /* \"#utility.yul\":8629:8636   */\n      dup9\n        /* \"#utility.yul\":8625:8648   */\n      sub\n        /* \"#utility.yul\":8621:8653   */\n      slt\n        /* \"#utility.yul\":8618:8737   */\n      iszero\n      tag_527\n      jumpi\n        /* \"#utility.yul\":8656:8735   */\n      tag_528\n      tag_347\n      jump\t// in\n    tag_528:\n        /* \"#utility.yul\":8618:8737   */\n    tag_527:\n        /* \"#utility.yul\":8776:8777   */\n      0x00\n        /* \"#utility.yul\":8801:8854   */\n      tag_529\n        /* \"#utility.yul\":8846:8853   */\n      dup9\n        /* \"#utility.yul\":8837:8843   */\n      dup3\n        /* \"#utility.yul\":8826:8835   */\n      dup10\n        /* \"#utility.yul\":8822:8844   */\n      add\n        /* \"#utility.yul\":8801:8854   */\n      tag_360\n      jump\t// in\n    tag_529:\n        /* \"#utility.yul\":8791:8854   */\n      swap6\n      pop\n        /* \"#utility.yul\":8747:8864   */\n      pop\n        /* \"#utility.yul\":8931:8933   */\n      0x20\n        /* \"#utility.yul\":8920:8929   */\n      dup7\n        /* \"#utility.yul\":8916:8934   */\n      add\n        /* \"#utility.yul\":8903:8935   */\n      calldataload\n        /* \"#utility.yul\":8962:8980   */\n      0xffffffffffffffff\n        /* \"#utility.yul\":8954:8960   */\n      dup2\n        /* \"#utility.yul\":8951:8981   */\n      gt\n        /* \"#utility.yul\":8948:9065   */\n      iszero\n      tag_530\n      jumpi\n        /* \"#utility.yul\":8984:9063   */\n      tag_531\n      tag_348\n      jump\t// in\n    tag_531:\n        /* \"#utility.yul\":8948:9065   */\n    tag_530:\n        /* \"#utility.yul\":9097:9162   */\n      tag_532\n        /* \"#utility.yul\":9154:9161   */\n      dup9\n        /* \"#utility.yul\":9145:9151   */\n      dup3\n        /* \"#utility.yul\":9134:9143   */\n      dup10\n        /* \"#utility.yul\":9130:9152   */\n      add\n        /* \"#utility.yul\":9097:9162   */\n      tag_356\n      jump\t// in\n    tag_532:\n        /* \"#utility.yul\":9079:9162   */\n      swap5\n      pop\n      swap5\n      pop\n        /* \"#utility.yul\":8874:9172   */\n      pop\n        /* \"#utility.yul\":9239:9241   */\n      0x40\n        /* \"#utility.yul\":9228:9237   */\n      dup7\n        /* \"#utility.yul\":9224:9242   */\n      add\n        /* \"#utility.yul\":9211:9243   */\n      calldataload\n        /* \"#utility.yul\":9270:9288   */\n      0xffffffffffffffff\n        /* \"#utility.yul\":9262:9268   */\n      dup2\n        /* \"#utility.yul\":9259:9289   */\n      gt\n        /* \"#utility.yul\":9256:9373   */\n      iszero\n      tag_533\n      jumpi\n        /* \"#utility.yul\":9292:9371   */\n      tag_534\n      tag_348\n      jump\t// in\n    tag_534:\n        /* \"#utility.yul\":9256:9373   */\n    tag_533:\n        /* \"#utility.yul\":9405:9470   */\n      tag_535\n        /* \"#utility.yul\":9462:9469   */\n      dup9\n        /* \"#utility.yul\":9453:9459   */\n      dup3\n        /* \"#utility.yul\":9442:9451   */\n      dup10\n        /* \"#utility.yul\":9438:9460   */\n      add\n        /* \"#utility.yul\":9405:9470   */\n      tag_356\n      jump\t// in\n    tag_535:\n        /* \"#utility.yul\":9387:9470   */\n      swap3\n      pop\n      swap3\n      pop\n        /* \"#utility.yul\":9182:9480   */\n      pop\n        /* \"#utility.yul\":8468:9487   */\n      swap3\n      swap6\n      pop\n      swap3\n      swap6\n      swap1\n      swap4\n      pop\n      jump\t// out\n        /* \"#utility.yul\":9493:9822   */\n    tag_55:\n        /* \"#utility.yul\":9552:9558   */\n      0x00\n        /* \"#utility.yul\":9601:9603   */\n      0x20\n        /* \"#utility.yul\":9589:9598   */\n      dup3\n        /* \"#utility.yul\":9580:9587   */\n      dup5\n        /* \"#utility.yul\":9576:9599   */\n      sub\n        /* \"#utility.yul\":9572:9604   */\n      slt\n        /* \"#utility.yul\":9569:9688   */\n      iszero\n      tag_537\n      jumpi\n        /* \"#utility.yul\":9607:9686   */\n      tag_538\n      tag_347\n      jump\t// in\n    tag_538:\n        /* \"#utility.yul\":9569:9688   */\n    tag_537:\n        /* \"#utility.yul\":9727:9728   */\n      0x00\n        /* \"#utility.yul\":9752:9805   */\n      tag_539\n        /* \"#utility.yul\":9797:9804   */\n      dup5\n        /* \"#utility.yul\":9788:9794   */\n      dup3\n        /* \"#utility.yul\":9777:9786   */\n      dup6\n        /* \"#utility.yul\":9773:9795   */\n      add\n        /* \"#utility.yul\":9752:9805   */\n      tag_352\n      jump\t// in\n    tag_539:\n        /* \"#utility.yul\":9742:9805   */\n      swap2\n      pop\n        /* \"#utility.yul\":9698:9815   */\n      pop\n        /* \"#utility.yul\":9493:9822   */\n      swap3\n      swap2\n      pop\n      pop\n      jump\t// out\n        /* \"#utility.yul\":9828:10302   */\n    tag_60:\n        /* \"#utility.yul\":9896:9902   */\n      0x00\n        /* \"#utility.yul\":9904:9910   */\n      0x00\n        /* \"#utility.yul\":9953:9955   */\n      0x40\n        /* \"#utility.yul\":9941:9950   */\n      dup4\n        /* \"#utility.yul\":9932:9939   */\n      dup6\n        /* \"#utility.yul\":9928:9951   */\n      sub\n        /* \"#utility.yul\":9924:9956   */\n      slt\n        /* \"#utility.yul\":9921:10040   */\n      iszero\n      tag_541\n      jumpi\n        /* \"#utility.yul\":9959:10038   */\n      tag_542\n      tag_347\n      jump\t// in\n    tag_542:\n        /* \"#utility.yul\":9921:10040   */\n    tag_541:\n        /* \"#utility.yul\":10079:10080   */\n      0x00\n        /* \"#utility.yul\":10104:10157   */\n      tag_543\n        /* \"#utility.yul\":10149:10156   */\n      dup6\n        /* \"#utility.yul\":10140:10146   */\n      dup3\n        /* \"#utility.yul\":10129:10138   */\n      dup7\n        /* \"#utility.yul\":10125:10147   */\n      add\n        /* \"#utility.yul\":10104:10157   */\n      tag_360\n      jump\t// in\n    tag_543:\n        /* \"#utility.yul\":10094:10157   */\n      swap3\n      pop\n        /* \"#utility.yul\":10050:10167   */\n      pop\n        /* \"#utility.yul\":10206:10208   */\n      0x20\n        /* \"#utility.yul\":10232:10285   */\n      tag_544\n        /* \"#utility.yul\":10277:10284   */\n      dup6\n        /* \"#utility.yul\":10268:10274   */\n      dup3\n        /* \"#utility.yul\":10257:10266   */\n      dup7\n        /* \"#utility.yul\":10253:10275   */\n      add\n        /* \"#utility.yul\":10232:10285   */\n      tag_360\n      jump\t// in\n    tag_544:\n        /* \"#utility.yul\":10222:10285   */\n      swap2\n      pop\n        /* \"#utility.yul\":10177:10295   */\n      pop\n        /* \"#utility.yul\":9828:10302   */\n      swap3\n      pop\n      swap3\n      swap1\n      pop\n      jump\t// out\n        /* \"#utility.yul\":10308:10385   */\n    tag_366:\n        /* \"#utility.yul\":10345:10352   */\n      0x00\n        /* \"#utility.yul\":10374:10379   */\n      dup2\n        /* \"#utility.yul\":10363:10379   */\n      swap1\n      pop\n        /* \"#utility.yul\":10308:10385   */\n      swap2\n      swap1\n      pop\n      jump\t// out\n        /* \"#utility.yul\":10391:10513   */\n    tag_367:\n        /* \"#utility.yul\":10464:10488   */\n      tag_547\n        /* \"#utility.yul\":10482:10487   */\n      dup2\n        /* \"#utility.yul\":10464:10488   */\n      tag_366\n      jump\t// in\n    tag_547:\n        /* \"#utility.yul\":10457:10462   */\n      dup2\n        /* \"#utility.yul\":10454:10489   */\n      eq\n        /* \"#utility.yul\":10444:10507   */\n      tag_548\n      jumpi\n        /* \"#utility.yul\":10503:10504   */\n      0x00\n        /* \"#utility.yul\":10500:10501   */\n      0x00\n        /* \"#utility.yul\":10493:10505   */\n      revert\n        /* \"#utility.yul\":10444:10507   */\n    tag_548:\n        /* \"#utility.yul\":10391:10513   */\n      pop\n      jump\t// out\n        /* \"#utility.yul\":10519:10658   */\n    tag_368:\n        /* \"#utility.yul\":10565:10570   */\n      0x00\n        /* \"#utility.yul\":10603:10609   */\n      dup2\n        /* \"#utility.yul\":10590:10610   */\n      calldataload\n        /* \"#utility.yul\":10581:10610   */\n      swap1\n      pop\n        /* \"#utility.yul\":10619:10652   */\n      tag_550\n        /* \"#utility.yul\":10646:10651   */\n      dup2\n        /* \"#utility.yul\":10619:10652   */\n      tag_367\n      jump\t// in\n    tag_550:\n        /* \"#utility.yul\":10519:10658   */\n      swap3\n      swap2\n      pop\n      pop\n      jump\t// out\n        /* \"#utility.yul\":10664:11138   */\n    tag_65:\n        /* \"#utility.yul\":10732:10738   */\n      0x00\n        /* \"#utility.yul\":10740:10746   */\n      0x00\n        /* \"#utility.yul\":10789:10791   */\n      0x40\n        /* \"#utility.yul\":10777:10786   */\n      dup4\n        /* \"#utility.yul\":10768:10775   */\n      dup6\n        /* \"#utility.yul\":10764:10787   */\n      sub\n        /* \"#utility.yul\":10760:10792   */\n      slt\n        /* \"#utility.yul\":10757:10876   */\n      iszero\n      tag_552\n      jumpi\n        /* \"#utility.yul\":10795:10874   */\n      tag_553\n      tag_347\n      jump\t// in\n    tag_553:\n        /* \"#utility.yul\":10757:10876   */\n    tag_552:\n        /* \"#utility.yul\":10915:10916   */\n      0x00\n        /* \"#utility.yul\":10940:10993   */\n      tag_554\n        /* \"#utility.yul\":10985:10992   */\n      dup6\n        /* \"#utility.yul\":10976:10982   */\n      dup3\n        /* \"#utility.yul\":10965:10974   */\n      dup7\n        /* \"#utility.yul\":10961:10983   */\n      add\n        /* \"#utility.yul\":10940:10993   */\n      tag_368\n      jump\t// in\n    tag_554:\n        /* \"#utility.yul\":10930:10993   */\n      swap3\n      pop\n        /* \"#utility.yul\":10886:11003   */\n      pop\n        /* \"#utility.yul\":11042:11044   */\n      0x20\n        /* \"#utility.yul\":11068:11121   */\n      tag_555\n        /* \"#utility.yul\":11113:11120   */\n      dup6\n        /* \"#utility.yul\":11104:11110   */\n      dup3\n        /* \"#utility.yul\":11093:11102   */\n      dup7\n        /* \"#utility.yul\":11089:11111   */\n      add\n        /* \"#utility.yul\":11068:11121   */\n      tag_352\n      jump\t// in\n    tag_555:\n        /* \"#utility.yul\":11058:11121   */\n      swap2\n      pop\n        /* \"#utility.yul\":11013:11131   */\n      pop\n        /* \"#utility.yul\":10664:11138   */\n      swap3\n      pop\n      swap3\n      swap1\n      pop\n      jump\t// out\n        /* \"#utility.yul\":11144:11234   */\n    tag_369:\n        /* \"#utility.yul\":11178:11185   */\n      0x00\n        /* \"#utility.yul\":11221:11226   */\n      dup2\n        /* \"#utility.yul\":11214:11227   */\n      iszero\n        /* \"#utility.yul\":11207:11228   */\n      iszero\n        /* \"#utility.yul\":11196:11228   */\n      swap1\n      pop\n        /* \"#utility.yul\":11144:11234   */\n      swap2\n      swap1\n      pop\n      jump\t// out\n        /* \"#utility.yul\":11240:11349   */\n    tag_370:\n        /* \"#utility.yul\":11321:11342   */\n      tag_558\n        /* \"#utility.yul\":11336:11341   */\n      dup2\n        /* \"#utility.yul\":11321:11342   */\n      tag_369\n      jump\t// in\n    tag_558:\n        /* \"#utility.yul\":11316:11319   */\n      dup3\n        /* \"#utility.yul\":11309:11343   */\n      mstore\n        /* \"#utility.yul\":11240:11349   */\n      pop\n      pop\n      jump\t// out\n        /* \"#utility.yul\":11355:11565   */\n    tag_68:\n        /* \"#utility.yul\":11442:11446   */\n      0x00\n        /* \"#utility.yul\":11480:11482   */\n      0x20\n        /* \"#utility.yul\":11469:11478   */\n      dup3\n        /* \"#utility.yul\":11465:11483   */\n      add\n        /* \"#utility.yul\":11457:11483   */\n      swap1\n      pop\n        /* \"#utility.yul\":11493:11558   */\n      tag_560\n        /* \"#utility.yul\":11555:11556   */\n      0x00\n        /* \"#utility.yul\":11544:11553   */\n      dup4\n        /* \"#utility.yul\":11540:11557   */\n      add\n        /* \"#utility.yul\":11531:11537   */\n      dup5\n        /* \"#utility.yul\":11493:11558   */\n      tag_370\n      jump\t// in\n    tag_560:\n        /* \"#utility.yul\":11355:11565   */\n      swap3\n      swap2\n      pop\n      pop\n      jump\t// out\n        /* \"#utility.yul\":11571:12738   */\n    tag_76:\n        /* \"#utility.yul\":11898:11902   */\n      0x00\n        /* \"#utility.yul\":11936:11939   */\n      0xc0\n        /* \"#utility.yul\":11925:11934   */\n      dup3\n        /* \"#utility.yul\":11921:11940   */\n      add\n        /* \"#utility.yul\":11913:11940   */\n      swap1\n      pop\n        /* \"#utility.yul\":11986:11995   */\n      dup2\n        /* \"#utility.yul\":11980:11984   */\n      dup2\n        /* \"#utility.yul\":11976:11996   */\n      sub\n        /* \"#utility.yul\":11972:11973   */\n      0x00\n        /* \"#utility.yul\":11961:11970   */\n      dup4\n        /* \"#utility.yul\":11957:11974   */\n      add\n        /* \"#utility.yul\":11950:11997   */\n      mstore\n        /* \"#utility.yul\":12014:12092   */\n      tag_562\n        /* \"#utility.yul\":12087:12091   */\n      dup2\n        /* \"#utility.yul\":12078:12084   */\n      dup10\n        /* \"#utility.yul\":12014:12092   */\n      tag_345\n      jump\t// in\n    tag_562:\n        /* \"#utility.yul\":12006:12092   */\n      swap1\n      pop\n        /* \"#utility.yul\":12139:12148   */\n      dup2\n        /* \"#utility.yul\":12133:12137   */\n      dup2\n        /* \"#utility.yul\":12129:12149   */\n      sub\n        /* \"#utility.yul\":12124:12126   */\n      0x20\n        /* \"#utility.yul\":12113:12122   */\n      dup4\n        /* \"#utility.yul\":12109:12127   */\n      add\n        /* \"#utility.yul\":12102:12150   */\n      mstore\n        /* \"#utility.yul\":12167:12245   */\n      tag_563\n        /* \"#utility.yul\":12240:12244   */\n      dup2\n        /* \"#utility.yul\":12231:12237   */\n      dup9\n        /* \"#utility.yul\":12167:12245   */\n      tag_345\n      jump\t// in\n    tag_563:\n        /* \"#utility.yul\":12159:12245   */\n      swap1\n      pop\n        /* \"#utility.yul\":12292:12301   */\n      dup2\n        /* \"#utility.yul\":12286:12290   */\n      dup2\n        /* \"#utility.yul\":12282:12302   */\n      sub\n        /* \"#utility.yul\":12277:12279   */\n      0x40\n        /* \"#utility.yul\":12266:12275   */\n      dup4\n        /* \"#utility.yul\":12262:12280   */\n      add\n        /* \"#utility.yul\":12255:12303   */\n      mstore\n        /* \"#utility.yul\":12320:12398   */\n      tag_564\n        /* \"#utility.yul\":12393:12397   */\n      dup2\n        /* \"#utility.yul\":12384:12390   */\n      dup8\n        /* \"#utility.yul\":12320:12398   */\n      tag_345\n      jump\t// in\n    tag_564:\n        /* \"#utility.yul\":12312:12398   */\n      swap1\n      pop\n        /* \"#utility.yul\":12445:12454   */\n      dup2\n        /* \"#utility.yul\":12439:12443   */\n      dup2\n        /* \"#utility.yul\":12435:12455   */\n      sub\n        /* \"#utility.yul\":12430:12432   */\n      0x60\n        /* \"#utility.yul\":12419:12428   */\n      dup4\n        /* \"#utility.yul\":12415:12433   */\n      add\n        /* \"#utility.yul\":12408:12456   */\n      mstore\n        /* \"#utility.yul\":12473:12551   */\n      tag_565\n        /* \"#utility.yul\":12546:12550   */\n      dup2\n        /* \"#utility.yul\":12537:12543   */\n      dup7\n        /* \"#utility.yul\":12473:12551   */\n      tag_345\n      jump\t// in\n    tag_565:\n        /* \"#utility.yul\":12465:12551   */\n      swap1\n      pop\n        /* \"#utility.yul\":12561:12648   */\n      tag_566\n        /* \"#utility.yul\":12643:12646   */\n      0x80\n        /* \"#utility.yul\":12632:12641   */\n      dup4\n        /* \"#utility.yul\":12628:12647   */\n      add\n        /* \"#utility.yul\":12619:12625   */\n      dup6\n        /* \"#utility.yul\":12561:12648   */\n      tag_364\n      jump\t// in\n    tag_566:\n        /* \"#utility.yul\":12658:12731   */\n      tag_567\n        /* \"#utility.yul\":12726:12729   */\n      0xa0\n        /* \"#utility.yul\":12715:12724   */\n      dup4\n        /* \"#utility.yul\":12711:12730   */\n      add\n        /* \"#utility.yul\":12702:12708   */\n      dup5\n        /* \"#utility.yul\":12658:12731   */\n      tag_358\n      jump\t// in\n    tag_567:\n        /* \"#utility.yul\":11571:12738   */\n      swap8\n      swap7\n      pop\n      pop\n      pop\n      pop\n      pop\n      pop\n      pop\n      jump\t// out\n        /* \"#utility.yul\":12744:12862   */\n    tag_371:\n        /* \"#utility.yul\":12831:12855   */\n      tag_569\n        /* \"#utility.yul\":12849:12854   */\n      dup2\n        /* \"#utility.yul\":12831:12855   */\n      tag_366\n      jump\t// in\n    tag_569:\n        /* \"#utility.yul\":12826:12829   */\n      dup3\n        /* \"#utility.yul\":12819:12856   */\n      mstore\n        /* \"#utility.yul\":12744:12862   */\n      pop\n      pop\n      jump\t// out\n        /* \"#utility.yul\":12868:13090   */\n    tag_80:\n        /* \"#utility.yul\":12961:12965   */\n      0x00\n        /* \"#utility.yul\":12999:13001   */\n      0x20\n        /* \"#utility.yul\":12988:12997   */\n      dup3\n        /* \"#utility.yul\":12984:13002   */\n      add\n        /* \"#utility.yul\":12976:13002   */\n      swap1\n      pop\n        /* \"#utility.yul\":13012:13083   */\n      tag_571\n        /* \"#utility.yul\":13080:13081   */\n      0x00\n        /* \"#utility.yul\":13069:13078   */\n      dup4\n        /* \"#utility.yul\":13065:13082   */\n      add\n        /* \"#utility.yul\":13056:13062   */\n      dup5\n        /* \"#utility.yul\":13012:13083   */\n      tag_371\n      jump\t// in\n    tag_571:\n        /* \"#utility.yul\":12868:13090   */\n      swap3\n      swap2\n      pop\n      pop\n      jump\t// out\n        /* \"#utility.yul\":13096:13770   */\n    tag_83:\n        /* \"#utility.yul\":13176:13182   */\n      0x00\n        /* \"#utility.yul\":13184:13190   */\n      0x00\n        /* \"#utility.yul\":13192:13198   */\n      0x00\n        /* \"#utility.yul\":13241:13243   */\n      0x40\n        /* \"#utility.yul\":13229:13238   */\n      dup5\n        /* \"#utility.yul\":13220:13227   */\n      dup7\n        /* \"#utility.yul\":13216:13239   */\n      sub\n        /* \"#utility.yul\":13212:13244   */\n      slt\n        /* \"#utility.yul\":13209:13328   */\n      iszero\n      tag_573\n      jumpi\n        /* \"#utility.yul\":13247:13326   */\n      tag_574\n      tag_347\n      jump\t// in\n    tag_574:\n        /* \"#utility.yul\":13209:13328   */\n    tag_573:\n        /* \"#utility.yul\":13367:13368   */\n      0x00\n        /* \"#utility.yul\":13392:13445   */\n      tag_575\n        /* \"#utility.yul\":13437:13444   */\n      dup7\n        /* \"#utility.yul\":13428:13434   */\n      dup3\n        /* \"#utility.yul\":13417:13426   */\n      dup8\n        /* \"#utility.yul\":13413:13435   */\n      add\n        /* \"#utility.yul\":13392:13445   */\n      tag_360\n      jump\t// in\n    tag_575:\n        /* \"#utility.yul\":13382:13445   */\n      swap4\n      pop\n        /* \"#utility.yul\":13338:13455   */\n      pop\n        /* \"#utility.yul\":13522:13524   */\n      0x20\n        /* \"#utility.yul\":13511:13520   */\n      dup5\n        /* \"#utility.yul\":13507:13525   */\n      add\n        /* \"#utility.yul\":13494:13526   */\n      calldataload\n        /* \"#utility.yul\":13553:13571   */\n      0xffffffffffffffff\n        /* \"#utility.yul\":13545:13551   */\n      dup2\n        /* \"#utility.yul\":13542:13572   */\n      gt\n        /* \"#utility.yul\":13539:13656   */\n      iszero\n      tag_576\n      jumpi\n        /* \"#utility.yul\":13575:13654   */\n      tag_577\n      tag_348\n      jump\t// in\n    tag_577:\n        /* \"#utility.yul\":13539:13656   */\n    tag_576:\n        /* \"#utility.yul\":13688:13753   */\n      tag_578\n        /* \"#utility.yul\":13745:13752   */\n      dup7\n        /* \"#utility.yul\":13736:13742   */\n      dup3\n        /* \"#utility.yul\":13725:13734   */\n      dup8\n        /* \"#utility.yul\":13721:13743   */\n      add\n        /* \"#utility.yul\":13688:13753   */\n      tag_356\n      jump\t// in\n    tag_578:\n        /* \"#utility.yul\":13670:13753   */\n      swap3\n      pop\n      swap3\n      pop\n        /* \"#utility.yul\":13465:13763   */\n      pop\n        /* \"#utility.yul\":13096:13770   */\n      swap3\n      pop\n      swap3\n      pop\n      swap3\n      jump\t// out\n        /* \"#utility.yul\":13776:13891   */\n    tag_372:\n        /* \"#utility.yul\":13865:13866   */\n      0x04\n        /* \"#utility.yul\":13858:13863   */\n      dup2\n        /* \"#utility.yul\":13855:13867   */\n      lt\n        /* \"#utility.yul\":13845:13885   */\n      tag_580\n      jumpi\n        /* \"#utility.yul\":13881:13882   */\n      0x00\n        /* \"#utility.yul\":13878:13879   */\n      0x00\n        /* \"#utility.yul\":13871:13883   */\n      revert\n        /* \"#utility.yul\":13845:13885   */\n    tag_580:\n        /* \"#utility.yul\":13776:13891   */\n      pop\n      jump\t// out\n        /* \"#utility.yul\":13897:14068   */\n    tag_373:\n        /* \"#utility.yul\":13959:13964   */\n      0x00\n        /* \"#utility.yul\":13997:14003   */\n      dup2\n        /* \"#utility.yul\":13984:14004   */\n      calldataload\n        /* \"#utility.yul\":13975:14004   */\n      swap1\n      pop\n        /* \"#utility.yul\":14013:14062   */\n      tag_582\n        /* \"#utility.yul\":14056:14061   */\n      dup2\n        /* \"#utility.yul\":14013:14062   */\n      tag_372\n      jump\t// in\n    tag_582:\n        /* \"#utility.yul\":13897:14068   */\n      swap3\n      swap2\n      pop\n      pop\n      jump\t// out\n        /* \"#utility.yul\":14074:14925   */\n    tag_90:\n        /* \"#utility.yul\":14179:14185   */\n      0x00\n        /* \"#utility.yul\":14187:14193   */\n      0x00\n        /* \"#utility.yul\":14195:14201   */\n      0x00\n        /* \"#utility.yul\":14203:14209   */\n      0x00\n        /* \"#utility.yul\":14252:14254   */\n      0x60\n        /* \"#utility.yul\":14240:14249   */\n      dup6\n        /* \"#utility.yul\":14231:14238   */\n      dup8\n        /* \"#utility.yul\":14227:14250   */\n      sub\n        /* \"#utility.yul\":14223:14255   */\n      slt\n        /* \"#utility.yul\":14220:14339   */\n      iszero\n      tag_584\n      jumpi\n        /* \"#utility.yul\":14258:14337   */\n      tag_585\n      tag_347\n      jump\t// in\n    tag_585:\n        /* \"#utility.yul\":14220:14339   */\n    tag_584:\n        /* \"#utility.yul\":14378:14379   */\n      0x00\n        /* \"#utility.yul\":14403:14456   */\n      tag_586\n        /* \"#utility.yul\":14448:14455   */\n      dup8\n        /* \"#utility.yul\":14439:14445   */\n      dup3\n        /* \"#utility.yul\":14428:14437   */\n      dup9\n        /* \"#utility.yul\":14424:14446   */\n      add\n        /* \"#utility.yul\":14403:14456   */\n      tag_360\n      jump\t// in\n    tag_586:\n        /* \"#utility.yul\":14393:14456   */\n      swap5\n      pop\n        /* \"#utility.yul\":14349:14466   */\n      pop\n        /* \"#utility.yul\":14505:14507   */\n      0x20\n        /* \"#utility.yul\":14531:14600   */\n      tag_587\n        /* \"#utility.yul\":14592:14599   */\n      dup8\n        /* \"#utility.yul\":14583:14589   */\n      dup3\n        /* \"#utility.yul\":14572:14581   */\n      dup9\n        /* \"#utility.yul\":14568:14590   */\n      add\n        /* \"#utility.yul\":14531:14600   */\n      tag_373\n      jump\t// in\n    tag_587:\n        /* \"#utility.yul\":14521:14600   */\n      swap4\n      pop\n        /* \"#utility.yul\":14476:14610   */\n      pop\n        /* \"#utility.yul\":14677:14679   */\n      0x40\n        /* \"#utility.yul\":14666:14675   */\n      dup6\n        /* \"#utility.yul\":14662:14680   */\n      add\n        /* \"#utility.yul\":14649:14681   */\n      calldataload\n        /* \"#utility.yul\":14708:14726   */\n      0xffffffffffffffff\n        /* \"#utility.yul\":14700:14706   */\n      dup2\n        /* \"#utility.yul\":14697:14727   */\n      gt\n        /* \"#utility.yul\":14694:14811   */\n      iszero\n      tag_588\n      jumpi\n        /* \"#utility.yul\":14730:14809   */\n      tag_589\n      tag_348\n      jump\t// in\n    tag_589:\n        /* \"#utility.yul\":14694:14811   */\n    tag_588:\n        /* \"#utility.yul\":14843:14908   */\n      tag_590\n        /* \"#utility.yul\":14900:14907   */\n      dup8\n        /* \"#utility.yul\":14891:14897   */\n      dup3\n        /* \"#utility.yul\":14880:14889   */\n      dup9\n        /* \"#utility.yul\":14876:14898   */\n      add\n        /* \"#utility.yul\":14843:14908   */\n      tag_356\n      jump\t// in\n    tag_590:\n        /* \"#utility.yul\":14825:14908   */\n      swap3\n      pop\n      swap3\n      pop\n        /* \"#utility.yul\":14620:14918   */\n      pop\n        /* \"#utility.yul\":14074:14925   */\n      swap3\n      swap6\n      swap2\n      swap5\n      pop\n      swap3\n      pop\n      jump\t// out\n        /* \"#utility.yul\":14931:15055   */\n    tag_374:\n        /* \"#utility.yul\":15008:15014   */\n      0x00\n        /* \"#utility.yul\":15042:15047   */\n      dup2\n        /* \"#utility.yul\":15036:15048   */\n      mload\n        /* \"#utility.yul\":15026:15048   */\n      swap1\n      pop\n        /* \"#utility.yul\":14931:15055   */\n      swap2\n      swap1\n      pop\n      jump\t// out\n        /* \"#utility.yul\":15061:15255   */\n    tag_375:\n        /* \"#utility.yul\":15170:15181   */\n      0x00\n        /* \"#utility.yul\":15204:15210   */\n      dup3\n        /* \"#utility.yul\":15199:15202   */\n      dup3\n        /* \"#utility.yul\":15192:15211   */\n      mstore\n        /* \"#utility.yul\":15244:15248   */\n      0x20\n        /* \"#utility.yul\":15239:15242   */\n      dup3\n        /* \"#utility.yul\":15235:15249   */\n      add\n        /* \"#utility.yul\":15220:15249   */\n      swap1\n      pop\n        /* \"#utility.yul\":15061:15255   */\n      swap3\n      swap2\n      pop\n      pop\n      jump\t// out\n        /* \"#utility.yul\":15261:15403   */\n    tag_376:\n        /* \"#utility.yul\":15338:15342   */\n      0x00\n        /* \"#utility.yul\":15361:15364   */\n      dup2\n        /* \"#utility.yul\":15353:15364   */\n      swap1\n      pop\n        /* \"#utility.yul\":15391:15395   */\n      0x20\n        /* \"#utility.yul\":15386:15389   */\n      dup3\n        /* \"#utility.yul\":15382:15396   */\n      add\n        /* \"#utility.yul\":15374:15396   */\n      swap1\n      pop\n        /* \"#utility.yul\":15261:15403   */\n      swap2\n      swap1\n      pop\n      jump\t// out\n        /* \"#utility.yul\":15409:15568   */\n    tag_377:\n        /* \"#utility.yul\":15483:15494   */\n      0x00\n        /* \"#utility.yul\":15517:15523   */\n      dup3\n        /* \"#utility.yul\":15512:15515   */\n      dup3\n        /* \"#utility.yul\":15505:15524   */\n      mstore\n        /* \"#utility.yul\":15557:15561   */\n      0x20\n        /* \"#utility.yul\":15552:15555   */\n      dup3\n        /* \"#utility.yul\":15548:15562   */\n      add\n        /* \"#utility.yul\":15533:15562   */\n      swap1\n      pop\n        /* \"#utility.yul\":15409:15568   */\n      swap3\n      swap2\n      pop\n      pop\n      jump\t// out\n        /* \"#utility.yul\":15574:15931   */\n    tag_378:\n        /* \"#utility.yul\":15652:15655   */\n      0x00\n        /* \"#utility.yul\":15680:15719   */\n      tag_596\n        /* \"#utility.yul\":15713:15718   */\n      dup3\n        /* \"#utility.yul\":15680:15719   */\n      tag_341\n      jump\t// in\n    tag_596:\n        /* \"#utility.yul\":15735:15796   */\n      tag_597\n        /* \"#utility.yul\":15789:15795   */\n      dup2\n        /* \"#utility.yul\":15784:15787   */\n      dup6\n        /* \"#utility.yul\":15735:15796   */\n      tag_377\n      jump\t// in\n    tag_597:\n        /* \"#utility.yul\":15728:15796   */\n      swap4\n      pop\n        /* \"#utility.yul\":15805:15870   */\n      tag_598\n        /* \"#utility.yul\":15863:15869   */\n      dup2\n        /* \"#utility.yul\":15858:15861   */\n      dup6\n        /* \"#utility.yul\":15851:15855   */\n      0x20\n        /* \"#utility.yul\":15844:15849   */\n      dup7\n        /* \"#utility.yul\":15840:15856   */\n      add\n        /* \"#utility.yul\":15805:15870   */\n      tag_343\n      jump\t// in\n    tag_598:\n        /* \"#utility.yul\":15895:15924   */\n      tag_599\n        /* \"#utility.yul\":15917:15923   */\n      dup2\n        /* \"#utility.yul\":15895:15924   */\n      tag_344\n      jump\t// in\n    tag_599:\n        /* \"#utility.yul\":15890:15893   */\n      dup5\n        /* \"#utility.yul\":15886:15925   */\n      add\n        /* \"#utility.yul\":15879:15925   */\n      swap2\n      pop\n        /* \"#utility.yul\":15656:15931   */\n      pop\n        /* \"#utility.yul\":15574:15931   */\n      swap3\n      swap2\n      pop\n      pop\n      jump\t// out\n        /* \"#utility.yul\":15937:16133   */\n    tag_379:\n        /* \"#utility.yul\":16026:16036   */\n      0x00\n        /* \"#utility.yul\":16061:16127   */\n      tag_601\n        /* \"#utility.yul\":16123:16126   */\n      dup4\n        /* \"#utility.yul\":16115:16121   */\n      dup4\n        /* \"#utility.yul\":16061:16127   */\n      tag_378\n      jump\t// in\n    tag_601:\n        /* \"#utility.yul\":16047:16127   */\n      swap1\n      pop\n        /* \"#utility.yul\":15937:16133   */\n      swap3\n      swap2\n      pop\n      pop\n      jump\t// out\n        /* \"#utility.yul\":16139:16262   */\n    tag_380:\n        /* \"#utility.yul\":16219:16223   */\n      0x00\n        /* \"#utility.yul\":16251:16255   */\n      0x20\n        /* \"#utility.yul\":16246:16249   */\n      dup3\n        /* \"#utility.yul\":16242:16256   */\n      add\n        /* \"#utility.yul\":16234:16256   */\n      swap1\n      pop\n        /* \"#utility.yul\":16139:16262   */\n      swap2\n      swap1\n      pop\n      jump\t// out\n        /* \"#utility.yul\":16296:17287   */\n    tag_381:\n        /* \"#utility.yul\":16435:16438   */\n      0x00\n        /* \"#utility.yul\":16464:16528   */\n      tag_604\n        /* \"#utility.yul\":16522:16527   */\n      dup3\n        /* \"#utility.yul\":16464:16528   */\n      tag_374\n      jump\t// in\n    tag_604:\n        /* \"#utility.yul\":16544:16640   */\n      tag_605\n        /* \"#utility.yul\":16633:16639   */\n      dup2\n        /* \"#utility.yul\":16628:16631   */\n      dup6\n        /* \"#utility.yul\":16544:16640   */\n      tag_375\n      jump\t// in\n    tag_605:\n        /* \"#utility.yul\":16537:16640   */\n      swap4\n      pop\n        /* \"#utility.yul\":16666:16669   */\n      dup4\n        /* \"#utility.yul\":16711:16715   */\n      0x20\n        /* \"#utility.yul\":16703:16709   */\n      dup3\n        /* \"#utility.yul\":16699:16716   */\n      mul\n        /* \"#utility.yul\":16694:16697   */\n      dup6\n        /* \"#utility.yul\":16690:16717   */\n      add\n        /* \"#utility.yul\":16741:16807   */\n      tag_606\n        /* \"#utility.yul\":16801:16806   */\n      dup6\n        /* \"#utility.yul\":16741:16807   */\n      tag_376\n      jump\t// in\n    tag_606:\n        /* \"#utility.yul\":16830:16837   */\n      dup1\n        /* \"#utility.yul\":16861:16862   */\n      0x00\n        /* \"#utility.yul\":16846:17242   */\n    tag_607:\n        /* \"#utility.yul\":16871:16877   */\n      dup6\n        /* \"#utility.yul\":16868:16869   */\n      dup2\n        /* \"#utility.yul\":16865:16878   */\n      lt\n        /* \"#utility.yul\":16846:17242   */\n      iszero\n      tag_609\n      jumpi\n        /* \"#utility.yul\":16942:16951   */\n      dup5\n        /* \"#utility.yul\":16936:16940   */\n      dup5\n        /* \"#utility.yul\":16932:16952   */\n      sub\n        /* \"#utility.yul\":16927:16930   */\n      dup10\n        /* \"#utility.yul\":16920:16953   */\n      mstore\n        /* \"#utility.yul\":16993:16999   */\n      dup2\n        /* \"#utility.yul\":16987:17000   */\n      mload\n        /* \"#utility.yul\":17021:17105   */\n      tag_610\n        /* \"#utility.yul\":17100:17104   */\n      dup6\n        /* \"#utility.yul\":17085:17098   */\n      dup3\n        /* \"#utility.yul\":17021:17105   */\n      tag_379\n      jump\t// in\n    tag_610:\n        /* \"#utility.yul\":17013:17105   */\n      swap5\n      pop\n        /* \"#utility.yul\":17128:17198   */\n      tag_611\n        /* \"#utility.yul\":17191:17197   */\n      dup4\n        /* \"#utility.yul\":17128:17198   */\n      tag_380\n      jump\t// in\n    tag_611:\n        /* \"#utility.yul\":17118:17198   */\n      swap3\n      pop\n        /* \"#utility.yul\":17227:17231   */\n      0x20\n        /* \"#utility.yul\":17222:17225   */\n      dup11\n        /* \"#utility.yul\":17218:17232   */\n      add\n        /* \"#utility.yul\":17211:17232   */\n      swap10\n      pop\n        /* \"#utility.yul\":16906:17242   */\n      pop\n        /* \"#utility.yul\":16893:16894   */\n      0x01\n        /* \"#utility.yul\":16890:16891   */\n      dup2\n        /* \"#utility.yul\":16886:16895   */\n      add\n        /* \"#utility.yul\":16881:16895   */\n      swap1\n      pop\n        /* \"#utility.yul\":16846:17242   */\n      jump(tag_607)\n    tag_609:\n        /* \"#utility.yul\":16850:16864   */\n      pop\n        /* \"#utility.yul\":17258:17262   */\n      dup3\n        /* \"#utility.yul\":17251:17262   */\n      swap8\n      pop\n        /* \"#utility.yul\":17278:17281   */\n      dup8\n        /* \"#utility.yul\":17271:17281   */\n      swap6\n      pop\n        /* \"#utility.yul\":16440:17287   */\n      pop\n      pop\n      pop\n      pop\n      pop\n        /* \"#utility.yul\":16296:17287   */\n      swap3\n      swap2\n      pop\n      pop\n      jump\t// out\n        /* \"#utility.yul\":17293:17706   */\n    tag_99:\n        /* \"#utility.yul\":17456:17460   */\n      0x00\n        /* \"#utility.yul\":17494:17496   */\n      0x20\n        /* \"#utility.yul\":17483:17492   */\n      dup3\n        /* \"#utility.yul\":17479:17497   */\n      add\n        /* \"#utility.yul\":17471:17497   */\n      swap1\n      pop\n        /* \"#utility.yul\":17543:17552   */\n      dup2\n        /* \"#utility.yul\":17537:17541   */\n      dup2\n        /* \"#utility.yul\":17533:17553   */\n      sub\n        /* \"#utility.yul\":17529:17530   */\n      0x00\n        /* \"#utility.yul\":17518:17527   */\n      dup4\n        /* \"#utility.yul\":17514:17531   */\n      add\n        /* \"#utility.yul\":17507:17554   */\n      mstore\n        /* \"#utility.yul\":17571:17699   */\n      tag_613\n        /* \"#utility.yul\":17694:17698   */\n      dup2\n        /* \"#utility.yul\":17685:17691   */\n      dup5\n        /* \"#utility.yul\":17571:17699   */\n      tag_381\n      jump\t// in\n    tag_613:\n        /* \"#utility.yul\":17563:17699   */\n      swap1\n      pop\n        /* \"#utility.yul\":17293:17706   */\n      swap3\n      swap2\n      pop\n      pop\n      jump\t// out\n        /* \"#utility.yul\":17712:17892   */\n    tag_382:\n        /* \"#utility.yul\":17760:17837   */\n      0x4e487b7100000000000000000000000000000000000000000000000000000000\n        /* \"#utility.yul\":17757:17758   */\n      0x00\n        /* \"#utility.yul\":17750:17838   */\n      mstore\n        /* \"#utility.yul\":17857:17861   */\n      0x22\n        /* \"#utility.yul\":17854:17855   */\n      0x04\n        /* \"#utility.yul\":17847:17862   */\n      mstore\n        /* \"#utility.yul\":17881:17885   */\n      0x24\n        /* \"#utility.yul\":17878:17879   */\n      0x00\n        /* \"#utility.yul\":17871:17886   */\n      revert\n        /* \"#utility.yul\":17898:18218   */\n    tag_104:\n        /* \"#utility.yul\":17942:17948   */\n      0x00\n        /* \"#utility.yul\":17979:17980   */\n      0x02\n        /* \"#utility.yul\":17973:17977   */\n      dup3\n        /* \"#utility.yul\":17969:17981   */\n      div\n        /* \"#utility.yul\":17959:17981   */\n      swap1\n      pop\n        /* \"#utility.yul\":18026:18027   */\n      0x01\n        /* \"#utility.yul\":18020:18024   */\n      dup3\n        /* \"#utility.yul\":18016:18028   */\n      and\n        /* \"#utility.yul\":18047:18065   */\n      dup1\n        /* \"#utility.yul\":18037:18118   */\n      tag_616\n      jumpi\n        /* \"#utility.yul\":18103:18107   */\n      0x7f\n        /* \"#utility.yul\":18095:18101   */\n      dup3\n        /* \"#utility.yul\":18091:18108   */\n      and\n        /* \"#utility.yul\":18081:18108   */\n      swap2\n      pop\n        /* \"#utility.yul\":18037:18118   */\n    tag_616:\n        /* \"#utility.yul\":18165:18167   */\n      0x20\n        /* \"#utility.yul\":18157:18163   */\n      dup3\n        /* \"#utility.yul\":18154:18168   */\n      lt\n        /* \"#utility.yul\":18134:18152   */\n      dup2\n        /* \"#utility.yul\":18131:18169   */\n      sub\n        /* \"#utility.yul\":18128:18212   */\n      tag_617\n      jumpi\n        /* \"#utility.yul\":18184:18202   */\n      tag_618\n      tag_382\n      jump\t// in\n    tag_618:\n        /* \"#utility.yul\":18128:18212   */\n    tag_617:\n        /* \"#utility.yul\":17949:18218   */\n      pop\n        /* \"#utility.yul\":17898:18218   */\n      swap2\n      swap1\n      pop\n      jump\t// out\n        /* \"#utility.yul\":18224:18387   */\n    tag_383:\n        /* \"#utility.yul\":18364:18379   */\n      0x4e6f742072656769737472617200000000000000000000000000000000000000\n        /* \"#utility.yul\":18360:18361   */\n      0x00\n        /* \"#utility.yul\":18352:18358   */\n      dup3\n        /* \"#utility.yul\":18348:18362   */\n      add\n        /* \"#utility.yul\":18341:18380   */\n      mstore\n        /* \"#utility.yul\":18224:18387   */\n      pop\n      jump\t// out\n        /* \"#utility.yul\":18393:18759   */\n    tag_384:\n        /* \"#utility.yul\":18535:18538   */\n      0x00\n        /* \"#utility.yul\":18556:18623   */\n      tag_621\n        /* \"#utility.yul\":18620:18622   */\n      0x0d\n        /* \"#utility.yul\":18615:18618   */\n      dup4\n        /* \"#utility.yul\":18556:18623   */\n      tag_342\n      jump\t// in\n    tag_621:\n        /* \"#utility.yul\":18549:18623   */\n      swap2\n      pop\n        /* \"#utility.yul\":18632:18725   */\n      tag_622\n        /* \"#utility.yul\":18721:18724   */\n      dup3\n        /* \"#utility.yul\":18632:18725   */\n      tag_383\n      jump\t// in\n    tag_622:\n        /* \"#utility.yul\":18750:18752   */\n      0x20\n        /* \"#utility.yul\":18745:18748   */\n      dup3\n        /* \"#utility.yul\":18741:18753   */\n      add\n        /* \"#utility.yul\":18734:18753   */\n      swap1\n      pop\n        /* \"#utility.yul\":18393:18759   */\n      swap2\n      swap1\n      pop\n      jump\t// out\n        /* \"#utility.yul\":18765:19184   */\n    tag_113:\n        /* \"#utility.yul\":18931:18935   */\n      0x00\n        /* \"#utility.yul\":18969:18971   */\n      0x20\n        /* \"#utility.yul\":18958:18967   */\n      dup3\n        /* \"#utility.yul\":18954:18972   */\n      add\n        /* \"#utility.yul\":18946:18972   */\n      swap1\n      pop\n        /* \"#utility.yul\":19018:19027   */\n      dup2\n        /* \"#utility.yul\":19012:19016   */\n      dup2\n        /* \"#utility.yul\":19008:19028   */\n      sub\n        /* \"#utility.yul\":19004:19005   */\n      0x00\n        /* \"#utility.yul\":18993:19002   */\n      dup4\n        /* \"#utility.yul\":18989:19006   */\n      add\n        /* \"#utility.yul\":18982:19029   */\n      mstore\n        /* \"#utility.yul\":19046:19177   */\n      tag_624\n        /* \"#utility.yul\":19172:19176   */\n      dup2\n        /* \"#utility.yul\":19046:19177   */\n      tag_384\n      jump\t// in\n    tag_624:\n        /* \"#utility.yul\":19038:19177   */\n      swap1\n      pop\n        /* \"#utility.yul\":18765:19184   */\n      swap2\n      swap1\n      pop\n      jump\t// out\n        /* \"#utility.yul\":19190:19353   */\n    tag_385:\n        /* \"#utility.yul\":19330:19345   */\n      0x496e76616c6964206f776e657200000000000000000000000000000000000000\n        /* \"#utility.yul\":19326:19327   */\n      0x00\n        /* \"#utility.yul\":19318:19324   */\n      dup3\n        /* \"#utility.yul\":19314:19328   */\n      add\n        /* \"#utility.yul\":19307:19346   */\n      mstore\n        /* \"#utility.yul\":19190:19353   */\n      pop\n      jump\t// out\n        /* \"#utility.yul\":19359:19725   */\n    tag_386:\n        /* \"#utility.yul\":19501:19504   */\n      0x00\n        /* \"#utility.yul\":19522:19589   */\n      tag_627\n        /* \"#utility.yul\":19586:19588   */\n      0x0d\n        /* \"#utility.yul\":19581:19584   */\n      dup4\n        /* \"#utility.yul\":19522:19589   */\n      tag_342\n      jump\t// in\n    tag_627:\n        /* \"#utility.yul\":19515:19589   */\n      swap2\n      pop\n        /* \"#utility.yul\":19598:19691   */\n      tag_628\n        /* \"#utility.yul\":19687:19690   */\n      dup3\n        /* \"#utility.yul\":19598:19691   */\n      tag_385\n      jump\t// in\n    tag_628:\n        /* \"#utility.yul\":19716:19718   */\n      0x20\n        /* \"#utility.yul\":19711:19714   */\n      dup3\n        /* \"#utility.yul\":19707:19719   */\n      add\n        /* \"#utility.yul\":19700:19719   */\n      swap1\n      pop\n        /* \"#utility.yul\":19359:19725   */\n      swap2\n      swap1\n      pop\n      jump\t// out\n        /* \"#utility.yul\":19731:20150   */\n    tag_117:\n        /* \"#utility.yul\":19897:19901   */\n      0x00\n        /* \"#utility.yul\":19935:19937   */\n      0x20\n        /* \"#utility.yul\":19924:19933   */\n      dup3\n        /* \"#utility.yul\":19920:19938   */\n      add\n        /* \"#utility.yul\":19912:19938   */\n      swap1\n      pop\n        /* \"#utility.yul\":19984:19993   */\n      dup2\n        /* \"#utility.yul\":19978:19982   */\n      dup2\n        /* \"#utility.yul\":19974:19994   */\n      sub\n        /* \"#utility.yul\":19970:19971   */\n      0x00\n        /* \"#utility.yul\":19959:19968   */\n      dup4\n        /* \"#utility.yul\":19955:19972   */\n      add\n        /* \"#utility.yul\":19948:19995   */\n      mstore\n        /* \"#utility.yul\":20012:20143   */\n      tag_630\n        /* \"#utility.yul\":20138:20142   */\n      dup2\n        /* \"#utility.yul\":20012:20143   */\n      tag_386\n      jump\t// in\n    tag_630:\n        /* \"#utility.yul\":20004:20143   */\n      swap1\n      pop\n        /* \"#utility.yul\":19731:20150   */\n      swap2\n      swap1\n      pop\n      jump\t// out\n        /* \"#utility.yul\":20156:20324   */\n    tag_387:\n        /* \"#utility.yul\":20296:20316   */\n      0x4c52206e756d6265722072657175697265640000000000000000000000000000\n        /* \"#utility.yul\":20292:20293   */\n      0x00\n        /* \"#utility.yul\":20284:20290   */\n      dup3\n        /* \"#utility.yul\":20280:20294   */\n      add\n        /* \"#utility.yul\":20273:20317   */\n      mstore\n        /* \"#utility.yul\":20156:20324   */\n      pop\n      jump\t// out\n        /* \"#utility.yul\":20330:20696   */\n    tag_388:\n        /* \"#utility.yul\":20472:20475   */\n      0x00\n        /* \"#utility.yul\":20493:20560   */\n      tag_633\n        /* \"#utility.yul\":20557:20559   */\n      0x12\n        /* \"#utility.yul\":20552:20555   */\n      dup4\n        /* \"#utility.yul\":20493:20560   */\n      tag_342\n      jump\t// in\n    tag_633:\n        /* \"#utility.yul\":20486:20560   */\n      swap2\n      pop\n        /* \"#utility.yul\":20569:20662   */\n      tag_634\n        /* \"#utility.yul\":20658:20661   */\n      dup3\n        /* \"#utility.yul\":20569:20662   */\n      tag_387\n      jump\t// in\n    tag_634:\n        /* \"#utility.yul\":20687:20689   */\n      0x20\n        /* \"#utility.yul\":20682:20685   */\n      dup3\n        /* \"#utility.yul\":20678:20690   */\n      add\n        /* \"#utility.yul\":20671:20690   */\n      swap1\n      pop\n        /* \"#utility.yul\":20330:20696   */\n      swap2\n      swap1\n      pop\n      jump\t// out\n        /* \"#utility.yul\":20702:21121   */\n    tag_120:\n        /* \"#utility.yul\":20868:20872   */\n      0x00\n        /* \"#utility.yul\":20906:20908   */\n      0x20\n        /* \"#utility.yul\":20895:20904   */\n      dup3\n        /* \"#utility.yul\":20891:20909   */\n      add\n        /* \"#utility.yul\":20883:20909   */\n      swap1\n      pop\n        /* \"#utility.yul\":20955:20964   */\n      dup2\n        /* \"#utility.yul\":20949:20953   */\n      dup2\n        /* \"#utility.yul\":20945:20965   */\n      sub\n        /* \"#utility.yul\":20941:20942   */\n      0x00\n        /* \"#utility.yul\":20930:20939   */\n      dup4\n        /* \"#utility.yul\":20926:20943   */\n      add\n        /* \"#utility.yul\":20919:20966   */\n      mstore\n        /* \"#utility.yul\":20983:21114   */\n      tag_636\n        /* \"#utility.yul\":21109:21113   */\n      dup2\n        /* \"#utility.yul\":20983:21114   */\n      tag_388\n      jump\t// in\n    tag_636:\n        /* \"#utility.yul\":20975:21114   */\n      swap1\n      pop\n        /* \"#utility.yul\":20702:21121   */\n      swap2\n      swap1\n      pop\n      jump\t// out\n        /* \"#utility.yul\":21127:21307   */\n    tag_389:\n        /* \"#utility.yul\":21175:21252   */\n      0x4e487b7100000000000000000000000000000000000000000000000000000000\n        /* \"#utility.yul\":21172:21173   */\n      0x00\n        /* \"#utility.yul\":21165:21253   */\n      mstore\n        /* \"#utility.yul\":21272:21276   */\n      0x41\n        /* \"#utility.yul\":21269:21270   */\n      0x04\n        /* \"#utility.yul\":21262:21277   */\n      mstore\n        /* \"#utility.yul\":21296:21300   */\n      0x24\n        /* \"#utility.yul\":21293:21294   */\n      0x00\n        /* \"#utility.yul\":21286:21301   */\n      revert\n        /* \"#utility.yul\":21313:21454   */\n    tag_390:\n        /* \"#utility.yul\":21362:21366   */\n      0x00\n        /* \"#utility.yul\":21385:21388   */\n      dup2\n        /* \"#utility.yul\":21377:21388   */\n      swap1\n      pop\n        /* \"#utility.yul\":21408:21411   */\n      dup2\n        /* \"#utility.yul\":21405:21406   */\n      0x00\n        /* \"#utility.yul\":21398:21412   */\n      mstore\n        /* \"#utility.yul\":21442:21446   */\n      0x20\n        /* \"#utility.yul\":21439:21440   */\n      0x00\n        /* \"#utility.yul\":21429:21447   */\n      keccak256\n        /* \"#utility.yul\":21421:21447   */\n      swap1\n      pop\n        /* \"#utility.yul\":21313:21454   */\n      swap2\n      swap1\n      pop\n      jump\t// out\n        /* \"#utility.yul\":21460:21553   */\n    tag_391:\n        /* \"#utility.yul\":21497:21503   */\n      0x00\n        /* \"#utility.yul\":21544:21546   */\n      0x20\n        /* \"#utility.yul\":21539:21541   */\n      0x1f\n        /* \"#utility.yul\":21532:21537   */\n      dup4\n        /* \"#utility.yul\":21528:21542   */\n      add\n        /* \"#utility.yul\":21524:21547   */\n      div\n        /* \"#utility.yul\":21514:21547   */\n      swap1\n      pop\n        /* \"#utility.yul\":21460:21553   */\n      swap2\n      swap1\n      pop\n      jump\t// out\n        /* \"#utility.yul\":21559:21666   */\n    tag_392:\n        /* \"#utility.yul\":21603:21611   */\n      0x00\n        /* \"#utility.yul\":21653:21658   */\n      dup3\n        /* \"#utility.yul\":21647:21651   */\n      dup3\n        /* \"#utility.yul\":21643:21659   */\n      shl\n        /* \"#utility.yul\":21622:21659   */\n      swap1\n      pop\n        /* \"#utility.yul\":21559:21666   */\n      swap3\n      swap2\n      pop\n      pop\n      jump\t// out\n        /* \"#utility.yul\":21672:22065   */\n    tag_393:\n        /* \"#utility.yul\":21741:21747   */\n      0x00\n        /* \"#utility.yul\":21791:21792   */\n      0x08\n        /* \"#utility.yul\":21779:21789   */\n      dup4\n        /* \"#utility.yul\":21775:21793   */\n      mul\n        /* \"#utility.yul\":21814:21911   */\n      tag_642\n        /* \"#utility.yul\":21844:21910   */\n      0xffffffffffffffffffffffffffffffffffffffffffffffffffffffffffffffff\n        /* \"#utility.yul\":21833:21842   */\n      dup3\n        /* \"#utility.yul\":21814:21911   */\n      tag_392\n      jump\t// in\n    tag_642:\n        /* \"#utility.yul\":21932:21971   */\n      tag_643\n        /* \"#utility.yul\":21962:21970   */\n      dup7\n        /* \"#utility.yul\":21951:21960   */\n      dup4\n        /* \"#utility.yul\":21932:21971   */\n      tag_392\n      jump\t// in\n    tag_643:\n        /* \"#utility.yul\":21920:21971   */\n      swap6\n      pop\n        /* \"#utility.yul\":22004:22008   */\n      dup1\n        /* \"#utility.yul\":22000:22009   */\n      not\n        /* \"#utility.yul\":21993:21998   */\n      dup5\n        /* \"#utility.yul\":21989:22010   */\n      and\n        /* \"#utility.yul\":21980:22010   */\n      swap4\n      pop\n        /* \"#utility.yul\":22053:22057   */\n      dup1\n        /* \"#utility.yul\":22043:22051   */\n      dup7\n        /* \"#utility.yul\":22039:22058   */\n      and\n        /* \"#utility.yul\":22032:22037   */\n      dup5\n        /* \"#utility.yul\":22029:22059   */\n      or\n        /* \"#utility.yul\":22019:22059   */\n      swap3\n      pop\n        /* \"#utility.yul\":21748:22065   */\n      pop\n      pop\n        /* \"#utility.yul\":21672:22065   */\n      swap4\n      swap3\n      pop\n      pop\n      pop\n      jump\t// out\n        /* \"#utility.yul\":22071:22131   */\n    tag_394:\n        /* \"#utility.yul\":22099:22102   */\n      0x00\n        /* \"#utility.yul\":22120:22125   */\n      dup2\n        /* \"#utility.yul\":22113:22125   */\n      swap1\n      pop\n        /* \"#utility.yul\":22071:22131   */\n      swap2\n      swap1\n      pop\n      jump\t// out\n        /* \"#utility.yul\":22137:22279   */\n    tag_395:\n        /* \"#utility.yul\":22187:22196   */\n      0x00\n        /* \"#utility.yul\":22220:22273   */\n      tag_646\n        /* \"#utility.yul\":22238:22272   */\n      tag_647\n        /* \"#utility.yul\":22247:22271   */\n      tag_648\n        /* \"#utility.yul\":22265:22270   */\n      dup5\n        /* \"#utility.yul\":22247:22271   */\n      tag_357\n      jump\t// in\n    tag_648:\n        /* \"#utility.yul\":22238:22272   */\n      tag_394\n      jump\t// in\n    tag_647:\n        /* \"#utility.yul\":22220:22273   */\n      tag_357\n      jump\t// in\n    tag_646:\n        /* \"#utility.yul\":22207:22273   */\n      swap1\n      pop\n        /* \"#utility.yul\":22137:22279   */\n      swap2\n      swap1\n      pop\n      jump\t// out\n        /* \"#utility.yul\":22285:22360   */\n    tag_396:\n        /* \"#utility.yul\":22328:22331   */\n      0x00\n        /* \"#utility.yul\":22349:22354   */\n      dup2\n        /* \"#utility.yul\":22342:22354   */\n      swap1\n      pop\n        /* \"#utility.yul\":22285:22360   */\n      swap2\n      swap1\n      pop\n      jump\t// out\n        /* \"#utility.yul\":22366:22635   */\n    tag_397:\n        /* \"#utility.yul\":22476:22515   */\n      tag_651\n        /* \"#utility.yul\":22507:22514   */\n      dup4\n        /* \"#utility.yul\":22476:22515   */\n      tag_395\n      jump\t// in\n    tag_651:\n        /* \"#utility.yul\":22537:22628   */\n      tag_652\n        /* \"#utility.yul\":22586:22627   */\n      tag_653\n        /* \"#utility.yul\":22610:22626   */\n      dup3\n        /* \"#utility.yul\":22586:22627   */\n      tag_396\n      jump\t// in\n    tag_653:\n        /* \"#utility.yul\":22578:22584   */\n      dup5\n        /* \"#utility.yul\":22571:22575   */\n      dup5\n        /* \"#utility.yul\":22565:22576   */\n      sload\n        /* \"#utility.yul\":22537:22628   */\n      tag_393\n      jump\t// in\n    tag_652:\n        /* \"#utility.yul\":22531:22535   */\n      dup3\n        /* \"#utility.yul\":22524:22629   */\n      sstore\n        /* \"#utility.yul\":22442:22635   */\n      pop\n        /* \"#utility.yul\":22366:22635   */\n      pop\n      pop\n      pop\n      jump\t// out\n        /* \"#utility.yul\":22641:22714   */\n    tag_398:\n        /* \"#utility.yul\":22686:22689   */\n      0x00\n        /* \"#utility.yul\":22707:22708   */\n      0x00\n        /* \"#utility.yul\":22700:22708   */\n      swap1\n      pop\n        /* \"#utility.yul\":22641:22714   */\n      swap1\n      jump\t// out\n        /* \"#utility.yul\":22720:22909   */\n    tag_399:\n        /* \"#utility.yul\":22797:22829   */\n      tag_656\n      tag_398\n      jump\t// in\n    tag_656:\n        /* \"#utility.yul\":22838:22903   */\n      tag_657\n        /* \"#utility.yul\":22896:22902   */\n      dup2\n        /* \"#utility.yul\":22888:22894   */\n      dup5\n        /* \"#utility.yul\":22882:22886   */\n      dup5\n        /* \"#utility.yul\":22838:22903   */\n      tag_397\n      jump\t// in\n    tag_657:\n        /* \"#utility.yul\":22773:22909   */\n      pop\n        /* \"#utility.yul\":22720:22909   */\n      pop\n      pop\n      jump\t// out\n        /* \"#utility.yul\":22915:23101   */\n    tag_400:\n        /* \"#utility.yul\":22975:23095   */\n    tag_659:\n        /* \"#utility.yul\":22992:22995   */\n      dup2\n        /* \"#utility.yul\":22985:22990   */\n      dup2\n        /* \"#utility.yul\":22982:22996   */\n      lt\n        /* \"#utility.yul\":22975:23095   */\n      iszero\n      tag_661\n      jumpi\n        /* \"#utility.yul\":23046:23085   */\n      tag_662\n        /* \"#utility.yul\":23083:23084   */\n      0x00\n        /* \"#utility.yul\":23076:23081   */\n      dup3\n        /* \"#utility.yul\":23046:23085   */\n      tag_399\n      jump\t// in\n    tag_662:\n        /* \"#utility.yul\":23019:23020   */\n      0x01\n        /* \"#utility.yul\":23012:23017   */\n      dup2\n        /* \"#utility.yul\":23008:23021   */\n      add\n        /* \"#utility.yul\":22999:23021   */\n      swap1\n      pop\n        /* \"#utility.yul\":22975:23095   */\n      jump(tag_659)\n    tag_661:\n        /* \"#utility.yul\":22915:23101   */\n      pop\n      pop\n      jump\t// out\n        /* \"#utility.yul\":23107:23650   */\n    tag_401:\n        /* \"#utility.yul\":23208:23210   */\n      0x1f\n        /* \"#utility.yul\":23203:23206   */\n      dup3\n        /* \"#utility.yul\":23200:23211   */\n      gt\n        /* \"#utility.yul\":23197:23643   */\n      iszero\n      tag_664\n      jumpi\n        /* \"#utility.yul\":23242:23280   */\n      tag_665\n        /* \"#utility.yul\":23274:23279   */\n      dup2\n        /* \"#utility.yul\":23242:23280   */\n      tag_390\n      jump\t// in\n    tag_665:\n        /* \"#utility.yul\":23326:23355   */\n      tag_666\n        /* \"#utility.yul\":23344:23354   */\n      dup5\n        /* \"#utility.yul\":23326:23355   */\n      tag_391\n      jump\t// in\n    tag_666:\n        /* \"#utility.yul\":23316:23324   */\n      dup2\n        /* \"#utility.yul\":23312:23356   */\n      add\n        /* \"#utility.yul\":23509:23511   */\n      0x20\n        /* \"#utility.yul\":23497:23507   */\n      dup6\n        /* \"#utility.yul\":23494:23512   */\n      lt\n        /* \"#utility.yul\":23491:23540   */\n      iszero\n      tag_667\n      jumpi\n        /* \"#utility.yul\":23530:23538   */\n      dup2\n        /* \"#utility.yul\":23515:23538   */\n      swap1\n      pop\n        /* \"#utility.yul\":23491:23540   */\n    tag_667:\n        /* \"#utility.yul\":23553:23633   */\n      tag_668\n        /* \"#utility.yul\":23609:23631   */\n      tag_669\n        /* \"#utility.yul\":23627:23630   */\n      dup6\n        /* \"#utility.yul\":23609:23631   */\n      tag_391\n      jump\t// in\n    tag_669:\n        /* \"#utility.yul\":23599:23607   */\n      dup4\n        /* \"#utility.yul\":23595:23632   */\n      add\n        /* \"#utility.yul\":23582:23593   */\n      dup3\n        /* \"#utility.yul\":23553:23633   */\n      tag_400\n      jump\t// in\n    tag_668:\n        /* \"#utility.yul\":23212:23643   */\n      pop\n      pop\n        /* \"#utility.yul\":23197:23643   */\n    tag_664:\n        /* \"#utility.yul\":23107:23650   */\n      pop\n      pop\n      pop\n      jump\t// out\n        /* \"#utility.yul\":23656:23773   */\n    tag_402:\n        /* \"#utility.yul\":23710:23718   */\n      0x00\n        /* \"#utility.yul\":23760:23765   */\n      dup3\n        /* \"#utility.yul\":23754:23758   */\n      dup3\n        /* \"#utility.yul\":23750:23766   */\n      shr\n        /* \"#utility.yul\":23729:23766   */\n      swap1\n      pop\n        /* \"#utility.yul\":23656:23773   */\n      swap3\n      swap2\n      pop\n      pop\n      jump\t// out\n        /* \"#utility.yul\":23779:23948   */\n    tag_403:\n        /* \"#utility.yul\":23823:23829   */\n      0x00\n        /* \"#utility.yul\":23856:23907   */\n      tag_672\n        /* \"#utility.yul\":23904:23905   */\n      0x00\n        /* \"#utility.yul\":23900:23906   */\n      not\n        /* \"#utility.yul\":23892:23897   */\n      dup5\n        /* \"#utility.yul\":23889:23890   */\n      0x08\n        /* \"#utility.yul\":23885:23898   */\n      mul\n        /* \"#utility.yul\":23856:23907   */\n      tag_402\n      jump\t// in\n    tag_672:\n        /* \"#utility.yul\":23852:23908   */\n      not\n        /* \"#utility.yul\":23937:23941   */\n      dup1\n        /* \"#utility.yul\":23931:23935   */\n      dup4\n        /* \"#utility.yul\":23927:23942   */\n      and\n        /* \"#utility.yul\":23917:23942   */\n      swap2\n      pop\n        /* \"#utility.yul\":23830:23948   */\n      pop\n        /* \"#utility.yul\":23779:23948   */\n      swap3\n      swap2\n      pop\n      pop\n      jump\t// out\n        /* \"#utility.yul\":23953:24248   */\n    tag_404:\n        /* \"#utility.yul\":24029:24033   */\n      0x00\n        /* \"#utility.yul\":24175:24204   */\n      tag_674\n        /* \"#utility.yul\":24200:24203   */\n      dup4\n        /* \"#utility.yul\":24194:24198   */\n      dup4\n        /* \"#utility.yul\":24175:24204   */\n      tag_403\n      jump\t// in\n    tag_674:\n        /* \"#utility.yul\":24167:24204   */\n      swap2\n      pop\n        /* \"#utility.yul\":24237:24240   */\n      dup3\n        /* \"#utility.yul\":24234:24235   */\n      0x02\n        /* \"#utility.yul\":24230:24241   */\n      mul\n        /* \"#utility.yul\":24224:24228   */\n      dup3\n        /* \"#utility.yul\":24221:24242   */\n      or\n        /* \"#utility.yul\":24213:24242   */\n      swap1\n      pop\n        /* \"#utility.yul\":23953:24248   */\n      swap3\n      swap2\n      pop\n      pop\n      jump\t// out\n        /* \"#utility.yul\":24253:25648   */\n    tag_131:\n        /* \"#utility.yul\":24370:24407   */\n      tag_676\n        /* \"#utility.yul\":24403:24406   */\n      dup3\n        /* \"#utility.yul\":24370:24407   */\n      tag_341\n      jump\t// in\n    tag_676:\n        /* \"#utility.yul\":24472:24490   */\n      0xffffffffffffffff\n        /* \"#utility.yul\":24464:24470   */\n      dup2\n        /* \"#utility.yul\":24461:24491   */\n      gt\n        /* \"#utility.yul\":24458:24514   */\n      iszero\n      tag_677\n      jumpi\n        /* \"#utility.yul\":24494:24512   */\n      tag_678\n      tag_389\n      jump\t// in\n    tag_678:\n        /* \"#utility.yul\":24458:24514   */\n    tag_677:\n        /* \"#utility.yul\":24538:24576   */\n      tag_679\n        /* \"#utility.yul\":24570:24574   */\n      dup3\n        /* \"#utility.yul\":24564:24575   */\n      sload\n        /* \"#utility.yul\":24538:24576   */\n      tag_104\n      jump\t// in\n    tag_679:\n        /* \"#utility.yul\":24623:24690   */\n      tag_680\n        /* \"#utility.yul\":24683:24689   */\n      dup3\n        /* \"#utility.yul\":24675:24681   */\n      dup3\n        /* \"#utility.yul\":24669:24673   */\n      dup6\n        /* \"#utility.yul\":24623:24690   */\n      tag_401\n      jump\t// in\n    tag_680:\n        /* \"#utility.yul\":24717:24718   */\n      0x00\n        /* \"#utility.yul\":24741:24745   */\n      0x20\n        /* \"#utility.yul\":24728:24745   */\n      swap1\n      pop\n        /* \"#utility.yul\":24773:24775   */\n      0x1f\n        /* \"#utility.yul\":24765:24771   */\n      dup4\n        /* \"#utility.yul\":24762:24776   */\n      gt\n        /* \"#utility.yul\":24790:24791   */\n      0x01\n        /* \"#utility.yul\":24785:25403   */\n      dup2\n      eq\n      tag_682\n      jumpi\n        /* \"#utility.yul\":25447:25448   */\n      0x00\n        /* \"#utility.yul\":25464:25470   */\n      dup5\n        /* \"#utility.yul\":25461:25538   */\n      iszero\n      tag_683\n      jumpi\n        /* \"#utility.yul\":25513:25522   */\n      dup3\n        /* \"#utility.yul\":25508:25511   */\n      dup8\n        /* \"#utility.yul\":25504:25523   */\n      add\n        /* \"#utility.yul\":25498:25524   */\n      mload\n        /* \"#utility.yul\":25489:25524   */\n      swap1\n      pop\n        /* \"#utility.yul\":25461:25538   */\n    tag_683:\n        /* \"#utility.yul\":25564:25631   */\n      tag_684\n        /* \"#utility.yul\":25624:25630   */\n      dup6\n        /* \"#utility.yul\":25617:25622   */\n      dup3\n        /* \"#utility.yul\":25564:25631   */\n      tag_404\n      jump\t// in\n    tag_684:\n        /* \"#utility.yul\":25558:25562   */\n      dup7\n        /* \"#utility.yul\":25551:25632   */\n      sstore\n        /* \"#utility.yul\":25420:25642   */\n      pop\n        /* \"#utility.yul\":24755:25642   */\n      jump(tag_681)\n        /* \"#utility.yul\":24785:25403   */\n    tag_682:\n        /* \"#utility.yul\":24837:24841   */\n      0x1f\n        /* \"#utility.yul\":24833:24842   */\n      not\n        /* \"#utility.yul\":24825:24831   */\n      dup5\n        /* \"#utility.yul\":24821:24843   */\n      and\n        /* \"#utility.yul\":24871:24908   */\n      tag_685\n        /* \"#utility.yul\":24903:24907   */\n      dup7\n        /* \"#utility.yul\":24871:24908   */\n      tag_390\n      jump\t// in\n    tag_685:\n        /* \"#utility.yul\":24930:24931   */\n      0x00\n        /* \"#utility.yul\":24944:25152   */\n    tag_686:\n        /* \"#utility.yul\":24958:24965   */\n      dup3\n        /* \"#utility.yul\":24955:24956   */\n      dup2\n        /* \"#utility.yul\":24952:24966   */\n      lt\n        /* \"#utility.yul\":24944:25152   */\n      iszero\n      tag_688\n      jumpi\n        /* \"#utility.yul\":25037:25046   */\n      dup5\n        /* \"#utility.yul\":25032:25035   */\n      dup10\n        /* \"#utility.yul\":25028:25047   */\n      add\n        /* \"#utility.yul\":25022:25048   */\n      mload\n        /* \"#utility.yul\":25014:25020   */\n      dup3\n        /* \"#utility.yul\":25007:25049   */\n      sstore\n        /* \"#utility.yul\":25088:25089   */\n      0x01\n        /* \"#utility.yul\":25080:25086   */\n      dup3\n        /* \"#utility.yul\":25076:25090   */\n      add\n        /* \"#utility.yul\":25066:25090   */\n      swap2\n      pop\n        /* \"#utility.yul\":25135:25137   */\n      0x20\n        /* \"#utility.yul\":25124:25133   */\n      dup6\n        /* \"#utility.yul\":25120:25138   */\n      add\n        /* \"#utility.yul\":25107:25138   */\n      swap5\n      pop\n        /* \"#utility.yul\":24981:24985   */\n      0x20\n        /* \"#utility.yul\":24978:24979   */\n      dup2\n        /* \"#utility.yul\":24974:24986   */\n      add\n        /* \"#utility.yul\":24969:24986   */\n      swap1\n      pop\n        /* \"#utility.yul\":24944:25152   */\n      jump(tag_686)\n    tag_688:\n        /* \"#utility.yul\":25180:25186   */\n      dup7\n        /* \"#utility.yul\":25171:25178   */\n      dup4\n        /* \"#utility.yul\":25168:25187   */\n      lt\n        /* \"#utility.yul\":25165:25344   */\n      iszero\n      tag_689\n      jumpi\n        /* \"#utility.yul\":25238:25247   */\n      dup5\n        /* \"#utility.yul\":25233:25236   */\n      dup10\n        /* \"#utility.yul\":25229:25248   */\n      add\n        /* \"#utility.yul\":25223:25249   */\n      mload\n        /* \"#utility.yul\":25281:25329   */\n      tag_690\n        /* \"#utility.yul\":25323:25327   */\n      0x1f\n        /* \"#utility.yul\":25315:25321   */\n      dup10\n        /* \"#utility.yul\":25311:25328   */\n      and\n        /* \"#utility.yul\":25300:25309   */\n      dup3\n        /* \"#utility.yul\":25281:25329   */\n      tag_403\n      jump\t// in\n    tag_690:\n        /* \"#utility.yul\":25273:25279   */\n      dup4\n        /* \"#utility.yul\":25266:25330   */\n      sstore\n        /* \"#utility.yul\":25188:25344   */\n      pop\n        /* \"#utility.yul\":25165:25344   */\n    tag_689:\n        /* \"#utility.yul\":25390:25391   */\n      0x01\n        /* \"#utility.yul\":25386:25387   */\n      0x02\n        /* \"#utility.yul\":25378:25384   */\n      dup9\n        /* \"#utility.yul\":25374:25388   */\n      mul\n        /* \"#utility.yul\":25370:25392   */\n      add\n        /* \"#utility.yul\":25364:25368   */\n      dup9\n        /* \"#utility.yul\":25357:25393   */\n      sstore\n        /* \"#utility.yul\":24792:25403   */\n      pop\n      pop\n      pop\n        /* \"#utility.yul\":24755:25642   */\n    tag_681:\n      pop\n        /* \"#utility.yul\":24345:25648   */\n      pop\n      pop\n      pop\n        /* \"#utility.yul\":24253:25648   */\n      pop\n      pop\n      jump\t// out\n        /* \"#utility.yul\":25654:25802   */\n    tag_405:\n        /* \"#utility.yul\":25752:25758   */\n      dup3\n        /* \"#utility.yul\":25747:25750   */\n      dup2\n        /* \"#utility.yul\":25742:25745   */\n      dup4\n        /* \"#utility.yul\":25729:25759   */\n      calldatacopy\n        /* \"#utility.yul\":25793:25794   */\n      0x00\n        /* \"#utility.yul\":25784:25790   */\n      dup4\n        /* \"#utility.yul\":25779:25782   */\n      dup4\n        /* \"#utility.yul\":25775:25791   */\n      add\n        /* \"#utility.yul\":25768:25795   */\n      mstore\n        /* \"#utility.yul\":25654:25802   */\n      pop\n      pop\n      pop\n      jump\t// out\n        /* \"#utility.yul\":25832:26149   */\n    tag_406:\n        /* \"#utility.yul\":25930:25933   */\n      0x00\n        /* \"#utility.yul\":25951:26022   */\n      tag_693\n        /* \"#utility.yul\":26015:26021   */\n      dup4\n        /* \"#utility.yul\":26010:26013   */\n      dup6\n        /* \"#utility.yul\":25951:26022   */\n      tag_342\n      jump\t// in\n    tag_693:\n        /* \"#utility.yul\":25944:26022   */\n      swap4\n      pop\n        /* \"#utility.yul\":26032:26088   */\n      tag_694\n        /* \"#utility.yul\":26081:26087   */\n      dup4\n        /* \"#utility.yul\":26076:26079   */\n      dup6\n        /* \"#utility.yul\":26069:26074   */\n      dup5\n        /* \"#utility.yul\":26032:26088   */\n      tag_405\n      jump\t// in\n    tag_694:\n        /* \"#utility.yul\":26113:26142   */\n      tag_695\n        /* \"#utility.yul\":26135:26141   */\n      dup4\n        /* \"#utility.yul\":26113:26142   */\n      tag_344\n      jump\t// in\n    tag_695:\n        /* \"#utility.yul\":26108:26111   */\n      dup5\n        /* \"#utility.yul\":26104:26143   */\n      add\n        /* \"#utility.yul\":26097:26143   */\n      swap1\n      pop\n        /* \"#utility.yul\":25832:26149   */\n      swap4\n      swap3\n      pop\n      pop\n      pop\n      jump\t// out\n        /* \"#utility.yul\":26155:26709   */\n    tag_138:\n        /* \"#utility.yul\":26336:26340   */\n      0x00\n        /* \"#utility.yul\":26374:26376   */\n      0x40\n        /* \"#utility.yul\":26363:26372   */\n      dup3\n        /* \"#utility.yul\":26359:26377   */\n      add\n        /* \"#utility.yul\":26351:26377   */\n      swap1\n      pop\n        /* \"#utility.yul\":26423:26432   */\n      dup2\n        /* \"#utility.yul\":26417:26421   */\n      dup2\n        /* \"#utility.yul\":26413:26433   */\n      sub\n        /* \"#utility.yul\":26409:26410   */\n      0x00\n        /* \"#utility.yul\":26398:26407   */\n      dup4\n        /* \"#utility.yul\":26394:26411   */\n      add\n        /* \"#utility.yul\":26387:26434   */\n      mstore\n        /* \"#utility.yul\":26451:26539   */\n      tag_697\n        /* \"#utility.yul\":26534:26538   */\n      dup2\n        /* \"#utility.yul\":26525:26531   */\n      dup7\n        /* \"#utility.yul\":26517:26523   */\n      dup9\n        /* \"#utility.yul\":26451:26539   */\n      tag_406\n      jump\t// in\n    tag_697:\n        /* \"#utility.yul\":26443:26539   */\n      swap1\n      pop\n        /* \"#utility.yul\":26586:26595   */\n      dup2\n        /* \"#utility.yul\":26580:26584   */\n      dup2\n        /* \"#utility.yul\":26576:26596   */\n      sub\n        /* \"#utility.yul\":26571:26573   */\n      0x20\n        /* \"#utility.yul\":26560:26569   */\n      dup4\n        /* \"#utility.yul\":26556:26574   */\n      add\n        /* \"#utility.yul\":26549:26597   */\n      mstore\n        /* \"#utility.yul\":26614:26702   */\n      tag_698\n        /* \"#utility.yul\":26697:26701   */\n      dup2\n        /* \"#utility.yul\":26688:26694   */\n      dup5\n        /* \"#utility.yul\":26680:26686   */\n      dup7\n        /* \"#utility.yul\":26614:26702   */\n      tag_406\n      jump\t// in\n    tag_698:\n        /* \"#utility.yul\":26606:26702   */\n      swap1\n      pop\n        /* \"#utility.yul\":26155:26709   */\n      swap6\n      swap5\n      pop\n      pop\n      pop\n      pop\n      pop\n      jump\t// out\n        /* \"#utility.yul\":26715:26886   */\n    tag_407:\n        /* \"#utility.yul\":26855:26878   */\n      0x50617263656c20646f6573206e6f742065786973740000000000000000000000\n        /* \"#utility.yul\":26851:26852   */\n      0x00\n        /* \"#utility.yul\":26843:26849   */\n      dup3\n        /* \"#utility.yul\":26839:26853   */\n      add\n        /* \"#utility.yul\":26832:26879   */\n      mstore\n        /* \"#utility.yul\":26715:26886   */\n      pop\n      jump\t// out\n        /* \"#utility.yul\":26892:27258   */\n    tag_408:\n        /* \"#utility.yul\":27034:27037   */\n      0x00\n        /* \"#utility.yul\":27055:27122   */\n      tag_701\n        /* \"#utility.yul\":27119:27121   */\n      0x15\n        /* \"#utility.yul\":27114:27117   */\n      dup4\n        /* \"#utility.yul\":27055:27122   */\n      tag_342\n      jump\t// in\n    tag_701:\n        /* \"#utility.yul\":27048:27122   */\n      swap2\n      pop\n        /* \"#utility.yul\":27131:27224   */\n      tag_702\n        /* \"#utility.yul\":27220:27223   */\n      dup3\n        /* \"#utility.yul\":27131:27224   */\n      tag_407\n      jump\t// in\n    tag_702:\n        /* \"#utility.yul\":27249:27251   */\n      0x20\n        /* \"#utility.yul\":27244:27247   */\n      dup3\n        /* \"#utility.yul\":27240:27252   */\n      add\n        /* \"#utility.yul\":27233:27252   */\n      swap1\n      pop\n        /* \"#utility.yul\":26892:27258   */\n      swap2\n      swap1\n      pop\n      jump\t// out\n        /* \"#utility.yul\":27264:27683   */\n    tag_144:\n        /* \"#utility.yul\":27430:27434   */\n      0x00\n        /* \"#utility.yul\":27468:27470   */\n      0x20\n        /* \"#utility.yul\":27457:27466   */\n      dup3\n        /* \"#utility.yul\":27453:27471   */\n      add\n        /* \"#utility.yul\":27445:27471   */\n      swap1\n      pop\n        /* \"#utility.yul\":27517:27526   */\n      dup2\n        /* \"#utility.yul\":27511:27515   */\n      dup2\n        /* \"#utility.yul\":27507:27527   */\n      sub\n        /* \"#utility.yul\":27503:27504   */\n      0x00\n        /* \"#utility.yul\":27492:27501   */\n      dup4\n        /* \"#utility.yul\":27488:27505   */\n      add\n        /* \"#utility.yul\":27481:27528   */\n      mstore\n        /* \"#utility.yul\":27545:27676   */\n      tag_704\n        /* \"#utility.yul\":27671:27675   */\n      dup2\n        /* \"#utility.yul\":27545:27676   */\n      tag_408\n      jump\t// in\n    tag_704:\n        /* \"#utility.yul\":27537:27676   */\n      swap1\n      pop\n        /* \"#utility.yul\":27264:27683   */\n      swap2\n      swap1\n      pop\n      jump\t// out\n        /* \"#utility.yul\":27689:27856   */\n    tag_409:\n        /* \"#utility.yul\":27829:27848   */\n      0x50617263656c206e6f7420616374697665000000000000000000000000000000\n        /* \"#utility.yul\":27825:27826   */\n      0x00\n        /* \"#utility.yul\":27817:27823   */\n      dup3\n        /* \"#utility.yul\":27813:27827   */\n      add\n        /* \"#utility.yul\":27806:27849   */\n      mstore\n        /* \"#utility.yul\":27689:27856   */\n      pop\n      jump\t// out\n        /* \"#utility.yul\":27862:28228   */\n    tag_410:\n        /* \"#utility.yul\":28004:28007   */\n      0x00\n        /* \"#utility.yul\":28025:28092   */\n      tag_707\n        /* \"#utility.yul\":28089:28091   */\n      0x11\n        /* \"#utility.yul\":28084:28087   */\n      dup4\n        /* \"#utility.yul\":28025:28092   */\n      tag_342\n      jump\t// in\n    tag_707:\n        /* \"#utility.yul\":28018:28092   */\n      swap2\n      pop\n        /* \"#utility.yul\":28101:28194   */\n      tag_708\n        /* \"#utility.yul\":28190:28193   */\n      dup3\n        /* \"#utility.yul\":28101:28194   */\n      tag_409\n      jump\t// in\n    tag_708:\n        /* \"#utility.yul\":28219:28221   */\n      0x20\n        /* \"#utility.yul\":28214:28217   */\n      dup3\n        /* \"#utility.yul\":28210:28222   */\n      add\n        /* \"#utility.yul\":28203:28222   */\n      swap1\n      pop\n        /* \"#utility.yul\":27862:28228   */\n      swap2\n      swap1\n      pop\n      jump\t// out\n        /* \"#utility.yul\":28234:28653   */\n    tag_180:\n        /* \"#utility.yul\":28400:28404   */\n      0x00\n        /* \"#utility.yul\":28438:28440   */\n      0x20\n        /* \"#utility.yul\":28427:28436   */\n      dup3\n        /* \"#utility.yul\":28423:28441   */\n      add\n        /* \"#utility.yul\":28415:28441   */\n      swap1\n      pop\n        /* \"#utility.yul\":28487:28496   */\n      dup2\n        /* \"#utility.yul\":28481:28485   */\n      dup2\n        /* \"#utility.yul\":28477:28497   */\n      sub\n        /* \"#utility.yul\":28473:28474   */\n      0x00\n        /* \"#utility.yul\":28462:28471   */\n      dup4\n        /* \"#utility.yul\":28458:28475   */\n      add\n        /* \"#utility.yul\":28451:28498   */\n      mstore\n        /* \"#utility.yul\":28515:28646   */\n      tag_710\n        /* \"#utility.yul\":28641:28645   */\n      dup2\n        /* \"#utility.yul\":28515:28646   */\n      tag_410\n      jump\t// in\n    tag_710:\n        /* \"#utility.yul\":28507:28646   */\n      swap1\n      pop\n        /* \"#utility.yul\":28234:28653   */\n      swap2\n      swap1\n      pop\n      jump\t// out\n        /* \"#utility.yul\":28659:28826   */\n    tag_411:\n        /* \"#utility.yul\":28799:28818   */\n      0x496e76616c696420726563697069656e74000000000000000000000000000000\n        /* \"#utility.yul\":28795:28796   */\n      0x00\n        /* \"#utility.yul\":28787:28793   */\n      dup3\n        /* \"#utility.yul\":28783:28797   */\n      add\n        /* \"#utility.yul\":28776:28819   */\n      mstore\n        /* \"#utility.yul\":28659:28826   */\n      pop\n      jump\t// out\n        /* \"#utility.yul\":28832:29198   */\n    tag_412:\n        /* \"#utility.yul\":28974:28977   */\n      0x00\n        /* \"#utility.yul\":28995:29062   */\n      tag_713\n        /* \"#utility.yul\":29059:29061   */\n      0x11\n        /* \"#utility.yul\":29054:29057   */\n      dup4\n        /* \"#utility.yul\":28995:29062   */\n      tag_342\n      jump\t// in\n    tag_713:\n        /* \"#utility.yul\":28988:29062   */\n      swap2\n      pop\n        /* \"#utility.yul\":29071:29164   */\n      tag_714\n        /* \"#utility.yul\":29160:29163   */\n      dup3\n        /* \"#utility.yul\":29071:29164   */\n      tag_411\n      jump\t// in\n    tag_714:\n        /* \"#utility.yul\":29189:29191   */\n      0x20\n        /* \"#utility.yul\":29184:29187   */\n      dup3\n        /* \"#utility.yul\":29180:29192   */\n      add\n        /* \"#utility.yul\":29173:29192   */\n      swap1\n      pop\n        /* \"#utility.yul\":28832:29198   */\n      swap2\n      swap1\n      pop\n      jump\t// out\n        /* \"#utility.yul\":29204:29623   */\n    tag_184:\n        /* \"#utility.yul\":29370:29374   */\n      0x00\n        /* \"#utility.yul\":29408:29410   */\n      0x20\n        /* \"#utility.yul\":29397:29406   */\n      dup3\n        /* \"#utility.yul\":29393:29411   */\n      add\n        /* \"#utility.yul\":29385:29411   */\n      swap1\n      pop\n        /* \"#utility.yul\":29457:29466   */\n      dup2\n        /* \"#utility.yul\":29451:29455   */\n      dup2\n        /* \"#utility.yul\":29447:29467   */\n      sub\n        /* \"#utility.yul\":29443:29444   */\n      0x00\n        /* \"#utility.yul\":29432:29441   */\n      dup4\n        /* \"#utility.yul\":29428:29445   */\n      add\n        /* \"#utility.yul\":29421:29468   */\n      mstore\n        /* \"#utility.yul\":29485:29616   */\n      tag_716\n        /* \"#utility.yul\":29611:29615   */\n      dup2\n        /* \"#utility.yul\":29485:29616   */\n      tag_412\n      jump\t// in\n    tag_716:\n        /* \"#utility.yul\":29477:29616   */\n      swap1\n      pop\n        /* \"#utility.yul\":29204:29623   */\n      swap2\n      swap1\n      pop\n      jump\t// out\n        /* \"#utility.yul\":29629:29795   */\n    tag_413:\n        /* \"#utility.yul\":29769:29787   */\n      0x4e6f742070617263656c206f776e657200000000000000000000000000000000\n        /* \"#utility.yul\":29765:29766   */\n      0x00\n        /* \"#utility.yul\":29757:29763   */\n      dup3\n        /* \"#utility.yul\":29753:29767   */\n      add\n        /* \"#utility.yul\":29746:29788   */\n      mstore\n        /* \"#utility.yul\":29629:29795   */\n      pop\n      jump\t// out\n        /* \"#utility.yul\":29801:30167   */\n    tag_414:\n        /* \"#utility.yul\":29943:29946   */\n      0x00\n        /* \"#utility.yul\":29964:30031   */\n      tag_719\n        /* \"#utility.yul\":30028:30030   */\n      0x10\n        /* \"#utility.yul\":30023:30026   */\n      dup4\n        /* \"#utility.yul\":29964:30031   */\n      tag_342\n      jump\t// in\n    tag_719:\n        /* \"#utility.yul\":29957:30031   */\n      swap2\n      pop\n        /* \"#utility.yul\":30040:30133   */\n      tag_720\n        /* \"#utility.yul\":30129:30132   */\n      dup3\n        /* \"#utility.yul\":30040:30133   */\n      tag_413\n      jump\t// in\n    tag_720:\n        /* \"#utility.yul\":30158:30160   */\n      0x20\n        /* \"#utility.yul\":30153:30156   */\n      dup3\n        /* \"#utility.yul\":30149:30161   */\n      add\n        /* \"#utility.yul\":30142:30161   */\n      swap1\n      pop\n        /* \"#utility.yul\":29801:30167   */\n      swap2\n      swap1\n      pop\n      jump\t// out\n        /* \"#utility.yul\":30173:30592   */\n    tag_188:\n        /* \"#utility.yul\":30339:30343   */\n      0x00\n        /* \"#utility.yul\":30377:30379   */\n      0x20\n        /* \"#utility.yul\":30366:30375   */\n      dup3\n        /* \"#utility.yul\":30362:30380   */\n      add\n        /* \"#utility.yul\":30354:30380   */\n      swap1\n      pop\n        /* \"#utility.yul\":30426:30435   */\n      dup2\n        /* \"#utility.yul\":30420:30424   */\n      dup2\n        /* \"#utility.yul\":30416:30436   */\n      sub\n        /* \"#utility.yul\":30412:30413   */\n      0x00\n        /* \"#utility.yul\":30401:30410   */\n      dup4\n        /* \"#utility.yul\":30397:30414   */\n      add\n        /* \"#utility.yul\":30390:30437   */\n      mstore\n        /* \"#utility.yul\":30454:30585   */\n      tag_722\n        /* \"#utility.yul\":30580:30584   */\n      dup2\n        /* \"#utility.yul\":30454:30585   */\n      tag_414\n      jump\t// in\n    tag_722:\n        /* \"#utility.yul\":30446:30585   */\n      swap1\n      pop\n        /* \"#utility.yul\":30173:30592   */\n      swap2\n      swap1\n      pop\n      jump\t// out\n        /* \"#utility.yul\":30598:30765   */\n    tag_415:\n        /* \"#utility.yul\":30738:30757   */\n      0x4e6f6e6578697374656e7420746f6b656e000000000000000000000000000000\n        /* \"#utility.yul\":30734:30735   */\n      0x00\n        /* \"#utility.yul\":30726:30732   */\n      dup3\n        /* \"#utility.yul\":30722:30736   */\n      add\n        /* \"#utility.yul\":30715:30758   */\n      mstore\n        /* \"#utility.yul\":30598:30765   */\n      pop\n      jump\t// out\n        /* \"#utility.yul\":30771:31137   */\n    tag_416:\n        /* \"#utility.yul\":30913:30916   */\n      0x00\n        /* \"#utility.yul\":30934:31001   */\n      tag_725\n        /* \"#utility.yul\":30998:31000   */\n      0x11\n        /* \"#utility.yul\":30993:30996   */\n      dup4\n        /* \"#utility.yul\":30934:31001   */\n      tag_342\n      jump\t// in\n    tag_725:\n        /* \"#utility.yul\":30927:31001   */\n      swap2\n      pop\n        /* \"#utility.yul\":31010:31103   */\n      tag_726\n        /* \"#utility.yul\":31099:31102   */\n      dup3\n        /* \"#utility.yul\":31010:31103   */\n      tag_415\n      jump\t// in\n    tag_726:\n        /* \"#utility.yul\":31128:31130   */\n      0x20\n        /* \"#utility.yul\":31123:31126   */\n      dup3\n        /* \"#utility.yul\":31119:31131   */\n      add\n        /* \"#utility.yul\":31112:31131   */\n      swap1\n      pop\n        /* \"#utility.yul\":30771:31137   */\n      swap2\n      swap1\n      pop\n      jump\t// out\n        /* \"#utility.yul\":31143:31562   */\n    tag_194:\n        /* \"#utility.yul\":31309:31313   */\n      0x00\n        /* \"#utility.yul\":31347:31349   */\n      0x20\n        /* \"#utility.yul\":31336:31345   */\n      dup3\n        /* \"#utility.yul\":31332:31350   */\n      add\n        /* \"#utility.yul\":31324:31350   */\n      swap1\n      pop\n        /* \"#utility.yul\":31396:31405   */\n      dup2\n        /* \"#utility.yul\":31390:31394   */\n      dup2\n        /* \"#utility.yul\":31386:31406   */\n      sub\n        /* \"#utility.yul\":31382:31383   */\n      0x00\n        /* \"#utility.yul\":31371:31380   */\n      dup4\n        /* \"#utility.yul\":31367:31384   */\n      add\n        /* \"#utility.yul\":31360:31407   */\n      mstore\n        /* \"#utility.yul\":31424:31555   */\n      tag_728\n        /* \"#utility.yul\":31550:31554   */\n      dup2\n        /* \"#utility.yul\":31424:31555   */\n      tag_416\n      jump\t// in\n    tag_728:\n        /* \"#utility.yul\":31416:31555   */\n      swap1\n      pop\n        /* \"#utility.yul\":31143:31562   */\n      swap2\n      swap1\n      pop\n      jump\t// out\n        /* \"#utility.yul\":31568:31665   */\n    tag_417:\n        /* \"#utility.yul\":31627:31633   */\n      0x00\n        /* \"#utility.yul\":31655:31658   */\n      dup3\n        /* \"#utility.yul\":31645:31658   */\n      swap1\n      pop\n        /* \"#utility.yul\":31568:31665   */\n      swap3\n      swap2\n      pop\n      pop\n      jump\t// out\n        /* \"#utility.yul\":31671:33074   */\n    tag_205:\n        /* \"#utility.yul\":31795:31839   */\n      tag_731\n        /* \"#utility.yul\":31835:31838   */\n      dup4\n        /* \"#utility.yul\":31830:31833   */\n      dup4\n        /* \"#utility.yul\":31795:31839   */\n      tag_417\n      jump\t// in\n    tag_731:\n        /* \"#utility.yul\":31904:31922   */\n      0xffffffffffffffff\n        /* \"#utility.yul\":31896:31902   */\n      dup2\n        /* \"#utility.yul\":31893:31923   */\n      gt\n        /* \"#utility.yul\":31890:31946   */\n      iszero\n      tag_732\n      jumpi\n        /* \"#utility.yul\":31926:31944   */\n      tag_733\n      tag_389\n      jump\t// in\n    tag_733:\n        /* \"#utility.yul\":31890:31946   */\n    tag_732:\n        /* \"#utility.yul\":31970:32008   */\n      tag_734\n        /* \"#utility.yul\":32002:32006   */\n      dup3\n        /* \"#utility.yul\":31996:32007   */\n      sload\n        /* \"#utility.yul\":31970:32008   */\n      tag_104\n      jump\t// in\n    tag_734:\n        /* \"#utility.yul\":32055:32122   */\n      tag_735\n        /* \"#utility.yul\":32115:32121   */\n      dup3\n        /* \"#utility.yul\":32107:32113   */\n      dup3\n        /* \"#utility.yul\":32101:32105   */\n      dup6\n        /* \"#utility.yul\":32055:32122   */\n      tag_401\n      jump\t// in\n    tag_735:\n        /* \"#utility.yul\":32149:32150   */\n      0x00\n        /* \"#utility.yul\":32178:32180   */\n      0x1f\n        /* \"#utility.yul\":32170:32176   */\n      dup4\n        /* \"#utility.yul\":32167:32181   */\n      gt\n        /* \"#utility.yul\":32195:32196   */\n      0x01\n        /* \"#utility.yul\":32190:32822   */\n      dup2\n      eq\n      tag_737\n      jumpi\n        /* \"#utility.yul\":32866:32867   */\n      0x00\n        /* \"#utility.yul\":32883:32889   */\n      dup5\n        /* \"#utility.yul\":32880:32964   */\n      iszero\n      tag_738\n      jumpi\n        /* \"#utility.yul\":32939:32948   */\n      dup3\n        /* \"#utility.yul\":32934:32937   */\n      dup8\n        /* \"#utility.yul\":32930:32949   */\n      add\n        /* \"#utility.yul\":32917:32950   */\n      calldataload\n        /* \"#utility.yul\":32908:32950   */\n      swap1\n      pop\n        /* \"#utility.yul\":32880:32964   */\n    tag_738:\n        /* \"#utility.yul\":32990:33057   */\n      tag_739\n        /* \"#utility.yul\":33050:33056   */\n      dup6\n        /* \"#utility.yul\":33043:33048   */\n      dup3\n        /* \"#utility.yul\":32990:33057   */\n      tag_404\n      jump\t// in\n    tag_739:\n        /* \"#utility.yul\":32984:32988   */\n      dup7\n        /* \"#utility.yul\":32977:33058   */\n      sstore\n        /* \"#utility.yul\":32839:33068   */\n      pop\n        /* \"#utility.yul\":32160:33068   */\n      jump(tag_736)\n        /* \"#utility.yul\":32190:32822   */\n    tag_737:\n        /* \"#utility.yul\":32242:32246   */\n      0x1f\n        /* \"#utility.yul\":32238:32247   */\n      not\n        /* \"#utility.yul\":32230:32236   */\n      dup5\n        /* \"#utility.yul\":32226:32248   */\n      and\n        /* \"#utility.yul\":32276:32313   */\n      tag_740\n        /* \"#utility.yul\":32308:32312   */\n      dup7\n        /* \"#utility.yul\":32276:32313   */\n      tag_390\n      jump\t// in\n    tag_740:\n        /* \"#utility.yul\":32335:32336   */\n      0x00\n        /* \"#utility.yul\":32349:32564   */\n    tag_741:\n        /* \"#utility.yul\":32363:32370   */\n      dup3\n        /* \"#utility.yul\":32360:32361   */\n      dup2\n        /* \"#utility.yul\":32357:32371   */\n      lt\n        /* \"#utility.yul\":32349:32564   */\n      iszero\n      tag_743\n      jumpi\n        /* \"#utility.yul\":32449:32458   */\n      dup5\n        /* \"#utility.yul\":32444:32447   */\n      dup10\n        /* \"#utility.yul\":32440:32459   */\n      add\n        /* \"#utility.yul\":32427:32460   */\n      calldataload\n        /* \"#utility.yul\":32419:32425   */\n      dup3\n        /* \"#utility.yul\":32412:32461   */\n      sstore\n        /* \"#utility.yul\":32500:32501   */\n      0x01\n        /* \"#utility.yul\":32492:32498   */\n      dup3\n        /* \"#utility.yul\":32488:32502   */\n      add\n        /* \"#utility.yul\":32478:32502   */\n      swap2\n      pop\n        /* \"#utility.yul\":32547:32549   */\n      0x20\n        /* \"#utility.yul\":32536:32545   */\n      dup6\n        /* \"#utility.yul\":32532:32550   */\n      add\n        /* \"#utility.yul\":32519:32550   */\n      swap5\n      pop\n        /* \"#utility.yul\":32386:32390   */\n      0x20\n        /* \"#utility.yul\":32383:32384   */\n      dup2\n        /* \"#utility.yul\":32379:32391   */\n      add\n        /* \"#utility.yul\":32374:32391   */\n      swap1\n      pop\n        /* \"#utility.yul\":32349:32564   */\n      jump(tag_741)\n    tag_743:\n        /* \"#utility.yul\":32592:32598   */\n      dup7\n        /* \"#utility.yul\":32583:32590   */\n      dup4\n        /* \"#utility.yul\":32580:32599   */\n      lt\n        /* \"#utility.yul\":32577:32763   */\n      iszero\n      tag_744\n      jumpi\n        /* \"#utility.yul\":32657:32666   */\n      dup5\n        /* \"#utility.yul\":32652:32655   */\n      dup10\n        /* \"#utility.yul\":32648:32667   */\n      add\n        /* \"#utility.yul\":32635:32668   */\n      calldataload\n        /* \"#utility.yul\":32700:32748   */\n      tag_745\n        /* \"#utility.yul\":32742:32746   */\n      0x1f\n        /* \"#utility.yul\":32734:32740   */\n      dup10\n        /* \"#utility.yul\":32730:32747   */\n      and\n        /* \"#utility.yul\":32719:32728   */\n      dup3\n        /* \"#utility.yul\":32700:32748   */\n      tag_403\n      jump\t// in\n    tag_745:\n        /* \"#utility.yul\":32692:32698   */\n      dup4\n        /* \"#utility.yul\":32685:32749   */\n      sstore\n        /* \"#utility.yul\":32600:32763   */\n      pop\n        /* \"#utility.yul\":32577:32763   */\n    tag_744:\n        /* \"#utility.yul\":32809:32810   */\n      0x01\n        /* \"#utility.yul\":32805:32806   */\n      0x02\n        /* \"#utility.yul\":32797:32803   */\n      dup9\n        /* \"#utility.yul\":32793:32807   */\n      mul\n        /* \"#utility.yul\":32789:32811   */\n      add\n        /* \"#utility.yul\":32783:32787   */\n      dup9\n        /* \"#utility.yul\":32776:32812   */\n      sstore\n        /* \"#utility.yul\":32197:32822   */\n      pop\n      pop\n      pop\n        /* \"#utility.yul\":32160:33068   */\n    tag_736:\n      pop\n        /* \"#utility.yul\":31770:33074   */\n      pop\n      pop\n      pop\n        /* \"#utility.yul\":31671:33074   */\n      pop\n      pop\n      pop\n      jump\t// out\n        /* \"#utility.yul\":33080:33242   */\n    tag_418:\n        /* \"#utility.yul\":33220:33234   */\n      0x5a65726f20616464726573730000000000000000000000000000000000000000\n        /* \"#utility.yul\":33216:33217   */\n      0x00\n        /* \"#utility.yul\":33208:33214   */\n      dup3\n        /* \"#utility.yul\":33204:33218   */\n      add\n        /* \"#utility.yul\":33197:33235   */\n      mstore\n        /* \"#utility.yul\":33080:33242   */\n      pop\n      jump\t// out\n        /* \"#utility.yul\":33248:33614   */\n    tag_419:\n        /* \"#utility.yul\":33390:33393   */\n      0x00\n        /* \"#utility.yul\":33411:33478   */\n      tag_748\n        /* \"#utility.yul\":33475:33477   */\n      0x0c\n        /* \"#utility.yul\":33470:33473   */\n      dup4\n        /* \"#utility.yul\":33411:33478   */\n      tag_342\n      jump\t// in\n    tag_748:\n        /* \"#utility.yul\":33404:33478   */\n      swap2\n      pop\n        /* \"#utility.yul\":33487:33580   */\n      tag_749\n        /* \"#utility.yul\":33576:33579   */\n      dup3\n        /* \"#utility.yul\":33487:33580   */\n      tag_418\n      jump\t// in\n    tag_749:\n        /* \"#utility.yul\":33605:33607   */\n      0x20\n        /* \"#utility.yul\":33600:33603   */\n      dup3\n        /* \"#utility.yul\":33596:33608   */\n      add\n        /* \"#utility.yul\":33589:33608   */\n      swap1\n      pop\n        /* \"#utility.yul\":33248:33614   */\n      swap2\n      swap1\n      pop\n      jump\t// out\n        /* \"#utility.yul\":33620:34039   */\n    tag_211:\n        /* \"#utility.yul\":33786:33790   */\n      0x00\n        /* \"#utility.yul\":33824:33826   */\n      0x20\n        /* \"#utility.yul\":33813:33822   */\n      dup3\n        /* \"#utility.yul\":33809:33827   */\n      add\n        /* \"#utility.yul\":33801:33827   */\n      swap1\n      pop\n        /* \"#utility.yul\":33873:33882   */\n      dup2\n        /* \"#utility.yul\":33867:33871   */\n      dup2\n        /* \"#utility.yul\":33863:33883   */\n      sub\n        /* \"#utility.yul\":33859:33860   */\n      0x00\n        /* \"#utility.yul\":33848:33857   */\n      dup4\n        /* \"#utility.yul\":33844:33861   */\n      add\n        /* \"#utility.yul\":33837:33884   */\n      mstore\n        /* \"#utility.yul\":33901:34032   */\n      tag_751\n        /* \"#utility.yul\":34027:34031   */\n      dup2\n        /* \"#utility.yul\":33901:34032   */\n      tag_419\n      jump\t// in\n    tag_751:\n        /* \"#utility.yul\":33893:34032   */\n      swap1\n      pop\n        /* \"#utility.yul\":33620:34039   */\n      swap2\n      swap1\n      pop\n      jump\t// out\n        /* \"#utility.yul\":34045:34378   */\n    tag_256:\n        /* \"#utility.yul\":34168:34172   */\n      0x00\n        /* \"#utility.yul\":34206:34208   */\n      0x20\n        /* \"#utility.yul\":34195:34204   */\n      dup3\n        /* \"#utility.yul\":34191:34209   */\n      add\n        /* \"#utility.yul\":34183:34209   */\n      swap1\n      pop\n        /* \"#utility.yul\":34255:34264   */\n      dup2\n        /* \"#utility.yul\":34249:34253   */\n      dup2\n        /* \"#utility.yul\":34245:34265   */\n      sub\n        /* \"#utility.yul\":34241:34242   */\n      0x00\n        /* \"#utility.yul\":34230:34239   */\n      dup4\n        /* \"#utility.yul\":34226:34243   */\n      add\n        /* \"#utility.yul\":34219:34266   */\n      mstore\n        /* \"#utility.yul\":34283:34371   */\n      tag_753\n        /* \"#utility.yul\":34366:34370   */\n      dup2\n        /* \"#utility.yul\":34357:34363   */\n      dup5\n        /* \"#utility.yul\":34349:34355   */\n      dup7\n        /* \"#utility.yul\":34283:34371   */\n      tag_406\n      jump\t// in\n    tag_753:\n        /* \"#utility.yul\":34275:34371   */\n      swap1\n      pop\n        /* \"#utility.yul\":34045:34378   */\n      swap4\n      swap3\n      pop\n      pop\n      pop\n      jump\t// out\n        /* \"#utility.yul\":34384:34547   */\n    tag_420:\n        /* \"#utility.yul\":34524:34539   */\n      0x4163636573732064656e69656400000000000000000000000000000000000000\n        /* \"#utility.yul\":34520:34521   */\n      0x00\n        /* \"#utility.yul\":34512:34518   */\n      dup3\n        /* \"#utility.yul\":34508:34522   */\n      add\n        /* \"#utility.yul\":34501:34540   */\n      mstore\n        /* \"#utility.yul\":34384:34547   */\n      pop\n      jump\t// out\n        /* \"#utility.yul\":34553:34919   */\n    tag_421:\n        /* \"#utility.yul\":34695:34698   */\n      0x00\n        /* \"#utility.yul\":34716:34783   */\n      tag_756\n        /* \"#utility.yul\":34780:34782   */\n      0x0d\n        /* \"#utility.yul\":34775:34778   */\n      dup4\n        /* \"#utility.yul\":34716:34783   */\n      tag_342\n      jump\t// in\n    tag_756:\n        /* \"#utility.yul\":34709:34783   */\n      swap2\n      pop\n        /* \"#utility.yul\":34792:34885   */\n      tag_757\n        /* \"#utility.yul\":34881:34884   */\n      dup3\n        /* \"#utility.yul\":34792:34885   */\n      tag_420\n      jump\t// in\n    tag_757:\n        /* \"#utility.yul\":34910:34912   */\n      0x20\n        /* \"#utility.yul\":34905:34908   */\n      dup3\n        /* \"#utility.yul\":34901:34913   */\n      add\n        /* \"#utility.yul\":34894:34913   */\n      swap1\n      pop\n        /* \"#utility.yul\":34553:34919   */\n      swap2\n      swap1\n      pop\n      jump\t// out\n        /* \"#utility.yul\":34925:35344   */\n    tag_261:\n        /* \"#utility.yul\":35091:35095   */\n      0x00\n        /* \"#utility.yul\":35129:35131   */\n      0x20\n        /* \"#utility.yul\":35118:35127   */\n      dup3\n        /* \"#utility.yul\":35114:35132   */\n      add\n        /* \"#utility.yul\":35106:35132   */\n      swap1\n      pop\n        /* \"#utility.yul\":35178:35187   */\n      dup2\n        /* \"#utility.yul\":35172:35176   */\n      dup2\n        /* \"#utility.yul\":35168:35188   */\n      sub\n        /* \"#utility.yul\":35164:35165   */\n      0x00\n        /* \"#utility.yul\":35153:35162   */\n      dup4\n        /* \"#utility.yul\":35149:35166   */\n      add\n        /* \"#utility.yul\":35142:35189   */\n      mstore\n        /* \"#utility.yul\":35206:35337   */\n      tag_759\n        /* \"#utility.yul\":35332:35336   */\n      dup2\n        /* \"#utility.yul\":35206:35337   */\n      tag_421\n      jump\t// in\n    tag_759:\n        /* \"#utility.yul\":35198:35337   */\n      swap1\n      pop\n        /* \"#utility.yul\":34925:35344   */\n      swap2\n      swap1\n      pop\n      jump\t// out\n        /* \"#utility.yul\":35350:35821   */\n    tag_276:\n        /* \"#utility.yul\":35515:35519   */\n      0x00\n        /* \"#utility.yul\":35553:35555   */\n      0x40\n        /* \"#utility.yul\":35542:35551   */\n      dup3\n        /* \"#utility.yul\":35538:35556   */\n      add\n        /* \"#utility.yul\":35530:35556   */\n      swap1\n      pop\n        /* \"#utility.yul\":35566:35651   */\n      tag_761\n        /* \"#utility.yul\":35648:35649   */\n      0x00\n        /* \"#utility.yul\":35637:35646   */\n      dup4\n        /* \"#utility.yul\":35633:35650   */\n      add\n        /* \"#utility.yul\":35624:35630   */\n      dup7\n        /* \"#utility.yul\":35566:35651   */\n      tag_364\n      jump\t// in\n    tag_761:\n        /* \"#utility.yul\":35698:35707   */\n      dup2\n        /* \"#utility.yul\":35692:35696   */\n      dup2\n        /* \"#utility.yul\":35688:35708   */\n      sub\n        /* \"#utility.yul\":35683:35685   */\n      0x20\n        /* \"#utility.yul\":35672:35681   */\n      dup4\n        /* \"#utility.yul\":35668:35686   */\n      add\n        /* \"#utility.yul\":35661:35709   */\n      mstore\n        /* \"#utility.yul\":35726:35814   */\n      tag_762\n        /* \"#utility.yul\":35809:35813   */\n      dup2\n        /* \"#utility.yul\":35800:35806   */\n      dup5\n        /* \"#utility.yul\":35792:35798   */\n      dup7\n        /* \"#utility.yul\":35726:35814   */\n      tag_406\n      jump\t// in\n    tag_762:\n        /* \"#utility.yul\":35718:35814   */\n      swap1\n      pop\n        /* \"#utility.yul\":35350:35821   */\n      swap5\n      swap4\n      pop\n      pop\n      pop\n      pop\n      jump\t// out\n        /* \"#utility.yul\":35827:36007   */\n    tag_422:\n        /* \"#utility.yul\":35875:35952   */\n      0x4e487b7100000000000000000000000000000000000000000000000000000000\n        /* \"#utility.yul\":35872:35873   */\n      0x00\n        /* \"#utility.yul\":35865:35953   */\n      mstore\n        /* \"#utility.yul\":35972:35976   */\n      0x11\n        /* \"#utility.yul\":35969:35970   */\n      0x04\n        /* \"#utility.yul\":35962:35977   */\n      mstore\n        /* \"#utility.yul\":35996:36000   */\n      0x24\n        /* \"#utility.yul\":35993:35994   */\n      0x00\n        /* \"#utility.yul\":35986:36001   */\n      revert\n        /* \"#utility.yul\":36013:36204   */\n    tag_298:\n        /* \"#utility.yul\":36053:36056   */\n      0x00\n        /* \"#utility.yul\":36072:36092   */\n      tag_765\n        /* \"#utility.yul\":36090:36091   */\n      dup3\n        /* \"#utility.yul\":36072:36092   */\n      tag_357\n      jump\t// in\n    tag_765:\n        /* \"#utility.yul\":36067:36092   */\n      swap2\n      pop\n        /* \"#utility.yul\":36106:36126   */\n      tag_766\n        /* \"#utility.yul\":36124:36125   */\n      dup4\n        /* \"#utility.yul\":36106:36126   */\n      tag_357\n      jump\t// in\n    tag_766:\n        /* \"#utility.yul\":36101:36126   */\n      swap3\n      pop\n        /* \"#utility.yul\":36149:36150   */\n      dup3\n        /* \"#utility.yul\":36146:36147   */\n      dup3\n        /* \"#utility.yul\":36142:36151   */\n      add\n        /* \"#utility.yul\":36135:36151   */\n      swap1\n      pop\n        /* \"#utility.yul\":36170:36173   */\n      dup1\n        /* \"#utility.yul\":36167:36168   */\n      dup3\n        /* \"#utility.yul\":36164:36174   */\n      gt\n        /* \"#utility.yul\":36161:36197   */\n      iszero\n      tag_767\n      jumpi\n        /* \"#utility.yul\":36177:36195   */\n      tag_768\n      tag_422\n      jump\t// in\n    tag_768:\n        /* \"#utility.yul\":36161:36197   */\n    tag_767:\n        /* \"#utility.yul\":36013:36204   */\n      swap3\n      swap2\n      pop\n      pop\n      jump\t// out\n        /* \"#utility.yul\":36210:36374   */\n    tag_423:\n        /* \"#utility.yul\":36350:36366   */\n      0x416c7265616479206d696e746564000000000000000000000000000000000000\n        /* \"#utility.yul\":36346:36347   */\n      0x00\n        /* \"#utility.yul\":36338:36344   */\n      dup3\n        /* \"#utility.yul\":36334:36348   */\n      add\n        /* \"#utility.yul\":36327:36367   */\n      mstore\n        /* \"#utility.yul\":36210:36374   */\n      pop\n      jump\t// out\n        /* \"#utility.yul\":36380:36746   */\n    tag_424:\n        /* \"#utility.yul\":36522:36525   */\n      0x00\n        /* \"#utility.yul\":36543:36610   */\n      tag_771\n        /* \"#utility.yul\":36607:36609   */\n      0x0e\n        /* \"#utility.yul\":36602:36605   */\n      dup4\n        /* \"#utility.yul\":36543:36610   */\n      tag_342\n      jump\t// in\n    tag_771:\n        /* \"#utility.yul\":36536:36610   */\n      swap2\n      pop\n        /* \"#utility.yul\":36619:36712   */\n      tag_772\n        /* \"#utility.yul\":36708:36711   */\n      dup3\n        /* \"#utility.yul\":36619:36712   */\n      tag_423\n      jump\t// in\n    tag_772:\n        /* \"#utility.yul\":36737:36739   */\n      0x20\n        /* \"#utility.yul\":36732:36735   */\n      dup3\n        /* \"#utility.yul\":36728:36740   */\n      add\n        /* \"#utility.yul\":36721:36740   */\n      swap1\n      pop\n        /* \"#utility.yul\":36380:36746   */\n      swap2\n      swap1\n      pop\n      jump\t// out\n        /* \"#utility.yul\":36752:37171   */\n    tag_306:\n        /* \"#utility.yul\":36918:36922   */\n      0x00\n        /* \"#utility.yul\":36956:36958   */\n      0x20\n        /* \"#utility.yul\":36945:36954   */\n      dup3\n        /* \"#utility.yul\":36941:36959   */\n      add\n        /* \"#utility.yul\":36933:36959   */\n      swap1\n      pop\n        /* \"#utility.yul\":37005:37014   */\n      dup2\n        /* \"#utility.yul\":36999:37003   */\n      dup2\n        /* \"#utility.yul\":36995:37015   */\n      sub\n        /* \"#utility.yul\":36991:36992   */\n      0x00\n        /* \"#utility.yul\":36980:36989   */\n      dup4\n        /* \"#utility.yul\":36976:36993   */\n      add\n        /* \"#utility.yul\":36969:37016   */\n      mstore\n        /* \"#utility.yul\":37033:37164   */\n      tag_774\n        /* \"#utility.yul\":37159:37163   */\n      dup2\n        /* \"#utility.yul\":37033:37164   */\n      tag_424\n      jump\t// in\n    tag_774:\n        /* \"#utility.yul\":37025:37164   */\n      swap1\n      pop\n        /* \"#utility.yul\":36752:37171   */\n      swap2\n      swap1\n      pop\n      jump\t// out\n        /* \"#utility.yul\":37177:37336   */\n    tag_425:\n        /* \"#utility.yul\":37317:37328   */\n      0x4e6f74206f776e65720000000000000000000000000000000000000000000000\n        /* \"#utility.yul\":37313:37314   */\n      0x00\n        /* \"#utility.yul\":37305:37311   */\n      dup3\n        /* \"#utility.yul\":37301:37315   */\n      add\n        /* \"#utility.yul\":37294:37329   */\n      mstore\n        /* \"#utility.yul\":37177:37336   */\n      pop\n      jump\t// out\n        /* \"#utility.yul\":37342:37707   */\n    tag_426:\n        /* \"#utility.yul\":37484:37487   */\n      0x00\n        /* \"#utility.yul\":37505:37571   */\n      tag_777\n        /* \"#utility.yul\":37569:37570   */\n      0x09\n        /* \"#utility.yul\":37564:37567   */\n      dup4\n        /* \"#utility.yul\":37505:37571   */\n      tag_342\n      jump\t// in\n    tag_777:\n        /* \"#utility.yul\":37498:37571   */\n      swap2\n      pop\n        /* \"#utility.yul\":37580:37673   */\n      tag_778\n        /* \"#utility.yul\":37669:37672   */\n      dup3\n        /* \"#utility.yul\":37580:37673   */\n      tag_425\n      jump\t// in\n    tag_778:\n        /* \"#utility.yul\":37698:37700   */\n      0x20\n        /* \"#utility.yul\":37693:37696   */\n      dup3\n        /* \"#utility.yul\":37689:37701   */\n      add\n        /* \"#utility.yul\":37682:37701   */\n      swap1\n      pop\n        /* \"#utility.yul\":37342:37707   */\n      swap2\n      swap1\n      pop\n      jump\t// out\n        /* \"#utility.yul\":37713:38132   */\n    tag_315:\n        /* \"#utility.yul\":37879:37883   */\n      0x00\n        /* \"#utility.yul\":37917:37919   */\n      0x20\n        /* \"#utility.yul\":37906:37915   */\n      dup3\n        /* \"#utility.yul\":37902:37920   */\n      add\n        /* \"#utility.yul\":37894:37920   */\n      swap1\n      pop\n        /* \"#utility.yul\":37966:37975   */\n      dup2\n        /* \"#utility.yul\":37960:37964   */\n      dup2\n        /* \"#utility.yul\":37956:37976   */\n      sub\n        /* \"#utility.yul\":37952:37953   */\n      0x00\n        /* \"#utility.yul\":37941:37950   */\n      dup4\n        /* \"#utility.yul\":37937:37954   */\n      add\n        /* \"#utility.yul\":37930:37977   */\n      mstore\n        /* \"#utility.yul\":37994:38125   */\n      tag_780\n        /* \"#utility.yul\":38120:38124   */\n      dup2\n        /* \"#utility.yul\":37994:38125   */\n      tag_426\n      jump\t// in\n    tag_780:\n        /* \"#utility.yul\":37986:38125   */\n      swap1\n      pop\n        /* \"#utility.yul\":37713:38132   */\n      swap2\n      swap1\n      pop\n      jump\t// out\n        /* \"#utility.yul\":38138:38332   */\n    tag_319:\n        /* \"#utility.yul\":38178:38182   */\n      0x00\n        /* \"#utility.yul\":38198:38218   */\n      tag_782\n        /* \"#utility.yul\":38216:38217   */\n      dup3\n        /* \"#utility.yul\":38198:38218   */\n      tag_357\n      jump\t// in\n    tag_782:\n        /* \"#utility.yul\":38193:38218   */\n      swap2\n      pop\n        /* \"#utility.yul\":38232:38252   */\n      tag_783\n        /* \"#utility.yul\":38250:38251   */\n      dup4\n        /* \"#utility.yul\":38232:38252   */\n      tag_357\n      jump\t// in\n    tag_783:\n        /* \"#utility.yul\":38227:38252   */\n      swap3\n      pop\n        /* \"#utility.yul\":38276:38277   */\n      dup3\n        /* \"#utility.yul\":38273:38274   */\n      dup3\n        /* \"#utility.yul\":38269:38278   */\n      sub\n        /* \"#utility.yul\":38261:38278   */\n      swap1\n      pop\n        /* \"#utility.yul\":38300:38301   */\n      dup2\n        /* \"#utility.yul\":38294:38298   */\n      dup2\n        /* \"#utility.yul\":38291:38302   */\n      gt\n        /* \"#utility.yul\":38288:38325   */\n      iszero\n      tag_784\n      jumpi\n        /* \"#utility.yul\":38305:38323   */\n      tag_785\n      tag_422\n      jump\t// in\n    tag_785:\n        /* \"#utility.yul\":38288:38325   */\n    tag_784:\n        /* \"#utility.yul\":38138:38332   */\n      swap3\n      swap2\n      pop\n      pop\n      jump\t// out\n        /* \"#utility.yul\":38338:38436   */\n    tag_427:\n        /* \"#utility.yul\":38389:38395   */\n      0x00\n        /* \"#utility.yul\":38423:38428   */\n      dup2\n        /* \"#utility.yul\":38417:38429   */\n      mload\n        /* \"#utility.yul\":38407:38429   */\n      swap1\n      pop\n        /* \"#utility.yul\":38338:38436   */\n      swap2\n      swap1\n      pop\n      jump\t// out\n        /* \"#utility.yul\":38442:38610   */\n    tag_428:\n        /* \"#utility.yul\":38525:38536   */\n      0x00\n        /* \"#utility.yul\":38559:38565   */\n      dup3\n        /* \"#utility.yul\":38554:38557   */\n      dup3\n        /* \"#utility.yul\":38547:38566   */\n      mstore\n        /* \"#utility.yul\":38599:38603   */\n      0x20\n        /* \"#utility.yul\":38594:38597   */\n      dup3\n        /* \"#utility.yul\":38590:38604   */\n      add\n        /* \"#utility.yul\":38575:38604   */\n      swap1\n      pop\n        /* \"#utility.yul\":38442:38610   */\n      swap3\n      swap2\n      pop\n      pop\n      jump\t// out\n        /* \"#utility.yul\":38616:38989   */\n    tag_429:\n        /* \"#utility.yul\":38702:38705   */\n      0x00\n        /* \"#utility.yul\":38730:38768   */\n      tag_789\n        /* \"#utility.yul\":38762:38767   */\n      dup3\n        /* \"#utility.yul\":38730:38768   */\n      tag_427\n      jump\t// in\n    tag_789:\n        /* \"#utility.yul\":38784:38854   */\n      tag_790\n        /* \"#utility.yul\":38847:38853   */\n      dup2\n        /* \"#utility.yul\":38842:38845   */\n      dup6\n        /* \"#utility.yul\":38784:38854   */\n      tag_428\n      jump\t// in\n    tag_790:\n        /* \"#utility.yul\":38777:38854   */\n      swap4\n      pop\n        /* \"#utility.yul\":38863:38928   */\n      tag_791\n        /* \"#utility.yul\":38921:38927   */\n      dup2\n        /* \"#utility.yul\":38916:38919   */\n      dup6\n        /* \"#utility.yul\":38909:38913   */\n      0x20\n        /* \"#utility.yul\":38902:38907   */\n      dup7\n        /* \"#utility.yul\":38898:38914   */\n      add\n        /* \"#utility.yul\":38863:38928   */\n      tag_343\n      jump\t// in\n    tag_791:\n        /* \"#utility.yul\":38953:38982   */\n      tag_792\n        /* \"#utility.yul\":38975:38981   */\n      dup2\n        /* \"#utility.yul\":38953:38982   */\n      tag_344\n      jump\t// in\n    tag_792:\n        /* \"#utility.yul\":38948:38951   */\n      dup5\n        /* \"#utility.yul\":38944:38983   */\n      add\n        /* \"#utility.yul\":38937:38983   */\n      swap2\n      pop\n        /* \"#utility.yul\":38706:38989   */\n      pop\n        /* \"#utility.yul\":38616:38989   */\n      swap3\n      swap2\n      pop\n      pop\n      jump\t// out\n        /* \"#utility.yul\":38995:39635   */\n    tag_327:\n        /* \"#utility.yul\":39190:39194   */\n      0x00\n        /* \"#utility.yul\":39228:39231   */\n      0x80\n        /* \"#utility.yul\":39217:39226   */\n      dup3\n        /* \"#utility.yul\":39213:39232   */\n      add\n        /* \"#utility.yul\":39205:39232   */\n      swap1\n      pop\n        /* \"#utility.yul\":39242:39313   */\n      tag_794\n        /* \"#utility.yul\":39310:39311   */\n      0x00\n        /* \"#utility.yul\":39299:39308   */\n      dup4\n        /* \"#utility.yul\":39295:39312   */\n      add\n        /* \"#utility.yul\":39286:39292   */\n      dup8\n        /* \"#utility.yul\":39242:39313   */\n      tag_365\n      jump\t// in\n    tag_794:\n        /* \"#utility.yul\":39323:39395   */\n      tag_795\n        /* \"#utility.yul\":39391:39393   */\n      0x20\n        /* \"#utility.yul\":39380:39389   */\n      dup4\n        /* \"#utility.yul\":39376:39394   */\n      add\n        /* \"#utility.yul\":39367:39373   */\n      dup7\n        /* \"#utility.yul\":39323:39395   */\n      tag_365\n      jump\t// in\n    tag_795:\n        /* \"#utility.yul\":39405:39477   */\n      tag_796\n        /* \"#utility.yul\":39473:39475   */\n      0x40\n        /* \"#utility.yul\":39462:39471   */\n      dup4\n        /* \"#utility.yul\":39458:39476   */\n      add\n        /* \"#utility.yul\":39449:39455   */\n      dup6\n        /* \"#utility.yul\":39405:39477   */\n      tag_358\n      jump\t// in\n    tag_796:\n        /* \"#utility.yul\":39524:39533   */\n      dup2\n        /* \"#utility.yul\":39518:39522   */\n      dup2\n        /* \"#utility.yul\":39514:39534   */\n      sub\n        /* \"#utility.yul\":39509:39511   */\n      0x60\n        /* \"#utility.yul\":39498:39507   */\n      dup4\n        /* \"#utility.yul\":39494:39512   */\n      add\n        /* \"#utility.yul\":39487:39535   */\n      mstore\n        /* \"#utility.yul\":39552:39628   */\n      tag_797\n        /* \"#utility.yul\":39623:39627   */\n      dup2\n        /* \"#utility.yul\":39614:39620   */\n      dup5\n        /* \"#utility.yul\":39552:39628   */\n      tag_429\n      jump\t// in\n    tag_797:\n        /* \"#utility.yul\":39544:39628   */\n      swap1\n      pop\n        /* \"#utility.yul\":38995:39635   */\n      swap6\n      swap5\n      pop\n      pop\n      pop\n      pop\n      pop\n      jump\t// out\n        /* \"#utility.yul\":39641:39790   */\n    tag_430:\n        /* \"#utility.yul\":39677:39684   */\n      0x00\n        /* \"#utility.yul\":39717:39783   */\n      0xffffffff00000000000000000000000000000000000000000000000000000000\n        /* \"#utility.yul\":39710:39715   */\n      dup3\n        /* \"#utility.yul\":39706:39784   */\n      and\n        /* \"#utility.yul\":39695:39784   */\n      swap1\n      pop\n        /* \"#utility.yul\":39641:39790   */\n      swap2\n      swap1\n      pop\n      jump\t// out\n        /* \"#utility.yul\":39796:39916   */\n    tag_431:\n        /* \"#utility.yul\":39868:39891   */\n      tag_800\n        /* \"#utility.yul\":39885:39890   */\n      dup2\n        /* \"#utility.yul\":39868:39891   */\n      tag_430\n      jump\t// in\n    tag_800:\n        /* \"#utility.yul\":39861:39866   */\n      dup2\n        /* \"#utility.yul\":39858:39892   */\n      eq\n        /* \"#utility.yul\":39848:39910   */\n      tag_801\n      jumpi\n        /* \"#utility.yul\":39906:39907   */\n      0x00\n        /* \"#utility.yul\":39903:39904   */\n      0x00\n        /* \"#utility.yul\":39896:39908   */\n      revert\n        /* \"#utility.yul\":39848:39910   */\n    tag_801:\n        /* \"#utility.yul\":39796:39916   */\n      pop\n      jump\t// out\n        /* \"#utility.yul\":39922:40063   */\n    tag_432:\n        /* \"#utility.yul\":39978:39983   */\n      0x00\n        /* \"#utility.yul\":40009:40015   */\n      dup2\n        /* \"#utility.yul\":40003:40016   */\n      mload\n        /* \"#utility.yul\":39994:40016   */\n      swap1\n      pop\n        /* \"#utility.yul\":40025:40057   */\n      tag_803\n        /* \"#utility.yul\":40051:40056   */\n      dup2\n        /* \"#utility.yul\":40025:40057   */\n      tag_431\n      jump\t// in\n    tag_803:\n        /* \"#utility.yul\":39922:40063   */\n      swap3\n      swap2\n      pop\n      pop\n      jump\t// out\n        /* \"#utility.yul\":40069:40418   */\n    tag_330:\n        /* \"#utility.yul\":40138:40144   */\n      0x00\n        /* \"#utility.yul\":40187:40189   */\n      0x20\n        /* \"#utility.yul\":40175:40184   */\n      dup3\n        /* \"#utility.yul\":40166:40173   */\n      dup5\n        /* \"#utility.yul\":40162:40185   */\n      sub\n        /* \"#utility.yul\":40158:40190   */\n      slt\n        /* \"#utility.yul\":40155:40274   */\n      iszero\n      tag_805\n      jumpi\n        /* \"#utility.yul\":40193:40272   */\n      tag_806\n      tag_347\n      jump\t// in\n    tag_806:\n        /* \"#utility.yul\":40155:40274   */\n    tag_805:\n        /* \"#utility.yul\":40313:40314   */\n      0x00\n        /* \"#utility.yul\":40338:40401   */\n      tag_807\n        /* \"#utility.yul\":40393:40400   */\n      dup5\n        /* \"#utility.yul\":40384:40390   */\n      dup3\n        /* \"#utility.yul\":40373:40382   */\n      dup6\n        /* \"#utility.yul\":40369:40391   */\n      add\n        /* \"#utility.yul\":40338:40401   */\n      tag_432\n      jump\t// in\n    tag_807:\n        /* \"#utility.yul\":40328:40401   */\n      swap2\n      pop\n        /* \"#utility.yul\":40284:40411   */\n      pop\n        /* \"#utility.yul\":40069:40418   */\n      swap3\n      swap2\n      pop\n      pop\n      jump\t// out\n        /* \"#utility.yul\":40424:40604   */\n    tag_433:\n        /* \"#utility.yul\":40564:40596   */\n      0x5472616e7366657220746f206e6f6e2045524337323152656365697665720000\n        /* \"#utility.yul\":40560:40561   */\n      0x00\n        /* \"#utility.yul\":40552:40558   */\n      dup3\n        /* \"#utility.yul\":40548:40562   */\n      add\n        /* \"#utility.yul\":40541:40597   */\n      mstore\n        /* \"#utility.yul\":40424:40604   */\n      pop\n      jump\t// out\n        /* \"#utility.yul\":40610:40976   */\n    tag_434:\n        /* \"#utility.yul\":40752:40755   */\n      0x00\n        /* \"#utility.yul\":40773:40840   */\n      tag_810\n        /* \"#utility.yul\":40837:40839   */\n      0x1e\n        /* \"#utility.yul\":40832:40835   */\n      dup4\n        /* \"#utility.yul\":40773:40840   */\n      tag_342\n      jump\t// in\n    tag_810:\n        /* \"#utility.yul\":40766:40840   */\n      swap2\n      pop\n        /* \"#utility.yul\":40849:40942   */\n      tag_811\n        /* \"#utility.yul\":40938:40941   */\n      dup3\n        /* \"#utility.yul\":40849:40942   */\n      tag_433\n      jump\t// in\n    tag_811:\n        /* \"#utility.yul\":40967:40969   */\n      0x20\n        /* \"#utility.yul\":40962:40965   */\n      dup3\n        /* \"#utility.yul\":40958:40970   */\n      add\n        /* \"#utility.yul\":40951:40970   */\n      swap1\n      pop\n        /* \"#utility.yul\":40610:40976   */\n      swap2\n      swap1\n      pop\n      jump\t// out\n        /* \"#utility.yul\":40982:41401   */\n    tag_336:\n        /* \"#utility.yul\":41148:41152   */\n      0x00\n        /* \"#utility.yul\":41186:41188   */\n      0x20\n        /* \"#utility.yul\":41175:41184   */\n      dup3\n        /* \"#utility.yul\":41171:41189   */\n      add\n        /* \"#utility.yul\":41163:41189   */\n      swap1\n      pop\n        /* \"#utility.yul\":41235:41244   */\n      dup2\n        /* \"#utility.yul\":41229:41233   */\n      dup2\n        /* \"#utility.yul\":41225:41245   */\n      sub\n        /* \"#utility.yul\":41221:41222   */\n      0x00\n        /* \"#utility.yul\":41210:41219   */\n      dup4\n        /* \"#utility.yul\":41206:41223   */\n      add\n        /* \"#utility.yul\":41199:41246   */\n      mstore\n        /* \"#utility.yul\":41263:41394   */\n      tag_813\n        /* \"#utility.yul\":41389:41393   */\n      dup2\n        /* \"#utility.yul\":41263:41394   */\n      tag_434\n      jump\t// in\n    tag_813:\n        /* \"#utility.yul\":41255:41394   */\n      swap1\n      pop\n        /* \"#utility.yul\":40982:41401   */\n      swap2\n      swap1\n      pop\n      jump\t// out\n        /* \"#utility.yul\":41407:41587   */\n    tag_435:\n        /* \"#utility.yul\":41547:41579   */\n      0x45524337323152656365697665722072656a656374656420746f6b656e730000\n        /* \"#utility.yul\":41543:41544   */\n      0x00\n        /* \"#utility.yul\":41535:41541   */\n      dup3\n        /* \"#utility.yul\":41531:41545   */\n      add\n        /* \"#utility.yul\":41524:41580   */\n      mstore\n        /* \"#utility.yul\":41407:41587   */\n      pop\n      jump\t// out\n        /* \"#utility.yul\":41593:41959   */\n    tag_436:\n        /* \"#utility.yul\":41735:41738   */\n      0x00\n        /* \"#utility.yul\":41756:41823   */\n      tag_816\n        /* \"#utility.yul\":41820:41822   */\n      0x1e\n        /* \"#utility.yul\":41815:41818   */\n      dup4\n        /* \"#utility.yul\":41756:41823   */\n      tag_342\n      jump\t// in\n    tag_816:\n        /* \"#utility.yul\":41749:41823   */\n      swap2\n      pop\n        /* \"#utility.yul\":41832:41925   */\n      tag_817\n        /* \"#utility.yul\":41921:41924   */\n      dup3\n        /* \"#utility.yul\":41832:41925   */\n      tag_435\n      jump\t// in\n    tag_817:\n        /* \"#utility.yul\":41950:41952   */\n      0x20\n        /* \"#utility.yul\":41945:41948   */\n      dup3\n        /* \"#utility.yul\":41941:41953   */\n      add\n        /* \"#utility.yul\":41934:41953   */\n      swap1\n      pop\n        /* \"#utility.yul\":41593:41959   */\n      swap2\n      swap1\n      pop\n      jump\t// out\n        /* \"#utility.yul\":41965:42384   */\n    tag_340:\n        /* \"#utility.yul\":42131:42135   */\n      0x00\n        /* \"#utility.yul\":42169:42171   */\n      0x20\n        /* \"#utility.yul\":42158:42167   */\n      dup3\n        /* \"#utility.yul\":42154:42172   */\n      add\n        /* \"#utility.yul\":42146:42172   */\n      swap1\n      pop\n        /* \"#utility.yul\":42218:42227   */\n      dup2\n        /* \"#utility.yul\":42212:42216   */\n      dup2\n        /* \"#utility.yul\":42208:42228   */\n      sub\n        /* \"#utility.yul\":42204:42205   */\n      0x00\n        /* \"#utility.yul\":42193:42202   */\n      dup4\n        /* \"#utility.yul\":42189:42206   */\n      add\n        /* \"#utility.yul\":42182:42229   */\n      mstore\n        /* \"#utility.yul\":42246:42377   */\n      tag_819\n        /* \"#utility.yul\":42372:42376   */\n      dup2\n        /* \"#utility.yul\":42246:42377   */\n      tag_436\n      jump\t// in\n    tag_819:\n        /* \"#utility.yul\":42238:42377   */\n      swap1\n      pop\n        /* \"#utility.yul\":41965:42384   */\n      swap2\n      swap1\n      pop\n      jump\t// out\n\n    auxdata: 0xa2646970667358221220707dd5cbbca38d877ce8708484ee4f61314c848fc2fdfbafedbcbde4b155285064736f6c634300081e0033\n}\n",
				"bytecode": {
					"linkReferences": {},
					"object": "608060405234801561000f575f5ffd5b506040516139b13803806139b183398181016040528101906100319190610212565b6040518060400160405280601181526020017f4b656e79614c616e6452656769737472790000000000000000000000000000008152506040518060400160405280600381526020017f4b4c520000000000000000000000000000000000000000000000000000000000815250815f90816100ab919061047a565b5080600190816100bb919061047a565b5050506100d05f5f1b8261010660201b60201c565b6101007fedcc084d3dcd65a1f7f23c65c46722faca6953d28e43150a467cf43e5c3092388261010660201b60201c565b50610549565b600160045f8481526020019081526020015f205f015f8373ffffffffffffffffffffffffffffffffffffffff1673ffffffffffffffffffffffffffffffffffffffff1681526020019081526020015f205f6101000a81548160ff0219169083151502179055508073ffffffffffffffffffffffffffffffffffffffff16827f2ae6a113c0ed5b78a53413ffbb7679881f11145ccfba4fb92e863dfcd5a1d2f360405160405180910390a35050565b5f5ffd5b5f73ffffffffffffffffffffffffffffffffffffffff82169050919050565b5f6101e1826101b8565b9050919050565b6101f1816101d7565b81146101fb575f5ffd5b50565b5f8151905061020c816101e8565b92915050565b5f60208284031215610227576102266101b4565b5b5f610234848285016101fe565b91505092915050565b5f81519050919050565b7f4e487b71000000000000000000000000000000000000000000000000000000005f52604160045260245ffd5b7f4e487b71000000000000000000000000000000000000000000000000000000005f52602260045260245ffd5b5f60028204905060018216806102b857607f821691505b6020821081036102cb576102ca610274565b5b50919050565b5f819050815f5260205f209050919050565b5f6020601f8301049050919050565b5f82821b905092915050565b5f6008830261032d7fffffffffffffffffffffffffffffffffffffffffffffffffffffffffffffffff826102f2565b61033786836102f2565b95508019841693508086168417925050509392505050565b5f819050919050565b5f819050919050565b5f61037b6103766103718461034f565b610358565b61034f565b9050919050565b5f819050919050565b61039483610361565b6103a86103a082610382565b8484546102fe565b825550505050565b5f5f905090565b6103bf6103b0565b6103ca81848461038b565b505050565b5b818110156103ed576103e25f826103b7565b6001810190506103d0565b5050565b601f82111561043257610403816102d1565b61040c846102e3565b8101602085101561041b578190505b61042f610427856102e3565b8301826103cf565b50505b505050565b5f82821c905092915050565b5f6104525f1984600802610437565b1980831691505092915050565b5f61046a8383610443565b9150826002028217905092915050565b6104838261023d565b67ffffffffffffffff81111561049c5761049b610247565b5b6104a682546102a1565b6104b18282856103f1565b5f60209050601f8311600181146104e2575f84156104d0578287015190505b6104da858261045f565b865550610541565b601f1984166104f0866102d1565b5f5b82811015610517578489015182556001820191506020850194506020810190506104f2565b868310156105345784890151610530601f891682610443565b8355505b6001600288020188555050505b505050505050565b61345b806105565f395ff3fe608060405234801561000f575f5ffd5b5060043610610114575f3560e01c806395d89b41116100a0578063af92a6931161006f578063af92a69314610320578063b9238fb31461033c578063ba904eed14610358578063bdca2f6714610374578063f68e9553146103a457610114565b806395d89b4114610293578063a0fa8ede146102b1578063a217fddf146102e6578063a3384f831461030457610114565b80636352211e116100e75780636352211e146101b75780636b5b94f3146101e757806370a08231146102035780637ad00f601461023357806391d148541461026357610114565b806306fdde031461011857806322bdfd0e146101365780634d0434f2146101665780634f1c4b841461019b575b5f5ffd5b6101206103c2565b60405161012d9190612030565b60405180910390f35b610150600480360381019061014b9190612113565b61044d565b60405161015d9190612221565b60405180910390f35b610180600480360381019061017b9190612264565b6107df565b60405161019296959493929190612311565b60405180910390f35b6101b560048036038101906101b09190612385565b610b08565b005b6101d160048036038101906101cc9190612264565b610d35565b6040516101de91906123c3565b60405180910390f35b61020160048036038101906101fc91906123dc565b610de1565b005b61021d6004803603810190610218919061246d565b610eee565b60405161022a9190612221565b60405180910390f35b61024d60048036038101906102489190612498565b610fa2565b60405161025a9190612030565b60405180910390f35b61027d60048036038101906102789190612509565b611053565b60405161028a9190612561565b60405180910390f35b61029b6110b7565b6040516102a89190612030565b60405180910390f35b6102cb60048036038101906102c69190612264565b611143565b6040516102dd9695949392919061257a565b60405180910390f35b6102ee61139f565b6040516102fb9190612604565b60405180910390f35b61031e6004803603810190610319919061261d565b6113a5565b005b61033a6004803603810190610335919061246d565b6114df565b005b6103566004803603810190610351919061269d565b611559565b005b610372600480360381019061036d919061246d565b611687565b005b61038e60048036038101906103899190612264565b611701565b60405161039b9190612811565b60405180910390f35b6103ac61182e565b6040516103b99190612604565b60405180910390f35b5f80546103ce9061285e565b80601f01602080910402602001604051908101604052809291908181526020018280546103fa9061285e565b80156104455780601f1061041c57610100808354040283529160200191610445565b820191905f5260205f20905b81548152906001019060200180831161042857829003601f168201915b505050505081565b5f6104787fedcc084d3dcd65a1f7f23c65c46722faca6953d28e43150a467cf43e5c30923833611053565b6104b7576040517f08c379a00000000000000000000000000000000000000000000000000000000081526004016104ae906128d8565b60405180910390fd5b5f73ffffffffffffffffffffffffffffffffffffffff168a73ffffffffffffffffffffffffffffffffffffffff1603610525576040517f08c379a000000000000000000000000000000000000000000000000000000000815260040161051c90612940565b60405180910390fd5b5f898990501161056a576040517f08c379a0000000000000000000000000000000000000000000000000000000008152600401610561906129a8565b60405180910390fd5b6105746005611852565b5f61057f600561186f565b905061058b8b8261187b565b6040518060c001604052808b8b8080601f0160208091040260200160405190810160405280939291908181526020018383808284375f81840152601f19601f82011690508083019250505050505050815260200189898080601f0160208091040260200160405190810160405280939291908181526020018383808284375f81840152601f19601f82011690508083019250505050505050815260200187878080601f0160208091040260200160405190810160405280939291908181526020018383808284375f81840152601f19601f82011690508083019250505050505050815260200185858080601f0160208091040260200160405190810160405280939291908181526020018383808284375f81840152601f19601f8201169050808301925050505050505081526020015f60038111156106cd576106cc61228f565b5b81526020014281525060065f8381526020019081526020015f205f820151815f0190816106fa9190612b93565b5060208201518160010190816107109190612b93565b5060408201518160020190816107269190612b93565b50606082015181600301908161073c9190612b93565b506080820151816004015f6101000a81548160ff021916908360038111156107675761076661228f565b5b021790555060a082015181600501559050508a73ffffffffffffffffffffffffffffffffffffffff16817f2c9480c346df503f2f99e98b4234dfbfada212344a74d353e63500ceb9b7c19f8c8c8c8c6040516107c69493929190612c9c565b60405180910390a3809150509998505050505050505050565b60608060605f5f5f6107f087611a4e565b61082f576040517f08c379a000000000000000000000000000000000000000000000000000000000815260040161082690612d1f565b60405180910390fd5b5f60065f8981526020019081526020015f206040518060c00160405290815f8201805461085b9061285e565b80601f01602080910402602001604051908101604052809291908181526020018280546108879061285e565b80156108d25780601f106108a9576101008083540402835291602001916108d2565b820191905f5260205f20905b8154815290600101906020018083116108b557829003601f168201915b505050505081526020016001820180546108eb9061285e565b80601f01602080910402602001604051908101604052809291908181526020018280546109179061285e565b80156109625780601f1061093957610100808354040283529160200191610962565b820191905f5260205f20905b81548152906001019060200180831161094557829003601f168201915b5050505050815260200160028201805461097b9061285e565b80601f01602080910402602001604051908101604052809291908181526020018280546109a79061285e565b80156109f25780601f106109c9576101008083540402835291602001916109f2565b820191905f5260205f20905b8154815290600101906020018083116109d557829003601f168201915b50505050508152602001600382018054610a0b9061285e565b80601f0160208091040260200160405190810160405280929190818152602001828054610a379061285e565b8015610a825780601f10610a5957610100808354040283529160200191610a82565b820191905f5260205f20905b815481529060010190602001808311610a6557829003601f168201915b50505050508152602001600482015f9054906101000a900460ff166003811115610aaf57610aae61228f565b5b6003811115610ac157610ac061228f565b5b81526020016005820154815250509050805f01518160200151826040015183608001518460a00151610af28d610d35565b9650965096509650965096505091939550919395565b81610b1281611a4e565b610b51576040517f08c379a0000000000000000000000000000000000000000000000000000000008152600401610b4890612d1f565b60405180910390fd5b5f6003811115610b6457610b6361228f565b5b60065f8381526020019081526020015f206004015f9054906101000a900460ff166003811115610b9757610b9661228f565b5b14610bd7576040517f08c379a0000000000000000000000000000000000000000000000000000000008152600401610bce90612d87565b60405180910390fd5b5f73ffffffffffffffffffffffffffffffffffffffff168273ffffffffffffffffffffffffffffffffffffffff1603610c45576040517f08c379a0000000000000000000000000000000000000000000000000000000008152600401610c3c90612def565b60405180910390fd5b3373ffffffffffffffffffffffffffffffffffffffff16610c6584610d35565b73ffffffffffffffffffffffffffffffffffffffff1614610cbb576040517f08c379a0000000000000000000000000000000000000000000000000000000008152600401610cb290612e57565b60405180910390fd5b610cd533838560405180602001604052805f815250611ab6565b8173ffffffffffffffffffffffffffffffffffffffff163373ffffffffffffffffffffffffffffffffffffffff16847f26b9f0805d5ccecdc6d6f1f7d73613306cd67c0a244e342aa69b32799f5ff2b660405160405180910390a4505050565b5f5f60025f8481526020019081526020015f205f9054906101000a900473ffffffffffffffffffffffffffffffffffffffff1690505f73ffffffffffffffffffffffffffffffffffffffff168173ffffffffffffffffffffffffffffffffffffffff1603610dd8576040517f08c379a0000000000000000000000000000000000000000000000000000000008152600401610dcf90612ebf565b60405180910390fd5b80915050919050565b610e0b7fedcc084d3dcd65a1f7f23c65c46722faca6953d28e43150a467cf43e5c30923833611053565b610e4a576040517f08c379a0000000000000000000000000000000000000000000000000000000008152600401610e41906128d8565b60405180910390fd5b610e5385611a4e565b610e92576040517f08c379a0000000000000000000000000000000000000000000000000000000008152600401610e8990612d1f565b60405180910390fd5b5f60065f8781526020019081526020015f2090505f858590501115610ec6578484826002019182610ec4929190612ee7565b505b5f838390501115610ee6578282826003019182610ee4929190612ee7565b505b505050505050565b5f5f73ffffffffffffffffffffffffffffffffffffffff168273ffffffffffffffffffffffffffffffffffffffff1603610f5d576040517f08c379a0000000000000000000000000000000000000000000000000000000008152600401610f5490612ffe565b60405180910390fd5b60035f8373ffffffffffffffffffffffffffffffffffffffff1673ffffffffffffffffffffffffffffffffffffffff1681526020019081526020015f20549050919050565b6007602052815f5260405f208181548110610fbb575f80fd5b905f5260205f20015f91509150508054610fd49061285e565b80601f01602080910402602001604051908101604052809291908181526020018280546110009061285e565b801561104b5780601f106110225761010080835404028352916020019161104b565b820191905f5260205f20905b81548152906001019060200180831161102e57829003601f168201915b505050505081565b5f60045f8481526020019081526020015f205f015f8373ffffffffffffffffffffffffffffffffffffffff1673ffffffffffffffffffffffffffffffffffffffff1681526020019081526020015f205f9054906101000a900460ff16905092915050565b600180546110c49061285e565b80601f01602080910402602001604051908101604052809291908181526020018280546110f09061285e565b801561113b5780601f106111125761010080835404028352916020019161113b565b820191905f5260205f20905b81548152906001019060200180831161111e57829003601f168201915b505050505081565b6006602052805f5260405f205f91509050805f0180546111629061285e565b80601f016020809104026020016040519081016040528092919081815260200182805461118e9061285e565b80156111d95780601f106111b0576101008083540402835291602001916111d9565b820191905f5260205f20905b8154815290600101906020018083116111bc57829003601f168201915b5050505050908060010180546111ee9061285e565b80601f016020809104026020016040519081016040528092919081815260200182805461121a9061285e565b80156112655780601f1061123c57610100808354040283529160200191611265565b820191905f5260205f20905b81548152906001019060200180831161124857829003601f168201915b50505050509080600201805461127a9061285e565b80601f01602080910402602001604051908101604052809291908181526020018280546112a69061285e565b80156112f15780601f106112c8576101008083540402835291602001916112f1565b820191905f5260205f20905b8154815290600101906020018083116112d457829003601f168201915b5050505050908060030180546113069061285e565b80601f01602080910402602001604051908101604052809291908181526020018280546113329061285e565b801561137d5780601f106113545761010080835404028352916020019161137d565b820191905f5260205f20905b81548152906001019060200180831161136057829003601f168201915b505050505090806004015f9054906101000a900460ff16908060050154905086565b5f5f1b81565b6113cf7fedcc084d3dcd65a1f7f23c65c46722faca6953d28e43150a467cf43e5c30923833611053565b61140e576040517f08c379a0000000000000000000000000000000000000000000000000000000008152600401611405906128d8565b60405180910390fd5b61141783611a4e565b611456576040517f08c379a000000000000000000000000000000000000000000000000000000000815260040161144d90612d1f565b60405180910390fd5b60075f8481526020019081526020015f20828290918060018154018082558091505060019003905f5260205f20015f90919290919290919290919250918261149f929190612ee7565b50827f6caebdcd73cbcb009fab607ceb05aa2625597ee6a3861bef11d3ace03eee65d183836040516114d292919061301c565b60405180910390a2505050565b5f5f1b6114ec8133611053565b61152b576040517f08c379a000000000000000000000000000000000000000000000000000000000815260040161152290613088565b60405180910390fd5b6115557fedcc084d3dcd65a1f7f23c65c46722faca6953d28e43150a467cf43e5c30923883611cfe565b5050565b6115837fedcc084d3dcd65a1f7f23c65c46722faca6953d28e43150a467cf43e5c30923833611053565b6115c2576040517f08c379a00000000000000000000000000000000000000000000000000000000081526004016115b9906128d8565b60405180910390fd5b6115cb84611a4e565b61160a576040517f08c379a000000000000000000000000000000000000000000000000000000000815260040161160190612d1f565b60405180910390fd5b8260065f8681526020019081526020015f206004015f6101000a81548160ff021916908360038111156116405761163f61228f565b5b0217905550837f0df137f228c4a282196c6c7a66e306be2b21ef02fae4ce1480f1ab71f90c6aa5848484604051611679939291906130a6565b60405180910390a250505050565b5f5f1b6116948133611053565b6116d3576040517f08c379a00000000000000000000000000000000000000000000000000000000081526004016116ca90613088565b60405180910390fd5b6116fd7fedcc084d3dcd65a1f7f23c65c46722faca6953d28e43150a467cf43e5c30923883611dac565b5050565b606061170c82611a4e565b61174b576040517f08c379a000000000000000000000000000000000000000000000000000000000815260040161174290612d1f565b60405180910390fd5b60075f8381526020019081526020015f20805480602002602001604051908101604052809291908181526020015f905b82821015611823578382905f5260205f200180546117989061285e565b80601f01602080910402602001604051908101604052809291908181526020018280546117c49061285e565b801561180f5780601f106117e65761010080835404028352916020019161180f565b820191905f5260205f20905b8154815290600101906020018083116117f257829003601f168201915b50505050508152602001906001019061177b565b505050509050919050565b7fedcc084d3dcd65a1f7f23c65c46722faca6953d28e43150a467cf43e5c30923881565b6001815f015f8282546118659190613103565b9250508190555050565b5f815f01549050919050565b5f73ffffffffffffffffffffffffffffffffffffffff168273ffffffffffffffffffffffffffffffffffffffff16036118e9576040517f08c379a00000000000000000000000000000000000000000000000000000000081526004016118e090612ffe565b60405180910390fd5b6118f281611a4e565b15611932576040517f08c379a000000000000000000000000000000000000000000000000000000000815260040161192990613180565b60405180910390fd5b600160035f8473ffffffffffffffffffffffffffffffffffffffff1673ffffffffffffffffffffffffffffffffffffffff1681526020019081526020015f205f82825461197f9190613103565b925050819055508160025f8381526020019081526020015f205f6101000a81548173ffffffffffffffffffffffffffffffffffffffff021916908373ffffffffffffffffffffffffffffffffffffffff160217905550808273ffffffffffffffffffffffffffffffffffffffff165f73ffffffffffffffffffffffffffffffffffffffff167fddf252ad1be2c89b69c2b068fc378daa952ba7f163c4a11628f55a4df523b3ef60405160405180910390a4611a4a5f838360405180602001604052805f815250611e59565b5050565b5f5f73ffffffffffffffffffffffffffffffffffffffff1660025f8481526020019081526020015f205f9054906101000a900473ffffffffffffffffffffffffffffffffffffffff1673ffffffffffffffffffffffffffffffffffffffff1614159050919050565b8373ffffffffffffffffffffffffffffffffffffffff16611ad683610d35565b73ffffffffffffffffffffffffffffffffffffffff1614611b2c576040517f08c379a0000000000000000000000000000000000000000000000000000000008152600401611b23906131e8565b60405180910390fd5b5f73ffffffffffffffffffffffffffffffffffffffff168373ffffffffffffffffffffffffffffffffffffffff1603611b9a576040517f08c379a0000000000000000000000000000000000000000000000000000000008152600401611b9190612ffe565b60405180910390fd5b600160035f8673ffffffffffffffffffffffffffffffffffffffff1673ffffffffffffffffffffffffffffffffffffffff1681526020019081526020015f205f828254611be79190613206565b92505081905550600160035f8573ffffffffffffffffffffffffffffffffffffffff1673ffffffffffffffffffffffffffffffffffffffff1681526020019081526020015f205f828254611c3b9190613103565b925050819055508260025f8481526020019081526020015f205f6101000a81548173ffffffffffffffffffffffffffffffffffffffff021916908373ffffffffffffffffffffffffffffffffffffffff160217905550818373ffffffffffffffffffffffffffffffffffffffff168573ffffffffffffffffffffffffffffffffffffffff167fddf252ad1be2c89b69c2b068fc378daa952ba7f163c4a11628f55a4df523b3ef60405160405180910390a4611cf884848484611e59565b50505050565b600160045f8481526020019081526020015f205f015f8373ffffffffffffffffffffffffffffffffffffffff1673ffffffffffffffffffffffffffffffffffffffff1681526020019081526020015f205f6101000a81548160ff0219169083151502179055508073ffffffffffffffffffffffffffffffffffffffff16827f2ae6a113c0ed5b78a53413ffbb7679881f11145ccfba4fb92e863dfcd5a1d2f360405160405180910390a35050565b5f60045f8481526020019081526020015f205f015f8373ffffffffffffffffffffffffffffffffffffffff1673ffffffffffffffffffffffffffffffffffffffff1681526020019081526020015f205f6101000a81548160ff0219169083151502179055508073ffffffffffffffffffffffffffffffffffffffff16827f155aaafb6329a2098580462df33ec4b7441b19729b9601c5fc17ae1cf99a8a5260405160405180910390a35050565b5f8373ffffffffffffffffffffffffffffffffffffffff163b1115611fba578273ffffffffffffffffffffffffffffffffffffffff1663150b7a02338685856040518563ffffffff1660e01b8152600401611eb7949392919061328b565b6020604051808303815f875af1925050508015611ef257506040513d601f19601f82011682018060405250810190611eef919061332a565b60015b611f31576040517f08c379a0000000000000000000000000000000000000000000000000000000008152600401611f289061339f565b60405180910390fd5b63150b7a0260e01b7bffffffffffffffffffffffffffffffffffffffffffffffffffffffff1916817bffffffffffffffffffffffffffffffffffffffffffffffffffffffff191614611fb8576040517f08c379a0000000000000000000000000000000000000000000000000000000008152600401611faf90613407565b60405180910390fd5b505b50505050565b5f81519050919050565b5f82825260208201905092915050565b8281835e5f83830152505050565b5f601f19601f8301169050919050565b5f61200282611fc0565b61200c8185611fca565b935061201c818560208601611fda565b61202581611fe8565b840191505092915050565b5f6020820190508181035f8301526120488184611ff8565b905092915050565b5f5ffd5b5f5ffd5b5f73ffffffffffffffffffffffffffffffffffffffff82169050919050565b5f61208182612058565b9050919050565b61209181612077565b811461209b575f5ffd5b50565b5f813590506120ac81612088565b92915050565b5f5ffd5b5f5ffd5b5f5ffd5b5f5f83601f8401126120d3576120d26120b2565b5b8235905067ffffffffffffffff8111156120f0576120ef6120b6565b5b60208301915083600182028301111561210c5761210b6120ba565b5b9250929050565b5f5f5f5f5f5f5f5f5f60a08a8c0312156121305761212f612050565b5b5f61213d8c828d0161209e565b99505060208a013567ffffffffffffffff81111561215e5761215d612054565b5b61216a8c828d016120be565b985098505060408a013567ffffffffffffffff81111561218d5761218c612054565b5b6121998c828d016120be565b965096505060608a013567ffffffffffffffff8111156121bc576121bb612054565b5b6121c88c828d016120be565b945094505060808a013567ffffffffffffffff8111156121eb576121ea612054565b5b6121f78c828d016120be565b92509250509295985092959850929598565b5f819050919050565b61221b81612209565b82525050565b5f6020820190506122345f830184612212565b92915050565b61224381612209565b811461224d575f5ffd5b50565b5f8135905061225e8161223a565b92915050565b5f6020828403121561227957612278612050565b5b5f61228684828501612250565b91505092915050565b7f4e487b71000000000000000000000000000000000000000000000000000000005f52602160045260245ffd5b600481106122cd576122cc61228f565b5b50565b5f8190506122dd826122bc565b919050565b5f6122ec826122d0565b9050919050565b6122fc816122e2565b82525050565b61230b81612077565b82525050565b5f60c0820190508181035f8301526123298189611ff8565b9050818103602083015261233d8188611ff8565b905081810360408301526123518187611ff8565b905061236060608301866122f3565b61236d6080830185612212565b61237a60a0830184612302565b979650505050505050565b5f5f6040838503121561239b5761239a612050565b5b5f6123a885828601612250565b92505060206123b98582860161209e565b9150509250929050565b5f6020820190506123d65f830184612302565b92915050565b5f5f5f5f5f606086880312156123f5576123f4612050565b5b5f61240288828901612250565b955050602086013567ffffffffffffffff81111561242357612422612054565b5b61242f888289016120be565b9450945050604086013567ffffffffffffffff81111561245257612451612054565b5b61245e888289016120be565b92509250509295509295909350565b5f6020828403121561248257612481612050565b5b5f61248f8482850161209e565b91505092915050565b5f5f604083850312156124ae576124ad612050565b5b5f6124bb85828601612250565b92505060206124cc85828601612250565b9150509250929050565b5f819050919050565b6124e8816124d6565b81146124f2575f5ffd5b50565b5f81359050612503816124df565b92915050565b5f5f6040838503121561251f5761251e612050565b5b5f61252c858286016124f5565b925050602061253d8582860161209e565b9150509250929050565b5f8115159050919050565b61255b81612547565b82525050565b5f6020820190506125745f830184612552565b92915050565b5f60c0820190508181035f8301526125928189611ff8565b905081810360208301526125a68188611ff8565b905081810360408301526125ba8187611ff8565b905081810360608301526125ce8186611ff8565b90506125dd60808301856122f3565b6125ea60a0830184612212565b979650505050505050565b6125fe816124d6565b82525050565b5f6020820190506126175f8301846125f5565b92915050565b5f5f5f6040848603121561263457612633612050565b5b5f61264186828701612250565b935050602084013567ffffffffffffffff81111561266257612661612054565b5b61266e868287016120be565b92509250509250925092565b60048110612686575f5ffd5b50565b5f813590506126978161267a565b92915050565b5f5f5f5f606085870312156126b5576126b4612050565b5b5f6126c287828801612250565b94505060206126d387828801612689565b935050604085013567ffffffffffffffff8111156126f4576126f3612054565b5b612700878288016120be565b925092505092959194509250565b5f81519050919050565b5f82825260208201905092915050565b5f819050602082019050919050565b5f82825260208201905092915050565b5f61275182611fc0565b61275b8185612737565b935061276b818560208601611fda565b61277481611fe8565b840191505092915050565b5f61278a8383612747565b905092915050565b5f602082019050919050565b5f6127a88261270e565b6127b28185612718565b9350836020820285016127c485612728565b805f5b858110156127ff57848403895281516127e0858261277f565b94506127eb83612792565b925060208a019950506001810190506127c7565b50829750879550505050505092915050565b5f6020820190508181035f830152612829818461279e565b905092915050565b7f4e487b71000000000000000000000000000000000000000000000000000000005f52602260045260245ffd5b5f600282049050600182168061287557607f821691505b60208210810361288857612887612831565b5b50919050565b7f4e6f7420726567697374726172000000000000000000000000000000000000005f82015250565b5f6128c2600d83611fca565b91506128cd8261288e565b602082019050919050565b5f6020820190508181035f8301526128ef816128b6565b9050919050565b7f496e76616c6964206f776e6572000000000000000000000000000000000000005f82015250565b5f61292a600d83611fca565b9150612935826128f6565b602082019050919050565b5f6020820190508181035f8301526129578161291e565b9050919050565b7f4c52206e756d62657220726571756972656400000000000000000000000000005f82015250565b5f612992601283611fca565b915061299d8261295e565b602082019050919050565b5f6020820190508181035f8301526129bf81612986565b9050919050565b7f4e487b71000000000000000000000000000000000000000000000000000000005f52604160045260245ffd5b5f819050815f5260205f209050919050565b5f6020601f8301049050919050565b5f82821b905092915050565b5f60088302612a4f7fffffffffffffffffffffffffffffffffffffffffffffffffffffffffffffffff82612a14565b612a598683612a14565b95508019841693508086168417925050509392505050565b5f819050919050565b5f612a94612a8f612a8a84612209565b612a71565b612209565b9050919050565b5f819050919050565b612aad83612a7a565b612ac1612ab982612a9b565b848454612a20565b825550505050565b5f5f905090565b612ad8612ac9565b612ae3818484612aa4565b505050565b5b81811015612b0657612afb5f82612ad0565b600181019050612ae9565b5050565b601f821115612b4b57612b1c816129f3565b612b2584612a05565b81016020851015612b34578190505b612b48612b4085612a05565b830182612ae8565b50505b505050565b5f82821c905092915050565b5f612b6b5f1984600802612b50565b1980831691505092915050565b5f612b838383612b5c565b9150826002028217905092915050565b612b9c82611fc0565b67ffffffffffffffff811115612bb557612bb46129c6565b5b612bbf825461285e565b612bca828285612b0a565b5f60209050601f831160018114612bfb575f8415612be9578287015190505b612bf38582612b78565b865550612c5a565b601f198416612c09866129f3565b5f5b82811015612c3057848901518255600182019150602085019450602081019050612c0b565b86831015612c4d5784890151612c49601f891682612b5c565b8355505b6001600288020188555050505b505050505050565b828183375f83830152505050565b5f612c7b8385611fca565b9350612c88838584612c62565b612c9183611fe8565b840190509392505050565b5f6040820190508181035f830152612cb5818688612c70565b90508181036020830152612cca818486612c70565b905095945050505050565b7f50617263656c20646f6573206e6f7420657869737400000000000000000000005f82015250565b5f612d09601583611fca565b9150612d1482612cd5565b602082019050919050565b5f6020820190508181035f830152612d3681612cfd565b9050919050565b7f50617263656c206e6f74206163746976650000000000000000000000000000005f82015250565b5f612d71601183611fca565b9150612d7c82612d3d565b602082019050919050565b5f6020820190508181035f830152612d9e81612d65565b9050919050565b7f496e76616c696420726563697069656e740000000000000000000000000000005f82015250565b5f612dd9601183611fca565b9150612de482612da5565b602082019050919050565b5f6020820190508181035f830152612e0681612dcd565b9050919050565b7f4e6f742070617263656c206f776e6572000000000000000000000000000000005f82015250565b5f612e41601083611fca565b9150612e4c82612e0d565b602082019050919050565b5f6020820190508181035f830152612e6e81612e35565b9050919050565b7f4e6f6e6578697374656e7420746f6b656e0000000000000000000000000000005f82015250565b5f612ea9601183611fca565b9150612eb482612e75565b602082019050919050565b5f6020820190508181035f830152612ed681612e9d565b9050919050565b5f82905092915050565b612ef18383612edd565b67ffffffffffffffff811115612f0a57612f096129c6565b5b612f14825461285e565b612f1f828285612b0a565b5f601f831160018114612f4c575f8415612f3a578287013590505b612f448582612b78565b865550612fab565b601f198416612f5a866129f3565b5f5b82811015612f8157848901358255600182019150602085019450602081019050612f5c565b86831015612f9e5784890135612f9a601f891682612b5c565b8355505b6001600288020188555050505b50505050505050565b7f5a65726f206164647265737300000000000000000000000000000000000000005f82015250565b5f612fe8600c83611fca565b9150612ff382612fb4565b602082019050919050565b5f6020820190508181035f83015261301581612fdc565b9050919050565b5f6020820190508181035f830152613035818486612c70565b90509392505050565b7f4163636573732064656e696564000000000000000000000000000000000000005f82015250565b5f613072600d83611fca565b915061307d8261303e565b602082019050919050565b5f6020820190508181035f83015261309f81613066565b9050919050565b5f6040820190506130b95f8301866122f3565b81810360208301526130cc818486612c70565b9050949350505050565b7f4e487b71000000000000000000000000000000000000000000000000000000005f52601160045260245ffd5b5f61310d82612209565b915061311883612209565b92508282019050808211156131305761312f6130d6565b5b92915050565b7f416c7265616479206d696e7465640000000000000000000000000000000000005f82015250565b5f61316a600e83611fca565b915061317582613136565b602082019050919050565b5f6020820190508181035f8301526131978161315e565b9050919050565b7f4e6f74206f776e657200000000000000000000000000000000000000000000005f82015250565b5f6131d2600983611fca565b91506131dd8261319e565b602082019050919050565b5f6020820190508181035f8301526131ff816131c6565b9050919050565b5f61321082612209565b915061321b83612209565b9250828203905081811115613233576132326130d6565b5b92915050565b5f81519050919050565b5f82825260208201905092915050565b5f61325d82613239565b6132678185613243565b9350613277818560208601611fda565b61328081611fe8565b840191505092915050565b5f60808201905061329e5f830187612302565b6132ab6020830186612302565b6132b86040830185612212565b81810360608301526132ca8184613253565b905095945050505050565b5f7fffffffff0000000000000000000000000000000000000000000000000000000082169050919050565b613309816132d5565b8114613313575f5ffd5b50565b5f8151905061332481613300565b92915050565b5f6020828403121561333f5761333e612050565b5b5f61334c84828501613316565b91505092915050565b7f5472616e7366657220746f206e6f6e20455243373231526563656976657200005f82015250565b5f613389601e83611fca565b915061339482613355565b602082019050919050565b5f6020820190508181035f8301526133b68161337d565b9050919050565b7f45524337323152656365697665722072656a656374656420746f6b656e7300005f82015250565b5f6133f1601e83611fca565b91506133fc826133bd565b602082019050919050565b5f6020820190508181035f83015261341e816133e5565b905091905056fea2646970667358221220707dd5cbbca38d877ce8708484ee4f61314c848fc2fdfbafedbcbde4b155285064736f6c634300081e0033",
					"opcodes": "PUSH1 0x80 PUSH1 0x40 MSTORE CALLVALUE DUP1 ISZERO PUSH2 0xF JUMPI PUSH0 PUSH0 REVERT JUMPDEST POP PUSH1 0x40 MLOAD PUSH2 0x39B1 CODESIZE SUB DUP1 PUSH2 0x39B1 DUP4 CODECOPY DUP2 DUP2 ADD PUSH1 0x40 MSTORE DUP2 ADD SWAP1 PUSH2 0x31 SWAP2 SWAP1 PUSH2 0x212 JUMP JUMPDEST PUSH1 0x40 MLOAD DUP1 PUSH1 0x40 ADD PUSH1 0x40 MSTORE DUP1 PUSH1 0x11 DUP2 MSTORE PUSH1 0x20 ADD PUSH32 0x4B656E79614C616E645265676973747279000000000000000000000000000000 DUP2 MSTORE POP PUSH1 0x40 MLOAD DUP1 PUSH1 0x40 ADD PUSH1 0x40 MSTORE DUP1 PUSH1 0x3 DUP2 MSTORE PUSH1 0x20 ADD PUSH32 0x4B4C520000000000000000000000000000000000000000000000000000000000 DUP2 MSTORE POP DUP2 PUSH0 SWAP1 DUP2 PUSH2 0xAB SWAP2 SWAP1 PUSH2 0x47A JUMP JUMPDEST POP DUP1 PUSH1 0x1 SWAP1 DUP2 PUSH2 0xBB SWAP2 SWAP1 PUSH2 0x47A JUMP JUMPDEST POP POP POP PUSH2 0xD0 PUSH0 PUSH0 SHL DUP3 PUSH2 0x106 PUSH1 0x20 SHL PUSH1 0x20 SHR JUMP JUMPDEST PUSH2 0x100 PUSH32 0xEDCC084D3DCD65A1F7F23C65C46722FACA6953D28E43150A467CF43E5C309238 DUP3 PUSH2 0x106 PUSH1 0x20 SHL PUSH1 0x20 SHR JUMP JUMPDEST POP PUSH2 0x549 JUMP JUMPDEST PUSH1 0x1 PUSH1 0x4 PUSH0 DUP5 DUP2 MSTORE PUSH1 0x20 ADD SWAP1 DUP2 MSTORE PUSH1 0x20 ADD PUSH0 KECCAK256 PUSH0 ADD PUSH0 DUP4 PUSH20 0xFFFFFFFFFFFFFFFFFFFFFFFFFFFFFFFFFFFFFFFF AND PUSH20 0xFFFFFFFFFFFFFFFFFFFFFFFFFFFFFFFFFFFFFFFF AND DUP2 MSTORE PUSH1 0x20 ADD SWAP1 DUP2 MSTORE PUSH1 0x20 ADD PUSH0 KECCAK256 PUSH0 PUSH2 0x100 EXP DUP2 SLOAD DUP2 PUSH1 0xFF MUL NOT AND SWAP1 DUP4 ISZERO ISZERO MUL OR SWAP1 SSTORE POP DUP1 PUSH20 0xFFFFFFFFFFFFFFFFFFFFFFFFFFFFFFFFFFFFFFFF AND DUP3 PUSH32 0x2AE6A113C0ED5B78A53413FFBB7679881F11145CCFBA4FB92E863DFCD5A1D2F3 PUSH1 0x40 MLOAD PUSH1 0x40 MLOAD DUP1 SWAP2 SUB SWAP1 LOG3 POP POP JUMP JUMPDEST PUSH0 PUSH0 REVERT JUMPDEST PUSH0 PUSH20 0xFFFFFFFFFFFFFFFFFFFFFFFFFFFFFFFFFFFFFFFF DUP3 AND SWAP1 POP SWAP2 SWAP1 POP JUMP JUMPDEST PUSH0 PUSH2 0x1E1 DUP3 PUSH2 0x1B8 JUMP JUMPDEST SWAP1 POP SWAP2 SWAP1 POP JUMP JUMPDEST PUSH2 0x1F1 DUP2 PUSH2 0x1D7 JUMP JUMPDEST DUP2 EQ PUSH2 0x1FB JUMPI PUSH0 PUSH0 REVERT JUMPDEST POP JUMP JUMPDEST PUSH0 DUP2 MLOAD SWAP1 POP PUSH2 0x20C DUP2 PUSH2 0x1E8 JUMP JUMPDEST SWAP3 SWAP2 POP POP JUMP JUMPDEST PUSH0 PUSH1 0x20 DUP3 DUP5 SUB SLT ISZERO PUSH2 0x227 JUMPI PUSH2 0x226 PUSH2 0x1B4 JUMP JUMPDEST JUMPDEST PUSH0 PUSH2 0x234 DUP5 DUP3 DUP6 ADD PUSH2 0x1FE JUMP JUMPDEST SWAP2 POP POP SWAP3 SWAP2 POP POP JUMP JUMPDEST PUSH0 DUP2 MLOAD SWAP1 POP SWAP2 SWAP1 POP JUMP JUMPDEST PUSH32 0x4E487B7100000000000000000000000000000000000000000000000000000000 PUSH0 MSTORE PUSH1 0x41 PUSH1 0x4 MSTORE PUSH1 0x24 PUSH0 REVERT JUMPDEST PUSH32 0x4E487B7100000000000000000000000000000000000000000000000000000000 PUSH0 MSTORE PUSH1 0x22 PUSH1 0x4 MSTORE PUSH1 0x24 PUSH0 REVERT JUMPDEST PUSH0 PUSH1 0x2 DUP3 DIV SWAP1 POP PUSH1 0x1 DUP3 AND DUP1 PUSH2 0x2B8 JUMPI PUSH1 0x7F DUP3 AND SWAP2 POP JUMPDEST PUSH1 0x20 DUP3 LT DUP2 SUB PUSH2 0x2CB JUMPI PUSH2 0x2CA PUSH2 0x274 JUMP JUMPDEST JUMPDEST POP SWAP2 SWAP1 POP JUMP JUMPDEST PUSH0 DUP2 SWAP1 POP DUP2 PUSH0 MSTORE PUSH1 0x20 PUSH0 KECCAK256 SWAP1 POP SWAP2 SWAP1 POP JUMP JUMPDEST PUSH0 PUSH1 0x20 PUSH1 0x1F DUP4 ADD DIV SWAP1 POP SWAP2 SWAP1 POP JUMP JUMPDEST PUSH0 DUP3 DUP3 SHL SWAP1 POP SWAP3 SWAP2 POP POP JUMP JUMPDEST PUSH0 PUSH1 0x8 DUP4 MUL PUSH2 0x32D PUSH32 0xFFFFFFFFFFFFFFFFFFFFFFFFFFFFFFFFFFFFFFFFFFFFFFFFFFFFFFFFFFFFFFFF DUP3 PUSH2 0x2F2 JUMP JUMPDEST PUSH2 0x337 DUP7 DUP4 PUSH2 0x2F2 JUMP JUMPDEST SWAP6 POP DUP1 NOT DUP5 AND SWAP4 POP DUP1 DUP7 AND DUP5 OR SWAP3 POP POP POP SWAP4 SWAP3 POP POP POP JUMP JUMPDEST PUSH0 DUP2 SWAP1 POP SWAP2 SWAP1 POP JUMP JUMPDEST PUSH0 DUP2 SWAP1 POP SWAP2 SWAP1 POP JUMP JUMPDEST PUSH0 PUSH2 0x37B PUSH2 0x376 PUSH2 0x371 DUP5 PUSH2 0x34F JUMP JUMPDEST PUSH2 0x358 JUMP JUMPDEST PUSH2 0x34F JUMP JUMPDEST SWAP1 POP SWAP2 SWAP1 POP JUMP JUMPDEST PUSH0 DUP2 SWAP1 POP SWAP2 SWAP1 POP JUMP JUMPDEST PUSH2 0x394 DUP4 PUSH2 0x361 JUMP JUMPDEST PUSH2 0x3A8 PUSH2 0x3A0 DUP3 PUSH2 0x382 JUMP JUMPDEST DUP5 DUP5 SLOAD PUSH2 0x2FE JUMP JUMPDEST DUP3 SSTORE POP POP POP POP JUMP JUMPDEST PUSH0 PUSH0 SWAP1 POP SWAP1 JUMP JUMPDEST PUSH2 0x3BF PUSH2 0x3B0 JUMP JUMPDEST PUSH2 0x3CA DUP2 DUP5 DUP5 PUSH2 0x38B JUMP JUMPDEST POP POP POP JUMP JUMPDEST JUMPDEST DUP2 DUP2 LT ISZERO PUSH2 0x3ED JUMPI PUSH2 0x3E2 PUSH0 DUP3 PUSH2 0x3B7 JUMP JUMPDEST PUSH1 0x1 DUP2 ADD SWAP1 POP PUSH2 0x3D0 JUMP JUMPDEST POP POP JUMP JUMPDEST PUSH1 0x1F DUP3 GT ISZERO PUSH2 0x432 JUMPI PUSH2 0x403 DUP2 PUSH2 0x2D1 JUMP JUMPDEST PUSH2 0x40C DUP5 PUSH2 0x2E3 JUMP JUMPDEST DUP2 ADD PUSH1 0x20 DUP6 LT ISZERO PUSH2 0x41B JUMPI DUP2 SWAP1 POP JUMPDEST PUSH2 0x42F PUSH2 0x427 DUP6 PUSH2 0x2E3 JUMP JUMPDEST DUP4 ADD DUP3 PUSH2 0x3CF JUMP JUMPDEST POP POP JUMPDEST POP POP POP JUMP JUMPDEST PUSH0 DUP3 DUP3 SHR SWAP1 POP SWAP3 SWAP2 POP POP JUMP JUMPDEST PUSH0 PUSH2 0x452 PUSH0 NOT DUP5 PUSH1 0x8 MUL PUSH2 0x437 JUMP JUMPDEST NOT DUP1 DUP4 AND SWAP2 POP POP SWAP3 SWAP2 POP POP JUMP JUMPDEST PUSH0 PUSH2 0x46A DUP4 DUP4 PUSH2 0x443 JUMP JUMPDEST SWAP2 POP DUP3 PUSH1 0x2 MUL DUP3 OR SWAP1 POP SWAP3 SWAP2 POP POP JUMP JUMPDEST PUSH2 0x483 DUP3 PUSH2 0x23D JUMP JUMPDEST PUSH8 0xFFFFFFFFFFFFFFFF DUP2 GT ISZERO PUSH2 0x49C JUMPI PUSH2 0x49B PUSH2 0x247 JUMP JUMPDEST JUMPDEST PUSH2 0x4A6 DUP3 SLOAD PUSH2 0x2A1 JUMP JUMPDEST PUSH2 0x4B1 DUP3 DUP3 DUP6 PUSH2 0x3F1 JUMP JUMPDEST PUSH0 PUSH1 0x20 SWAP1 POP PUSH1 0x1F DUP4 GT PUSH1 0x1 DUP2 EQ PUSH2 0x4E2 JUMPI PUSH0 DUP5 ISZERO PUSH2 0x4D0 JUMPI DUP3 DUP8 ADD MLOAD SWAP1 POP JUMPDEST PUSH2 0x4DA DUP6 DUP3 PUSH2 0x45F JUMP JUMPDEST DUP7 SSTORE POP PUSH2 0x541 JUMP JUMPDEST PUSH1 0x1F NOT DUP5 AND PUSH2 0x4F0 DUP7 PUSH2 0x2D1 JUMP JUMPDEST PUSH0 JUMPDEST DUP3 DUP2 LT ISZERO PUSH2 0x517 JUMPI DUP5 DUP10 ADD MLOAD DUP3 SSTORE PUSH1 0x1 DUP3 ADD SWAP2 POP PUSH1 0x20 DUP6 ADD SWAP5 POP PUSH1 0x20 DUP2 ADD SWAP1 POP PUSH2 0x4F2 JUMP JUMPDEST DUP7 DUP4 LT ISZERO PUSH2 0x534 JUMPI DUP5 DUP10 ADD MLOAD PUSH2 0x530 PUSH1 0x1F DUP10 AND DUP3 PUSH2 0x443 JUMP JUMPDEST DUP4 SSTORE POP JUMPDEST PUSH1 0x1 PUSH1 0x2 DUP9 MUL ADD DUP9 SSTORE POP POP POP JUMPDEST POP POP POP POP POP POP JUMP JUMPDEST PUSH2 0x345B DUP1 PUSH2 0x556 PUSH0 CODECOPY PUSH0 RETURN INVALID PUSH1 0x80 PUSH1 0x40 MSTORE CALLVALUE DUP1 ISZERO PUSH2 0xF JUMPI PUSH0 PUSH0 REVERT JUMPDEST POP PUSH1 0x4 CALLDATASIZE LT PUSH2 0x114 JUMPI PUSH0 CALLDATALOAD PUSH1 0xE0 SHR DUP1 PUSH4 0x95D89B41 GT PUSH2 0xA0 JUMPI DUP1 PUSH4 0xAF92A693 GT PUSH2 0x6F JUMPI DUP1 PUSH4 0xAF92A693 EQ PUSH2 0x320 JUMPI DUP1 PUSH4 0xB9238FB3 EQ PUSH2 0x33C JUMPI DUP1 PUSH4 0xBA904EED EQ PUSH2 0x358 JUMPI DUP1 PUSH4 0xBDCA2F67 EQ PUSH2 0x374 JUMPI DUP1 PUSH4 0xF68E9553 EQ PUSH2 0x3A4 JUMPI PUSH2 0x114 JUMP JUMPDEST DUP1 PUSH4 0x95D89B41 EQ PUSH2 0x293 JUMPI DUP1 PUSH4 0xA0FA8EDE EQ PUSH2 0x2B1 JUMPI DUP1 PUSH4 0xA217FDDF EQ PUSH2 0x2E6 JUMPI DUP1 PUSH4 0xA3384F83 EQ PUSH2 0x304 JUMPI PUSH2 0x114 JUMP JUMPDEST DUP1 PUSH4 0x6352211E GT PUSH2 0xE7 JUMPI DUP1 PUSH4 0x6352211E EQ PUSH2 0x1B7 JUMPI DUP1 PUSH4 0x6B5B94F3 EQ PUSH2 0x1E7 JUMPI DUP1 PUSH4 0x70A08231 EQ PUSH2 0x203 JUMPI DUP1 PUSH4 0x7AD00F60 EQ PUSH2 0x233 JUMPI DUP1 PUSH4 0x91D14854 EQ PUSH2 0x263 JUMPI PUSH2 0x114 JUMP JUMPDEST DUP1 PUSH4 0x6FDDE03 EQ PUSH2 0x118 JUMPI DUP1 PUSH4 0x22BDFD0E EQ PUSH2 0x136 JUMPI DUP1 PUSH4 0x4D0434F2 EQ PUSH2 0x166 JUMPI DUP1 PUSH4 0x4F1C4B84 EQ PUSH2 0x19B JUMPI JUMPDEST PUSH0 PUSH0 REVERT JUMPDEST PUSH2 0x120 PUSH2 0x3C2 JUMP JUMPDEST PUSH1 0x40 MLOAD PUSH2 0x12D SWAP2 SWAP1 PUSH2 0x2030 JUMP JUMPDEST PUSH1 0x40 MLOAD DUP1 SWAP2 SUB SWAP1 RETURN JUMPDEST PUSH2 0x150 PUSH1 0x4 DUP1 CALLDATASIZE SUB DUP2 ADD SWAP1 PUSH2 0x14B SWAP2 SWAP1 PUSH2 0x2113 JUMP JUMPDEST PUSH2 0x44D JUMP JUMPDEST PUSH1 0x40 MLOAD PUSH2 0x15D SWAP2 SWAP1 PUSH2 0x2221 JUMP JUMPDEST PUSH1 0x40 MLOAD DUP1 SWAP2 SUB SWAP1 RETURN JUMPDEST PUSH2 0x180 PUSH1 0x4 DUP1 CALLDATASIZE SUB DUP2 ADD SWAP1 PUSH2 0x17B SWAP2 SWAP1 PUSH2 0x2264 JUMP JUMPDEST PUSH2 0x7DF JUMP JUMPDEST PUSH1 0x40 MLOAD PUSH2 0x192 SWAP7 SWAP6 SWAP5 SWAP4 SWAP3 SWAP2 SWAP1 PUSH2 0x2311 JUMP JUMPDEST PUSH1 0x40 MLOAD DUP1 SWAP2 SUB SWAP1 RETURN JUMPDEST PUSH2 0x1B5 PUSH1 0x4 DUP1 CALLDATASIZE SUB DUP2 ADD SWAP1 PUSH2 0x1B0 SWAP2 SWAP1 PUSH2 0x2385 JUMP JUMPDEST PUSH2 0xB08 JUMP JUMPDEST STOP JUMPDEST PUSH2 0x1D1 PUSH1 0x4 DUP1 CALLDATASIZE SUB DUP2 ADD SWAP1 PUSH2 0x1CC SWAP2 SWAP1 PUSH2 0x2264 JUMP JUMPDEST PUSH2 0xD35 JUMP JUMPDEST PUSH1 0x40 MLOAD PUSH2 0x1DE SWAP2 SWAP1 PUSH2 0x23C3 JUMP JUMPDEST PUSH1 0x40 MLOAD DUP1 SWAP2 SUB SWAP1 RETURN JUMPDEST PUSH2 0x201 PUSH1 0x4 DUP1 CALLDATASIZE SUB DUP2 ADD SWAP1 PUSH2 0x1FC SWAP2 SWAP1 PUSH2 0x23DC JUMP JUMPDEST PUSH2 0xDE1 JUMP JUMPDEST STOP JUMPDEST PUSH2 0x21D PUSH1 0x4 DUP1 CALLDATASIZE SUB DUP2 ADD SWAP1 PUSH2 0x218 SWAP2 SWAP1 PUSH2 0x246D JUMP JUMPDEST PUSH2 0xEEE JUMP JUMPDEST PUSH1 0x40 MLOAD PUSH2 0x22A SWAP2 SWAP1 PUSH2 0x2221 JUMP JUMPDEST PUSH1 0x40 MLOAD DUP1 SWAP2 SUB SWAP1 RETURN JUMPDEST PUSH2 0x24D PUSH1 0x4 DUP1 CALLDATASIZE SUB DUP2 ADD SWAP1 PUSH2 0x248 SWAP2 SWAP1 PUSH2 0x2498 JUMP JUMPDEST PUSH2 0xFA2 JUMP JUMPDEST PUSH1 0x40 MLOAD PUSH2 0x25A SWAP2 SWAP1 PUSH2 0x2030 JUMP JUMPDEST PUSH1 0x40 MLOAD DUP1 SWAP2 SUB SWAP1 RETURN JUMPDEST PUSH2 0x27D PUSH1 0x4 DUP1 CALLDATASIZE SUB DUP2 ADD SWAP1 PUSH2 0x278 SWAP2 SWAP1 PUSH2 0x2509 JUMP JUMPDEST PUSH2 0x1053 JUMP JUMPDEST PUSH1 0x40 MLOAD PUSH2 0x28A SWAP2 SWAP1 PUSH2 0x2561 JUMP JUMPDEST PUSH1 0x40 MLOAD DUP1 SWAP2 SUB SWAP1 RETURN JUMPDEST PUSH2 0x29B PUSH2 0x10B7 JUMP JUMPDEST PUSH1 0x40 MLOAD PUSH2 0x2A8 SWAP2 SWAP1 PUSH2 0x2030 JUMP JUMPDEST PUSH1 0x40 MLOAD DUP1 SWAP2 SUB SWAP1 RETURN JUMPDEST PUSH2 0x2CB PUSH1 0x4 DUP1 CALLDATASIZE SUB DUP2 ADD SWAP1 PUSH2 0x2C6 SWAP2 SWAP1 PUSH2 0x2264 JUMP JUMPDEST PUSH2 0x1143 JUMP JUMPDEST PUSH1 0x40 MLOAD PUSH2 0x2DD SWAP7 SWAP6 SWAP5 SWAP4 SWAP3 SWAP2 SWAP1 PUSH2 0x257A JUMP JUMPDEST PUSH1 0x40 MLOAD DUP1 SWAP2 SUB SWAP1 RETURN JUMPDEST PUSH2 0x2EE PUSH2 0x139F JUMP JUMPDEST PUSH1 0x40 MLOAD PUSH2 0x2FB SWAP2 SWAP1 PUSH2 0x2604 JUMP JUMPDEST PUSH1 0x40 MLOAD DUP1 SWAP2 SUB SWAP1 RETURN JUMPDEST PUSH2 0x31E PUSH1 0x4 DUP1 CALLDATASIZE SUB DUP2 ADD SWAP1 PUSH2 0x319 SWAP2 SWAP1 PUSH2 0x261D JUMP JUMPDEST PUSH2 0x13A5 JUMP JUMPDEST STOP JUMPDEST PUSH2 0x33A PUSH1 0x4 DUP1 CALLDATASIZE SUB DUP2 ADD SWAP1 PUSH2 0x335 SWAP2 SWAP1 PUSH2 0x246D JUMP JUMPDEST PUSH2 0x14DF JUMP JUMPDEST STOP JUMPDEST PUSH2 0x356 PUSH1 0x4 DUP1 CALLDATASIZE SUB DUP2 ADD SWAP1 PUSH2 0x351 SWAP2 SWAP1 PUSH2 0x269D JUMP JUMPDEST PUSH2 0x1559 JUMP JUMPDEST STOP JUMPDEST PUSH2 0x372 PUSH1 0x4 DUP1 CALLDATASIZE SUB DUP2 ADD SWAP1 PUSH2 0x36D SWAP2 SWAP1 PUSH2 0x246D JUMP JUMPDEST PUSH2 0x1687 JUMP JUMPDEST STOP JUMPDEST PUSH2 0x38E PUSH1 0x4 DUP1 CALLDATASIZE SUB DUP2 ADD SWAP1 PUSH2 0x389 SWAP2 SWAP1 PUSH2 0x2264 JUMP JUMPDEST PUSH2 0x1701 JUMP JUMPDEST PUSH1 0x40 MLOAD PUSH2 0x39B SWAP2 SWAP1 PUSH2 0x2811 JUMP JUMPDEST PUSH1 0x40 MLOAD DUP1 SWAP2 SUB SWAP1 RETURN JUMPDEST PUSH2 0x3AC PUSH2 0x182E JUMP JUMPDEST PUSH1 0x40 MLOAD PUSH2 0x3B9 SWAP2 SWAP1 PUSH2 0x2604 JUMP JUMPDEST PUSH1 0x40 MLOAD DUP1 SWAP2 SUB SWAP1 RETURN JUMPDEST PUSH0 DUP1 SLOAD PUSH2 0x3CE SWAP1 PUSH2 0x285E JUMP JUMPDEST DUP1 PUSH1 0x1F ADD PUSH1 0x20 DUP1 SWAP2 DIV MUL PUSH1 0x20 ADD PUSH1 0x40 MLOAD SWAP1 DUP2 ADD PUSH1 0x40 MSTORE DUP1 SWAP3 SWAP2 SWAP1 DUP2 DUP2 MSTORE PUSH1 0x20 ADD DUP3 DUP1 SLOAD PUSH2 0x3FA SWAP1 PUSH2 0x285E JUMP JUMPDEST DUP1 ISZERO PUSH2 0x445 JUMPI DUP1 PUSH1 0x1F LT PUSH2 0x41C JUMPI PUSH2 0x100 DUP1 DUP4 SLOAD DIV MUL DUP4 MSTORE SWAP2 PUSH1 0x20 ADD SWAP2 PUSH2 0x445 JUMP JUMPDEST DUP3 ADD SWAP2 SWAP1 PUSH0 MSTORE PUSH1 0x20 PUSH0 KECCAK256 SWAP1 JUMPDEST DUP2 SLOAD DUP2 MSTORE SWAP1 PUSH1 0x1 ADD SWAP1 PUSH1 0x20 ADD DUP1 DUP4 GT PUSH2 0x428 JUMPI DUP3 SWAP1 SUB PUSH1 0x1F AND DUP3 ADD SWAP2 JUMPDEST POP POP POP POP POP DUP2 JUMP JUMPDEST PUSH0 PUSH2 0x478 PUSH32 0xEDCC084D3DCD65A1F7F23C65C46722FACA6953D28E43150A467CF43E5C309238 CALLER PUSH2 0x1053 JUMP JUMPDEST PUSH2 0x4B7 JUMPI PUSH1 0x40 MLOAD PUSH32 0x8C379A000000000000000000000000000000000000000000000000000000000 DUP2 MSTORE PUSH1 0x4 ADD PUSH2 0x4AE SWAP1 PUSH2 0x28D8 JUMP JUMPDEST PUSH1 0x40 MLOAD DUP1 SWAP2 SUB SWAP1 REVERT JUMPDEST PUSH0 PUSH20 0xFFFFFFFFFFFFFFFFFFFFFFFFFFFFFFFFFFFFFFFF AND DUP11 PUSH20 0xFFFFFFFFFFFFFFFFFFFFFFFFFFFFFFFFFFFFFFFF AND SUB PUSH2 0x525 JUMPI PUSH1 0x40 MLOAD PUSH32 0x8C379A000000000000000000000000000000000000000000000000000000000 DUP2 MSTORE PUSH1 0x4 ADD PUSH2 0x51C SWAP1 PUSH2 0x2940 JUMP JUMPDEST PUSH1 0x40 MLOAD DUP1 SWAP2 SUB SWAP1 REVERT JUMPDEST PUSH0 DUP10 DUP10 SWAP1 POP GT PUSH2 0x56A JUMPI PUSH1 0x40 MLOAD PUSH32 0x8C379A000000000000000000000000000000000000000000000000000000000 DUP2 MSTORE PUSH1 0x4 ADD PUSH2 0x561 SWAP1 PUSH2 0x29A8 JUMP JUMPDEST PUSH1 0x40 MLOAD DUP1 SWAP2 SUB SWAP1 REVERT JUMPDEST PUSH2 0x574 PUSH1 0x5 PUSH2 0x1852 JUMP JUMPDEST PUSH0 PUSH2 0x57F PUSH1 0x5 PUSH2 0x186F JUMP JUMPDEST SWAP1 POP PUSH2 0x58B DUP12 DUP3 PUSH2 0x187B JUMP JUMPDEST PUSH1 0x40 MLOAD DUP1 PUSH1 0xC0 ADD PUSH1 0x40 MSTORE DUP1 DUP12 DUP12 DUP1 DUP1 PUSH1 0x1F ADD PUSH1 0x20 DUP1 SWAP2 DIV MUL PUSH1 0x20 ADD PUSH1 0x40 MLOAD SWAP1 DUP2 ADD PUSH1 0x40 MSTORE DUP1 SWAP4 SWAP3 SWAP2 SWAP1 DUP2 DUP2 MSTORE PUSH1 0x20 ADD DUP4 DUP4 DUP1 DUP3 DUP5 CALLDATACOPY PUSH0 DUP2 DUP5 ADD MSTORE PUSH1 0x1F NOT PUSH1 0x1F DUP3 ADD AND SWAP1 POP DUP1 DUP4 ADD SWAP3 POP POP POP POP POP POP POP DUP2 MSTORE PUSH1 0x20 ADD DUP10 DUP10 DUP1 DUP1 PUSH1 0x1F ADD PUSH1 0x20 DUP1 SWAP2 DIV MUL PUSH1 0x20 ADD PUSH1 0x40 MLOAD SWAP1 DUP2 ADD PUSH1 0x40 MSTORE DUP1 SWAP4 SWAP3 SWAP2 SWAP1 DUP2 DUP2 MSTORE PUSH1 0x20 ADD DUP4 DUP4 DUP1 DUP3 DUP5 CALLDATACOPY PUSH0 DUP2 DUP5 ADD MSTORE PUSH1 0x1F NOT PUSH1 0x1F DUP3 ADD AND SWAP1 POP DUP1 DUP4 ADD SWAP3 POP POP POP POP POP POP POP DUP2 MSTORE PUSH1 0x20 ADD DUP8 DUP8 DUP1 DUP1 PUSH1 0x1F ADD PUSH1 0x20 DUP1 SWAP2 DIV MUL PUSH1 0x20 ADD PUSH1 0x40 MLOAD SWAP1 DUP2 ADD PUSH1 0x40 MSTORE DUP1 SWAP4 SWAP3 SWAP2 SWAP1 DUP2 DUP2 MSTORE PUSH1 0x20 ADD DUP4 DUP4 DUP1 DUP3 DUP5 CALLDATACOPY PUSH0 DUP2 DUP5 ADD MSTORE PUSH1 0x1F NOT PUSH1 0x1F DUP3 ADD AND SWAP1 POP DUP1 DUP4 ADD SWAP3 POP POP POP POP POP POP POP DUP2 MSTORE PUSH1 0x20 ADD DUP6 DUP6 DUP1 DUP1 PUSH1 0x1F ADD PUSH1 0x20 DUP1 SWAP2 DIV MUL PUSH1 0x20 ADD PUSH1 0x40 MLOAD SWAP1 DUP2 ADD PUSH1 0x40 MSTORE DUP1 SWAP4 SWAP3 SWAP2 SWAP1 DUP2 DUP2 MSTORE PUSH1 0x20 ADD DUP4 DUP4 DUP1 DUP3 DUP5 CALLDATACOPY PUSH0 DUP2 DUP5 ADD MSTORE PUSH1 0x1F NOT PUSH1 0x1F DUP3 ADD AND SWAP1 POP DUP1 DUP4 ADD SWAP3 POP POP POP POP POP POP POP DUP2 MSTORE PUSH1 0x20 ADD PUSH0 PUSH1 0x3 DUP2 GT ISZERO PUSH2 0x6CD JUMPI PUSH2 0x6CC PUSH2 0x228F JUMP JUMPDEST JUMPDEST DUP2 MSTORE PUSH1 0x20 ADD TIMESTAMP DUP2 MSTORE POP PUSH1 0x6 PUSH0 DUP4 DUP2 MSTORE PUSH1 0x20 ADD SWAP1 DUP2 MSTORE PUSH1 0x20 ADD PUSH0 KECCAK256 PUSH0 DUP3 ADD MLOAD DUP2 PUSH0 ADD SWAP1 DUP2 PUSH2 0x6FA SWAP2 SWAP1 PUSH2 0x2B93 JUMP JUMPDEST POP PUSH1 0x20 DUP3 ADD MLOAD DUP2 PUSH1 0x1 ADD SWAP1 DUP2 PUSH2 0x710 SWAP2 SWAP1 PUSH2 0x2B93 JUMP JUMPDEST POP PUSH1 0x40 DUP3 ADD MLOAD DUP2 PUSH1 0x2 ADD SWAP1 DUP2 PUSH2 0x726 SWAP2 SWAP1 PUSH2 0x2B93 JUMP JUMPDEST POP PUSH1 0x60 DUP3 ADD MLOAD DUP2 PUSH1 0x3 ADD SWAP1 DUP2 PUSH2 0x73C SWAP2 SWAP1 PUSH2 0x2B93 JUMP JUMPDEST POP PUSH1 0x80 DUP3 ADD MLOAD DUP2 PUSH1 0x4 ADD PUSH0 PUSH2 0x100 EXP DUP2 SLOAD DUP2 PUSH1 0xFF MUL NOT AND SWAP1 DUP4 PUSH1 0x3 DUP2 GT ISZERO PUSH2 0x767 JUMPI PUSH2 0x766 PUSH2 0x228F JUMP JUMPDEST JUMPDEST MUL OR SWAP1 SSTORE POP PUSH1 0xA0 DUP3 ADD MLOAD DUP2 PUSH1 0x5 ADD SSTORE SWAP1 POP POP DUP11 PUSH20 0xFFFFFFFFFFFFFFFFFFFFFFFFFFFFFFFFFFFFFFFF AND DUP2 PUSH32 0x2C9480C346DF503F2F99E98B4234DFBFADA212344A74D353E63500CEB9B7C19F DUP13 DUP13 DUP13 DUP13 PUSH1 0x40 MLOAD PUSH2 0x7C6 SWAP5 SWAP4 SWAP3 SWAP2 SWAP1 PUSH2 0x2C9C JUMP JUMPDEST PUSH1 0x40 MLOAD DUP1 SWAP2 SUB SWAP1 LOG3 DUP1 SWAP2 POP POP SWAP10 SWAP9 POP POP POP POP POP POP POP POP POP JUMP JUMPDEST PUSH1 0x60 DUP1 PUSH1 0x60 PUSH0 PUSH0 PUSH0 PUSH2 0x7F0 DUP8 PUSH2 0x1A4E JUMP JUMPDEST PUSH2 0x82F JUMPI PUSH1 0x40 MLOAD PUSH32 0x8C379A000000000000000000000000000000000000000000000000000000000 DUP2 MSTORE PUSH1 0x4 ADD PUSH2 0x826 SWAP1 PUSH2 0x2D1F JUMP JUMPDEST PUSH1 0x40 MLOAD DUP1 SWAP2 SUB SWAP1 REVERT JUMPDEST PUSH0 PUSH1 0x6 PUSH0 DUP10 DUP2 MSTORE PUSH1 0x20 ADD SWAP1 DUP2 MSTORE PUSH1 0x20 ADD PUSH0 KECCAK256 PUSH1 0x40 MLOAD DUP1 PUSH1 0xC0 ADD PUSH1 0x40 MSTORE SWAP1 DUP2 PUSH0 DUP3 ADD DUP1 SLOAD PUSH2 0x85B SWAP1 PUSH2 0x285E JUMP JUMPDEST DUP1 PUSH1 0x1F ADD PUSH1 0x20 DUP1 SWAP2 DIV MUL PUSH1 0x20 ADD PUSH1 0x40 MLOAD SWAP1 DUP2 ADD PUSH1 0x40 MSTORE DUP1 SWAP3 SWAP2 SWAP1 DUP2 DUP2 MSTORE PUSH1 0x20 ADD DUP3 DUP1 SLOAD PUSH2 0x887 SWAP1 PUSH2 0x285E JUMP JUMPDEST DUP1 ISZERO PUSH2 0x8D2 JUMPI DUP1 PUSH1 0x1F LT PUSH2 0x8A9 JUMPI PUSH2 0x100 DUP1 DUP4 SLOAD DIV MUL DUP4 MSTORE SWAP2 PUSH1 0x20 ADD SWAP2 PUSH2 0x8D2 JUMP JUMPDEST DUP3 ADD SWAP2 SWAP1 PUSH0 MSTORE PUSH1 0x20 PUSH0 KECCAK256 SWAP1 JUMPDEST DUP2 SLOAD DUP2 MSTORE SWAP1 PUSH1 0x1 ADD SWAP1 PUSH1 0x20 ADD DUP1 DUP4 GT PUSH2 0x8B5 JUMPI DUP3 SWAP1 SUB PUSH1 0x1F AND DUP3 ADD SWAP2 JUMPDEST POP POP POP POP POP DUP2 MSTORE PUSH1 0x20 ADD PUSH1 0x1 DUP3 ADD DUP1 SLOAD PUSH2 0x8EB SWAP1 PUSH2 0x285E JUMP JUMPDEST DUP1 PUSH1 0x1F ADD PUSH1 0x20 DUP1 SWAP2 DIV MUL PUSH1 0x20 ADD PUSH1 0x40 MLOAD SWAP1 DUP2 ADD PUSH1 0x40 MSTORE DUP1 SWAP3 SWAP2 SWAP1 DUP2 DUP2 MSTORE PUSH1 0x20 ADD DUP3 DUP1 SLOAD PUSH2 0x917 SWAP1 PUSH2 0x285E JUMP JUMPDEST DUP1 ISZERO PUSH2 0x962 JUMPI DUP1 PUSH1 0x1F LT PUSH2 0x939 JUMPI PUSH2 0x100 DUP1 DUP4 SLOAD DIV MUL DUP4 MSTORE SWAP2 PUSH1 0x20 ADD SWAP2 PUSH2 0x962 JUMP JUMPDEST DUP3 ADD SWAP2 SWAP1 PUSH0 MSTORE PUSH1 0x20 PUSH0 KECCAK256 SWAP1 JUMPDEST DUP2 SLOAD DUP2 MSTORE SWAP1 PUSH1 0x1 ADD SWAP1 PUSH1 0x20 ADD DUP1 DUP4 GT PUSH2 0x945 JUMPI DUP3 SWAP1 SUB PUSH1 0x1F AND DUP3 ADD SWAP2 JUMPDEST POP POP POP POP POP DUP2 MSTORE PUSH1 0x20 ADD PUSH1 0x2 DUP3 ADD DUP1 SLOAD PUSH2 0x97B SWAP1 PUSH2 0x285E JUMP JUMPDEST DUP1 PUSH1 0x1F ADD PUSH1 0x20 DUP1 SWAP2 DIV MUL PUSH1 0x20 ADD PUSH1 0x40 MLOAD SWAP1 DUP2 ADD PUSH1 0x40 MSTORE DUP1 SWAP3 SWAP2 SWAP1 DUP2 DUP2 MSTORE PUSH1 0x20 ADD DUP3 DUP1 SLOAD PUSH2 0x9A7 SWAP1 PUSH2 0x285E JUMP JUMPDEST DUP1 ISZERO PUSH2 0x9F2 JUMPI DUP1 PUSH1 0x1F LT PUSH2 0x9C9 JUMPI PUSH2 0x100 DUP1 DUP4 SLOAD DIV MUL DUP4 MSTORE SWAP2 PUSH1 0x20 ADD SWAP2 PUSH2 0x9F2 JUMP JUMPDEST DUP3 ADD SWAP2 SWAP1 PUSH0 MSTORE PUSH1 0x20 PUSH0 KECCAK256 SWAP1 JUMPDEST DUP2 SLOAD DUP2 MSTORE SWAP1 PUSH1 0x1 ADD SWAP1 PUSH1 0x20 ADD DUP1 DUP4 GT PUSH2 0x9D5 JUMPI DUP3 SWAP1 SUB PUSH1 0x1F AND DUP3 ADD SWAP2 JUMPDEST POP POP POP POP POP DUP2 MSTORE PUSH1 0x20 ADD PUSH1 0x3 DUP3 ADD DUP1 SLOAD PUSH2 0xA0B SWAP1 PUSH2 0x285E JUMP JUMPDEST DUP1 PUSH1 0x1F ADD PUSH1 0x20 DUP1 SWAP2 DIV MUL PUSH1 0x20 ADD PUSH1 0x40 MLOAD SWAP1 DUP2 ADD PUSH1 0x40 MSTORE DUP1 SWAP3 SWAP2 SWAP1 DUP2 DUP2 MSTORE PUSH1 0x20 ADD DUP3 DUP1 SLOAD PUSH2 0xA37 SWAP1 PUSH2 0x285E JUMP JUMPDEST DUP1 ISZERO PUSH2 0xA82 JUMPI DUP1 PUSH1 0x1F LT PUSH2 0xA59 JUMPI PUSH2 0x100 DUP1 DUP4 SLOAD DIV MUL DUP4 MSTORE SWAP2 PUSH1 0x20 ADD SWAP2 PUSH2 0xA82 JUMP JUMPDEST DUP3 ADD SWAP2 SWAP1 PUSH0 MSTORE PUSH1 0x20 PUSH0 KECCAK256 SWAP1 JUMPDEST DUP2 SLOAD DUP2 MSTORE SWAP1 PUSH1 0x1 ADD SWAP1 PUSH1 0x20 ADD DUP1 DUP4 GT PUSH2 0xA65 JUMPI DUP3 SWAP1 SUB PUSH1 0x1F AND DUP3 ADD SWAP2 JUMPDEST POP POP POP POP POP DUP2 MSTORE PUSH1 0x20 ADD PUSH1 0x4 DUP3 ADD PUSH0 SWAP1 SLOAD SWAP1 PUSH2 0x100 EXP SWAP1 DIV PUSH1 0xFF AND PUSH1 0x3 DUP2 GT ISZERO PUSH2 0xAAF JUMPI PUSH2 0xAAE PUSH2 0x228F JUMP JUMPDEST JUMPDEST PUSH1 0x3 DUP2 GT ISZERO PUSH2 0xAC1 JUMPI PUSH2 0xAC0 PUSH2 0x228F JUMP JUMPDEST JUMPDEST DUP2 MSTORE PUSH1 0x20 ADD PUSH1 0x5 DUP3 ADD SLOAD DUP2 MSTORE POP POP SWAP1 POP DUP1 PUSH0 ADD MLOAD DUP2 PUSH1 0x20 ADD MLOAD DUP3 PUSH1 0x40 ADD MLOAD DUP4 PUSH1 0x80 ADD MLOAD DUP5 PUSH1 0xA0 ADD MLOAD PUSH2 0xAF2 DUP14 PUSH2 0xD35 JUMP JUMPDEST SWAP7 POP SWAP7 POP SWAP7 POP SWAP7 POP SWAP7 POP SWAP7 POP POP SWAP2 SWAP4 SWAP6 POP SWAP2 SWAP4 SWAP6 JUMP JUMPDEST DUP2 PUSH2 0xB12 DUP2 PUSH2 0x1A4E JUMP JUMPDEST PUSH2 0xB51 JUMPI PUSH1 0x40 MLOAD PUSH32 0x8C379A000000000000000000000000000000000000000000000000000000000 DUP2 MSTORE PUSH1 0x4 ADD PUSH2 0xB48 SWAP1 PUSH2 0x2D1F JUMP JUMPDEST PUSH1 0x40 MLOAD DUP1 SWAP2 SUB SWAP1 REVERT JUMPDEST PUSH0 PUSH1 0x3 DUP2 GT ISZERO PUSH2 0xB64 JUMPI PUSH2 0xB63 PUSH2 0x228F JUMP JUMPDEST JUMPDEST PUSH1 0x6 PUSH0 DUP4 DUP2 MSTORE PUSH1 0x20 ADD SWAP1 DUP2 MSTORE PUSH1 0x20 ADD PUSH0 KECCAK256 PUSH1 0x4 ADD PUSH0 SWAP1 SLOAD SWAP1 PUSH2 0x100 EXP SWAP1 DIV PUSH1 0xFF AND PUSH1 0x3 DUP2 GT ISZERO PUSH2 0xB97 JUMPI PUSH2 0xB96 PUSH2 0x228F JUMP JUMPDEST JUMPDEST EQ PUSH2 0xBD7 JUMPI PUSH1 0x40 MLOAD PUSH32 0x8C379A000000000000000000000000000000000000000000000000000000000 DUP2 MSTORE PUSH1 0x4 ADD PUSH2 0xBCE SWAP1 PUSH2 0x2D87 JUMP JUMPDEST PUSH1 0x40 MLOAD DUP1 SWAP2 SUB SWAP1 REVERT JUMPDEST PUSH0 PUSH20 0xFFFFFFFFFFFFFFFFFFFFFFFFFFFFFFFFFFFFFFFF AND DUP3 PUSH20 0xFFFFFFFFFFFFFFFFFFFFFFFFFFFFFFFFFFFFFFFF AND SUB PUSH2 0xC45 JUMPI PUSH1 0x40 MLOAD PUSH32 0x8C379A000000000000000000000000000000000000000000000000000000000 DUP2 MSTORE PUSH1 0x4 ADD PUSH2 0xC3C SWAP1 PUSH2 0x2DEF JUMP JUMPDEST PUSH1 0x40 MLOAD DUP1 SWAP2 SUB SWAP1 REVERT JUMPDEST CALLER PUSH20 0xFFFFFFFFFFFFFFFFFFFFFFFFFFFFFFFFFFFFFFFF AND PUSH2 0xC65 DUP5 PUSH2 0xD35 JUMP JUMPDEST PUSH20 0xFFFFFFFFFFFFFFFFFFFFFFFFFFFFFFFFFFFFFFFF AND EQ PUSH2 0xCBB JUMPI PUSH1 0x40 MLOAD PUSH32 0x8C379A000000000000000000000000000000000000000000000000000000000 DUP2 MSTORE PUSH1 0x4 ADD PUSH2 0xCB2 SWAP1 PUSH2 0x2E57 JUMP JUMPDEST PUSH1 0x40 MLOAD DUP1 SWAP2 SUB SWAP1 REVERT JUMPDEST PUSH2 0xCD5 CALLER DUP4 DUP6 PUSH1 0x40 MLOAD DUP1 PUSH1 0x20 ADD PUSH1 0x40 MSTORE DUP1 PUSH0 DUP2 MSTORE POP PUSH2 0x1AB6 JUMP JUMPDEST DUP2 PUSH20 0xFFFFFFFFFFFFFFFFFFFFFFFFFFFFFFFFFFFFFFFF AND CALLER PUSH20 0xFFFFFFFFFFFFFFFFFFFFFFFFFFFFFFFFFFFFFFFF AND DUP5 PUSH32 0x26B9F0805D5CCECDC6D6F1F7D73613306CD67C0A244E342AA69B32799F5FF2B6 PUSH1 0x40 MLOAD PUSH1 0x40 MLOAD DUP1 SWAP2 SUB SWAP1 LOG4 POP POP POP JUMP JUMPDEST PUSH0 PUSH0 PUSH1 0x2 PUSH0 DUP5 DUP2 MSTORE PUSH1 0x20 ADD SWAP1 DUP2 MSTORE PUSH1 0x20 ADD PUSH0 KECCAK256 PUSH0 SWAP1 SLOAD SWAP1 PUSH2 0x100 EXP SWAP1 DIV PUSH20 0xFFFFFFFFFFFFFFFFFFFFFFFFFFFFFFFFFFFFFFFF AND SWAP1 POP PUSH0 PUSH20 0xFFFFFFFFFFFFFFFFFFFFFFFFFFFFFFFFFFFFFFFF AND DUP2 PUSH20 0xFFFFFFFFFFFFFFFFFFFFFFFFFFFFFFFFFFFFFFFF AND SUB PUSH2 0xDD8 JUMPI PUSH1 0x40 MLOAD PUSH32 0x8C379A000000000000000000000000000000000000000000000000000000000 DUP2 MSTORE PUSH1 0x4 ADD PUSH2 0xDCF SWAP1 PUSH2 0x2EBF JUMP JUMPDEST PUSH1 0x40 MLOAD DUP1 SWAP2 SUB SWAP1 REVERT JUMPDEST DUP1 SWAP2 POP POP SWAP2 SWAP1 POP JUMP JUMPDEST PUSH2 0xE0B PUSH32 0xEDCC084D3DCD65A1F7F23C65C46722FACA6953D28E43150A467CF43E5C309238 CALLER PUSH2 0x1053 JUMP JUMPDEST PUSH2 0xE4A JUMPI PUSH1 0x40 MLOAD PUSH32 0x8C379A000000000000000000000000000000000000000000000000000000000 DUP2 MSTORE PUSH1 0x4 ADD PUSH2 0xE41 SWAP1 PUSH2 0x28D8 JUMP JUMPDEST PUSH1 0x40 MLOAD DUP1 SWAP2 SUB SWAP1 REVERT JUMPDEST PUSH2 0xE53 DUP6 PUSH2 0x1A4E JUMP JUMPDEST PUSH2 0xE92 JUMPI PUSH1 0x40 MLOAD PUSH32 0x8C379A000000000000000000000000000000000000000000000000000000000 DUP2 MSTORE PUSH1 0x4 ADD PUSH2 0xE89 SWAP1 PUSH2 0x2D1F JUMP JUMPDEST PUSH1 0x40 MLOAD DUP1 SWAP2 SUB SWAP1 REVERT JUMPDEST PUSH0 PUSH1 0x6 PUSH0 DUP8 DUP2 MSTORE PUSH1 0x20 ADD SWAP1 DUP2 MSTORE PUSH1 0x20 ADD PUSH0 KECCAK256 SWAP1 POP PUSH0 DUP6 DUP6 SWAP1 POP GT ISZERO PUSH2 0xEC6 JUMPI DUP5 DUP5 DUP3 PUSH1 0x2 ADD SWAP2 DUP3 PUSH2 0xEC4 SWAP3 SWAP2 SWAP1 PUSH2 0x2EE7 JUMP JUMPDEST POP JUMPDEST PUSH0 DUP4 DUP4 SWAP1 POP GT ISZERO PUSH2 0xEE6 JUMPI DUP3 DUP3 DUP3 PUSH1 0x3 ADD SWAP2 DUP3 PUSH2 0xEE4 SWAP3 SWAP2 SWAP1 PUSH2 0x2EE7 JUMP JUMPDEST POP JUMPDEST POP POP POP POP POP POP JUMP JUMPDEST PUSH0 PUSH0 PUSH20 0xFFFFFFFFFFFFFFFFFFFFFFFFFFFFFFFFFFFFFFFF AND DUP3 PUSH20 0xFFFFFFFFFFFFFFFFFFFFFFFFFFFFFFFFFFFFFFFF AND SUB PUSH2 0xF5D JUMPI PUSH1 0x40 MLOAD PUSH32 0x8C379A000000000000000000000000000000000000000000000000000000000 DUP2 MSTORE PUSH1 0x4 ADD PUSH2 0xF54 SWAP1 PUSH2 0x2FFE JUMP JUMPDEST PUSH1 0x40 MLOAD DUP1 SWAP2 SUB SWAP1 REVERT JUMPDEST PUSH1 0x3 PUSH0 DUP4 PUSH20 0xFFFFFFFFFFFFFFFFFFFFFFFFFFFFFFFFFFFFFFFF AND PUSH20 0xFFFFFFFFFFFFFFFFFFFFFFFFFFFFFFFFFFFFFFFF AND DUP2 MSTORE PUSH1 0x20 ADD SWAP1 DUP2 MSTORE PUSH1 0x20 ADD PUSH0 KECCAK256 SLOAD SWAP1 POP SWAP2 SWAP1 POP JUMP JUMPDEST PUSH1 0x7 PUSH1 0x20 MSTORE DUP2 PUSH0 MSTORE PUSH1 0x40 PUSH0 KECCAK256 DUP2 DUP2 SLOAD DUP2 LT PUSH2 0xFBB JUMPI PUSH0 DUP1 REVERT JUMPDEST SWAP1 PUSH0 MSTORE PUSH1 0x20 PUSH0 KECCAK256 ADD PUSH0 SWAP2 POP SWAP2 POP POP DUP1 SLOAD PUSH2 0xFD4 SWAP1 PUSH2 0x285E JUMP JUMPDEST DUP1 PUSH1 0x1F ADD PUSH1 0x20 DUP1 SWAP2 DIV MUL PUSH1 0x20 ADD PUSH1 0x40 MLOAD SWAP1 DUP2 ADD PUSH1 0x40 MSTORE DUP1 SWAP3 SWAP2 SWAP1 DUP2 DUP2 MSTORE PUSH1 0x20 ADD DUP3 DUP1 SLOAD PUSH2 0x1000 SWAP1 PUSH2 0x285E JUMP JUMPDEST DUP1 ISZERO PUSH2 0x104B JUMPI DUP1 PUSH1 0x1F LT PUSH2 0x1022 JUMPI PUSH2 0x100 DUP1 DUP4 SLOAD DIV MUL DUP4 MSTORE SWAP2 PUSH1 0x20 ADD SWAP2 PUSH2 0x104B JUMP JUMPDEST DUP3 ADD SWAP2 SWAP1 PUSH0 MSTORE PUSH1 0x20 PUSH0 KECCAK256 SWAP1 JUMPDEST DUP2 SLOAD DUP2 MSTORE SWAP1 PUSH1 0x1 ADD SWAP1 PUSH1 0x20 ADD DUP1 DUP4 GT PUSH2 0x102E JUMPI DUP3 SWAP1 SUB PUSH1 0x1F AND DUP3 ADD SWAP2 JUMPDEST POP POP POP POP POP DUP2 JUMP JUMPDEST PUSH0 PUSH1 0x4 PUSH0 DUP5 DUP2 MSTORE PUSH1 0x20 ADD SWAP1 DUP2 MSTORE PUSH1 0x20 ADD PUSH0 KECCAK256 PUSH0 ADD PUSH0 DUP4 PUSH20 0xFFFFFFFFFFFFFFFFFFFFFFFFFFFFFFFFFFFFFFFF AND PUSH20 0xFFFFFFFFFFFFFFFFFFFFFFFFFFFFFFFFFFFFFFFF AND DUP2 MSTORE PUSH1 0x20 ADD SWAP1 DUP2 MSTORE PUSH1 0x20 ADD PUSH0 KECCAK256 PUSH0 SWAP1 SLOAD SWAP1 PUSH2 0x100 EXP SWAP1 DIV PUSH1 0xFF AND SWAP1 POP SWAP3 SWAP2 POP POP JUMP JUMPDEST PUSH1 0x1 DUP1 SLOAD PUSH2 0x10C4 SWAP1 PUSH2 0x285E JUMP JUMPDEST DUP1 PUSH1 0x1F ADD PUSH1 0x20 DUP1 SWAP2 DIV MUL PUSH1 0x20 ADD PUSH1 0x40 MLOAD SWAP1 DUP2 ADD PUSH1 0x40 MSTORE DUP1 SWAP3 SWAP2 SWAP1 DUP2 DUP2 MSTORE PUSH1 0x20 ADD DUP3 DUP1 SLOAD PUSH2 0x10F0 SWAP1 PUSH2 0x285E JUMP JUMPDEST DUP1 ISZERO PUSH2 0x113B JUMPI DUP1 PUSH1 0x1F LT PUSH2 0x1112 JUMPI PUSH2 0x100 DUP1 DUP4 SLOAD DIV MUL DUP4 MSTORE SWAP2 PUSH1 0x20 ADD SWAP2 PUSH2 0x113B JUMP JUMPDEST DUP3 ADD SWAP2 SWAP1 PUSH0 MSTORE PUSH1 0x20 PUSH0 KECCAK256 SWAP1 JUMPDEST DUP2 SLOAD DUP2 MSTORE SWAP1 PUSH1 0x1 ADD SWAP1 PUSH1 0x20 ADD DUP1 DUP4 GT PUSH2 0x111E JUMPI DUP3 SWAP1 SUB PUSH1 0x1F AND DUP3 ADD SWAP2 JUMPDEST POP POP POP POP POP DUP2 JUMP JUMPDEST PUSH1 0x6 PUSH1 0x20 MSTORE DUP1 PUSH0 MSTORE PUSH1 0x40 PUSH0 KECCAK256 PUSH0 SWAP2 POP SWAP1 POP DUP1 PUSH0 ADD DUP1 SLOAD PUSH2 0x1162 SWAP1 PUSH2 0x285E JUMP JUMPDEST DUP1 PUSH1 0x1F ADD PUSH1 0x20 DUP1 SWAP2 DIV MUL PUSH1 0x20 ADD PUSH1 0x40 MLOAD SWAP1 DUP2 ADD PUSH1 0x40 MSTORE DUP1 SWAP3 SWAP2 SWAP1 DUP2 DUP2 MSTORE PUSH1 0x20 ADD DUP3 DUP1 SLOAD PUSH2 0x118E SWAP1 PUSH2 0x285E JUMP JUMPDEST DUP1 ISZERO PUSH2 0x11D9 JUMPI DUP1 PUSH1 0x1F LT PUSH2 0x11B0 JUMPI PUSH2 0x100 DUP1 DUP4 SLOAD DIV MUL DUP4 MSTORE SWAP2 PUSH1 0x20 ADD SWAP2 PUSH2 0x11D9 JUMP JUMPDEST DUP3 ADD SWAP2 SWAP1 PUSH0 MSTORE PUSH1 0x20 PUSH0 KECCAK256 SWAP1 JUMPDEST DUP2 SLOAD DUP2 MSTORE SWAP1 PUSH1 0x1 ADD SWAP1 PUSH1 0x20 ADD DUP1 DUP4 GT PUSH2 0x11BC JUMPI DUP3 SWAP1 SUB PUSH1 0x1F AND DUP3 ADD SWAP2 JUMPDEST POP POP POP POP POP SWAP1 DUP1 PUSH1 0x1 ADD DUP1 SLOAD PUSH2 0x11EE SWAP1 PUSH2 0x285E JUMP JUMPDEST DUP1 PUSH1 0x1F ADD PUSH1 0x20 DUP1 SWAP2 DIV MUL PUSH1 0x20 ADD PUSH1 0x40 MLOAD SWAP1 DUP2 ADD PUSH1 0x40 MSTORE DUP1 SWAP3 SWAP2 SWAP1 DUP2 DUP2 MSTORE PUSH1 0x20 ADD DUP3 DUP1 SLOAD PUSH2 0x121A SWAP1 PUSH2 0x285E JUMP JUMPDEST DUP1 ISZERO PUSH2 0x1265 JUMPI DUP1 PUSH1 0x1F LT PUSH2 0x123C JUMPI PUSH2 0x100 DUP1 DUP4 SLOAD DIV MUL DUP4 MSTORE SWAP2 PUSH1 0x20 ADD SWAP2 PUSH2 0x1265 JUMP JUMPDEST DUP3 ADD SWAP2 SWAP1 PUSH0 MSTORE PUSH1 0x20 PUSH0 KECCAK256 SWAP1 JUMPDEST DUP2 SLOAD DUP2 MSTORE SWAP1 PUSH1 0x1 ADD SWAP1 PUSH1 0x20 ADD DUP1 DUP4 GT PUSH2 0x1248 JUMPI DUP3 SWAP1 SUB PUSH1 0x1F AND DUP3 ADD SWAP2 JUMPDEST POP POP POP POP POP SWAP1 DUP1 PUSH1 0x2 ADD DUP1 SLOAD PUSH2 0x127A SWAP1 PUSH2 0x285E JUMP JUMPDEST DUP1 PUSH1 0x1F ADD PUSH1 0x20 DUP1 SWAP2 DIV MUL PUSH1 0x20 ADD PUSH1 0x40 MLOAD SWAP1 DUP2 ADD PUSH1 0x40 MSTORE DUP1 SWAP3 SWAP2 SWAP1 DUP2 DUP2 MSTORE PUSH1 0x20 ADD DUP3 DUP1 SLOAD PUSH2 0x12A6 SWAP1 PUSH2 0x285E JUMP JUMPDEST DUP1 ISZERO PUSH2 0x12F1 JUMPI DUP1 PUSH1 0x1F LT PUSH2 0x12C8 JUMPI PUSH2 0x100 DUP1 DUP4 SLOAD DIV MUL DUP4 MSTORE SWAP2 PUSH1 0x20 ADD SWAP2 PUSH2 0x12F1 JUMP JUMPDEST DUP3 ADD SWAP2 SWAP1 PUSH0 MSTORE PUSH1 0x20 PUSH0 KECCAK256 SWAP1 JUMPDEST DUP2 SLOAD DUP2 MSTORE SWAP1 PUSH1 0x1 ADD SWAP1 PUSH1 0x20 ADD DUP1 DUP4 GT PUSH2 0x12D4 JUMPI DUP3 SWAP1 SUB PUSH1 0x1F AND DUP3 ADD SWAP2 JUMPDEST POP POP POP POP POP SWAP1 DUP1 PUSH1 0x3 ADD DUP1 SLOAD PUSH2 0x1306 SWAP1 PUSH2 0x285E JUMP JUMPDEST DUP1 PUSH1 0x1F ADD PUSH1 0x20 DUP1 SWAP2 DIV MUL PUSH1 0x20 ADD PUSH1 0x40 MLOAD SWAP1 DUP2 ADD PUSH1 0x40 MSTORE DUP1 SWAP3 SWAP2 SWAP1 DUP2 DUP2 MSTORE PUSH1 0x20 ADD DUP3 DUP1 SLOAD PUSH2 0x1332 SWAP1 PUSH2 0x285E JUMP JUMPDEST DUP1 ISZERO PUSH2 0x137D JUMPI DUP1 PUSH1 0x1F LT PUSH2 0x1354 JUMPI PUSH2 0x100 DUP1 DUP4 SLOAD DIV MUL DUP4 MSTORE SWAP2 PUSH1 0x20 ADD SWAP2 PUSH2 0x137D JUMP JUMPDEST DUP3 ADD SWAP2 SWAP1 PUSH0 MSTORE PUSH1 0x20 PUSH0 KECCAK256 SWAP1 JUMPDEST DUP2 SLOAD DUP2 MSTORE SWAP1 PUSH1 0x1 ADD SWAP1 PUSH1 0x20 ADD DUP1 DUP4 GT PUSH2 0x1360 JUMPI DUP3 SWAP1 SUB PUSH1 0x1F AND DUP3 ADD SWAP2 JUMPDEST POP POP POP POP POP SWAP1 DUP1 PUSH1 0x4 ADD PUSH0 SWAP1 SLOAD SWAP1 PUSH2 0x100 EXP SWAP1 DIV PUSH1 0xFF AND SWAP1 DUP1 PUSH1 0x5 ADD SLOAD SWAP1 POP DUP7 JUMP JUMPDEST PUSH0 PUSH0 SHL DUP2 JUMP JUMPDEST PUSH2 0x13CF PUSH32 0xEDCC084D3DCD65A1F7F23C65C46722FACA6953D28E43150A467CF43E5C309238 CALLER PUSH2 0x1053 JUMP JUMPDEST PUSH2 0x140E JUMPI PUSH1 0x40 MLOAD PUSH32 0x8C379A000000000000000000000000000000000000000000000000000000000 DUP2 MSTORE PUSH1 0x4 ADD PUSH2 0x1405 SWAP1 PUSH2 0x28D8 JUMP JUMPDEST PUSH1 0x40 MLOAD DUP1 SWAP2 SUB SWAP1 REVERT JUMPDEST PUSH2 0x1417 DUP4 PUSH2 0x1A4E JUMP JUMPDEST PUSH2 0x1456 JUMPI PUSH1 0x40 MLOAD PUSH32 0x8C379A000000000000000000000000000000000000000000000000000000000 DUP2 MSTORE PUSH1 0x4 ADD PUSH2 0x144D SWAP1 PUSH2 0x2D1F JUMP JUMPDEST PUSH1 0x40 MLOAD DUP1 SWAP2 SUB SWAP1 REVERT JUMPDEST PUSH1 0x7 PUSH0 DUP5 DUP2 MSTORE PUSH1 0x20 ADD SWAP1 DUP2 MSTORE PUSH1 0x20 ADD PUSH0 KECCAK256 DUP3 DUP3 SWAP1 SWAP2 DUP1 PUSH1 0x1 DUP2 SLOAD ADD DUP1 DUP3 SSTORE DUP1 SWAP2 POP POP PUSH1 0x1 SWAP1 SUB SWAP1 PUSH0 MSTORE PUSH1 0x20 PUSH0 KECCAK256 ADD PUSH0 SWAP1 SWAP2 SWAP3 SWAP1 SWAP2 SWAP3 SWAP1 SWAP2 SWAP3 SWAP1 SWAP2 SWAP3 POP SWAP2 DUP3 PUSH2 0x149F SWAP3 SWAP2 SWAP1 PUSH2 0x2EE7 JUMP JUMPDEST POP DUP3 PUSH32 0x6CAEBDCD73CBCB009FAB607CEB05AA2625597EE6A3861BEF11D3ACE03EEE65D1 DUP4 DUP4 PUSH1 0x40 MLOAD PUSH2 0x14D2 SWAP3 SWAP2 SWAP1 PUSH2 0x301C JUMP JUMPDEST PUSH1 0x40 MLOAD DUP1 SWAP2 SUB SWAP1 LOG2 POP POP POP JUMP JUMPDEST PUSH0 PUSH0 SHL PUSH2 0x14EC DUP2 CALLER PUSH2 0x1053 JUMP JUMPDEST PUSH2 0x152B JUMPI PUSH1 0x40 MLOAD PUSH32 0x8C379A000000000000000000000000000000000000000000000000000000000 DUP2 MSTORE PUSH1 0x4 ADD PUSH2 0x1522 SWAP1 PUSH2 0x3088 JUMP JUMPDEST PUSH1 0x40 MLOAD DUP1 SWAP2 SUB SWAP1 REVERT JUMPDEST PUSH2 0x1555 PUSH32 0xEDCC084D3DCD65A1F7F23C65C46722FACA6953D28E43150A467CF43E5C309238 DUP4 PUSH2 0x1CFE JUMP JUMPDEST POP POP JUMP JUMPDEST PUSH2 0x1583 PUSH32 0xEDCC084D3DCD65A1F7F23C65C46722FACA6953D28E43150A467CF43E5C309238 CALLER PUSH2 0x1053 JUMP JUMPDEST PUSH2 0x15C2 JUMPI PUSH1 0x40 MLOAD PUSH32 0x8C379A000000000000000000000000000000000000000000000000000000000 DUP2 MSTORE PUSH1 0x4 ADD PUSH2 0x15B9 SWAP1 PUSH2 0x28D8 JUMP JUMPDEST PUSH1 0x40 MLOAD DUP1 SWAP2 SUB SWAP1 REVERT JUMPDEST PUSH2 0x15CB DUP5 PUSH2 0x1A4E JUMP JUMPDEST PUSH2 0x160A JUMPI PUSH1 0x40 MLOAD PUSH32 0x8C379A000000000000000000000000000000000000000000000000000000000 DUP2 MSTORE PUSH1 0x4 ADD PUSH2 0x1601 SWAP1 PUSH2 0x2D1F JUMP JUMPDEST PUSH1 0x40 MLOAD DUP1 SWAP2 SUB SWAP1 REVERT JUMPDEST DUP3 PUSH1 0x6 PUSH0 DUP7 DUP2 MSTORE PUSH1 0x20 ADD SWAP1 DUP2 MSTORE PUSH1 0x20 ADD PUSH0 KECCAK256 PUSH1 0x4 ADD PUSH0 PUSH2 0x100 EXP DUP2 SLOAD DUP2 PUSH1 0xFF MUL NOT AND SWAP1 DUP4 PUSH1 0x3 DUP2 GT ISZERO PUSH2 0x1640 JUMPI PUSH2 0x163F PUSH2 0x228F JUMP JUMPDEST JUMPDEST MUL OR SWAP1 SSTORE POP DUP4 PUSH32 0xDF137F228C4A282196C6C7A66E306BE2B21EF02FAE4CE1480F1AB71F90C6AA5 DUP5 DUP5 DUP5 PUSH1 0x40 MLOAD PUSH2 0x1679 SWAP4 SWAP3 SWAP2 SWAP1 PUSH2 0x30A6 JUMP JUMPDEST PUSH1 0x40 MLOAD DUP1 SWAP2 SUB SWAP1 LOG2 POP POP POP POP JUMP JUMPDEST PUSH0 PUSH0 SHL PUSH2 0x1694 DUP2 CALLER PUSH2 0x1053 JUMP JUMPDEST PUSH2 0x16D3 JUMPI PUSH1 0x40 MLOAD PUSH32 0x8C379A000000000000000000000000000000000000000000000000000000000 DUP2 MSTORE PUSH1 0x4 ADD PUSH2 0x16CA SWAP1 PUSH2 0x3088 JUMP JUMPDEST PUSH1 0x40 MLOAD DUP1 SWAP2 SUB SWAP1 REVERT JUMPDEST PUSH2 0x16FD PUSH32 0xEDCC084D3DCD65A1F7F23C65C46722FACA6953D28E43150A467CF43E5C309238 DUP4 PUSH2 0x1DAC JUMP JUMPDEST POP POP JUMP JUMPDEST PUSH1 0x60 PUSH2 0x170C DUP3 PUSH2 0x1A4E JUMP JUMPDEST PUSH2 0x174B JUMPI PUSH1 0x40 MLOAD PUSH32 0x8C379A000000000000000000000000000000000000000000000000000000000 DUP2 MSTORE PUSH1 0x4 ADD PUSH2 0x1742 SWAP1 PUSH2 0x2D1F JUMP JUMPDEST PUSH1 0x40 MLOAD DUP1 SWAP2 SUB SWAP1 REVERT JUMPDEST PUSH1 0x7 PUSH0 DUP4 DUP2 MSTORE PUSH1 0x20 ADD SWAP1 DUP2 MSTORE PUSH1 0x20 ADD PUSH0 KECCAK256 DUP1 SLOAD DUP1 PUSH1 0x20 MUL PUSH1 0x20 ADD PUSH1 0x40 MLOAD SWAP1 DUP2 ADD PUSH1 0x40 MSTORE DUP1 SWAP3 SWAP2 SWAP1 DUP2 DUP2 MSTORE PUSH1 0x20 ADD PUSH0 SWAP1 JUMPDEST DUP3 DUP3 LT ISZERO PUSH2 0x1823 JUMPI DUP4 DUP3 SWAP1 PUSH0 MSTORE PUSH1 0x20 PUSH0 KECCAK256 ADD DUP1 SLOAD PUSH2 0x1798 SWAP1 PUSH2 0x285E JUMP JUMPDEST DUP1 PUSH1 0x1F ADD PUSH1 0x20 DUP1 SWAP2 DIV MUL PUSH1 0x20 ADD PUSH1 0x40 MLOAD SWAP1 DUP2 ADD PUSH1 0x40 MSTORE DUP1 SWAP3 SWAP2 SWAP1 DUP2 DUP2 MSTORE PUSH1 0x20 ADD DUP3 DUP1 SLOAD PUSH2 0x17C4 SWAP1 PUSH2 0x285E JUMP JUMPDEST DUP1 ISZERO PUSH2 0x180F JUMPI DUP1 PUSH1 0x1F LT PUSH2 0x17E6 JUMPI PUSH2 0x100 DUP1 DUP4 SLOAD DIV MUL DUP4 MSTORE SWAP2 PUSH1 0x20 ADD SWAP2 PUSH2 0x180F JUMP JUMPDEST DUP3 ADD SWAP2 SWAP1 PUSH0 MSTORE PUSH1 0x20 PUSH0 KECCAK256 SWAP1 JUMPDEST DUP2 SLOAD DUP2 MSTORE SWAP1 PUSH1 0x1 ADD SWAP1 PUSH1 0x20 ADD DUP1 DUP4 GT PUSH2 0x17F2 JUMPI DUP3 SWAP1 SUB PUSH1 0x1F AND DUP3 ADD SWAP2 JUMPDEST POP POP POP POP POP DUP2 MSTORE PUSH1 0x20 ADD SWAP1 PUSH1 0x1 ADD SWAP1 PUSH2 0x177B JUMP JUMPDEST POP POP POP POP SWAP1 POP SWAP2 SWAP1 POP JUMP JUMPDEST PUSH32 0xEDCC084D3DCD65A1F7F23C65C46722FACA6953D28E43150A467CF43E5C309238 DUP2 JUMP JUMPDEST PUSH1 0x1 DUP2 PUSH0 ADD PUSH0 DUP3 DUP3 SLOAD PUSH2 0x1865 SWAP2 SWAP1 PUSH2 0x3103 JUMP JUMPDEST SWAP3 POP POP DUP2 SWAP1 SSTORE POP POP JUMP JUMPDEST PUSH0 DUP2 PUSH0 ADD SLOAD SWAP1 POP SWAP2 SWAP1 POP JUMP JUMPDEST PUSH0 PUSH20 0xFFFFFFFFFFFFFFFFFFFFFFFFFFFFFFFFFFFFFFFF AND DUP3 PUSH20 0xFFFFFFFFFFFFFFFFFFFFFFFFFFFFFFFFFFFFFFFF AND SUB PUSH2 0x18E9 JUMPI PUSH1 0x40 MLOAD PUSH32 0x8C379A000000000000000000000000000000000000000000000000000000000 DUP2 MSTORE PUSH1 0x4 ADD PUSH2 0x18E0 SWAP1 PUSH2 0x2FFE JUMP JUMPDEST PUSH1 0x40 MLOAD DUP1 SWAP2 SUB SWAP1 REVERT JUMPDEST PUSH2 0x18F2 DUP2 PUSH2 0x1A4E JUMP JUMPDEST ISZERO PUSH2 0x1932 JUMPI PUSH1 0x40 MLOAD PUSH32 0x8C379A000000000000000000000000000000000000000000000000000000000 DUP2 MSTORE PUSH1 0x4 ADD PUSH2 0x1929 SWAP1 PUSH2 0x3180 JUMP JUMPDEST PUSH1 0x40 MLOAD DUP1 SWAP2 SUB SWAP1 REVERT JUMPDEST PUSH1 0x1 PUSH1 0x3 PUSH0 DUP5 PUSH20 0xFFFFFFFFFFFFFFFFFFFFFFFFFFFFFFFFFFFFFFFF AND PUSH20 0xFFFFFFFFFFFFFFFFFFFFFFFFFFFFFFFFFFFFFFFF AND DUP2 MSTORE PUSH1 0x20 ADD SWAP1 DUP2 MSTORE PUSH1 0x20 ADD PUSH0 KECCAK256 PUSH0 DUP3 DUP3 SLOAD PUSH2 0x197F SWAP2 SWAP1 PUSH2 0x3103 JUMP JUMPDEST SWAP3 POP POP DUP2 SWAP1 SSTORE POP DUP2 PUSH1 0x2 PUSH0 DUP4 DUP2 MSTORE PUSH1 0x20 ADD SWAP1 DUP2 MSTORE PUSH1 0x20 ADD PUSH0 KECCAK256 PUSH0 PUSH2 0x100 EXP DUP2 SLOAD DUP2 PUSH20 0xFFFFFFFFFFFFFFFFFFFFFFFFFFFFFFFFFFFFFFFF MUL NOT AND SWAP1 DUP4 PUSH20 0xFFFFFFFFFFFFFFFFFFFFFFFFFFFFFFFFFFFFFFFF AND MUL OR SWAP1 SSTORE POP DUP1 DUP3 PUSH20 0xFFFFFFFFFFFFFFFFFFFFFFFFFFFFFFFFFFFFFFFF AND PUSH0 PUSH20 0xFFFFFFFFFFFFFFFFFFFFFFFFFFFFFFFFFFFFFFFF AND PUSH32 0xDDF252AD1BE2C89B69C2B068FC378DAA952BA7F163C4A11628F55A4DF523B3EF PUSH1 0x40 MLOAD PUSH1 0x40 MLOAD DUP1 SWAP2 SUB SWAP1 LOG4 PUSH2 0x1A4A PUSH0 DUP4 DUP4 PUSH1 0x40 MLOAD DUP1 PUSH1 0x20 ADD PUSH1 0x40 MSTORE DUP1 PUSH0 DUP2 MSTORE POP PUSH2 0x1E59 JUMP JUMPDEST POP POP JUMP JUMPDEST PUSH0 PUSH0 PUSH20 0xFFFFFFFFFFFFFFFFFFFFFFFFFFFFFFFFFFFFFFFF AND PUSH1 0x2 PUSH0 DUP5 DUP2 MSTORE PUSH1 0x20 ADD SWAP1 DUP2 MSTORE PUSH1 0x20 ADD PUSH0 KECCAK256 PUSH0 SWAP1 SLOAD SWAP1 PUSH2 0x100 EXP SWAP1 DIV PUSH20 0xFFFFFFFFFFFFFFFFFFFFFFFFFFFFFFFFFFFFFFFF AND PUSH20 0xFFFFFFFFFFFFFFFFFFFFFFFFFFFFFFFFFFFFFFFF AND EQ ISZERO SWAP1 POP SWAP2 SWAP1 POP JUMP JUMPDEST DUP4 PUSH20 0xFFFFFFFFFFFFFFFFFFFFFFFFFFFFFFFFFFFFFFFF AND PUSH2 0x1AD6 DUP4 PUSH2 0xD35 JUMP JUMPDEST PUSH20 0xFFFFFFFFFFFFFFFFFFFFFFFFFFFFFFFFFFFFFFFF AND EQ PUSH2 0x1B2C JUMPI PUSH1 0x40 MLOAD PUSH32 0x8C379A000000000000000000000000000000000000000000000000000000000 DUP2 MSTORE PUSH1 0x4 ADD PUSH2 0x1B23 SWAP1 PUSH2 0x31E8 JUMP JUMPDEST PUSH1 0x40 MLOAD DUP1 SWAP2 SUB SWAP1 REVERT JUMPDEST PUSH0 PUSH20 0xFFFFFFFFFFFFFFFFFFFFFFFFFFFFFFFFFFFFFFFF AND DUP4 PUSH20 0xFFFFFFFFFFFFFFFFFFFFFFFFFFFFFFFFFFFFFFFF AND SUB PUSH2 0x1B9A JUMPI PUSH1 0x40 MLOAD PUSH32 0x8C379A000000000000000000000000000000000000000000000000000000000 DUP2 MSTORE PUSH1 0x4 ADD PUSH2 0x1B91 SWAP1 PUSH2 0x2FFE JUMP JUMPDEST PUSH1 0x40 MLOAD DUP1 SWAP2 SUB SWAP1 REVERT JUMPDEST PUSH1 0x1 PUSH1 0x3 PUSH0 DUP7 PUSH20 0xFFFFFFFFFFFFFFFFFFFFFFFFFFFFFFFFFFFFFFFF AND PUSH20 0xFFFFFFFFFFFFFFFFFFFFFFFFFFFFFFFFFFFFFFFF AND DUP2 MSTORE PUSH1 0x20 ADD SWAP1 DUP2 MSTORE PUSH1 0x20 ADD PUSH0 KECCAK256 PUSH0 DUP3 DUP3 SLOAD PUSH2 0x1BE7 SWAP2 SWAP1 PUSH2 0x3206 JUMP JUMPDEST SWAP3 POP POP DUP2 SWAP1 SSTORE POP PUSH1 0x1 PUSH1 0x3 PUSH0 DUP6 PUSH20 0xFFFFFFFFFFFFFFFFFFFFFFFFFFFFFFFFFFFFFFFF AND PUSH20 0xFFFFFFFFFFFFFFFFFFFFFFFFFFFFFFFFFFFFFFFF AND DUP2 MSTORE PUSH1 0x20 ADD SWAP1 DUP2 MSTORE PUSH1 0x20 ADD PUSH0 KECCAK256 PUSH0 DUP3 DUP3 SLOAD PUSH2 0x1C3B SWAP2 SWAP1 PUSH2 0x3103 JUMP JUMPDEST SWAP3 POP POP DUP2 SWAP1 SSTORE POP DUP3 PUSH1 0x2 PUSH0 DUP5 DUP2 MSTORE PUSH1 0x20 ADD SWAP1 DUP2 MSTORE PUSH1 0x20 ADD PUSH0 KECCAK256 PUSH0 PUSH2 0x100 EXP DUP2 SLOAD DUP2 PUSH20 0xFFFFFFFFFFFFFFFFFFFFFFFFFFFFFFFFFFFFFFFF MUL NOT AND SWAP1 DUP4 PUSH20 0xFFFFFFFFFFFFFFFFFFFFFFFFFFFFFFFFFFFFFFFF AND MUL OR SWAP1 SSTORE POP DUP2 DUP4 PUSH20 0xFFFFFFFFFFFFFFFFFFFFFFFFFFFFFFFFFFFFFFFF AND DUP6 PUSH20 0xFFFFFFFFFFFFFFFFFFFFFFFFFFFFFFFFFFFFFFFF AND PUSH32 0xDDF252AD1BE2C89B69C2B068FC378DAA952BA7F163C4A11628F55A4DF523B3EF PUSH1 0x40 MLOAD PUSH1 0x40 MLOAD DUP1 SWAP2 SUB SWAP1 LOG4 PUSH2 0x1CF8 DUP5 DUP5 DUP5 DUP5 PUSH2 0x1E59 JUMP JUMPDEST POP POP POP POP JUMP JUMPDEST PUSH1 0x1 PUSH1 0x4 PUSH0 DUP5 DUP2 MSTORE PUSH1 0x20 ADD SWAP1 DUP2 MSTORE PUSH1 0x20 ADD PUSH0 KECCAK256 PUSH0 ADD PUSH0 DUP4 PUSH20 0xFFFFFFFFFFFFFFFFFFFFFFFFFFFFFFFFFFFFFFFF AND PUSH20 0xFFFFFFFFFFFFFFFFFFFFFFFFFFFFFFFFFFFFFFFF AND DUP2 MSTORE PUSH1 0x20 ADD SWAP1 DUP2 MSTORE PUSH1 0x20 ADD PUSH0 KECCAK256 PUSH0 PUSH2 0x100 EXP DUP2 SLOAD DUP2 PUSH1 0xFF MUL NOT AND SWAP1 DUP4 ISZERO ISZERO MUL OR SWAP1 SSTORE POP DUP1 PUSH20 0xFFFFFFFFFFFFFFFFFFFFFFFFFFFFFFFFFFFFFFFF AND DUP3 PUSH32 0x2AE6A113C0ED5B78A53413FFBB7679881F11145CCFBA4FB92E863DFCD5A1D2F3 PUSH1 0x40 MLOAD PUSH1 0x40 MLOAD DUP1 SWAP2 SUB SWAP1 LOG3 POP POP JUMP JUMPDEST PUSH0 PUSH1 0x4 PUSH0 DUP5 DUP2 MSTORE PUSH1 0x20 ADD SWAP1 DUP2 MSTORE PUSH1 0x20 ADD PUSH0 KECCAK256 PUSH0 ADD PUSH0 DUP4 PUSH20 0xFFFFFFFFFFFFFFFFFFFFFFFFFFFFFFFFFFFFFFFF AND PUSH20 0xFFFFFFFFFFFFFFFFFFFFFFFFFFFFFFFFFFFFFFFF AND DUP2 MSTORE PUSH1 0x20 ADD SWAP1 DUP2 MSTORE PUSH1 0x20 ADD PUSH0 KECCAK256 PUSH0 PUSH2 0x100 EXP DUP2 SLOAD DUP2 PUSH1 0xFF MUL NOT AND SWAP1 DUP4 ISZERO ISZERO MUL OR SWAP1 SSTORE POP DUP1 PUSH20 0xFFFFFFFFFFFFFFFFFFFFFFFFFFFFFFFFFFFFFFFF AND DUP3 PUSH32 0x155AAAFB6329A2098580462DF33EC4B7441B19729B9601C5FC17AE1CF99A8A52 PUSH1 0x40 MLOAD PUSH1 0x40 MLOAD DUP1 SWAP2 SUB SWAP1 LOG3 POP POP JUMP JUMPDEST PUSH0 DUP4 PUSH20 0xFFFFFFFFFFFFFFFFFFFFFFFFFFFFFFFFFFFFFFFF AND EXTCODESIZE GT ISZERO PUSH2 0x1FBA JUMPI DUP3 PUSH20 0xFFFFFFFFFFFFFFFFFFFFFFFFFFFFFFFFFFFFFFFF AND PUSH4 0x150B7A02 CALLER DUP7 DUP6 DUP6 PUSH1 0x40 MLOAD DUP6 PUSH4 0xFFFFFFFF AND PUSH1 0xE0 SHL DUP2 MSTORE PUSH1 0x4 ADD PUSH2 0x1EB7 SWAP5 SWAP4 SWAP3 SWAP2 SWAP1 PUSH2 0x328B JUMP JUMPDEST PUSH1 0x20 PUSH1 0x40 MLOAD DUP1 DUP4 SUB DUP2 PUSH0 DUP8 GAS CALL SWAP3 POP POP POP DUP1 ISZERO PUSH2 0x1EF2 JUMPI POP PUSH1 0x40 MLOAD RETURNDATASIZE PUSH1 0x1F NOT PUSH1 0x1F DUP3 ADD AND DUP3 ADD DUP1 PUSH1 0x40 MSTORE POP DUP2 ADD SWAP1 PUSH2 0x1EEF SWAP2 SWAP1 PUSH2 0x332A JUMP JUMPDEST PUSH1 0x1 JUMPDEST PUSH2 0x1F31 JUMPI PUSH1 0x40 MLOAD PUSH32 0x8C379A000000000000000000000000000000000000000000000000000000000 DUP2 MSTORE PUSH1 0x4 ADD PUSH2 0x1F28 SWAP1 PUSH2 0x339F JUMP JUMPDEST PUSH1 0x40 MLOAD DUP1 SWAP2 SUB SWAP1 REVERT JUMPDEST PUSH4 0x150B7A02 PUSH1 0xE0 SHL PUSH28 0xFFFFFFFFFFFFFFFFFFFFFFFFFFFFFFFFFFFFFFFFFFFFFFFFFFFFFFFF NOT AND DUP2 PUSH28 0xFFFFFFFFFFFFFFFFFFFFFFFFFFFFFFFFFFFFFFFFFFFFFFFFFFFFFFFF NOT AND EQ PUSH2 0x1FB8 JUMPI PUSH1 0x40 MLOAD PUSH32 0x8C379A000000000000000000000000000000000000000000000000000000000 DUP2 MSTORE PUSH1 0x4 ADD PUSH2 0x1FAF SWAP1 PUSH2 0x3407 JUMP JUMPDEST PUSH1 0x40 MLOAD DUP1 SWAP2 SUB SWAP1 REVERT JUMPDEST POP JUMPDEST POP POP POP POP JUMP JUMPDEST PUSH0 DUP2 MLOAD SWAP1 POP SWAP2 SWAP1 POP JUMP JUMPDEST PUSH0 DUP3 DUP3 MSTORE PUSH1 0x20 DUP3 ADD SWAP1 POP SWAP3 SWAP2 POP POP JUMP JUMPDEST DUP3 DUP2 DUP4 MCOPY PUSH0 DUP4 DUP4 ADD MSTORE POP POP POP JUMP JUMPDEST PUSH0 PUSH1 0x1F NOT PUSH1 0x1F DUP4 ADD AND SWAP1 POP SWAP2 SWAP1 POP JUMP JUMPDEST PUSH0 PUSH2 0x2002 DUP3 PUSH2 0x1FC0 JUMP JUMPDEST PUSH2 0x200C DUP2 DUP6 PUSH2 0x1FCA JUMP JUMPDEST SWAP4 POP PUSH2 0x201C DUP2 DUP6 PUSH1 0x20 DUP7 ADD PUSH2 0x1FDA JUMP JUMPDEST PUSH2 0x2025 DUP2 PUSH2 0x1FE8 JUMP JUMPDEST DUP5 ADD SWAP2 POP POP SWAP3 SWAP2 POP POP JUMP JUMPDEST PUSH0 PUSH1 0x20 DUP3 ADD SWAP1 POP DUP2 DUP2 SUB PUSH0 DUP4 ADD MSTORE PUSH2 0x2048 DUP2 DUP5 PUSH2 0x1FF8 JUMP JUMPDEST SWAP1 POP SWAP3 SWAP2 POP POP JUMP JUMPDEST PUSH0 PUSH0 REVERT JUMPDEST PUSH0 PUSH0 REVERT JUMPDEST PUSH0 PUSH20 0xFFFFFFFFFFFFFFFFFFFFFFFFFFFFFFFFFFFFFFFF DUP3 AND SWAP1 POP SWAP2 SWAP1 POP JUMP JUMPDEST PUSH0 PUSH2 0x2081 DUP3 PUSH2 0x2058 JUMP JUMPDEST SWAP1 POP SWAP2 SWAP1 POP JUMP JUMPDEST PUSH2 0x2091 DUP2 PUSH2 0x2077 JUMP JUMPDEST DUP2 EQ PUSH2 0x209B JUMPI PUSH0 PUSH0 REVERT JUMPDEST POP JUMP JUMPDEST PUSH0 DUP2 CALLDATALOAD SWAP1 POP PUSH2 0x20AC DUP2 PUSH2 0x2088 JUMP JUMPDEST SWAP3 SWAP2 POP POP JUMP JUMPDEST PUSH0 PUSH0 REVERT JUMPDEST PUSH0 PUSH0 REVERT JUMPDEST PUSH0 PUSH0 REVERT JUMPDEST PUSH0 PUSH0 DUP4 PUSH1 0x1F DUP5 ADD SLT PUSH2 0x20D3 JUMPI PUSH2 0x20D2 PUSH2 0x20B2 JUMP JUMPDEST JUMPDEST DUP3 CALLDATALOAD SWAP1 POP PUSH8 0xFFFFFFFFFFFFFFFF DUP2 GT ISZERO PUSH2 0x20F0 JUMPI PUSH2 0x20EF PUSH2 0x20B6 JUMP JUMPDEST JUMPDEST PUSH1 0x20 DUP4 ADD SWAP2 POP DUP4 PUSH1 0x1 DUP3 MUL DUP4 ADD GT ISZERO PUSH2 0x210C JUMPI PUSH2 0x210B PUSH2 0x20BA JUMP JUMPDEST JUMPDEST SWAP3 POP SWAP3 SWAP1 POP JUMP JUMPDEST PUSH0 PUSH0 PUSH0 PUSH0 PUSH0 PUSH0 PUSH0 PUSH0 PUSH0 PUSH1 0xA0 DUP11 DUP13 SUB SLT ISZERO PUSH2 0x2130 JUMPI PUSH2 0x212F PUSH2 0x2050 JUMP JUMPDEST JUMPDEST PUSH0 PUSH2 0x213D DUP13 DUP3 DUP14 ADD PUSH2 0x209E JUMP JUMPDEST SWAP10 POP POP PUSH1 0x20 DUP11 ADD CALLDATALOAD PUSH8 0xFFFFFFFFFFFFFFFF DUP2 GT ISZERO PUSH2 0x215E JUMPI PUSH2 0x215D PUSH2 0x2054 JUMP JUMPDEST JUMPDEST PUSH2 0x216A DUP13 DUP3 DUP14 ADD PUSH2 0x20BE JUMP JUMPDEST SWAP9 POP SWAP9 POP POP PUSH1 0x40 DUP11 ADD CALLDATALOAD PUSH8 0xFFFFFFFFFFFFFFFF DUP2 GT ISZERO PUSH2 0x218D JUMPI PUSH2 0x218C PUSH2 0x2054 JUMP JUMPDEST JUMPDEST PUSH2 0x2199 DUP13 DUP3 DUP14 ADD PUSH2 0x20BE JUMP JUMPDEST SWAP7 POP SWAP7 POP POP PUSH1 0x60 DUP11 ADD CALLDATALOAD PUSH8 0xFFFFFFFFFFFFFFFF DUP2 GT ISZERO PUSH2 0x21BC JUMPI PUSH2 0x21BB PUSH2 0x2054 JUMP JUMPDEST JUMPDEST PUSH2 0x21C8 DUP13 DUP3 DUP14 ADD PUSH2 0x20BE JUMP JUMPDEST SWAP5 POP SWAP5 POP POP PUSH1 0x80 DUP11 ADD CALLDATALOAD PUSH8 0xFFFFFFFFFFFFFFFF DUP2 GT ISZERO PUSH2 0x21EB JUMPI PUSH2 0x21EA PUSH2 0x2054 JUMP JUMPDEST JUMPDEST PUSH2 0x21F7 DUP13 DUP3 DUP14 ADD PUSH2 0x20BE JUMP JUMPDEST SWAP3 POP SWAP3 POP POP SWAP3 SWAP6 SWAP9 POP SWAP3 SWAP6 SWAP9 POP SWAP3 SWAP6 SWAP9 JUMP JUMPDEST PUSH0 DUP2 SWAP1 POP SWAP2 SWAP1 POP JUMP JUMPDEST PUSH2 0x221B DUP2 PUSH2 0x2209 JUMP JUMPDEST DUP3 MSTORE POP POP JUMP JUMPDEST PUSH0 PUSH1 0x20 DUP3 ADD SWAP1 POP PUSH2 0x2234 PUSH0 DUP4 ADD DUP5 PUSH2 0x2212 JUMP JUMPDEST SWAP3 SWAP2 POP POP JUMP JUMPDEST PUSH2 0x2243 DUP2 PUSH2 0x2209 JUMP JUMPDEST DUP2 EQ PUSH2 0x224D JUMPI PUSH0 PUSH0 REVERT JUMPDEST POP JUMP JUMPDEST PUSH0 DUP2 CALLDATALOAD SWAP1 POP PUSH2 0x225E DUP2 PUSH2 0x223A JUMP JUMPDEST SWAP3 SWAP2 POP POP JUMP JUMPDEST PUSH0 PUSH1 0x20 DUP3 DUP5 SUB SLT ISZERO PUSH2 0x2279 JUMPI PUSH2 0x2278 PUSH2 0x2050 JUMP JUMPDEST JUMPDEST PUSH0 PUSH2 0x2286 DUP5 DUP3 DUP6 ADD PUSH2 0x2250 JUMP JUMPDEST SWAP2 POP POP SWAP3 SWAP2 POP POP JUMP JUMPDEST PUSH32 0x4E487B7100000000000000000000000000000000000000000000000000000000 PUSH0 MSTORE PUSH1 0x21 PUSH1 0x4 MSTORE PUSH1 0x24 PUSH0 REVERT JUMPDEST PUSH1 0x4 DUP2 LT PUSH2 0x22CD JUMPI PUSH2 0x22CC PUSH2 0x228F JUMP JUMPDEST JUMPDEST POP JUMP JUMPDEST PUSH0 DUP2 SWAP1 POP PUSH2 0x22DD DUP3 PUSH2 0x22BC JUMP JUMPDEST SWAP2 SWAP1 POP JUMP JUMPDEST PUSH0 PUSH2 0x22EC DUP3 PUSH2 0x22D0 JUMP JUMPDEST SWAP1 POP SWAP2 SWAP1 POP JUMP JUMPDEST PUSH2 0x22FC DUP2 PUSH2 0x22E2 JUMP JUMPDEST DUP3 MSTORE POP POP JUMP JUMPDEST PUSH2 0x230B DUP2 PUSH2 0x2077 JUMP JUMPDEST DUP3 MSTORE POP POP JUMP JUMPDEST PUSH0 PUSH1 0xC0 DUP3 ADD SWAP1 POP DUP2 DUP2 SUB PUSH0 DUP4 ADD MSTORE PUSH2 0x2329 DUP2 DUP10 PUSH2 0x1FF8 JUMP JUMPDEST SWAP1 POP DUP2 DUP2 SUB PUSH1 0x20 DUP4 ADD MSTORE PUSH2 0x233D DUP2 DUP9 PUSH2 0x1FF8 JUMP JUMPDEST SWAP1 POP DUP2 DUP2 SUB PUSH1 0x40 DUP4 ADD MSTORE PUSH2 0x2351 DUP2 DUP8 PUSH2 0x1FF8 JUMP JUMPDEST SWAP1 POP PUSH2 0x2360 PUSH1 0x60 DUP4 ADD DUP7 PUSH2 0x22F3 JUMP JUMPDEST PUSH2 0x236D PUSH1 0x80 DUP4 ADD DUP6 PUSH2 0x2212 JUMP JUMPDEST PUSH2 0x237A PUSH1 0xA0 DUP4 ADD DUP5 PUSH2 0x2302 JUMP JUMPDEST SWAP8 SWAP7 POP POP POP POP POP POP POP JUMP JUMPDEST PUSH0 PUSH0 PUSH1 0x40 DUP4 DUP6 SUB SLT ISZERO PUSH2 0x239B JUMPI PUSH2 0x239A PUSH2 0x2050 JUMP JUMPDEST JUMPDEST PUSH0 PUSH2 0x23A8 DUP6 DUP3 DUP7 ADD PUSH2 0x2250 JUMP JUMPDEST SWAP3 POP POP PUSH1 0x20 PUSH2 0x23B9 DUP6 DUP3 DUP7 ADD PUSH2 0x209E JUMP JUMPDEST SWAP2 POP POP SWAP3 POP SWAP3 SWAP1 POP JUMP JUMPDEST PUSH0 PUSH1 0x20 DUP3 ADD SWAP1 POP PUSH2 0x23D6 PUSH0 DUP4 ADD DUP5 PUSH2 0x2302 JUMP JUMPDEST SWAP3 SWAP2 POP POP JUMP JUMPDEST PUSH0 PUSH0 PUSH0 PUSH0 PUSH0 PUSH1 0x60 DUP7 DUP9 SUB SLT ISZERO PUSH2 0x23F5 JUMPI PUSH2 0x23F4 PUSH2 0x2050 JUMP JUMPDEST JUMPDEST PUSH0 PUSH2 0x2402 DUP9 DUP3 DUP10 ADD PUSH2 0x2250 JUMP JUMPDEST SWAP6 POP POP PUSH1 0x20 DUP7 ADD CALLDATALOAD PUSH8 0xFFFFFFFFFFFFFFFF DUP2 GT ISZERO PUSH2 0x2423 JUMPI PUSH2 0x2422 PUSH2 0x2054 JUMP JUMPDEST JUMPDEST PUSH2 0x242F DUP9 DUP3 DUP10 ADD PUSH2 0x20BE JUMP JUMPDEST SWAP5 POP SWAP5 POP POP PUSH1 0x40 DUP7 ADD CALLDATALOAD PUSH8 0xFFFFFFFFFFFFFFFF DUP2 GT ISZERO PUSH2 0x2452 JUMPI PUSH2 0x2451 PUSH2 0x2054 JUMP JUMPDEST JUMPDEST PUSH2 0x245E DUP9 DUP3 DUP10 ADD PUSH2 0x20BE JUMP JUMPDEST SWAP3 POP SWAP3 POP POP SWAP3 SWAP6 POP SWAP3 SWAP6 SWAP1 SWAP4 POP JUMP JUMPDEST PUSH0 PUSH1 0x20 DUP3 DUP5 SUB SLT ISZERO PUSH2 0x2482 JUMPI PUSH2 0x2481 PUSH2 0x2050 JUMP JUMPDEST JUMPDEST PUSH0 PUSH2 0x248F DUP5 DUP3 DUP6 ADD PUSH2 0x209E JUMP JUMPDEST SWAP2 POP POP SWAP3 SWAP2 POP POP JUMP JUMPDEST PUSH0 PUSH0 PUSH1 0x40 DUP4 DUP6 SUB SLT ISZERO PUSH2 0x24AE JUMPI PUSH2 0x24AD PUSH2 0x2050 JUMP JUMPDEST JUMPDEST PUSH0 PUSH2 0x24BB DUP6 DUP3 DUP7 ADD PUSH2 0x2250 JUMP JUMPDEST SWAP3 POP POP PUSH1 0x20 PUSH2 0x24CC DUP6 DUP3 DUP7 ADD PUSH2 0x2250 JUMP JUMPDEST SWAP2 POP POP SWAP3 POP SWAP3 SWAP1 POP JUMP JUMPDEST PUSH0 DUP2 SWAP1 POP SWAP2 SWAP1 POP JUMP JUMPDEST PUSH2 0x24E8 DUP2 PUSH2 0x24D6 JUMP JUMPDEST DUP2 EQ PUSH2 0x24F2 JUMPI PUSH0 PUSH0 REVERT JUMPDEST POP JUMP JUMPDEST PUSH0 DUP2 CALLDATALOAD SWAP1 POP PUSH2 0x2503 DUP2 PUSH2 0x24DF JUMP JUMPDEST SWAP3 SWAP2 POP POP JUMP JUMPDEST PUSH0 PUSH0 PUSH1 0x40 DUP4 DUP6 SUB SLT ISZERO PUSH2 0x251F JUMPI PUSH2 0x251E PUSH2 0x2050 JUMP JUMPDEST JUMPDEST PUSH0 PUSH2 0x252C DUP6 DUP3 DUP7 ADD PUSH2 0x24F5 JUMP JUMPDEST SWAP3 POP POP PUSH1 0x20 PUSH2 0x253D DUP6 DUP3 DUP7 ADD PUSH2 0x209E JUMP JUMPDEST SWAP2 POP POP SWAP3 POP SWAP3 SWAP1 POP JUMP JUMPDEST PUSH0 DUP2 ISZERO ISZERO SWAP1 POP SWAP2 SWAP1 POP JUMP JUMPDEST PUSH2 0x255B DUP2 PUSH2 0x2547 JUMP JUMPDEST DUP3 MSTORE POP POP JUMP JUMPDEST PUSH0 PUSH1 0x20 DUP3 ADD SWAP1 POP PUSH2 0x2574 PUSH0 DUP4 ADD DUP5 PUSH2 0x2552 JUMP JUMPDEST SWAP3 SWAP2 POP POP JUMP JUMPDEST PUSH0 PUSH1 0xC0 DUP3 ADD SWAP1 POP DUP2 DUP2 SUB PUSH0 DUP4 ADD MSTORE PUSH2 0x2592 DUP2 DUP10 PUSH2 0x1FF8 JUMP JUMPDEST SWAP1 POP DUP2 DUP2 SUB PUSH1 0x20 DUP4 ADD MSTORE PUSH2 0x25A6 DUP2 DUP9 PUSH2 0x1FF8 JUMP JUMPDEST SWAP1 POP DUP2 DUP2 SUB PUSH1 0x40 DUP4 ADD MSTORE PUSH2 0x25BA DUP2 DUP8 PUSH2 0x1FF8 JUMP JUMPDEST SWAP1 POP DUP2 DUP2 SUB PUSH1 0x60 DUP4 ADD MSTORE PUSH2 0x25CE DUP2 DUP7 PUSH2 0x1FF8 JUMP JUMPDEST SWAP1 POP PUSH2 0x25DD PUSH1 0x80 DUP4 ADD DUP6 PUSH2 0x22F3 JUMP JUMPDEST PUSH2 0x25EA PUSH1 0xA0 DUP4 ADD DUP5 PUSH2 0x2212 JUMP JUMPDEST SWAP8 SWAP7 POP POP POP POP POP POP POP JUMP JUMPDEST PUSH2 0x25FE DUP2 PUSH2 0x24D6 JUMP JUMPDEST DUP3 MSTORE POP POP JUMP JUMPDEST PUSH0 PUSH1 0x20 DUP3 ADD SWAP1 POP PUSH2 0x2617 PUSH0 DUP4 ADD DUP5 PUSH2 0x25F5 JUMP JUMPDEST SWAP3 SWAP2 POP POP JUMP JUMPDEST PUSH0 PUSH0 PUSH0 PUSH1 0x40 DUP5 DUP7 SUB SLT ISZERO PUSH2 0x2634 JUMPI PUSH2 0x2633 PUSH2 0x2050 JUMP JUMPDEST JUMPDEST PUSH0 PUSH2 0x2641 DUP7 DUP3 DUP8 ADD PUSH2 0x2250 JUMP JUMPDEST SWAP4 POP POP PUSH1 0x20 DUP5 ADD CALLDATALOAD PUSH8 0xFFFFFFFFFFFFFFFF DUP2 GT ISZERO PUSH2 0x2662 JUMPI PUSH2 0x2661 PUSH2 0x2054 JUMP JUMPDEST JUMPDEST PUSH2 0x266E DUP7 DUP3 DUP8 ADD PUSH2 0x20BE JUMP JUMPDEST SWAP3 POP SWAP3 POP POP SWAP3 POP SWAP3 POP SWAP3 JUMP JUMPDEST PUSH1 0x4 DUP2 LT PUSH2 0x2686 JUMPI PUSH0 PUSH0 REVERT JUMPDEST POP JUMP JUMPDEST PUSH0 DUP2 CALLDATALOAD SWAP1 POP PUSH2 0x2697 DUP2 PUSH2 0x267A JUMP JUMPDEST SWAP3 SWAP2 POP POP JUMP JUMPDEST PUSH0 PUSH0 PUSH0 PUSH0 PUSH1 0x60 DUP6 DUP8 SUB SLT ISZERO PUSH2 0x26B5 JUMPI PUSH2 0x26B4 PUSH2 0x2050 JUMP JUMPDEST JUMPDEST PUSH0 PUSH2 0x26C2 DUP8 DUP3 DUP9 ADD PUSH2 0x2250 JUMP JUMPDEST SWAP5 POP POP PUSH1 0x20 PUSH2 0x26D3 DUP8 DUP3 DUP9 ADD PUSH2 0x2689 JUMP JUMPDEST SWAP4 POP POP PUSH1 0x40 DUP6 ADD CALLDATALOAD PUSH8 0xFFFFFFFFFFFFFFFF DUP2 GT ISZERO PUSH2 0x26F4 JUMPI PUSH2 0x26F3 PUSH2 0x2054 JUMP JUMPDEST JUMPDEST PUSH2 0x2700 DUP8 DUP3 DUP9 ADD PUSH2 0x20BE JUMP JUMPDEST SWAP3 POP SWAP3 POP POP SWAP3 SWAP6 SWAP2 SWAP5 POP SWAP3 POP JUMP JUMPDEST PUSH0 DUP2 MLOAD SWAP1 POP SWAP2 SWAP1 POP JUMP JUMPDEST PUSH0 DUP3 DUP3 MSTORE PUSH1 0x20 DUP3 ADD SWAP1 POP SWAP3 SWAP2 POP POP JUMP JUMPDEST PUSH0 DUP2 SWAP1 POP PUSH1 0x20 DUP3 ADD SWAP1 POP SWAP2 SWAP1 POP JUMP JUMPDEST PUSH0 DUP3 DUP3 MSTORE PUSH1 0x20 DUP3 ADD SWAP1 POP SWAP3 SWAP2 POP POP JUMP JUMPDEST PUSH0 PUSH2 0x2751 DUP3 PUSH2 0x1FC0 JUMP JUMPDEST PUSH2 0x275B DUP2 DUP6 PUSH2 0x2737 JUMP JUMPDEST SWAP4 POP PUSH2 0x276B DUP2 DUP6 PUSH1 0x20 DUP7 ADD PUSH2 0x1FDA JUMP JUMPDEST PUSH2 0x2774 DUP2 PUSH2 0x1FE8 JUMP JUMPDEST DUP5 ADD SWAP2 POP POP SWAP3 SWAP2 POP POP JUMP JUMPDEST PUSH0 PUSH2 0x278A DUP4 DUP4 PUSH2 0x2747 JUMP JUMPDEST SWAP1 POP SWAP3 SWAP2 POP POP JUMP JUMPDEST PUSH0 PUSH1 0x20 DUP3 ADD SWAP1 POP SWAP2 SWAP1 POP JUMP JUMPDEST PUSH0 PUSH2 0x27A8 DUP3 PUSH2 0x270E JUMP JUMPDEST PUSH2 0x27B2 DUP2 DUP6 PUSH2 0x2718 JUMP JUMPDEST SWAP4 POP DUP4 PUSH1 0x20 DUP3 MUL DUP6 ADD PUSH2 0x27C4 DUP6 PUSH2 0x2728 JUMP JUMPDEST DUP1 PUSH0 JUMPDEST DUP6 DUP2 LT ISZERO PUSH2 0x27FF JUMPI DUP5 DUP5 SUB DUP10 MSTORE DUP2 MLOAD PUSH2 0x27E0 DUP6 DUP3 PUSH2 0x277F JUMP JUMPDEST SWAP5 POP PUSH2 0x27EB DUP4 PUSH2 0x2792 JUMP JUMPDEST SWAP3 POP PUSH1 0x20 DUP11 ADD SWAP10 POP POP PUSH1 0x1 DUP2 ADD SWAP1 POP PUSH2 0x27C7 JUMP JUMPDEST POP DUP3 SWAP8 POP DUP8 SWAP6 POP POP POP POP POP POP SWAP3 SWAP2 POP POP JUMP JUMPDEST PUSH0 PUSH1 0x20 DUP3 ADD SWAP1 POP DUP2 DUP2 SUB PUSH0 DUP4 ADD MSTORE PUSH2 0x2829 DUP2 DUP5 PUSH2 0x279E JUMP JUMPDEST SWAP1 POP SWAP3 SWAP2 POP POP JUMP JUMPDEST PUSH32 0x4E487B7100000000000000000000000000000000000000000000000000000000 PUSH0 MSTORE PUSH1 0x22 PUSH1 0x4 MSTORE PUSH1 0x24 PUSH0 REVERT JUMPDEST PUSH0 PUSH1 0x2 DUP3 DIV SWAP1 POP PUSH1 0x1 DUP3 AND DUP1 PUSH2 0x2875 JUMPI PUSH1 0x7F DUP3 AND SWAP2 POP JUMPDEST PUSH1 0x20 DUP3 LT DUP2 SUB PUSH2 0x2888 JUMPI PUSH2 0x2887 PUSH2 0x2831 JUMP JUMPDEST JUMPDEST POP SWAP2 SWAP1 POP JUMP JUMPDEST PUSH32 0x4E6F742072656769737472617200000000000000000000000000000000000000 PUSH0 DUP3 ADD MSTORE POP JUMP JUMPDEST PUSH0 PUSH2 0x28C2 PUSH1 0xD DUP4 PUSH2 0x1FCA JUMP JUMPDEST SWAP2 POP PUSH2 0x28CD DUP3 PUSH2 0x288E JUMP JUMPDEST PUSH1 0x20 DUP3 ADD SWAP1 POP SWAP2 SWAP1 POP JUMP JUMPDEST PUSH0 PUSH1 0x20 DUP3 ADD SWAP1 POP DUP2 DUP2 SUB PUSH0 DUP4 ADD MSTORE PUSH2 0x28EF DUP2 PUSH2 0x28B6 JUMP JUMPDEST SWAP1 POP SWAP2 SWAP1 POP JUMP JUMPDEST PUSH32 0x496E76616C6964206F776E657200000000000000000000000000000000000000 PUSH0 DUP3 ADD MSTORE POP JUMP JUMPDEST PUSH0 PUSH2 0x292A PUSH1 0xD DUP4 PUSH2 0x1FCA JUMP JUMPDEST SWAP2 POP PUSH2 0x2935 DUP3 PUSH2 0x28F6 JUMP JUMPDEST PUSH1 0x20 DUP3 ADD SWAP1 POP SWAP2 SWAP1 POP JUMP JUMPDEST PUSH0 PUSH1 0x20 DUP3 ADD SWAP1 POP DUP2 DUP2 SUB PUSH0 DUP4 ADD MSTORE PUSH2 0x2957 DUP2 PUSH2 0x291E JUMP JUMPDEST SWAP1 POP SWAP2 SWAP1 POP JUMP JUMPDEST PUSH32 0x4C52206E756D6265722072657175697265640000000000000000000000000000 PUSH0 DUP3 ADD MSTORE POP JUMP JUMPDEST PUSH0 PUSH2 0x2992 PUSH1 0x12 DUP4 PUSH2 0x1FCA JUMP JUMPDEST SWAP2 POP PUSH2 0x299D DUP3 PUSH2 0x295E JUMP JUMPDEST PUSH1 0x20 DUP3 ADD SWAP1 POP SWAP2 SWAP1 POP JUMP JUMPDEST PUSH0 PUSH1 0x20 DUP3 ADD SWAP1 POP DUP2 DUP2 SUB PUSH0 DUP4 ADD MSTORE PUSH2 0x29BF DUP2 PUSH2 0x2986 JUMP JUMPDEST SWAP1 POP SWAP2 SWAP1 POP JUMP JUMPDEST PUSH32 0x4E487B7100000000000000000000000000000000000000000000000000000000 PUSH0 MSTORE PUSH1 0x41 PUSH1 0x4 MSTORE PUSH1 0x24 PUSH0 REVERT JUMPDEST PUSH0 DUP2 SWAP1 POP DUP2 PUSH0 MSTORE PUSH1 0x20 PUSH0 KECCAK256 SWAP1 POP SWAP2 SWAP1 POP JUMP JUMPDEST PUSH0 PUSH1 0x20 PUSH1 0x1F DUP4 ADD DIV SWAP1 POP SWAP2 SWAP1 POP JUMP JUMPDEST PUSH0 DUP3 DUP3 SHL SWAP1 POP SWAP3 SWAP2 POP POP JUMP JUMPDEST PUSH0 PUSH1 0x8 DUP4 MUL PUSH2 0x2A4F PUSH32 0xFFFFFFFFFFFFFFFFFFFFFFFFFFFFFFFFFFFFFFFFFFFFFFFFFFFFFFFFFFFFFFFF DUP3 PUSH2 0x2A14 JUMP JUMPDEST PUSH2 0x2A59 DUP7 DUP4 PUSH2 0x2A14 JUMP JUMPDEST SWAP6 POP DUP1 NOT DUP5 AND SWAP4 POP DUP1 DUP7 AND DUP5 OR SWAP3 POP POP POP SWAP4 SWAP3 POP POP POP JUMP JUMPDEST PUSH0 DUP2 SWAP1 POP SWAP2 SWAP1 POP JUMP JUMPDEST PUSH0 PUSH2 0x2A94 PUSH2 0x2A8F PUSH2 0x2A8A DUP5 PUSH2 0x2209 JUMP JUMPDEST PUSH2 0x2A71 JUMP JUMPDEST PUSH2 0x2209 JUMP JUMPDEST SWAP1 POP SWAP2 SWAP1 POP JUMP JUMPDEST PUSH0 DUP2 SWAP1 POP SWAP2 SWAP1 POP JUMP JUMPDEST PUSH2 0x2AAD DUP4 PUSH2 0x2A7A JUMP JUMPDEST PUSH2 0x2AC1 PUSH2 0x2AB9 DUP3 PUSH2 0x2A9B JUMP JUMPDEST DUP5 DUP5 SLOAD PUSH2 0x2A20 JUMP JUMPDEST DUP3 SSTORE POP POP POP POP JUMP JUMPDEST PUSH0 PUSH0 SWAP1 POP SWAP1 JUMP JUMPDEST PUSH2 0x2AD8 PUSH2 0x2AC9 JUMP JUMPDEST PUSH2 0x2AE3 DUP2 DUP5 DUP5 PUSH2 0x2AA4 JUMP JUMPDEST POP POP POP JUMP JUMPDEST JUMPDEST DUP2 DUP2 LT ISZERO PUSH2 0x2B06 JUMPI PUSH2 0x2AFB PUSH0 DUP3 PUSH2 0x2AD0 JUMP JUMPDEST PUSH1 0x1 DUP2 ADD SWAP1 POP PUSH2 0x2AE9 JUMP JUMPDEST POP POP JUMP JUMPDEST PUSH1 0x1F DUP3 GT ISZERO PUSH2 0x2B4B JUMPI PUSH2 0x2B1C DUP2 PUSH2 0x29F3 JUMP JUMPDEST PUSH2 0x2B25 DUP5 PUSH2 0x2A05 JUMP JUMPDEST DUP2 ADD PUSH1 0x20 DUP6 LT ISZERO PUSH2 0x2B34 JUMPI DUP2 SWAP1 POP JUMPDEST PUSH2 0x2B48 PUSH2 0x2B40 DUP6 PUSH2 0x2A05 JUMP JUMPDEST DUP4 ADD DUP3 PUSH2 0x2AE8 JUMP JUMPDEST POP POP JUMPDEST POP POP POP JUMP JUMPDEST PUSH0 DUP3 DUP3 SHR SWAP1 POP SWAP3 SWAP2 POP POP JUMP JUMPDEST PUSH0 PUSH2 0x2B6B PUSH0 NOT DUP5 PUSH1 0x8 MUL PUSH2 0x2B50 JUMP JUMPDEST NOT DUP1 DUP4 AND SWAP2 POP POP SWAP3 SWAP2 POP POP JUMP JUMPDEST PUSH0 PUSH2 0x2B83 DUP4 DUP4 PUSH2 0x2B5C JUMP JUMPDEST SWAP2 POP DUP3 PUSH1 0x2 MUL DUP3 OR SWAP1 POP SWAP3 SWAP2 POP POP JUMP JUMPDEST PUSH2 0x2B9C DUP3 PUSH2 0x1FC0 JUMP JUMPDEST PUSH8 0xFFFFFFFFFFFFFFFF DUP2 GT ISZERO PUSH2 0x2BB5 JUMPI PUSH2 0x2BB4 PUSH2 0x29C6 JUMP JUMPDEST JUMPDEST PUSH2 0x2BBF DUP3 SLOAD PUSH2 0x285E JUMP JUMPDEST PUSH2 0x2BCA DUP3 DUP3 DUP6 PUSH2 0x2B0A JUMP JUMPDEST PUSH0 PUSH1 0x20 SWAP1 POP PUSH1 0x1F DUP4 GT PUSH1 0x1 DUP2 EQ PUSH2 0x2BFB JUMPI PUSH0 DUP5 ISZERO PUSH2 0x2BE9 JUMPI DUP3 DUP8 ADD MLOAD SWAP1 POP JUMPDEST PUSH2 0x2BF3 DUP6 DUP3 PUSH2 0x2B78 JUMP JUMPDEST DUP7 SSTORE POP PUSH2 0x2C5A JUMP JUMPDEST PUSH1 0x1F NOT DUP5 AND PUSH2 0x2C09 DUP7 PUSH2 0x29F3 JUMP JUMPDEST PUSH0 JUMPDEST DUP3 DUP2 LT ISZERO PUSH2 0x2C30 JUMPI DUP5 DUP10 ADD MLOAD DUP3 SSTORE PUSH1 0x1 DUP3 ADD SWAP2 POP PUSH1 0x20 DUP6 ADD SWAP5 POP PUSH1 0x20 DUP2 ADD SWAP1 POP PUSH2 0x2C0B JUMP JUMPDEST DUP7 DUP4 LT ISZERO PUSH2 0x2C4D JUMPI DUP5 DUP10 ADD MLOAD PUSH2 0x2C49 PUSH1 0x1F DUP10 AND DUP3 PUSH2 0x2B5C JUMP JUMPDEST DUP4 SSTORE POP JUMPDEST PUSH1 0x1 PUSH1 0x2 DUP9 MUL ADD DUP9 SSTORE POP POP POP JUMPDEST POP POP POP POP POP POP JUMP JUMPDEST DUP3 DUP2 DUP4 CALLDATACOPY PUSH0 DUP4 DUP4 ADD MSTORE POP POP POP JUMP JUMPDEST PUSH0 PUSH2 0x2C7B DUP4 DUP6 PUSH2 0x1FCA JUMP JUMPDEST SWAP4 POP PUSH2 0x2C88 DUP4 DUP6 DUP5 PUSH2 0x2C62 JUMP JUMPDEST PUSH2 0x2C91 DUP4 PUSH2 0x1FE8 JUMP JUMPDEST DUP5 ADD SWAP1 POP SWAP4 SWAP3 POP POP POP JUMP JUMPDEST PUSH0 PUSH1 0x40 DUP3 ADD SWAP1 POP DUP2 DUP2 SUB PUSH0 DUP4 ADD MSTORE PUSH2 0x2CB5 DUP2 DUP7 DUP9 PUSH2 0x2C70 JUMP JUMPDEST SWAP1 POP DUP2 DUP2 SUB PUSH1 0x20 DUP4 ADD MSTORE PUSH2 0x2CCA DUP2 DUP5 DUP7 PUSH2 0x2C70 JUMP JUMPDEST SWAP1 POP SWAP6 SWAP5 POP POP POP POP POP JUMP JUMPDEST PUSH32 0x50617263656C20646F6573206E6F742065786973740000000000000000000000 PUSH0 DUP3 ADD MSTORE POP JUMP JUMPDEST PUSH0 PUSH2 0x2D09 PUSH1 0x15 DUP4 PUSH2 0x1FCA JUMP JUMPDEST SWAP2 POP PUSH2 0x2D14 DUP3 PUSH2 0x2CD5 JUMP JUMPDEST PUSH1 0x20 DUP3 ADD SWAP1 POP SWAP2 SWAP1 POP JUMP JUMPDEST PUSH0 PUSH1 0x20 DUP3 ADD SWAP1 POP DUP2 DUP2 SUB PUSH0 DUP4 ADD MSTORE PUSH2 0x2D36 DUP2 PUSH2 0x2CFD JUMP JUMPDEST SWAP1 POP SWAP2 SWAP1 POP JUMP JUMPDEST PUSH32 0x50617263656C206E6F7420616374697665000000000000000000000000000000 PUSH0 DUP3 ADD MSTORE POP JUMP JUMPDEST PUSH0 PUSH2 0x2D71 PUSH1 0x11 DUP4 PUSH2 0x1FCA JUMP JUMPDEST SWAP2 POP PUSH2 0x2D7C DUP3 PUSH2 0x2D3D JUMP JUMPDEST PUSH1 0x20 DUP3 ADD SWAP1 POP SWAP2 SWAP1 POP JUMP JUMPDEST PUSH0 PUSH1 0x20 DUP3 ADD SWAP1 POP DUP2 DUP2 SUB PUSH0 DUP4 ADD MSTORE PUSH2 0x2D9E DUP2 PUSH2 0x2D65 JUMP JUMPDEST SWAP1 POP SWAP2 SWAP1 POP JUMP JUMPDEST PUSH32 0x496E76616C696420726563697069656E74000000000000000000000000000000 PUSH0 DUP3 ADD MSTORE POP JUMP JUMPDEST PUSH0 PUSH2 0x2DD9 PUSH1 0x11 DUP4 PUSH2 0x1FCA JUMP JUMPDEST SWAP2 POP PUSH2 0x2DE4 DUP3 PUSH2 0x2DA5 JUMP JUMPDEST PUSH1 0x20 DUP3 ADD SWAP1 POP SWAP2 SWAP1 POP JUMP JUMPDEST PUSH0 PUSH1 0x20 DUP3 ADD SWAP1 POP DUP2 DUP2 SUB PUSH0 DUP4 ADD MSTORE PUSH2 0x2E06 DUP2 PUSH2 0x2DCD JUMP JUMPDEST SWAP1 POP SWAP2 SWAP1 POP JUMP JUMPDEST PUSH32 0x4E6F742070617263656C206F776E657200000000000000000000000000000000 PUSH0 DUP3 ADD MSTORE POP JUMP JUMPDEST PUSH0 PUSH2 0x2E41 PUSH1 0x10 DUP4 PUSH2 0x1FCA JUMP JUMPDEST SWAP2 POP PUSH2 0x2E4C DUP3 PUSH2 0x2E0D JUMP JUMPDEST PUSH1 0x20 DUP3 ADD SWAP1 POP SWAP2 SWAP1 POP JUMP JUMPDEST PUSH0 PUSH1 0x20 DUP3 ADD SWAP1 POP DUP2 DUP2 SUB PUSH0 DUP4 ADD MSTORE PUSH2 0x2E6E DUP2 PUSH2 0x2E35 JUMP JUMPDEST SWAP1 POP SWAP2 SWAP1 POP JUMP JUMPDEST PUSH32 0x4E6F6E6578697374656E7420746F6B656E000000000000000000000000000000 PUSH0 DUP3 ADD MSTORE POP JUMP JUMPDEST PUSH0 PUSH2 0x2EA9 PUSH1 0x11 DUP4 PUSH2 0x1FCA JUMP JUMPDEST SWAP2 POP PUSH2 0x2EB4 DUP3 PUSH2 0x2E75 JUMP JUMPDEST PUSH1 0x20 DUP3 ADD SWAP1 POP SWAP2 SWAP1 POP JUMP JUMPDEST PUSH0 PUSH1 0x20 DUP3 ADD SWAP1 POP DUP2 DUP2 SUB PUSH0 DUP4 ADD MSTORE PUSH2 0x2ED6 DUP2 PUSH2 0x2E9D JUMP JUMPDEST SWAP1 POP SWAP2 SWAP1 POP JUMP JUMPDEST PUSH0 DUP3 SWAP1 POP SWAP3 SWAP2 POP POP JUMP JUMPDEST PUSH2 0x2EF1 DUP4 DUP4 PUSH2 0x2EDD JUMP JUMPDEST PUSH8 0xFFFFFFFFFFFFFFFF DUP2 GT ISZERO PUSH2 0x2F0A JUMPI PUSH2 0x2F09 PUSH2 0x29C6 JUMP JUMPDEST JUMPDEST PUSH2 0x2F14 DUP3 SLOAD PUSH2 0x285E JUMP JUMPDEST PUSH2 0x2F1F DUP3 DUP3 DUP6 PUSH2 0x2B0A JUMP JUMPDEST PUSH0 PUSH1 0x1F DUP4 GT PUSH1 0x1 DUP2 EQ PUSH2 0x2F4C JUMPI PUSH0 DUP5 ISZERO PUSH2 0x2F3A JUMPI DUP3 DUP8 ADD CALLDATALOAD SWAP1 POP JUMPDEST PUSH2 0x2F44 DUP6 DUP3 PUSH2 0x2B78 JUMP JUMPDEST DUP7 SSTORE POP PUSH2 0x2FAB JUMP JUMPDEST PUSH1 0x1F NOT DUP5 AND PUSH2 0x2F5A DUP7 PUSH2 0x29F3 JUMP JUMPDEST PUSH0 JUMPDEST DUP3 DUP2 LT ISZERO PUSH2 0x2F81 JUMPI DUP5 DUP10 ADD CALLDATALOAD DUP3 SSTORE PUSH1 0x1 DUP3 ADD SWAP2 POP PUSH1 0x20 DUP6 ADD SWAP5 POP PUSH1 0x20 DUP2 ADD SWAP1 POP PUSH2 0x2F5C JUMP JUMPDEST DUP7 DUP4 LT ISZERO PUSH2 0x2F9E JUMPI DUP5 DUP10 ADD CALLDATALOAD PUSH2 0x2F9A PUSH1 0x1F DUP10 AND DUP3 PUSH2 0x2B5C JUMP JUMPDEST DUP4 SSTORE POP JUMPDEST PUSH1 0x1 PUSH1 0x2 DUP9 MUL ADD DUP9 SSTORE POP POP POP JUMPDEST POP POP POP POP POP POP POP JUMP JUMPDEST PUSH32 0x5A65726F20616464726573730000000000000000000000000000000000000000 PUSH0 DUP3 ADD MSTORE POP JUMP JUMPDEST PUSH0 PUSH2 0x2FE8 PUSH1 0xC DUP4 PUSH2 0x1FCA JUMP JUMPDEST SWAP2 POP PUSH2 0x2FF3 DUP3 PUSH2 0x2FB4 JUMP JUMPDEST PUSH1 0x20 DUP3 ADD SWAP1 POP SWAP2 SWAP1 POP JUMP JUMPDEST PUSH0 PUSH1 0x20 DUP3 ADD SWAP1 POP DUP2 DUP2 SUB PUSH0 DUP4 ADD MSTORE PUSH2 0x3015 DUP2 PUSH2 0x2FDC JUMP JUMPDEST SWAP1 POP SWAP2 SWAP1 POP JUMP JUMPDEST PUSH0 PUSH1 0x20 DUP3 ADD SWAP1 POP DUP2 DUP2 SUB PUSH0 DUP4 ADD MSTORE PUSH2 0x3035 DUP2 DUP5 DUP7 PUSH2 0x2C70 JUMP JUMPDEST SWAP1 POP SWAP4 SWAP3 POP POP POP JUMP JUMPDEST PUSH32 0x4163636573732064656E69656400000000000000000000000000000000000000 PUSH0 DUP3 ADD MSTORE POP JUMP JUMPDEST PUSH0 PUSH2 0x3072 PUSH1 0xD DUP4 PUSH2 0x1FCA JUMP JUMPDEST SWAP2 POP PUSH2 0x307D DUP3 PUSH2 0x303E JUMP JUMPDEST PUSH1 0x20 DUP3 ADD SWAP1 POP SWAP2 SWAP1 POP JUMP JUMPDEST PUSH0 PUSH1 0x20 DUP3 ADD SWAP1 POP DUP2 DUP2 SUB PUSH0 DUP4 ADD MSTORE PUSH2 0x309F DUP2 PUSH2 0x3066 JUMP JUMPDEST SWAP1 POP SWAP2 SWAP1 POP JUMP JUMPDEST PUSH0 PUSH1 0x40 DUP3 ADD SWAP1 POP PUSH2 0x30B9 PUSH0 DUP4 ADD DUP7 PUSH2 0x22F3 JUMP JUMPDEST DUP2 DUP2 SUB PUSH1 0x20 DUP4 ADD MSTORE PUSH2 0x30CC DUP2 DUP5 DUP7 PUSH2 0x2C70 JUMP JUMPDEST SWAP1 POP SWAP5 SWAP4 POP POP POP POP JUMP JUMPDEST PUSH32 0x4E487B7100000000000000000000000000000000000000000000000000000000 PUSH0 MSTORE PUSH1 0x11 PUSH1 0x4 MSTORE PUSH1 0x24 PUSH0 REVERT JUMPDEST PUSH0 PUSH2 0x310D DUP3 PUSH2 0x2209 JUMP JUMPDEST SWAP2 POP PUSH2 0x3118 DUP4 PUSH2 0x2209 JUMP JUMPDEST SWAP3 POP DUP3 DUP3 ADD SWAP1 POP DUP1 DUP3 GT ISZERO PUSH2 0x3130 JUMPI PUSH2 0x312F PUSH2 0x30D6 JUMP JUMPDEST JUMPDEST SWAP3 SWAP2 POP POP JUMP JUMPDEST PUSH32 0x416C7265616479206D696E746564000000000000000000000000000000000000 PUSH0 DUP3 ADD MSTORE POP JUMP JUMPDEST PUSH0 PUSH2 0x316A PUSH1 0xE DUP4 PUSH2 0x1FCA JUMP JUMPDEST SWAP2 POP PUSH2 0x3175 DUP3 PUSH2 0x3136 JUMP JUMPDEST PUSH1 0x20 DUP3 ADD SWAP1 POP SWAP2 SWAP1 POP JUMP JUMPDEST PUSH0 PUSH1 0x20 DUP3 ADD SWAP1 POP DUP2 DUP2 SUB PUSH0 DUP4 ADD MSTORE PUSH2 0x3197 DUP2 PUSH2 0x315E JUMP JUMPDEST SWAP1 POP SWAP2 SWAP1 POP JUMP JUMPDEST PUSH32 0x4E6F74206F776E65720000000000000000000000000000000000000000000000 PUSH0 DUP3 ADD MSTORE POP JUMP JUMPDEST PUSH0 PUSH2 0x31D2 PUSH1 0x9 DUP4 PUSH2 0x1FCA JUMP JUMPDEST SWAP2 POP PUSH2 0x31DD DUP3 PUSH2 0x319E JUMP JUMPDEST PUSH1 0x20 DUP3 ADD SWAP1 POP SWAP2 SWAP1 POP JUMP JUMPDEST PUSH0 PUSH1 0x20 DUP3 ADD SWAP1 POP DUP2 DUP2 SUB PUSH0 DUP4 ADD MSTORE PUSH2 0x31FF DUP2 PUSH2 0x31C6 JUMP JUMPDEST SWAP1 POP SWAP2 SWAP1 POP JUMP JUMPDEST PUSH0 PUSH2 0x3210 DUP3 PUSH2 0x2209 JUMP JUMPDEST SWAP2 POP PUSH2 0x321B DUP4 PUSH2 0x2209 JUMP JUMPDEST SWAP3 POP DUP3 DUP3 SUB SWAP1 POP DUP2 DUP2 GT ISZERO PUSH2 0x3233 JUMPI PUSH2 0x3232 PUSH2 0x30D6 JUMP JUMPDEST JUMPDEST SWAP3 SWAP2 POP POP JUMP JUMPDEST PUSH0 DUP2 MLOAD SWAP1 POP SWAP2 SWAP1 POP JUMP JUMPDEST PUSH0 DUP3 DUP3 MSTORE PUSH1 0x20 DUP3 ADD SWAP1 POP SWAP3 SWAP2 POP POP JUMP JUMPDEST PUSH0 PUSH2 0x325D DUP3 PUSH2 0x3239 JUMP JUMPDEST PUSH2 0x3267 DUP2 DUP6 PUSH2 0x3243 JUMP JUMPDEST SWAP4 POP PUSH2 0x3277 DUP2 DUP6 PUSH1 0x20 DUP7 ADD PUSH2 0x1FDA JUMP JUMPDEST PUSH2 0x3280 DUP2 PUSH2 0x1FE8 JUMP JUMPDEST DUP5 ADD SWAP2 POP POP SWAP3 SWAP2 POP POP JUMP JUMPDEST PUSH0 PUSH1 0x80 DUP3 ADD SWAP1 POP PUSH2 0x329E PUSH0 DUP4 ADD DUP8 PUSH2 0x2302 JUMP JUMPDEST PUSH2 0x32AB PUSH1 0x20 DUP4 ADD DUP7 PUSH2 0x2302 JUMP JUMPDEST PUSH2 0x32B8 PUSH1 0x40 DUP4 ADD DUP6 PUSH2 0x2212 JUMP JUMPDEST DUP2 DUP2 SUB PUSH1 0x60 DUP4 ADD MSTORE PUSH2 0x32CA DUP2 DUP5 PUSH2 0x3253 JUMP JUMPDEST SWAP1 POP SWAP6 SWAP5 POP POP POP POP POP JUMP JUMPDEST PUSH0 PUSH32 0xFFFFFFFF00000000000000000000000000000000000000000000000000000000 DUP3 AND SWAP1 POP SWAP2 SWAP1 POP JUMP JUMPDEST PUSH2 0x3309 DUP2 PUSH2 0x32D5 JUMP JUMPDEST DUP2 EQ PUSH2 0x3313 JUMPI PUSH0 PUSH0 REVERT JUMPDEST POP JUMP JUMPDEST PUSH0 DUP2 MLOAD SWAP1 POP PUSH2 0x3324 DUP2 PUSH2 0x3300 JUMP JUMPDEST SWAP3 SWAP2 POP POP JUMP JUMPDEST PUSH0 PUSH1 0x20 DUP3 DUP5 SUB SLT ISZERO PUSH2 0x333F JUMPI PUSH2 0x333E PUSH2 0x2050 JUMP JUMPDEST JUMPDEST PUSH0 PUSH2 0x334C DUP5 DUP3 DUP6 ADD PUSH2 0x3316 JUMP JUMPDEST SWAP2 POP POP SWAP3 SWAP2 POP POP JUMP JUMPDEST PUSH32 0x5472616E7366657220746F206E6F6E2045524337323152656365697665720000 PUSH0 DUP3 ADD MSTORE POP JUMP JUMPDEST PUSH0 PUSH2 0x3389 PUSH1 0x1E DUP4 PUSH2 0x1FCA JUMP JUMPDEST SWAP2 POP PUSH2 0x3394 DUP3 PUSH2 0x3355 JUMP JUMPDEST PUSH1 0x20 DUP3 ADD SWAP1 POP SWAP2 SWAP1 POP JUMP JUMPDEST PUSH0 PUSH1 0x20 DUP3 ADD SWAP1 POP DUP2 DUP2 SUB PUSH0 DUP4 ADD MSTORE PUSH2 0x33B6 DUP2 PUSH2 0x337D JUMP JUMPDEST SWAP1 POP SWAP2 SWAP1 POP JUMP JUMPDEST PUSH32 0x45524337323152656365697665722072656A656374656420746F6B656E730000 PUSH0 DUP3 ADD MSTORE POP JUMP JUMPDEST PUSH0 PUSH2 0x33F1 PUSH1 0x1E DUP4 PUSH2 0x1FCA JUMP JUMPDEST SWAP2 POP PUSH2 0x33FC DUP3 PUSH2 0x33BD JUMP JUMPDEST PUSH1 0x20 DUP3 ADD SWAP1 POP SWAP2 SWAP1 POP JUMP JUMPDEST PUSH0 PUSH1 0x20 DUP3 ADD SWAP1 POP DUP2 DUP2 SUB PUSH0 DUP4 ADD MSTORE PUSH2 0x341E DUP2 PUSH2 0x33E5 JUMP JUMPDEST SWAP1 POP SWAP2 SWAP1 POP JUMP INVALID LOG2 PUSH5 0x6970667358 0x22 SLT KECCAK256 PUSH17 0x7DD5CBBCA38D877CE8708484EE4F61314C DUP5 DUP16 0xC2 REVERT EXTSTATICCALL 0xAF 0xED 0xBC 0xBD RETF 0xB1 SSTORE 0x28 POP PUSH5 0x736F6C6343 STOP ADDMOD 0x1E STOP CALLER "
				},
				"gasEstimates": {
					"creation": {
						"codeDepositCost": "2680600",
						"executionCost": "infinite",
						"totalCost": "infinite"
					},
					"external": {
						"DEFAULT_ADMIN_ROLE()": "396",
						"REGISTRAR_ROLE()": "435",
						"addParcelDocument(uint256,string)": "infinite",
						"addRegistrar(address)": "28855",
						"balanceOf(address)": "2930",
						"getParcel(uint256)": "infinite",
						"getParcelDocuments(uint256)": "infinite",
						"hasRole(bytes32,address)": "3232",
						"name()": "infinite",
						"ownerOf(uint256)": "2963",
						"parcelDocuments(uint256,uint256)": "infinite",
						"parcels(uint256)": "infinite",
						"registerParcel(address,string,string,string,string)": "infinite",
						"removeRegistrar(address)": "28898",
						"safeTransferParcel(uint256,address)": "infinite",
						"setParcelStatus(uint256,uint8,string)": "infinite",
						"symbol()": "infinite",
						"updateParcelMetadata(uint256,string,string)": "infinite"
					}
				},
				"methodIdentifiers": {
					"DEFAULT_ADMIN_ROLE()": "a217fddf",
					"REGISTRAR_ROLE()": "f68e9553",
					"addParcelDocument(uint256,string)": "a3384f83",
					"addRegistrar(address)": "af92a693",
					"balanceOf(address)": "70a08231",
					"getParcel(uint256)": "4d0434f2",
					"getParcelDocuments(uint256)": "bdca2f67",
					"hasRole(bytes32,address)": "91d14854",
					"name()": "06fdde03",
					"ownerOf(uint256)": "6352211e",
					"parcelDocuments(uint256,uint256)": "7ad00f60",
					"parcels(uint256)": "a0fa8ede",
					"registerParcel(address,string,string,string,string)": "22bdfd0e",
					"removeRegistrar(address)": "ba904eed",
					"safeTransferParcel(uint256,address)": "4f1c4b84",
					"setParcelStatus(uint256,uint8,string)": "b9238fb3",
					"symbol()": "95d89b41",
					"updateParcelMetadata(uint256,string,string)": "6b5b94f3"
				}
			},
			"storageLayout": {
				"storage": [
					{
						"astId": 152,
						"contract": "contracts/LandRegistryNFT.sol:LandRegistryNFT",
						"label": "name",
						"offset": 0,
						"slot": "0",
						"type": "t_string_storage"
					},
					{
						"astId": 154,
						"contract": "contracts/LandRegistryNFT.sol:LandRegistryNFT",
						"label": "symbol",
						"offset": 0,
						"slot": "1",
						"type": "t_string_storage"
					},
					{
						"astId": 158,
						"contract": "contracts/LandRegistryNFT.sol:LandRegistryNFT",
						"label": "_owners",
						"offset": 0,
						"slot": "2",
						"type": "t_mapping(t_uint256,t_address)"
					},
					{
						"astId": 162,
						"contract": "contracts/LandRegistryNFT.sol:LandRegistryNFT",
						"label": "_balances",
						"offset": 0,
						"slot": "3",
						"type": "t_mapping(t_address,t_uint256)"
					},
					{
						"astId": 11,
						"contract": "contracts/LandRegistryNFT.sol:LandRegistryNFT",
						"label": "_roles",
						"offset": 0,
						"slot": "4",
						"type": "t_mapping(t_bytes32,t_struct(RoleData)6_storage)"
					},
					{
						"astId": 481,
						"contract": "contracts/LandRegistryNFT.sol:LandRegistryNFT",
						"label": "_tokenIdCounter",
						"offset": 0,
						"slot": "5",
						"type": "t_struct(Counter)108_storage"
					},
					{
						"astId": 505,
						"contract": "contracts/LandRegistryNFT.sol:LandRegistryNFT",
						"label": "parcels",
						"offset": 0,
						"slot": "6",
						"type": "t_mapping(t_uint256,t_struct(Parcel)500_storage)"
					},
					{
						"astId": 510,
						"contract": "contracts/LandRegistryNFT.sol:LandRegistryNFT",
						"label": "parcelDocuments",
						"offset": 0,
						"slot": "7",
						"type": "t_mapping(t_uint256,t_array(t_string_storage)dyn_storage)"
					}
				],
				"types": {
					"t_address": {
						"encoding": "inplace",
						"label": "address",
						"numberOfBytes": "20"
					},
					"t_array(t_string_storage)dyn_storage": {
						"base": "t_string_storage",
						"encoding": "dynamic_array",
						"label": "string[]",
						"numberOfBytes": "32"
					},
					"t_bool": {
						"encoding": "inplace",
						"label": "bool",
						"numberOfBytes": "1"
					},
					"t_bytes32": {
						"encoding": "inplace",
						"label": "bytes32",
						"numberOfBytes": "32"
					},
					"t_enum(ParcelStatus)486": {
						"encoding": "inplace",
						"label": "enum LandRegistryNFT.ParcelStatus",
						"numberOfBytes": "1"
					},
					"t_mapping(t_address,t_bool)": {
						"encoding": "mapping",
						"key": "t_address",
						"label": "mapping(address => bool)",
						"numberOfBytes": "32",
						"value": "t_bool"
					},
					"t_mapping(t_address,t_uint256)": {
						"encoding": "mapping",
						"key": "t_address",
						"label": "mapping(address => uint256)",
						"numberOfBytes": "32",
						"value": "t_uint256"
					},
					"t_mapping(t_bytes32,t_struct(RoleData)6_storage)": {
						"encoding": "mapping",
						"key": "t_bytes32",
						"label": "mapping(bytes32 => struct AccessControl.RoleData)",
						"numberOfBytes": "32",
						"value": "t_struct(RoleData)6_storage"
					},
					"t_mapping(t_uint256,t_address)": {
						"encoding": "mapping",
						"key": "t_uint256",
						"label": "mapping(uint256 => address)",
						"numberOfBytes": "32",
						"value": "t_address"
					},
					"t_mapping(t_uint256,t_array(t_string_storage)dyn_storage)": {
						"encoding": "mapping",
						"key": "t_uint256",
						"label": "mapping(uint256 => string[])",
						"numberOfBytes": "32",
						"value": "t_array(t_string_storage)dyn_storage"
					},
					"t_mapping(t_uint256,t_struct(Parcel)500_storage)": {
						"encoding": "mapping",
						"key": "t_uint256",
						"label": "mapping(uint256 => struct LandRegistryNFT.Parcel)",
						"numberOfBytes": "32",
						"value": "t_struct(Parcel)500_storage"
					},
					"t_string_storage": {
						"encoding": "bytes",
						"label": "string",
						"numberOfBytes": "32"
					},
					"t_struct(Counter)108_storage": {
						"encoding": "inplace",
						"label": "struct Counters.Counter",
						"members": [
							{
								"astId": 107,
								"contract": "contracts/LandRegistryNFT.sol:LandRegistryNFT",
								"label": "_value",
								"offset": 0,
								"slot": "0",
								"type": "t_uint256"
							}
						],
						"numberOfBytes": "32"
					},
					"t_struct(Parcel)500_storage": {
						"encoding": "inplace",
						"label": "struct LandRegistryNFT.Parcel",
						"members": [
							{
								"astId": 488,
								"contract": "contracts/LandRegistryNFT.sol:LandRegistryNFT",
								"label": "lrNumber",
								"offset": 0,
								"slot": "0",
								"type": "t_string_storage"
							},
							{
								"astId": 490,
								"contract": "contracts/LandRegistryNFT.sol:LandRegistryNFT",
								"label": "county",
								"offset": 0,
								"slot": "1",
								"type": "t_string_storage"
							},
							{
								"astId": 492,
								"contract": "contracts/LandRegistryNFT.sol:LandRegistryNFT",
								"label": "coordinatesHash",
								"offset": 0,
								"slot": "2",
								"type": "t_string_storage"
							},
							{
								"astId": 494,
								"contract": "contracts/LandRegistryNFT.sol:LandRegistryNFT",
								"label": "ownerIdHash",
								"offset": 0,
								"slot": "3",
								"type": "t_string_storage"
							},
							{
								"astId": 497,
								"contract": "contracts/LandRegistryNFT.sol:LandRegistryNFT",
								"label": "status",
								"offset": 0,
								"slot": "4",
								"type": "t_enum(ParcelStatus)486"
							},
							{
								"astId": 499,
								"contract": "contracts/LandRegistryNFT.sol:LandRegistryNFT",
								"label": "registeredAt",
								"offset": 0,
								"slot": "5",
								"type": "t_uint256"
							}
						],
						"numberOfBytes": "192"
					},
					"t_struct(RoleData)6_storage": {
						"encoding": "inplace",
						"label": "struct AccessControl.RoleData",
						"members": [
							{
								"astId": 5,
								"contract": "contracts/LandRegistryNFT.sol:LandRegistryNFT",
								"label": "members",
								"offset": 0,
								"slot": "0",
								"type": "t_mapping(t_address,t_bool)"
							}
						],
						"numberOfBytes": "32"
					},
					"t_uint256": {
						"encoding": "inplace",
						"label": "uint256",
						"numberOfBytes": "32"
					}
				}
			},
			"userdoc": {
				"kind": "user",
				"methods": {},
				"version": 1
			}
		}
	}
}