{
	"data": {
		"bytecode": {
			"linkReferences": {},
			"object": "608060405234801561000f575f5ffd5b506040516139b13803806139b183398181016040528101906100319190610212565b6040518060400160405280601181526020017f4b656e79614c616e6452656769737472790000000000000000000000000000008152506040518060400160405280600381526020017f4b4c520000000000000000000000000000000000000000000000000000000000815250815f90816100ab919061047a565b5080600190816100bb919061047a565b5050506100d05f5f1b8261010660201b60201c565b6101007fedcc084d3dcd65a1f7f23c65c46722faca6953d28e43150a467cf43e5c3092388261010660201b60201c565b50610549565b600160045f8481526020019081526020015f205f015f8373ffffffffffffffffffffffffffffffffffffffff1673ffffffffffffffffffffffffffffffffffffffff1681526020019081526020015f205f6101000a81548160ff0219169083151502179055508073ffffffffffffffffffffffffffffffffffffffff16827f2ae6a113c0ed5b78a53413ffbb7679881f11145ccfba4fb92e863dfcd5a1d2f360405160405180910390a35050565b5f5ffd5b5f73ffffffffffffffffffffffffffffffffffffffff82169050919050565b5f6101e1826101b8565b9050919050565b6101f1816101d7565b81146101fb575f5ffd5b50565b5f8151905061020c816101e8565b92915050565b5f60208284031215610227576102266101b4565b5b5f610234848285016101fe565b91505092915050565b5f81519050919050565b7f4e487b71000000000000000000000000000000000000000000000000000000005f52604160045260245ffd5b7f4e487b71000000000000000000000000000000000000000000000000000000005f52602260045260245ffd5b5f60028204905060018216806102b857607f821691505b6020821081036102cb576102ca610274565b5b50919050565b5f819050815f5260205f209050919050565b5f6020601f8301049050919050565b5f82821b905092915050565b5f6008830261032d7fffffffffffffffffffffffffffffffffffffffffffffffffffffffffffffffff826102f2565b61033786836102f2565b95508019841693508086168417925050509392505050565b5f819050919050565b5f819050919050565b5f61037b6103766103718461034f565b610358565b61034f565b9050919050565b5f819050919050565b61039483610361565b6103a86103a082610382565b8484546102fe565b825550505050565b5f5f905090565b6103bf6103b0565b6103ca81848461038b565b505050565b5b818110156103ed576103e25f826103b7565b6001810190506103d0565b5050565b601f82111561043257610403816102d1565b61040c846102e3565b8101602085101561041b578190505b61042f610427856102e3565b8301826103cf565b50505b505050565b5f82821c905092915050565b5f6104525f1984600802610437565b1980831691505092915050565b5f61046a8383610443565b9150826002028217905092915050565b6104838261023d565b67ffffffffffffffff81111561049c5761049b610247565b5b6104a682546102a1565b6104b18282856103f1565b5f60209050601f8311600181146104e2575f84156104d0578287015190505b6104da858261045f565b865550610541565b601f1984166104f0866102d1565b5f5b82811015610517578489015182556001820191506020850194506020810190506104f2565b868310156105345784890151610530601f891682610443565b8355505b6001600288020188555050505b505050505050565b61345b806105565f395ff3fe608060405234801561000f575f5ffd5b5060043610610114575f3560e01c806395d89b41116100a0578063af92a6931161006f578063af92a69314610320578063b9238fb31461033c578063ba904eed14610358578063bdca2f6714610374578063f68e9553146103a457610114565b806395d89b4114610293578063a0fa8ede146102b1578063a217fddf146102e6578063a3384f831461030457610114565b80636352211e116100e75780636352211e146101b75780636b5b94f3146101e757806370a08231146102035780637ad00f601461023357806391d148541461026357610114565b806306fdde031461011857806322bdfd0e146101365780634d0434f2146101665780634f1c4b841461019b575b5f5ffd5b6101206103c2565b60405161012d9190612030565b60405180910390f35b610150600480360381019061014b9190612113565b61044d565b60405161015d9190612221565b60405180910390f35b610180600480360381019061017b9190612264565b6107df565b60405161019296959493929190612311565b60405180910390f35b6101b560048036038101906101b09190612385565b610b08565b005b6101d160048036038101906101cc9190612264565b610d35565b6040516101de91906123c3565b60405180910390f35b61020160048036038101906101fc91906123dc565b610de1565b005b61021d6004803603810190610218919061246d565b610eee565b60405161022a9190612221565b60405180910390f35b61024d60048036038101906102489190612498565b610fa2565b60405161025a9190612030565b60405180910390f35b61027d60048036038101906102789190612509565b611053565b60405161028a9190612561565b60405180910390f35b61029b6110b7565b6040516102a89190612030565b60405180910390f35b6102cb60048036038101906102c69190612264565b611143565b6040516102dd9695949392919061257a565b60405180910390f35b6102ee61139f565b6040516102fb9190612604565b60405180910390f35b61031e6004803603810190610319919061261d565b6113a5565b005b61033a6004803603810190610335919061246d565b6114df565b005b6103566004803603810190610351919061269d565b611559565b005b610372600480360381019061036d919061246d565b611687565b005b61038e60048036038101906103899190612264565b611701565b60405161039b9190612811565b60405180910390f35b6103ac61182e565b6040516103b99190612604565b60405180910390f35b5f80546103ce9061285e565b80601f01602080910402602001604051908101604052809291908181526020018280546103fa9061285e565b80156104455780601f1061041c57610100808354040283529160200191610445565b820191905f5260205f20905b81548152906001019060200180831161042857829003601f168201915b505050505081565b5f6104787fedcc084d3dcd65a1f7f23c65c46722faca6953d28e43150a467cf43e5c30923833611053565b6104b7576040517f08c379a00000000000000000000000000000000000000000000000000000000081526004016104ae906128d8565b60405180910390fd5b5f73ffffffffffffffffffffffffffffffffffffffff168a73ffffffffffffffffffffffffffffffffffffffff1603610525576040517f08c379a000000000000000000000000000000000000000000000000000000000815260040161051c90612940565b60405180910390fd5b5f898990501161056a576040517f08c379a0000000000000000000000000000000000000000000000000000000008152600401610561906129a8565b60405180910390fd5b6105746005611852565b5f61057f600561186f565b905061058b8b8261187b565b6040518060c001604052808b8b8080601f0160208091040260200160405190810160405280939291908181526020018383808284375f81840152601f19601f82011690508083019250505050505050815260200189898080601f0160208091040260200160405190810160405280939291908181526020018383808284375f81840152601f19601f82011690508083019250505050505050815260200187878080601f0160208091040260200160405190810160405280939291908181526020018383808284375f81840152601f19601f82011690508083019250505050505050815260200185858080601f0160208091040260200160405190810160405280939291908181526020018383808284375f81840152601f19601f8201169050808301925050505050505081526020015f60038111156106cd576106cc61228f565b5b81526020014281525060065f8381526020019081526020015f205f820151815f0190816106fa9190612b93565b5060208201518160010190816107109190612b93565b5060408201518160020190816107269190612b93565b50606082015181600301908161073c9190612b93565b506080820151816004015f6101000a81548160ff021916908360038111156107675761076661228f565b5b021790555060a082015181600501559050508a73ffffffffffffffffffffffffffffffffffffffff16817f2c9480c346df503f2f99e98b4234dfbfada212344a74d353e63500ceb9b7c19f8c8c8c8c6040516107c69493929190612c9c565b60405180910390a3809150509998505050505050505050565b60608060605f5f5f6107f087611a4e565b61082f576040517f08c379a000000000000000000000000000000000000000000000000000000000815260040161082690612d1f565b60405180910390fd5b5f60065f8981526020019081526020015f206040518060c00160405290815f8201805461085b9061285e565b80601f01602080910402602001604051908101604052809291908181526020018280546108879061285e565b80156108d25780601f106108a9576101008083540402835291602001916108d2565b820191905f5260205f20905b8154815290600101906020018083116108b557829003601f168201915b505050505081526020016001820180546108eb9061285e565b80601f01602080910402602001604051908101604052809291908181526020018280546109179061285e565b80156109625780601f1061093957610100808354040283529160200191610962565b820191905f5260205f20905b81548152906001019060200180831161094557829003601f168201915b5050505050815260200160028201805461097b9061285e565b80601f01602080910402602001604051908101604052809291908181526020018280546109a79061285e565b80156109f25780601f106109c9576101008083540402835291602001916109f2565b820191905f5260205f20905b8154815290600101906020018083116109d557829003601f168201915b50505050508152602001600382018054610a0b9061285e565b80601f0160208091040260200160405190810160405280929190818152602001828054610a379061285e565b8015610a825780601f10610a5957610100808354040283529160200191610a82565b820191905f5260205f20905b815481529060010190602001808311610a6557829003601f168201915b50505050508152602001600482015f9054906101000a900460ff166003811115610aaf57610aae61228f565b5b6003811115610ac157610ac061228f565b5b81526020016005820154815250509050805f01518160200151826040015183608001518460a00151610af28d610d35565b9650965096509650965096505091939550919395565b81610b1281611a4e565b610b51576040517f08c379a0000000000000000000000000000000000000000000000000000000008152600401610b4890612d1f565b60405180910390fd5b5f6003811115610b6457610b6361228f565b5b60065f8381526020019081526020015f206004015f9054906101000a900460ff166003811115610b9757610b9661228f565b5b14610bd7576040517f08c379a0000000000000000000000000000000000000000000000000000000008152600401610bce90612d87565b60405180910390fd5b5f73ffffffffffffffffffffffffffffffffffffffff168273ffffffffffffffffffffffffffffffffffffffff1603610c45576040517f08c379a0000000000000000000000000000000000000000000000000000000008152600401610c3c90612def565b60405180910390fd5b3373ffffffffffffffffffffffffffffffffffffffff16610c6584610d35565b73ffffffffffffffffffffffffffffffffffffffff1614610cbb576040517f08c379a0000000000000000000000000000000000000000000000000000000008152600401610cb290612e57565b60405180910390fd5b610cd533838560405180602001604052805f815250611ab6565b8173ffffffffffffffffffffffffffffffffffffffff163373ffffffffffffffffffffffffffffffffffffffff16847f26b9f0805d5ccecdc6d6f1f7d73613306cd67c0a244e342aa69b32799f5ff2b660405160405180910390a4505050565b5f5f60025f8481526020019081526020015f205f9054906101000a900473ffffffffffffffffffffffffffffffffffffffff1690505f73ffffffffffffffffffffffffffffffffffffffff168173ffffffffffffffffffffffffffffffffffffffff1603610dd8576040517f08c379a0000000000000000000000000000000000000000000000000000000008152600401610dcf90612ebf565b60405180910390fd5b80915050919050565b610e0b7fedcc084d3dcd65a1f7f23c65c46722faca6953d28e43150a467cf43e5c30923833611053565b610e4a576040517f08c379a0000000000000000000000000000000000000000000000000000000008152600401610e41906128d8565b60405180910390fd5b610e5385611a4e565b610e92576040517f08c379a0000000000000000000000000000000000000000000000000000000008152600401610e8990612d1f565b60405180910390fd5b5f60065f8781526020019081526020015f2090505f858590501115610ec6578484826002019182610ec4929190612ee7565b505b5f838390501115610ee6578282826003019182610ee4929190612ee7565b505b505050505050565b5f5f73ffffffffffffffffffffffffffffffffffffffff168273ffffffffffffffffffffffffffffffffffffffff1603610f5d576040517f08c379a0000000000000000000000000000000000000000000000000000000008152600401610f5490612ffe565b60405180910390fd5b60035f8373ffffffffffffffffffffffffffffffffffffffff1673ffffffffffffffffffffffffffffffffffffffff1681526020019081526020015f20549050919050565b6007602052815f5260405f208181548110610fbb575f80fd5b905f5260205f20015f91509150508054610fd49061285e565b80601f01602080910402602001604051908101604052809291908181526020018280546110009061285e565b801561104b5780601f106110225761010080835404028352916020019161104b565b820191905f5260205f20905b81548152906001019060200180831161102e57829003601f168201915b505050505081565b5f60045f8481526020019081526020015f205f015f8373ffffffffffffffffffffffffffffffffffffffff1673ffffffffffffffffffffffffffffffffffffffff1681526020019081526020015f205f9054906101000a900460ff16905092915050565b600180546110c49061285e565b80601f01602080910402602001604051908101604052809291908181526020018280546110f09061285e565b801561113b5780601f106111125761010080835404028352916020019161113b565b820191905f5260205f20905b81548152906001019060200180831161111e57829003601f168201915b505050505081565b6006602052805f5260405f205f91509050805f0180546111629061285e565b80601f016020809104026020016040519081016040528092919081815260200182805461118e9061285e565b80156111d95780601f106111b0576101008083540402835291602001916111d9565b820191905f5260205f20905b8154815290600101906020018083116111bc57829003601f168201915b5050505050908060010180546111ee9061285e565b80601f016020809104026020016040519081016040528092919081815260200182805461121a9061285e565b80156112655780601f1061123c57610100808354040283529160200191611265565b820191905f5260205f20905b81548152906001019060200180831161124857829003601f168201915b50505050509080600201805461127a9061285e565b80601f01602080910402602001604051908101604052809291908181526020018280546112a69061285e565b80156112f15780601f106112c8576101008083540402835291602001916112f1565b820191905f5260205f20905b8154815290600101906020018083116112d457829003601f168201915b5050505050908060030180546113069061285e565b80601f01602080910402602001604051908101604052809291908181526020018280546113329061285e565b801561137d5780601f106113545761010080835404028352916020019161137d565b820191905f5260205f20905b81548152906001019060200180831161136057829003601f168201915b505050505090806004015f9054906101000a900460ff16908060050154905086565b5f5f1b81565b6113cf7fedcc084d3dcd65a1f7f23c65c46722faca6953d28e43150a467cf43e5c30923833611053565b61140e576040517f08c379a0000000000000000000000000000000000000000000000000000000008152600401611405906128d8565b60405180910390fd5b61141783611a4e565b611456576040517f08c379a000000000000000000000000000000000000000000000000000000000815260040161144d90612d1f565b60405180910390fd5b60075f8481526020019081526020015f20828290918060018154018082558091505060019003905f5260205f20015f90919290919290919290919250918261149f929190612ee7565b50827f6caebdcd73cbcb009fab607ceb05aa2625597ee6a3861bef11d3ace03eee65d183836040516114d292919061301c565b60405180910390a2505050565b5f5f1b6114ec8133611053565b61152b576040517f08c379a000000000000000000000000000000000000000000000000000000000815260040161152290613088565b60405180910390fd5b6115557fedcc084d3dcd65a1f7f23c65c46722faca6953d28e43150a467cf43e5c30923883611cfe565b5050565b6115837fedcc084d3dcd65a1f7f23c65c46722faca6953d28e43150a467cf43e5c30923833611053565b6115c2576040517f08c379a00000000000000000000000000000000000000000000000000000000081526004016115b9906128d8565b60405180910390fd5b6115cb84611a4e565b61160a576040517f08c379a000000000000000000000000000000000000000000000000000000000815260040161160190612d1f565b60405180910390fd5b8260065f8681526020019081526020015f206004015f6101000a81548160ff021916908360038111156116405761163f61228f565b5b0217905550837f0df137f228c4a282196c6c7a66e306be2b21ef02fae4ce1480f1ab71f90c6aa5848484604051611679939291906130a6565b60405180910390a250505050565b5f5f1b6116948133611053565b6116d3576040517f08c379a00000000000000000000000000000000000000000000000000000000081526004016116ca90613088565b60405180910390fd5b6116fd7fedcc084d3dcd65a1f7f23c65c46722faca6953d28e43150a467cf43e5c30923883611dac565b5050565b606061170c82611a4e565b61174b576040517f08c379a000000000000000000000000000000000000000000000000000000000815260040161174290612d1f565b60405180910390fd5b60075f8381526020019081526020015f20805480602002602001604051908101604052809291908181526020015f905b82821015611823578382905f5260205f200180546117989061285e565b80601f01602080910402602001604051908101604052809291908181526020018280546117c49061285e565b801561180f5780601f106117e65761010080835404028352916020019161180f565b820191905f5260205f20905b8154815290600101906020018083116117f257829003601f168201915b50505050508152602001906001019061177b565b505050509050919050565b7fedcc084d3dcd65a1f7f23c65c46722faca6953d28e43150a467cf43e5c30923881565b6001815f015f8282546118659190613103565b9250508190555050565b5f815f01549050919050565b5f73ffffffffffffffffffffffffffffffffffffffff168273ffffffffffffffffffffffffffffffffffffffff16036118e9576040517f08c379a00000000000000000000000000000000000000000000000000000000081526004016118e090612ffe565b60405180910390fd5b6118f281611a4e565b15611932576040517f08c379a000000000000000000000000000000000000000000000000000000000815260040161192990613180565b60405180910390fd5b600160035f8473ffffffffffffffffffffffffffffffffffffffff1673ffffffffffffffffffffffffffffffffffffffff1681526020019081526020015f205f82825461197f9190613103565b925050819055508160025f8381526020019081526020015f205f6101000a81548173ffffffffffffffffffffffffffffffffffffffff021916908373ffffffffffffffffffffffffffffffffffffffff160217905550808273ffffffffffffffffffffffffffffffffffffffff165f73ffffffffffffffffffffffffffffffffffffffff167fddf252ad1be2c89b69c2b068fc378daa952ba7f163c4a11628f55a4df523b3ef60405160405180910390a4611a4a5f838360405180602001604052805f815250611e59565b5050565b5f5f73ffffffffffffffffffffffffffffffffffffffff1660025f8481526020019081526020015f205f9054906101000a900473ffffffffffffffffffffffffffffffffffffffff1673ffffffffffffffffffffffffffffffffffffffff1614159050919050565b8373ffffffffffffffffffffffffffffffffffffffff16611ad683610d35565b73ffffffffffffffffffffffffffffffffffffffff1614611b2c576040517f08c379a0000000000000000000000000000000000000000000000000000000008152600401611b23906131e8565b60405180910390fd5b5f73ffffffffffffffffffffffffffffffffffffffff168373ffffffffffffffffffffffffffffffffffffffff1603611b9a576040517f08c379a0000000000000000000000000000000000000000000000000000000008152600401611b9190612ffe565b60405180910390fd5b600160035f8673ffffffffffffffffffffffffffffffffffffffff1673ffffffffffffffffffffffffffffffffffffffff1681526020019081526020015f205f828254611be79190613206565b92505081905550600160035f8573ffffffffffffffffffffffffffffffffffffffff1673ffffffffffffffffffffffffffffffffffffffff1681526020019081526020015f205f828254611c3b9190613103565b925050819055508260025f8481526020019081526020015f205f6101000a81548173ffffffffffffffffffffffffffffffffffffffff021916908373ffffffffffffffffffffffffffffffffffffffff160217905550818373ffffffffffffffffffffffffffffffffffffffff168573ffffffffffffffffffffffffffffffffffffffff167fddf252ad1be2c89b69c2b068fc378daa952ba7f163c4a11628f55a4df523b3ef60405160405180910390a4611cf884848484611e59565b50505050565b600160045f8481526020019081526020015f205f015f8373ffffffffffffffffffffffffffffffffffffffff1673ffffffffffffffffffffffffffffffffffffffff1681526020019081526020015f205f6101000a81548160ff0219169083151502179055508073ffffffffffffffffffffffffffffffffffffffff16827f2ae6a113c0ed5b78a53413ffbb7679881f11145ccfba4fb92e863dfcd5a1d2f360405160405180910390a35050565b5f60045f8481526020019081526020015f205f015f8373ffffffffffffffffffffffffffffffffffffffff1673ffffffffffffffffffffffffffffffffffffffff1681526020019081526020015f205f6101000a81548160ff0219169083151502179055508073ffffffffffffffffffffffffffffffffffffffff16827f155aaafb6329a2098580462df33ec4b7441b19729b9601c5fc17ae1cf99a8a5260405160405180910390a35050565b5f8373ffffffffffffffffffffffffffffffffffffffff163b1115611fba578273ffffffffffffffffffffffffffffffffffffffff1663150b7a02338685856040518563ffffffff1660e01b8152600401611eb7949392919061328b565b6020604051808303815f875af1925050508015611ef257506040513d601f19601f82011682018060405250810190611eef919061332a565b60015b611f31576040517f08c379a0000000000000000000000000000000000000000000000000000000008152600401611f289061339f565b60405180910390fd5b63150b7a0260e01b7bffffffffffffffffffffffffffffffffffffffffffffffffffffffff1916817bffffffffffffffffffffffffffffffffffffffffffffffffffffffff191614611fb8576040517f08c379a0000000000000000000000000000000000000000000000000000000008152600401611faf90613407565b60405180910390fd5b505b50505050565b5f81519050919050565b5f82825260208201905092915050565b8281835e5f83830152505050565b5f601f19601f8301169050919050565b5f61200282611fc0565b61200c8185611fca565b935061201c818560208601611fda565b61202581611fe8565b840191505092915050565b5f6020820190508181035f8301526120488184611ff8565b905092915050565b5f5ffd5b5f5ffd5b5f73ffffffffffffffffffffffffffffffffffffffff82169050919050565b5f61208182612058565b9050919050565b61209181612077565b811461209b575f5ffd5b50565b5f813590506120ac81612088565b92915050565b5f5ffd5b5f5ffd5b5f5ffd5b5f5f83601f8401126120d3576120d26120b2565b5b8235905067ffffffffffffffff8111156120f0576120ef6120b6565b5b60208301915083600182028301111561210c5761210b6120ba565b5b9250929050565b5f5f5f5f5f5f5f5f5f60a08a8c0312156121305761212f612050565b5b5f61213d8c828d0161209e565b99505060208a013567ffffffffffffffff81111561215e5761215d612054565b5b61216a8c828d016120be565b985098505060408a013567ffffffffffffffff81111561218d5761218c612054565b5b6121998c828d016120be565b965096505060608a013567ffffffffffffffff8111156121bc576121bb612054565b5b6121c88c828d016120be565b945094505060808a013567ffffffffffffffff8111156121eb576121ea612054565b5b6121f78c828d016120be565b92509250509295985092959850929598565b5f819050919050565b61221b81612209565b82525050565b5f6020820190506122345f830184612212565b92915050565b61224381612209565b811461224d575f5ffd5b50565b5f8135905061225e8161223a565b92915050565b5f6020828403121561227957612278612050565b5b5f61228684828501612250565b91505092915050565b7f4e487b71000000000000000000000000000000000000000000000000000000005f52602160045260245ffd5b600481106122cd576122cc61228f565b5b50565b5f8190506122dd826122bc565b919050565b5f6122ec826122d0565b9050919050565b6122fc816122e2565b82525050565b61230b81612077565b82525050565b5f60c0820190508181035f8301526123298189611ff8565b9050818103602083015261233d8188611ff8565b905081810360408301526123518187611ff8565b905061236060608301866122f3565b61236d6080830185612212565b61237a60a0830184612302565b979650505050505050565b5f5f6040838503121561239b5761239a612050565b5b5f6123a885828601612250565b92505060206123b98582860161209e565b9150509250929050565b5f6020820190506123d65f830184612302565b92915050565b5f5f5f5f5f606086880312156123f5576123f4612050565b5b5f61240288828901612250565b955050602086013567ffffffffffffffff81111561242357612422612054565b5b61242f888289016120be565b9450945050604086013567ffffffffffffffff81111561245257612451612054565b5b61245e888289016120be565b92509250509295509295909350565b5f6020828403121561248257612481612050565b5b5f61248f8482850161209e565b91505092915050565b5f5f604083850312156124ae576124ad612050565b5b5f6124bb85828601612250565b92505060206124cc85828601612250565b9150509250929050565b5f819050919050565b6124e8816124d6565b81146124f2575f5ffd5b50565b5f81359050612503816124df565b92915050565b5f5f6040838503121561251f5761251e612050565b5b5f61252c858286016124f5565b925050602061253d8582860161209e565b9150509250929050565b5f8115159050919050565b61255b81612547565b82525050565b5f6020820190506125745f830184612552565b92915050565b5f60c0820190508181035f8301526125928189611ff8565b905081810360208301526125a68188611ff8565b905081810360408301526125ba8187611ff8565b905081810360608301526125ce8186611ff8565b90506125dd60808301856122f3565b6125ea60a0830184612212565b979650505050505050565b6125fe816124d6565b82525050565b5f6020820190506126175f8301846125f5565b92915050565b5f5f5f6040848603121561263457612633612050565b5b5f61264186828701612250565b935050602084013567ffffffffffffffff81111561266257612661612054565b5b61266e868287016120be565b92509250509250925092565b60048110612686575f5ffd5b50565b5f813590506126978161267a565b92915050565b5f5f5f5f606085870312156126b5576126b4612050565b5b5f6126c287828801612250565b94505060206126d387828801612689565b935050604085013567ffffffffffffffff8111156126f4576126f3612054565b5b612700878288016120be565b925092505092959194509250565b5f81519050919050565b5f82825260208201905092915050565b5f819050602082019050919050565b5f82825260208201905092915050565b5f61275182611fc0565b61275b8185612737565b935061276b818560208601611fda565b61277481611fe8565b840191505092915050565b5f61278a8383612747565b905092915050565b5f602082019050919050565b5f6127a88261270e565b6127b28185612718565b9350836020820285016127c485612728565b805f5b858110156127ff57848403895281516127e0858261277f565b94506127eb83612792565b925060208a019950506001810190506127c7565b50829750879550505050505092915050565b5f6020820190508181035f830152612829818461279e565b905092915050565b7f4e487b71000000000000000000000000000000000000000000000000000000005f52602260045260245ffd5b5f600282049050600182168061287557607f821691505b60208210810361288857612887612831565b5b50919050565b7f4e6f7420726567697374726172000000000000000000000000000000000000005f82015250565b5f6128c2600d83611fca565b91506128cd8261288e565b602082019050919050565b5f6020820190508181035f8301526128ef816128b6565b9050919050565b7f496e76616c6964206f776e6572000000000000000000000000000000000000005f82015250565b5f61292a600d83611fca565b9150612935826128f6565b602082019050919050565b5f6020820190508181035f8301526129578161291e565b9050919050565b7f4c52206e756d62657220726571756972656400000000000000000000000000005f82015250565b5f612992601283611fca565b915061299d8261295e565b602082019050919050565b5f6020820190508181035f8301526129bf81612986565b9050919050565b7f4e487b71000000000000000000000000000000000000000000000000000000005f52604160045260245ffd5b5f819050815f5260205f209050919050565b5f6020601f8301049050919050565b5f82821b905092915050565b5f60088302612a4f7fffffffffffffffffffffffffffffffffffffffffffffffffffffffffffffffff82612a14565b612a598683612a14565b95508019841693508086168417925050509392505050565b5f819050919050565b5f612a94612a8f612a8a84612209565b612a71565b612209565b9050919050565b5f819050919050565b612aad83612a7a565b612ac1612ab982612a9b565b848454612a20565b825550505050565b5f5f905090565b612ad8612ac9565b612ae3818484612aa4565b505050565b5b81811015612b0657612afb5f82612ad0565b600181019050612ae9565b5050565b601f821115612b4b57612b1c816129f3565b612b2584612a05565b81016020851015612b34578190505b612b48612b4085612a05565b830182612ae8565b50505b505050565b5f82821c905092915050565b5f612b6b5f1984600802612b50565b1980831691505092915050565b5f612b838383612b5c565b9150826002028217905092915050565b612b9c82611fc0565b67ffffffffffffffff811115612bb557612bb46129c6565b5b612bbf825461285e565b612bca828285612b0a565b5f60209050601f831160018114612bfb575f8415612be9578287015190505b612bf38582612b78565b865550612c5a565b601f198416612c09866129f3565b5f5b82811015612c3057848901518255600182019150602085019450602081019050612c0b565b86831015612c4d5784890151612c49601f891682612b5c565b8355505b6001600288020188555050505b505050505050565b828183375f83830152505050565b5f612c7b8385611fca565b9350612c88838584612c62565b612c9183611fe8565b840190509392505050565b5f6040820190508181035f830152612cb5818688612c70565b90508181036020830152612cca818486612c70565b905095945050505050565b7f50617263656c20646f6573206e6f7420657869737400000000000000000000005f82015250565b5f612d09601583611fca565b9150612d1482612cd5565b602082019050919050565b5f6020820190508181035f830152612d3681612cfd565b9050919050565b7f50617263656c206e6f74206163746976650000000000000000000000000000005f82015250565b5f612d71601183611fca565b9150612d7c82612d3d565b602082019050919050565b5f6020820190508181035f830152612d9e81612d65565b9050919050565b7f496e76616c696420726563697069656e740000000000000000000000000000005f82015250565b5f612dd9601183611fca565b9150612de482612da5565b602082019050919050565b5f6020820190508181035f830152612e0681612dcd565b9050919050565b7f4e6f742070617263656c206f776e6572000000000000000000000000000000005f82015250565b5f612e41601083611fca565b9150612e4c82612e0d565b602082019050919050565b5f6020820190508181035f830152612e6e81612e35565b9050919050565b7f4e6f6e6578697374656e7420746f6b656e0000000000000000000000000000005f82015250565b5f612ea9601183611fca565b9150612eb482612e75565b602082019050919050565b5f6020820190508181035f830152612ed681612e9d565b9050919050565b5f82905092915050565b612ef18383612edd565b67ffffffffffffffff811115612f0a57612f096129c6565b5b612f14825461285e565b612f1f828285612b0a565b5f601f831160018114612f4c575f8415612f3a578287013590505b612f448582612b78565b865550612fab565b601f198416612f5a866129f3565b5f5b82811015612f8157848901358255600182019150602085019450602081019050612f5c565b86831015612f9e5784890135612f9a601f891682612b5c565b8355505b6001600288020188555050505b50505050505050565b7f5a65726f206164647265737300000000000000000000000000000000000000005f82015250565b5f612fe8600c83611fca565b9150612ff382612fb4565b602082019050919050565b5f6020820190508181035f83015261301581612fdc565b9050919050565b5f6020820190508181035f830152613035818486612c70565b90509392505050565b7f4163636573732064656e696564000000000000000000000000000000000000005f82015250565b5f613072600d83611fca565b915061307d8261303e565b602082019050919050565b5f6020820190508181035f83015261309f81613066565b9050919050565b5f6040820190506130b95f8301866122f3565b81810360208301526130cc818486612c70565b9050949350505050565b7f4e487b71000000000000000000000000000000000000000000000000000000005f52601160045260245ffd5b5f61310d82612209565b915061311883612209565b92508282019050808211156131305761312f6130d6565b5b92915050565b7f416c7265616479206d696e7465640000000000000000000000000000000000005f82015250565b5f61316a600e83611fca565b915061317582613136565b602082019050919050565b5f6020820190508181035f8301526131978161315e565b9050919050565b7f4e6f74206f776e657200000000000000000000000000000000000000000000005f82015250565b5f6131d2600983611fca565b91506131dd8261319e565b602082019050919050565b5f6020820190508181035f8301526131ff816131c6565b9050919050565b5f61321082612209565b915061321b83612209565b9250828203905081811115613233576132326130d6565b5b92915050565b5f81519050919050565b5f82825260208201905092915050565b5f61325d82613239565b6132678185613243565b9350613277818560208601611fda565b61328081611fe8565b840191505092915050565b5f60808201905061329e5f830187612302565b6132ab6020830186612302565b6132b86040830185612212565b81810360608301526132ca8184613253565b905095945050505050565b5f7fffffffff0000000000000000000000000000000000000000000000000000000082169050919050565b613309816132d5565b8114613313575f5ffd5b50565b5f8151905061332481613300565b92915050565b5f6020828403121561333f5761333e612050565b5b5f61334c84828501613316565b91505092915050565b7f5472616e7366657220746f206e6f6e20455243373231526563656976657200005f82015250565b5f613389601e83611fca565b915061339482613355565b602082019050919050565b5f6020820190508181035f8301526133b68161337d565b9050919050565b7f45524337323152656365697665722072656a656374656420746f6b656e7300005f82015250565b5f6133f1601e83611fca565b91506133fc826133bd565b602082019050919050565b5f6020820190508181035f83015261341e816133e5565b905091905056fea2646970667358221220707dd5cbbca38d877ce8708484ee4f61314c848fc2fdfbafedbcbde4b155285064736f6c634300081e0033",
			"opcodes": "PUSH1 0x80 PUSH1 0x40 MSTORE CALLVALUE DUP1 ISZERO PUSH2 0xF JUMPI PUSH0 PUSH0 REVERT JUMPDEST POP PUSH1 0x40 MLOAD PUSH2 0x39B1 CODESIZE SUB DUP1 PUSH2 0x39B1 DUP4 CODECOPY DUP2 DUP2 ADD PUSH1 0x40 MSTORE DUP2 ADD SWAP1 PUSH2 0x31 SWAP2 SWAP1 PUSH2 0x212 JUMP JUMPDEST PUSH1 0x40 MLOAD DUP1 PUSH1 0x40 ADD PUSH1 0x40 MSTORE DUP1 PUSH1 0x11 DUP2 MSTORE PUSH1 0x20 ADD PUSH32 0x4B656E79614C616E645265676973747279000000000000000000000000000000 DUP2 MSTORE POP PUSH1 0x40 MLOAD DUP1 PUSH1 0x40 ADD PUSH1 0x40 MSTORE DUP1 PUSH1 0x3 DUP2 MSTORE PUSH1 0x20 ADD PUSH32 0x4B4C520000000000000000000000000000000000000000000000000000000000 DUP2 MSTORE POP DUP2 PUSH0 SWAP1 DUP2 PUSH2 0xAB SWAP2 SWAP1 PUSH2 0x47A JUMP JUMPDEST POP DUP1 PUSH1 0x1 SWAP1 DUP2 PUSH2 0xBB SWAP2 SWAP1 PUSH2 0x47A JUMP JUMPDEST POP POP POP PUSH2 0xD0 PUSH0 PUSH0 SHL DUP3 PUSH2 0x106 PUSH1 0x20 SHL PUSH1 0x20 SHR JUMP JUMPDEST PUSH2 0x100 PUSH32 0xEDCC084D3DCD65A1F7F23C65C46722FACA6953D28E43150A467CF43E5C309238 DUP3 PUSH2 0x106 PUSH1 0x20 SHL PUSH1 0x20 SHR JUMP JUMPDEST POP PUSH2 0x549 JUMP JUMPDEST PUSH1 0x1 PUSH1 0x4 PUSH0 DUP5 DUP2 MSTORE PUSH1 0x20 ADD SWAP1 DUP2 MSTORE PUSH1 0x20 ADD PUSH0 KECCAK256 PUSH0 ADD PUSH0 DUP4 PUSH20 0xFFFFFFFFFFFFFFFFFFFFFFFFFFFFFFFFFFFFFFFF AND PUSH20 0xFFFFFFFFFFFFFFFFFFFFFFFFFFFFFFFFFFFFFFFF AND DUP2 MSTORE PUSH1 0x20 ADD SWAP1 DUP2 MSTORE PUSH1 0x20 ADD PUSH0 KECCAK256 PUSH0 PUSH2 0x100 EXP DUP2 SLOAD DUP2 PUSH1 0xFF MUL NOT AND SWAP1 DUP4 ISZERO ISZERO MUL OR SWAP1 SSTORE POP DUP1 PUSH20 0xFFFFFFFFFFFFFFFFFFFFFFFFFFFFFFFFFFFFFFFF AND DUP3 PUSH32 0x2AE6A113C0ED5B78A53413FFBB7679881F11145CCFBA4FB92E863DFCD5A1D2F3 PUSH1 0x40 MLOAD PUSH1 0x40 MLOAD DUP1 SWAP2 SUB SWAP1 LOG3 POP POP JUMP JUMPDEST PUSH0 PUSH0 REVERT JUMPDEST PUSH0 PUSH20 0xFFFFFFFFFFFFFFFFFFFFFFFFFFFFFFFFFFFFFFFF DUP3 AND SWAP1 POP SWAP2 SWAP1 POP JUMP JUMPDEST PUSH0 PUSH2 0x1E1 DUP3 PUSH2 0x1B8 JUMP JUMPDEST SWAP1 POP SWAP2 SWAP1 POP JUMP JUMPDEST PUSH2 0x1F1 DUP2 PUSH2 0x1D7 JUMP JUMPDEST DUP2 EQ PUSH2 0x1FB JUMPI PUSH0 PUSH0 REVERT JUMPDEST POP JUMP JUMPDEST PUSH0 DUP2 MLOAD SWAP1 POP PUSH2 0x20C DUP2 PUSH2 0x1E8 JUMP JUMPDEST SWAP3 SWAP2 POP POP JUMP JUMPDEST PUSH0 PUSH1 0x20 DUP3 DUP5 SUB SLT ISZERO PUSH2 0x227 JUMPI PUSH2 0x226 PUSH2 0x1B4 JUMP JUMPDEST JUMPDEST PUSH0 PUSH2 0x234 DUP5 DUP3 DUP6 ADD PUSH2 0x1FE JUMP JUMPDEST SWAP2 POP POP SWAP3 SWAP2 POP POP JUMP JUMPDEST PUSH0 DUP2 MLOAD SWAP1 POP SWAP2 SWAP1 POP JUMP JUMPDEST PUSH32 0x4E487B7100000000000000000000000000000000000000000000000000000000 PUSH0 MSTORE PUSH1 0x41 PUSH1 0x4 MSTORE PUSH1 0x24 PUSH0 REVERT JUMPDEST PUSH32 0x4E487B7100000000000000000000000000000000000000000000000000000000 PUSH0 MSTORE PUSH1 0x22 PUSH1 0x4 MSTORE PUSH1 0x24 PUSH0 REVERT JUMPDEST PUSH0 PUSH1 0x2 DUP3 DIV SWAP1 POP PUSH1 0x1 DUP3 AND DUP1 PUSH2 0x2B8 JUMPI PUSH1 0x7F DUP3 AND SWAP2 POP JUMPDEST PUSH1 0x20 DUP3 LT DUP2 SUB PUSH2 0x2CB JUMPI PUSH2 0x2CA PUSH2 0x274 JUMP JUMPDEST JUMPDEST POP SWAP2 SWAP1 POP JUMP JUMPDEST PUSH0 DUP2 SWAP1 POP DUP2 PUSH0 MSTORE PUSH1 0x20 PUSH0 KECCAK256 SWAP1 POP SWAP2 SWAP1 POP JUMP JUMPDEST PUSH0 PUSH1 0x20 PUSH1 0x1F DUP4 ADD DIV SWAP1 POP SWAP2 SWAP1 POP JUMP JUMPDEST PUSH0 DUP3 DUP3 SHL SWAP1 POP SWAP3 SWAP2 POP POP JUMP JUMPDEST PUSH0 PUSH1 0x8 DUP4 MUL PUSH2 0x32D PUSH32 0xFFFFFFFFFFFFFFFFFFFFFFFFFFFFFFFFFFFFFFFFFFFFFFFFFFFFFFFFFFFFFFFF DUP3 PUSH2 0x2F2 JUMP JUMPDEST PUSH2 0x337 DUP7 DUP4 PUSH2 0x2F2 JUMP JUMPDEST SWAP6 POP DUP1 NOT DUP5 AND SWAP4 POP DUP1 DUP7 AND DUP5 OR SWAP3 POP POP POP SWAP4 SWAP3 POP POP POP JUMP JUMPDEST PUSH0 DUP2 SWAP1 POP SWAP2 SWAP1 POP JUMP JUMPDEST PUSH0 DUP2 SWAP1 POP SWAP2 SWAP1 POP JUMP JUMPDEST PUSH0 PUSH2 0x37B PUSH2 0x376 PUSH2 0x371 DUP5 PUSH2 0x34F JUMP JUMPDEST PUSH2 0x358 JUMP JUMPDEST PUSH2 0x34F JUMP JUMPDEST SWAP1 POP SWAP2 SWAP1 POP JUMP JUMPDEST PUSH0 DUP2 SWAP1 POP SWAP2 SWAP1 POP JUMP JUMPDEST PUSH2 0x394 DUP4 PUSH2 0x361 JUMP JUMPDEST PUSH2 0x3A8 PUSH2 0x3A0 DUP3 PUSH2 0x382 JUMP JUMPDEST DUP5 DUP5 SLOAD PUSH2 0x2FE JUMP JUMPDEST DUP3 SSTORE POP POP POP POP JUMP JUMPDEST PUSH0 PUSH0 SWAP1 POP SWAP1 JUMP JUMPDEST PUSH2 0x3BF PUSH2 0x3B0 JUMP JUMPDEST PUSH2 0x3CA DUP2 DUP5 DUP5 PUSH2 0x38B JUMP JUMPDEST POP POP POP JUMP JUMPDEST JUMPDEST DUP2 DUP2 LT ISZERO PUSH2 0x3ED JUMPI PUSH2 0x3E2 PUSH0 DUP3 PUSH2 0x3B7 JUMP JUMPDEST PUSH1 0x1 DUP2 ADD SWAP1 POP PUSH2 0x3D0 JUMP JUMPDEST POP POP JUMP JUMPDEST PUSH1 0x1F DUP3 GT ISZERO PUSH2 0x432 JUMPI PUSH2 0x403 DUP2 PUSH2 0x2D1 JUMP JUMPDEST PUSH2 0x40C DUP5 PUSH2 0x2E3 JUMP JUMPDEST DUP2 ADD PUSH1 0x20 DUP6 LT ISZERO PUSH2 0x41B JUMPI DUP2 SWAP1 POP JUMPDEST PUSH2 0x42F PUSH2 0x427 DUP6 PUSH2 0x2E3 JUMP JUMPDEST DUP4 ADD DUP3 PUSH2 0x3CF JUMP JUMPDEST POP POP JUMPDEST POP POP POP JUMP JUMPDEST PUSH0 DUP3 DUP3 SHR SWAP1 POP SWAP3 SWAP2 POP POP JUMP JUMPDEST PUSH0 PUSH2 0x452 PUSH0 NOT DUP5 PUSH1 0x8 MUL PUSH2 0x437 JUMP JUMPDEST NOT DUP1 DUP4 AND SWAP2 POP POP SWAP3 SWAP2 POP POP JUMP JUMPDEST PUSH0 PUSH2 0x46A DUP4 DUP4 PUSH2 0x443 JUMP JUMPDEST SWAP2 POP DUP3 PUSH1 0x2 MUL DUP3 OR SWAP1 POP SWAP3 SWAP2 POP POP JUMP JUMPDEST PUSH2 0x483 DUP3 PUSH2 0x23D JUMP JUMPDEST PUSH8 0xFFFFFFFFFFFFFFFF DUP2 GT ISZERO PUSH2 0x49C JUMPI PUSH2 0x49B PUSH2 0x247 JUMP JUMPDEST JUMPDEST PUSH2 0x4A6 DUP3 SLOAD PUSH2 0x2A1 JUMP JUMPDEST PUSH2 0x4B1 DUP3 DUP3 DUP6 PUSH2 0x3F1 JUMP JUMPDEST PUSH0 PUSH1 0x20 SWAP1 POP PUSH1 0x1F DUP4 GT PUSH1 0x1 DUP2 EQ PUSH2 0x4E2 JUMPI PUSH0 DUP5 ISZERO PUSH2 0x4D0 JUMPI DUP3 DUP8 ADD MLOAD SWAP1 POP JUMPDEST PUSH2 0x4DA DUP6 DUP3 PUSH2 0x45F JUMP JUMPDEST DUP7 SSTORE POP PUSH2 0x541 JUMP JUMPDEST PUSH1 0x1F NOT DUP5 AND PUSH2 0x4F0 DUP7 PUSH2 0x2D1 JUMP JUMPDEST PUSH0 JUMPDEST DUP3 DUP2 LT ISZERO PUSH2 0x517 JUMPI DUP5 DUP10 ADD MLOAD DUP3 SSTORE PUSH1 0x1 DUP3 ADD SWAP2 POP PUSH1 0x20 DUP6 ADD SWAP5 POP PUSH1 0x20 DUP2 ADD SWAP1 POP PUSH2 0x4F2 JUMP JUMPDEST DUP7 DUP4 LT ISZERO PUSH2 0x534 JUMPI DUP5 DUP10 ADD MLOAD PUSH2 0x530 PUSH1 0x1F DUP10 AND DUP3 PUSH2 0x443 JUMP JUMPDEST DUP4 SSTORE POP JUMPDEST PUSH1 0x1 PUSH1 0x2 DUP9 MUL ADD DUP9 SSTORE POP POP POP JUMPDEST POP POP POP POP POP POP JUMP JUMPDEST PUSH2 0x345B DUP1 PUSH2 0x556 PUSH0 CODECOPY PUSH0 RETURN INVALID PUSH1 0x80 PUSH1 0x40 MSTORE CALLVALUE DUP1 ISZERO PUSH2 0xF JUMPI PUSH0 PUSH0 REVERT JUMPDEST POP PUSH1 0x4 CALLDATASIZE LT PUSH2 0x114 JUMPI PUSH0 CALLDATALOAD PUSH1 0xE0 SHR DUP1 PUSH4 0x95D89B41 GT PUSH2 0xA0 JUMPI DUP1 PUSH4 0xAF92A693 GT PUSH2 0x6F JUMPI DUP1 PUSH4 0xAF92A693 EQ PUSH2 0x320 JUMPI DUP1 PUSH4 0xB9238FB3 EQ PUSH2 0x33C JUMPI DUP1 PUSH4 0xBA904EED EQ PUSH2 0x358 JUMPI DUP1 PUSH4 0xBDCA2F67 EQ PUSH2 0x374 JUMPI DUP1 PUSH4 0xF68E9553 EQ PUSH2 0x3A4 JUMPI PUSH2 0x114 JUMP JUMPDEST DUP1 PUSH4 0x95D89B41 EQ PUSH2 0x293 JUMPI DUP1 PUSH4 0xA0FA8EDE EQ PUSH2 0x2B1 JUMPI DUP1 PUSH4 0xA217FDDF EQ PUSH2 0x2E6 JUMPI DUP1 PUSH4 0xA3384F83 EQ PUSH2 0x304 JUMPI PUSH2 0x114 JUMP JUMPDEST DUP1 PUSH4 0x6352211E GT PUSH2 0xE7 JUMPI DUP1 PUSH4 0x6352211E EQ PUSH2 0x1B7 JUMPI DUP1 PUSH4 0x6B5B94F3 EQ PUSH2 0x1E7 JUMPI DUP1 PUSH4 0x70A08231 EQ PUSH2 0x203 JUMPI DUP1 PUSH4 0x7AD00F60 EQ PUSH2 0x233 JUMPI DUP1 PUSH4 0x91D14854 EQ PUSH2 0x263 JUMPI PUSH2 0x114 JUMP JUMPDEST DUP1 PUSH4 0x6FDDE03 EQ PUSH2 0x118 JUMPI DUP1 PUSH4 0x22BDFD0E EQ PUSH2 0x136 JUMPI DUP1 PUSH4 0x4D0434F2 EQ PUSH2 0x166 JUMPI DUP1 PUSH4 0x4F1C4B84 EQ PUSH2 0x19B JUMPI JUMPDEST PUSH0 PUSH0 REVERT JUMPDEST PUSH2 0x120 PUSH2 0x3C2 JUMP JUMPDEST PUSH1 0x40 MLOAD PUSH2 0x12D SWAP2 SWAP1 PUSH2 0x2030 JUMP JUMPDEST PUSH1 0x40 MLOAD DUP1 SWAP2 SUB SWAP1 RETURN JUMPDEST PUSH2 0x150 PUSH1 0x4 DUP1 CALLDATASIZE SUB DUP2 ADD SWAP1 PUSH2 0x14B SWAP2 SWAP1 PUSH2 0x2113 JUMP JUMPDEST PUSH2 0x44D JUMP JUMPDEST PUSH1 0x40 MLOAD PUSH2 0x15D SWAP2 SWAP1 PUSH2 0x2221 JUMP JUMPDEST PUSH1 0x40 MLOAD DUP1 SWAP2 SUB SWAP1 RETURN JUMPDEST PUSH2 0x180 PUSH1 0x4 DUP1 CALLDATASIZE SUB DUP2 ADD SWAP1 PUSH2 0x17B SWAP2 SWAP1 PUSH2 0x2264 JUMP JUMPDEST PUSH2 0x7DF JUMP JUMPDEST PUSH1 0x40 MLOAD PUSH2 0x192 SWAP7 SWAP6 SWAP5 SWAP4 SWAP3 SWAP2 SWAP1 PUSH2 0x2311 JUMP JUMPDEST PUSH1 0x40 MLOAD DUP1 SWAP2 SUB SWAP1 RETURN JUMPDEST PUSH2 0x1B5 PUSH1 0x4 DUP1 CALLDATASIZE SUB DUP2 ADD SWAP1 PUSH2 0x1B0 SWAP2 SWAP1 PUSH2 0x2385 JUMP JUMPDEST PUSH2 0xB08 JUMP JUMPDEST STOP JUMPDEST PUSH2 0x1D1 PUSH1 0x4 DUP1 CALLDATASIZE SUB DUP2 ADD SWAP1 PUSH2 0x1CC SWAP2 SWAP1 PUSH2 0x2264 JUMP JUMPDEST PUSH2 0xD35 JUMP JUMPDEST PUSH1 0x40 MLOAD PUSH2 0x1DE SWAP2 SWAP1 PUSH2 0x23C3 JUMP JUMPDEST PUSH1 0x40 MLOAD DUP1 SWAP2 SUB SWAP1 RETURN JUMPDEST PUSH2 0x201 PUSH1 0x4 DUP1 CALLDATASIZE SUB DUP2 ADD SWAP1 PUSH2 0x1FC SWAP2 SWAP1 PUSH2 0x23DC JUMP JUMPDEST PUSH2 0xDE1 JUMP JUMPDEST STOP JUMPDEST PUSH2 0x21D PUSH1 0x4 DUP1 CALLDATASIZE SUB DUP2 ADD SWAP1 PUSH2 0x218 SWAP2 SWAP1 PUSH2 0x246D JUMP JUMPDEST PUSH2 0xEEE JUMP JUMPDEST PUSH1 0x40 MLOAD PUSH2 0x22A SWAP2 SWAP1 PUSH2 0x2221 JUMP JUMPDEST PUSH1 0x40 MLOAD DUP1 SWAP2 SUB SWAP1 RETURN JUMPDEST PUSH2 0x24D PUSH1 0x4 DUP1 CALLDATASIZE SUB DUP2 ADD SWAP1 PUSH2 0x248 SWAP2 SWAP1 PUSH2 0x2498 JUMP JUMPDEST PUSH2 0xFA2 JUMP JUMPDEST PUSH1 0x40 MLOAD PUSH2 0x25A SWAP2 SWAP1 PUSH2 0x2030 JUMP JUMPDEST PUSH1 0x40 MLOAD DUP1 SWAP2 SUB SWAP1 RETURN JUMPDEST PUSH2 0x27D PUSH1 0x4 DUP1 CALLDATASIZE SUB DUP2 ADD SWAP1 PUSH2 0x278 SWAP2 SWAP1 PUSH2 0x2509 JUMP JUMPDEST PUSH2 0x1053 JUMP JUMPDEST PUSH1 0x40 MLOAD PUSH2 0x28A SWAP2 SWAP1 PUSH2 0x2561 JUMP JUMPDEST PUSH1 0x40 MLOAD DUP1 SWAP2 SUB SWAP1 RETURN JUMPDEST PUSH2 0x29B PUSH2 0x10B7 JUMP JUMPDEST PUSH1 0x40 MLOAD PUSH2 0x2A8 SWAP2 SWAP1 PUSH2 0x2030 JUMP JUMPDEST PUSH1 0x40 MLOAD DUP1 SWAP2 SUB SWAP1 RETURN JUMPDEST PUSH2 0x2CB PUSH1 0x4 DUP1 CALLDATASIZE SUB DUP2 ADD SWAP1 PUSH2 0x2C6 SWAP2 SWAP1 PUSH2 0x2264 JUMP JUMPDEST PUSH2 0x1143 JUMP JUMPDEST PUSH1 0x40 MLOAD PUSH2 0x2DD SWAP7 SWAP6 SWAP5 SWAP4 SWAP3 SWAP2 SWAP1 PUSH2 0x257A JUMP JUMPDEST PUSH1 0x40 MLOAD DUP1 SWAP2 SUB SWAP1 RETURN JUMPDEST PUSH2 0x2EE PUSH2 0x139F JUMP JUMPDEST PUSH1 0x40 MLOAD PUSH2 0x2FB SWAP2 SWAP1 PUSH2 0x2604 JUMP JUMPDEST PUSH1 0x40 MLOAD DUP1 SWAP2 SUB SWAP1 RETURN JUMPDEST PUSH2 0x31E PUSH1 0x4 DUP1 CALLDATASIZE SUB DUP2 ADD SWAP1 PUSH2 0x319 SWAP2 SWAP1 PUSH2 0x261D JUMP JUMPDEST PUSH2 0x13A5 JUMP JUMPDEST STOP JUMPDEST PUSH2 0x33A PUSH1 0x4 DUP1 CALLDATASIZE SUB DUP2 ADD SWAP1 PUSH2 0x335 SWAP2 SWAP1 PUSH2 0x246D JUMP JUMPDEST PUSH2 0x14DF JUMP JUMPDEST STOP JUMPDEST PUSH2 0x356 PUSH1 0x4 DUP1 CALLDATASIZE SUB DUP2 ADD SWAP1 PUSH2 0x351 SWAP2 SWAP1 PUSH2 0x269D JUMP JUMPDEST PUSH2 0x1559 JUMP JUMPDEST STOP JUMPDEST PUSH2 0x372 PUSH1 0x4 DUP1 CALLDATASIZE SUB DUP2 ADD SWAP1 PUSH2 0x36D SWAP2 SWAP1 PUSH2 0x246D JUMP JUMPDEST PUSH2 0x1687 JUMP JUMPDEST STOP JUMPDEST PUSH2 0x38E PUSH1 0x4 DUP1 CALLDATASIZE SUB DUP2 ADD SWAP1 PUSH2 0x389 SWAP2 SWAP1 PUSH2 0x2264 JUMP JUMPDEST PUSH2 0x1701 JUMP JUMPDEST PUSH1 0x40 MLOAD PUSH2 0x39B SWAP2 SWAP1 PUSH2 0x2811 JUMP JUMPDEST PUSH1 0x40 MLOAD DUP1 SWAP2 SUB SWAP1 RETURN JUMPDEST PUSH2 0x3AC PUSH2 0x182E JUMP JUMPDEST PUSH1 0x40 MLOAD PUSH2 0x3B9 SWAP2 SWAP1 PUSH2 0x2604 JUMP JUMPDEST PUSH1 0x40 MLOAD DUP1 SWAP2 SUB SWAP1 RETURN JUMPDEST PUSH0 DUP1 SLOAD PUSH2 0x3CE SWAP1 PUSH2 0x285E JUMP JUMPDEST DUP1 PUSH1 0x1F ADD PUSH1 0x20 DUP1 SWAP2 DIV MUL PUSH1 0x20 ADD PUSH1 0x40 MLOAD SWAP1 DUP2 ADD PUSH1 0x40 MSTORE DUP1 SWAP3 SWAP2 SWAP1 DUP2 DUP2 MSTORE PUSH1 0x20 ADD DUP3 DUP1 SLOAD PUSH2 0x3FA SWAP1 PUSH2 0x285E JUMP JUMPDEST DUP1 ISZERO PUSH2 0x445 JUMPI DUP1 PUSH1 0x1F LT PUSH2 0x41C JUMPI PUSH2 0x100 DUP1 DUP4 SLOAD DIV MUL DUP4 MSTORE SWAP2 PUSH1 0x20 ADD SWAP2 PUSH2 0x445 JUMP JUMPDEST DUP3 ADD SWAP2 SWAP1 PUSH0 MSTORE PUSH1 0x20 PUSH0 KECCAK256 SWAP1 JUMPDEST DUP2 SLOAD DUP2 MSTORE SWAP1 PUSH1 0x1 ADD SWAP1 PUSH1 0x20 ADD DUP1 DUP4 GT PUSH2 0x428 JUMPI DUP3 SWAP1 SUB PUSH1 0x1F AND DUP3 ADD SWAP2 JUMPDEST POP POP POP POP POP DUP2 JUMP JUMPDEST PUSH0 PUSH2 0x478 PUSH32 0xEDCC084D3DCD65A1F7F23C65C46722FACA6953D28E43150A467CF43E5C309238 CALLER PUSH2 0x1053 JUMP JUMPDEST PUSH2 0x4B7 JUMPI PUSH1 0x40 MLOAD PUSH32 0x8C379A000000000000000000000000000000000000000000000000000000000 DUP2 MSTORE PUSH1 0x4 ADD PUSH2 0x4AE SWAP1 PUSH2 0x28D8 JUMP JUMPDEST PUSH1 0x40 MLOAD DUP1 SWAP2 SUB SWAP1 REVERT JUMPDEST PUSH0 PUSH20 0xFFFFFFFFFFFFFFFFFFFFFFFFFFFFFFFFFFFFFFFF AND DUP11 PUSH20 0xFFFFFFFFFFFFFFFFFFFFFFFFFFFFFFFFFFFFFFFF AND SUB PUSH2 0x525 JUMPI PUSH1 0x40 MLOAD PUSH32 0x8C379A000000000000000000000000000000000000000000000000000000000 DUP2 MSTORE PUSH1 0x4 ADD PUSH2 0x51C SWAP1 PUSH2 0x2940 JUMP JUMPDEST PUSH1 0x40 MLOAD DUP1 SWAP2 SUB SWAP1 REVERT JUMPDEST PUSH0 DUP10 DUP10 SWAP1 POP GT PUSH2 0x56A JUMPI PUSH1 0x40 MLOAD PUSH32 0x8C379A000000000000000000000000000000000000000000000000000000000 DUP2 MSTORE PUSH1 0x4 ADD PUSH2 0x561 SWAP1 PUSH2 0x29A8 JUMP JUMPDEST PUSH1 0x40 MLOAD DUP1 SWAP2 SUB SWAP1 REVERT JUMPDEST PUSH2 0x574 PUSH1 0x5 PUSH2 0x1852 JUMP JUMPDEST PUSH0 PUSH2 0x57F PUSH1 0x5 PUSH2 0x186F JUMP JUMPDEST SWAP1 POP PUSH2 0x58B DUP12 DUP3 PUSH2 0x187B JUMP JUMPDEST PUSH1 0x40 MLOAD DUP1 PUSH1 0xC0 ADD PUSH1 0x40 MSTORE DUP1 DUP12 DUP12 DUP1 DUP1 PUSH1 0x1F ADD PUSH1 0x20 DUP1 SWAP2 DIV MUL PUSH1 0x20 ADD PUSH1 0x40 MLOAD SWAP1 DUP2 ADD PUSH1 0x40 MSTORE DUP1 SWAP4 SWAP3 SWAP2 SWAP1 DUP2 DUP2 MSTORE PUSH1 0x20 ADD DUP4 DUP4 DUP1 DUP3 DUP5 CALLDATACOPY PUSH0 DUP2 DUP5 ADD MSTORE PUSH1 0x1F NOT PUSH1 0x1F DUP3 ADD AND SWAP1 POP DUP1 DUP4 ADD SWAP3 POP POP POP POP POP POP POP DUP2 MSTORE PUSH1 0x20 ADD DUP10 DUP10 DUP1 DUP1 PUSH1 0x1F ADD PUSH1 0x20 DUP1 SWAP2 DIV MUL PUSH1 0x20 ADD PUSH1 0x40 MLOAD SWAP1 DUP2 ADD PUSH1 0x40 MSTORE DUP1 SWAP4 SWAP3 SWAP2 SWAP1 DUP2 DUP2 MSTORE PUSH1 0x20 ADD DUP4 DUP4 DUP1 DUP3 DUP5 CALLDATACOPY PUSH0 DUP2 DUP5 ADD MSTORE PUSH1 0x1F NOT PUSH1 0x1F DUP3 ADD AND SWAP1 POP DUP1 DUP4 ADD SWAP3 POP POP POP POP POP POP POP DUP2 MSTORE PUSH1 0x20 ADD DUP8 DUP8 DUP1 DUP1 PUSH1 0x1F ADD PUSH1 0x20 DUP1 SWAP2 DIV MUL PUSH1 0x20 ADD PUSH1 0x40 MLOAD SWAP1 DUP2 ADD PUSH1 0x40 MSTORE DUP1 SWAP4 SWAP3 SWAP2 SWAP1 DUP2 DUP2 MSTORE PUSH1 0x20 ADD DUP4 DUP4 DUP1 DUP3 DUP5 CALLDATACOPY PUSH0 DUP2 DUP5 ADD MSTORE PUSH1 0x1F NOT PUSH1 0x1F DUP3 ADD AND SWAP1 POP DUP1 DUP4 ADD SWAP3 POP POP POP POP POP POP POP DUP2 MSTORE PUSH1 0x20 ADD DUP6 DUP6 DUP1 DUP1 PUSH1 0x1F ADD PUSH1 0x20 DUP1 SWAP2 DIV MUL PUSH1 0x20 ADD PUSH1 0x40 MLOAD SWAP1 DUP2 ADD PUSH1 0x40 MSTORE DUP1 SWAP4 SWAP3 SWAP2 SWAP1 DUP2 DUP2 MSTORE PUSH1 0x20 ADD DUP4 DUP4 DUP1 DUP3 DUP5 CALLDATACOPY PUSH0 DUP2 DUP5 ADD MSTORE PUSH1 0x1F NOT PUSH1 0x1F DUP3 ADD AND SWAP1 POP DUP1 DUP4 ADD SWAP3 POP POP POP POP POP POP POP DUP2 MSTORE PUSH1 0x20 ADD PUSH0 PUSH1 0x3 DUP2 GT ISZERO PUSH2 0x6CD JUMPI PUSH2 0x6CC PUSH2 0x228F JUMP JUMPDEST JUMPDEST DUP2 MSTORE PUSH1 0x20 ADD TIMESTAMP DUP2 MSTORE POP PUSH1 0x6 PUSH0 DUP4 DUP2 MSTORE PUSH1 0x20 ADD SWAP1 DUP2 MSTORE PUSH1 0x20 ADD PUSH0 KECCAK256 PUSH0 DUP3 ADD MLOAD DUP2 PUSH0 ADD SWAP1 DUP2 PUSH2 0x6FA SWAP2 SWAP1 PUSH2 0x2B93 JUMP JUMPDEST POP PUSH1 0x20 DUP3 ADD MLOAD DUP2 PUSH1 0x1 ADD SWAP1 DUP2 PUSH2 0x710 SWAP2 SWAP1 PUSH2 0x2B93 JUMP JUMPDEST POP PUSH1 0x40 DUP3 ADD MLOAD DUP2 PUSH1 0x2 ADD SWAP1 DUP2 PUSH2 0x726 SWAP2 SWAP1 PUSH2 0x2B93 JUMP JUMPDEST POP PUSH1 0x60 DUP3 ADD MLOAD DUP2 PUSH1 0x3 ADD SWAP1 DUP2 PUSH2 0x73C SWAP2 SWAP1 PUSH2 0x2B93 JUMP JUMPDEST POP PUSH1 0x80 DUP3 ADD MLOAD DUP2 PUSH1 0x4 ADD PUSH0 PUSH2 0x100 EXP DUP2 SLOAD DUP2 PUSH1 0xFF MUL NOT AND SWAP1 DUP4 PUSH1 0x3 DUP2 GT ISZERO PUSH2 0x767 JUMPI PUSH2 0x766 PUSH2 0x228F JUMP JUMPDEST JUMPDEST MUL OR SWAP1 SSTORE POP PUSH1 0xA0 DUP3 ADD MLOAD DUP2 PUSH1 0x5 ADD SSTORE SWAP1 POP POP DUP11 PUSH20 0xFFFFFFFFFFFFFFFFFFFFFFFFFFFFFFFFFFFFFFFF AND DUP2 PUSH32 0x2C9480C346DF503F2F99E98B4234DFBFADA212344A74D353E63500CEB9B7C19F DUP13 DUP13 DUP13 DUP13 PUSH1 0x40 MLOAD PUSH2 0x7C6 SWAP5 SWAP4 SWAP3 SWAP2 SWAP1 PUSH2 0x2C9C JUMP JUMPDEST PUSH1 0x40 MLOAD DUP1 SWAP2 SUB SWAP1 LOG3 DUP1 SWAP2 POP POP SWAP10 SWAP9 POP POP POP POP POP POP POP POP POP JUMP JUMPDEST PUSH1 0x60 DUP1 PUSH1 0x60 PUSH0 PUSH0 PUSH0 PUSH2 0x7F0 DUP8 PUSH2 0x1A4E JUMP JUMPDEST PUSH2 0x82F JUMPI PUSH1 0x40 MLOAD PUSH32 0x8C379A000000000000000000000000000000000000000000000000000000000 DUP2 MSTORE PUSH1 0x4 ADD PUSH2 0x826 SWAP1 PUSH2 0x2D1F JUMP JUMPDEST PUSH1 0x40 MLOAD DUP1 SWAP2 SUB SWAP1 REVERT JUMPDEST PUSH0 PUSH1 0x6 PUSH0 DUP10 DUP2 MSTORE PUSH1 0x20 ADD SWAP1 DUP2 MSTORE PUSH1 0x20 ADD PUSH0 KECCAK256 PUSH1 0x40 MLOAD DUP1 PUSH1 0xC0 ADD PUSH1 0x40 MSTORE SWAP1 DUP2 PUSH0 DUP3 ADD DUP1 SLOAD PUSH2 0x85B SWAP1 PUSH2 0x285E JUMP JUMPDEST DUP1 PUSH1 0x1F ADD PUSH1 0x20 DUP1 SWAP2 DIV MUL PUSH1 0x20 ADD PUSH1 0x40 MLOAD SWAP1 DUP2 ADD PUSH1 0x40 MSTORE DUP1 SWAP3 SWAP2 SWAP1 DUP2 DUP2 MSTORE PUSH1 0x20 ADD DUP3 DUP1 SLOAD PUSH2 0x887 SWAP1 PUSH2 0x285E JUMP JUMPDEST DUP1 ISZERO PUSH2 0x8D2 JUMPI DUP1 PUSH1 0x1F LT PUSH2 0x8A9 JUMPI PUSH2 0x100 DUP1 DUP4 SLOAD DIV MUL DUP4 MSTORE SWAP2 PUSH1 0x20 ADD SWAP2 PUSH2 0x8D2 JUMP JUMPDEST DUP3 ADD SWAP2 SWAP1 PUSH0 MSTORE PUSH1 0x20 PUSH0 KECCAK256 SWAP1 JUMPDEST DUP2 SLOAD DUP2 MSTORE SWAP1 PUSH1 0x1 ADD SWAP1 PUSH1 0x20 ADD DUP1 DUP4 GT PUSH2 0x8B5 JUMPI DUP3 SWAP1 SUB PUSH1 0x1F AND DUP3 ADD SWAP2 JUMPDEST POP POP POP POP POP DUP2 MSTORE PUSH1 0x20 ADD PUSH1 0x1 DUP3 ADD DUP1 SLOAD PUSH2 0x8EB SWAP1 PUSH2 0x285E JUMP JUMPDEST DUP1 PUSH1 0x1F ADD PUSH1 0x20 DUP1 SWAP2 DIV MUL PUSH1 0x20 ADD PUSH1 0x40 MLOAD SWAP1 DUP2 ADD PUSH1 0x40 MSTORE DUP1 SWAP3 SWAP2 SWAP1 DUP2 DUP2 MSTORE PUSH1 0x20 ADD DUP3 DUP1 SLOAD PUSH2 0x917 SWAP1 PUSH2 0x285E JUMP JUMPDEST DUP1 ISZERO PUSH2 0x962 JUMPI DUP1 PUSH1 0x1F LT PUSH2 0x939 JUMPI PUSH2 0x100 DUP1 DUP4 SLOAD DIV MUL DUP4 MSTORE SWAP2 PUSH1 0x20 ADD SWAP2 PUSH2 0x962 JUMP JUMPDEST DUP3 ADD SWAP2 SWAP1 PUSH0 MSTORE PUSH1 0x20 PUSH0 KECCAK256 SWAP1 JUMPDEST DUP2 SLOAD DUP2 MSTORE SWAP1 PUSH1 0x1 ADD SWAP1 PUSH1 0x20 ADD DUP1 DUP4 GT PUSH2 0x945 JUMPI DUP3 SWAP1 SUB PUSH1 0x1F AND DUP3 ADD SWAP2 JUMPDEST POP POP POP POP POP DUP2 MSTORE PUSH1 0x20 ADD PUSH1 0x2 DUP3 ADD DUP1 SLOAD PUSH2 0x97B SWAP1 PUSH2 0x285E JUMP JUMPDEST DUP1 PUSH1 0x1F ADD PUSH1 0x20 DUP1 SWAP2 DIV MUL PUSH1 0x20 ADD PUSH1 0x40 MLOAD SWAP1 DUP2 ADD PUSH1 0x40 MSTORE DUP1 SWAP3 SWAP2 SWAP1 DUP2 DUP2 MSTORE PUSH1 0x20 ADD DUP3 DUP1 SLOAD PUSH2 0x9A7 SWAP1 PUSH2 0x285E JUMP JUMPDEST DUP1 ISZERO PUSH2 0x9F2 JUMPI DUP1 PUSH1 0x1F LT PUSH2 0x9C9 JUMPI PUSH2 0x100 DUP1 DUP4 SLOAD DIV MUL DUP4 MSTORE SWAP2 PUSH1 0x20 ADD SWAP2 PUSH2 0x9F2 JUMP JUMPDEST DUP3 ADD SWAP2 SWAP1 PUSH0 MSTORE PUSH1 0x20 PUSH0 KECCAK256 SWAP1 JUMPDEST DUP2 SLOAD DUP2 MSTORE SWAP1 PUSH1 0x1 ADD SWAP1 PUSH1 0x20 ADD DUP1 DUP4 GT PUSH2 0x9D5 JUMPI DUP3 SWAP1 SUB PUSH1 0x1F AND DUP3 ADD SWAP2 JUMPDEST POP POP POP POP POP DUP2 MSTORE PUSH1 0x20 ADD PUSH1 0x3 DUP3 ADD DUP1 SLOAD PUSH2 0xA0B SWAP1 PUSH2 0x285E JUMP JUMPDEST DUP1 PUSH1 0x1F ADD PUSH1 0x20 DUP1 SWAP2 DIV MUL PUSH1 0x20 ADD PUSH1 0x40 MLOAD SWAP1 DUP2 ADD PUSH1 0x40 MSTORE DUP1 SWAP3 SWAP2 SWAP1 DUP2 DUP2 MSTORE PUSH1 0x20 ADD DUP3 DUP1 SLOAD PUSH2 0xA37 SWAP1 PUSH2 0x285E JUMP JUMPDEST DUP1 ISZERO PUSH2 0xA82 JUMPI DUP1 PUSH1 0x1F LT PUSH2 0xA59 JUMPI PUSH2 0x100 DUP1 DUP4 SLOAD DIV MUL DUP4 MSTORE SWAP2 PUSH1 0x20 ADD SWAP2 PUSH2 0xA82 JUMP JUMPDEST DUP3 ADD SWAP2 SWAP1 PUSH0 MSTORE PUSH1 0x20 PUSH0 KECCAK256 SWAP1 JUMPDEST DUP2 SLOAD DUP2 MSTORE SWAP1 PUSH1 0x1 ADD SWAP1 PUSH1 0x20 ADD DUP1 DUP4 GT PUSH2 0xA65 JUMPI DUP3 SWAP1 SUB PUSH1 0x1F AND DUP3 ADD SWAP2 JUMPDEST POP POP POP POP POP DUP2 MSTORE PUSH1 0x20 ADD PUSH1 0x4 DUP3 ADD PUSH0 SWAP1 SLOAD SWAP1 PUSH2 0x100 EXP SWAP1 DIV PUSH1 0xFF AND PUSH1 0x3 DUP2 GT ISZERO PUSH2 0xAAF JUMPI PUSH2 0xAAE PUSH2 0x228F JUMP JUMPDEST JUMPDEST PUSH1 0x3 DUP2 GT ISZERO PUSH2 0xAC1 JUMPI PUSH2 0xAC0 PUSH2 0x228F JUMP JUMPDEST JUMPDEST DUP2 MSTORE PUSH1 0x20 ADD PUSH1 0x5 DUP3 ADD SLOAD DUP2 MSTORE POP POP SWAP1 POP DUP1 PUSH0 ADD MLOAD DUP2 PUSH1 0x20 ADD MLOAD DUP3 PUSH1 0x40 ADD MLOAD DUP4 PUSH1 0x80 ADD MLOAD DUP5 PUSH1 0xA0 ADD MLOAD PUSH2 0xAF2 DUP14 PUSH2 0xD35 JUMP JUMPDEST SWAP7 POP SWAP7 POP SWAP7 POP SWAP7 POP SWAP7 POP SWAP7 POP POP SWAP2 SWAP4 SWAP6 POP SWAP2 SWAP4 SWAP6 JUMP JUMPDEST DUP2 PUSH2 0xB12 DUP2 PUSH2 0x1A4E JUMP JUMPDEST PUSH2 0xB51 JUMPI PUSH1 0x40 MLOAD PUSH32 0x8C379A000000000000000000000000000000000000000000000000000000000 DUP2 MSTORE PUSH1 0x4 ADD PUSH2 0xB48 SWAP1 PUSH2 0x2D1F JUMP JUMPDEST PUSH1 0x40 MLOAD DUP1 SWAP2 SUB SWAP1 REVERT JUMPDEST PUSH0 PUSH1 0x3 DUP2 GT ISZERO PUSH2 0xB64 JUMPI PUSH2 0xB63 PUSH2 0x228F JUMP JUMPDEST JUMPDEST PUSH1 0x6 PUSH0 DUP4 DUP2 MSTORE PUSH1 0x20 ADD SWAP1 DUP2 MSTORE PUSH1 0x20 ADD PUSH0 KECCAK256 PUSH1 0x4 ADD PUSH0 SWAP1 SLOAD SWAP1 PUSH2 0x100 EXP SWAP1 DIV PUSH1 0xFF AND PUSH1 0x3 DUP2 GT ISZERO PUSH2 0xB97 JUMPI PUSH2 0xB96 PUSH2 0x228F JUMP JUMPDEST JUMPDEST EQ PUSH2 0xBD7 JUMPI PUSH1 0x40 MLOAD PUSH32 0x8C379A000000000000000000000000000000000000000000000000000000000 DUP2 MSTORE PUSH1 0x4 ADD PUSH2 0xBCE SWAP1 PUSH2 0x2D87 JUMP JUMPDEST PUSH1 0x40 MLOAD DUP1 SWAP2 SUB SWAP1 REVERT JUMPDEST PUSH0 PUSH20 0xFFFFFFFFFFFFFFFFFFFFFFFFFFFFFFFFFFFFFFFF AND DUP3 PUSH20 0xFFFFFFFFFFFFFFFFFFFFFFFFFFFFFFFFFFFFFFFF AND SUB PUSH2 0xC45 JUMPI PUSH1 0x40 MLOAD PUSH32 0x8C379A000000000000000000000000000000000000000000000000000000000 DUP2 MSTORE PUSH1 0x4 ADD PUSH2 0xC3C SWAP1 PUSH2 0x2DEF JUMP JUMPDEST PUSH1 0x40 MLOAD DUP1 SWAP2 SUB SWAP1 REVERT JUMPDEST CALLER PUSH20 0xFFFFFFFFFFFFFFFFFFFFFFFFFFFFFFFFFFFFFFFF AND PUSH2 0xC65 DUP5 PUSH2 0xD35 JUMP JUMPDEST PUSH20 0xFFFFFFFFFFFFFFFFFFFFFFFFFFFFFFFFFFFFFFFF AND EQ PUSH2 0xCBB JUMPI PUSH1 0x40 MLOAD PUSH32 0x8C379A000000000000000000000000000000000000000000000000000000000 DUP2 MSTORE PUSH1 0x4 ADD PUSH2 0xCB2 SWAP1 PUSH2 0x2E57 JUMP JUMPDEST PUSH1 0x40 MLOAD DUP1 SWAP2 SUB SWAP1 REVERT JUMPDEST PUSH2 0xCD5 CALLER DUP4 DUP6 PUSH1 0x40 MLOAD DUP1 PUSH1 0x20 ADD PUSH1 0x40 MSTORE DUP1 PUSH0 DUP2 MSTORE POP PUSH2 0x1AB6 JUMP JUMPDEST DUP2 PUSH20 0xFFFFFFFFFFFFFFFFFFFFFFFFFFFFFFFFFFFFFFFF AND CALLER PUSH20 0xFFFFFFFFFFFFFFFFFFFFFFFFFFFFFFFFFFFFFFFF AND DUP5 PUSH32 0x26B9F0805D5CCECDC6D6F1F7D73613306CD67C0A244E342AA69B32799F5FF2B6 PUSH1 0x40 MLOAD PUSH1 0x40 MLOAD DUP1 SWAP2 SUB SWAP1 LOG4 POP POP POP JUMP JUMPDEST PUSH0 PUSH0 PUSH1 0x2 PUSH0 DUP5 DUP2 MSTORE PUSH1 0x20 ADD SWAP1 DUP2 MSTORE PUSH1 0x20 ADD PUSH0 KECCAK256 PUSH0 SWAP1 SLOAD SWAP1 PUSH2 0x100 EXP SWAP1 DIV PUSH20 0xFFFFFFFFFFFFFFFFFFFFFFFFFFFFFFFFFFFFFFFF AND SWAP1 POP PUSH0 PUSH20 0xFFFFFFFFFFFFFFFFFFFFFFFFFFFFFFFFFFFFFFFF AND DUP2 PUSH20 0xFFFFFFFFFFFFFFFFFFFFFFFFFFFFFFFFFFFFFFFF AND SUB PUSH2 0xDD8 JUMPI PUSH1 0x40 MLOAD PUSH32 0x8C379A000000000000000000000000000000000000000000000000000000000 DUP2 MSTORE PUSH1 0x4 ADD PUSH2 0xDCF SWAP1 PUSH2 0x2EBF JUMP JUMPDEST PUSH1 0x40 MLOAD DUP1 SWAP2 SUB SWAP1 REVERT JUMPDEST DUP1 SWAP2 POP POP SWAP2 SWAP1 POP JUMP JUMPDEST PUSH2 0xE0B PUSH32 0xEDCC084D3DCD65A1F7F23C65C46722FACA6953D28E43150A467CF43E5C309238 CALLER PUSH2 0x1053 JUMP JUMPDEST PUSH2 0xE4A JUMPI PUSH1 0x40 MLOAD PUSH32 0x8C379A000000000000000000000000000000000000000000000000000000000 DUP2 MSTORE PUSH1 0x4 ADD PUSH2 0xE41 SWAP1 PUSH2 0x28D8 JUMP JUMPDEST PUSH1 0x40 MLOAD DUP1 SWAP2 SUB SWAP1 REVERT JUMPDEST PUSH2 0xE53 DUP6 PUSH2 0x1A4E JUMP JUMPDEST PUSH2 0xE92 JUMPI PUSH1 0x40 MLOAD PUSH32 0x8C379A000000000000000000000000000000000000000000000000000000000 DUP2 MSTORE PUSH1 0x4 ADD PUSH2 0xE89 SWAP1 PUSH2 0x2D1F JUMP JUMPDEST PUSH1 0x40 MLOAD DUP1 SWAP2 SUB SWAP1 REVERT JUMPDEST PUSH0 PUSH1 0x6 PUSH0 DUP8 DUP2 MSTORE PUSH1 0x20 ADD SWAP1 DUP2 MSTORE PUSH1 0x20 ADD PUSH0 KECCAK256 SWAP1 POP PUSH0 DUP6 DUP6 SWAP1 POP GT ISZERO PUSH2 0xEC6 JUMPI DUP5 DUP5 DUP3 PUSH1 0x2 ADD SWAP2 DUP3 PUSH2 0xEC4 SWAP3 SWAP2 SWAP1 PUSH2 0x2EE7 JUMP JUMPDEST POP JUMPDEST PUSH0 DUP4 DUP4 SWAP1 POP GT ISZERO PUSH2 0xEE6 JUMPI DUP3 DUP3 DUP3 PUSH1 0x3 ADD SWAP2 DUP3 PUSH2 0xEE4 SWAP3 SWAP2 SWAP1 PUSH2 0x2EE7 JUMP JUMPDEST POP JUMPDEST POP POP POP POP POP POP JUMP JUMPDEST PUSH0 PUSH0 PUSH20 0xFFFFFFFFFFFFFFFFFFFFFFFFFFFFFFFFFFFFFFFF AND DUP3 PUSH20 0xFFFFFFFFFFFFFFFFFFFFFFFFFFFFFFFFFFFFFFFF AND SUB PUSH2 0xF5D JUMPI PUSH1 0x40 MLOAD PUSH32 0x8C379A000000000000000000000000000000000000000000000000000000000 DUP2 MSTORE PUSH1 0x4 ADD PUSH2 0xF54 SWAP1 PUSH2 0x2FFE JUMP JUMPDEST PUSH1 0x40 MLOAD DUP1 SWAP2 SUB SWAP1 REVERT JUMPDEST PUSH1 0x3 PUSH0 DUP4 PUSH20 0xFFFFFFFFFFFFFFFFFFFFFFFFFFFFFFFFFFFFFFFF AND PUSH20 0xFFFFFFFFFFFFFFFFFFFFFFFFFFFFFFFFFFFFFFFF AND DUP2 MSTORE PUSH1 0x20 ADD SWAP1 DUP2 MSTORE PUSH1 0x20 ADD PUSH0 KECCAK256 SLOAD SWAP1 POP SWAP2 SWAP1 POP JUMP JUMPDEST PUSH1 0x7 PUSH1 0x20 MSTORE DUP2 PUSH0 MSTORE PUSH1 0x40 PUSH0 KECCAK256 DUP2 DUP2 SLOAD DUP2 LT PUSH2 0xFBB JUMPI PUSH0 DUP1 REVERT JUMPDEST SWAP1 PUSH0 MSTORE PUSH1 0x20 PUSH0 KECCAK256 ADD PUSH0 SWAP2 POP SWAP2 POP POP DUP1 SLOAD PUSH2 0xFD4 SWAP1 PUSH2 0x285E JUMP JUMPDEST DUP1 PUSH1 0x1F ADD PUSH1 0x20 DUP1 SWAP2 DIV MUL PUSH1 0x20 ADD PUSH1 0x40 MLOAD SWAP1 DUP2 ADD PUSH1 0x40 MSTORE DUP1 SWAP3 SWAP2 SWAP1 DUP2 DUP2 MSTORE PUSH1 0x20 ADD DUP3 DUP1 SLOAD PUSH2 0x1000 SWAP1 PUSH2 0x285E JUMP JUMPDEST DUP1 ISZERO PUSH2 0x104B JUMPI DUP1 PUSH1 0x1F LT PUSH2 0x1022 JUMPI PUSH2 0x100 DUP1 DUP4 SLOAD DIV MUL DUP4 MSTORE SWAP2 PUSH1 0x20 ADD SWAP2 PUSH2 0x104B JUMP JUMPDEST DUP3 ADD SWAP2 SWAP1 PUSH0 MSTORE PUSH1 0x20 PUSH0 KECCAK256 SWAP1 JUMPDEST DUP2 SLOAD DUP2 MSTORE SWAP1 PUSH1 0x1 ADD SWAP1 PUSH1 0x20 ADD DUP1 DUP4 GT PUSH2 0x102E JUMPI DUP3 SWAP1 SUB PUSH1 0x1F AND DUP3 ADD SWAP2 JUMPDEST POP POP POP POP POP DUP2 JUMP JUMPDEST PUSH0 PUSH1 0x4 PUSH0 DUP5 DUP2 MSTORE PUSH1 0x20 ADD SWAP1 DUP2 MSTORE PUSH1 0x20 ADD PUSH0 KECCAK256 PUSH0 ADD PUSH0 DUP4 PUSH20 0xFFFFFFFFFFFFFFFFFFFFFFFFFFFFFFFFFFFFFFFF AND PUSH20 0xFFFFFFFFFFFFFFFFFFFFFFFFFFFFFFFFFFFFFFFF AND DUP2 MSTORE PUSH1 0x20 ADD SWAP1 DUP2 MSTORE PUSH1 0x20 ADD PUSH0 KECCAK256 PUSH0 SWAP1 SLOAD SWAP1 PUSH2 0x100 EXP SWAP1 DIV PUSH1 0xFF AND SWAP1 POP SWAP3 SWAP2 POP POP JUMP JUMPDEST PUSH1 0x1 DUP1 SLOAD PUSH2 0x10C4 SWAP1 PUSH2 0x285E JUMP JUMPDEST DUP1 PUSH1 0x1F ADD PUSH1 0x20 DUP1 SWAP2 DIV MUL PUSH1 0x20 ADD PUSH1 0x40 MLOAD SWAP1 DUP2 ADD PUSH1 0x40 MSTORE DUP1 SWAP3 SWAP2 SWAP1 DUP2 DUP2 MSTORE PUSH1 0x20 ADD DUP3 DUP1 SLOAD PUSH2 0x10F0 SWAP1 PUSH2 0x285E JUMP JUMPDEST DUP1 ISZERO PUSH2 0x113B JUMPI DUP1 PUSH1 0x1F LT PUSH2 0x1112 JUMPI PUSH2 0x100 DUP1 DUP4 SLOAD DIV MUL DUP4 MSTORE SWAP2 PUSH1 0x20 ADD SWAP2 PUSH2 0x113B JUMP JUMPDEST DUP3 ADD SWAP2 SWAP1 PUSH0 MSTORE PUSH1 0x20 PUSH0 KECCAK256 SWAP1 JUMPDEST DUP2 SLOAD DUP2 MSTORE SWAP1 PUSH1 0x1 ADD SWAP1 PUSH1 0x20 ADD DUP1 DUP4 GT PUSH2 0x111E JUMPI DUP3 SWAP1 SUB PUSH1 0x1F AND DUP3 ADD SWAP2 JUMPDEST POP POP POP POP POP DUP2 JUMP JUMPDEST PUSH1 0x6 PUSH1 0x20 MSTORE DUP1 PUSH0 MSTORE PUSH1 0x40 PUSH0 KECCAK256 PUSH0 SWAP2 POP SWAP1 POP DUP1 PUSH0 ADD DUP1 SLOAD PUSH2 0x1162 SWAP1 PUSH2 0x285E JUMP JUMPDEST DUP1 PUSH1 0x1F ADD PUSH1 0x20 DUP1 SWAP2 DIV MUL PUSH1 0x20 ADD PUSH1 0x40 MLOAD SWAP1 DUP2 ADD PUSH1 0x40 MSTORE DUP1 SWAP3 SWAP2 SWAP1 DUP2 DUP2 MSTORE PUSH1 0x20 ADD DUP3 DUP1 SLOAD PUSH2 0x118E SWAP1 PUSH2 0x285E JUMP JUMPDEST DUP1 ISZERO PUSH2 0x11D9 JUMPI DUP1 PUSH1 0x1F LT PUSH2 0x11B0 JUMPI PUSH2 0x100 DUP1 DUP4 SLOAD DIV MUL DUP4 MSTORE SWAP2 PUSH1 0x20 ADD SWAP2 PUSH2 0x11D9 JUMP JUMPDEST DUP3 ADD SWAP2 SWAP1 PUSH0 MSTORE PUSH1 0x20 PUSH0 KECCAK256 SWAP1 JUMPDEST DUP2 SLOAD DUP2 MSTORE SWAP1 PUSH1 0x1 ADD SWAP1 PUSH1 0x20 ADD DUP1 DUP4 GT PUSH2 0x11BC JUMPI DUP3 SWAP1 SUB PUSH1 0x1F AND DUP3 ADD SWAP2 JUMPDEST POP POP POP POP POP SWAP1 DUP1 PUSH1 0x1 ADD DUP1 SLOAD PUSH2 0x11EE SWAP1 PUSH2 0x285E JUMP JUMPDEST DUP1 PUSH1 0x1F ADD PUSH1 0x20 DUP1 SWAP2 DIV MUL PUSH1 0x20 ADD PUSH1 0x40 MLOAD SWAP1 DUP2 ADD PUSH1 0x40 MSTORE DUP1 SWAP3 SWAP2 SWAP1 DUP2 DUP2 MSTORE PUSH1 0x20 ADD DUP3 DUP1 SLOAD PUSH2 0x121A SWAP1 PUSH2 0x285E JUMP JUMPDEST DUP1 ISZERO PUSH2 0x1265 JUMPI DUP1 PUSH1 0x1F LT PUSH2 0x123C JUMPI PUSH2 0x100 DUP1 DUP4 SLOAD DIV MUL DUP4 MSTORE SWAP2 PUSH1 0x20 ADD SWAP2 PUSH2 0x1265 JUMP JUMPDEST DUP3 ADD SWAP2 SWAP1 PUSH0 MSTORE PUSH1 0x20 PUSH0 KECCAK256 SWAP1 JUMPDEST DUP2 SLOAD DUP2 MSTORE SWAP1 PUSH1 0x1 ADD SWAP1 PUSH1 0x20 ADD DUP1 DUP4 GT PUSH2 0x1248 JUMPI DUP3 SWAP1 SUB PUSH1 0x1F AND DUP3 ADD SWAP2 JUMPDEST POP POP POP POP POP SWAP1 DUP1 PUSH1 0x2 ADD DUP1 SLOAD PUSH2 0x127A SWAP1 PUSH2 0x285E JUMP JUMPDEST DUP1 PUSH1 0x1F ADD PUSH1 0x20 DUP1 SWAP2 DIV MUL PUSH1 0x20 ADD PUSH1 0x40 MLOAD SWAP1 DUP2 ADD PUSH1 0x40 MSTORE DUP1 SWAP3 SWAP2 SWAP1 DUP2 DUP2 MSTORE PUSH1 0x20 ADD DUP3 DUP1 SLOAD PUSH2 0x12A6 SWAP1 PUSH2 0x285E JUMP JUMPDEST DUP1 ISZERO PUSH2 0x12F1 JUMPI DUP1 PUSH1 0x1F LT PUSH2 0x12C8 JUMPI PUSH2 0x100 DUP1 DUP4 SLOAD DIV MUL DUP4 MSTORE SWAP2 PUSH1 0x20 ADD SWAP2 PUSH2 0x12F1 JUMP JUMPDEST DUP3 ADD SWAP2 SWAP1 PUSH0 MSTORE PUSH1 0x20 PUSH0 KECCAK256 SWAP1 JUMPDEST DUP2 SLOAD DUP2 MSTORE SWAP1 PUSH1 0x1 ADD SWAP1 PUSH1 0x20 ADD DUP1 DUP4 GT PUSH2 0x12D4 JUMPI DUP3 SWAP1 SUB PUSH1 0x1F AND DUP3 ADD SWAP2 JUMPDEST POP POP POP POP POP SWAP1 DUP1 PUSH1 0x3 ADD DUP1 SLOAD PUSH2 0x1306 SWAP1 PUSH2 0x285E JUMP JUMPDEST DUP1 PUSH1 0x1F ADD PUSH1 0x20 DUP1 SWAP2 DIV MUL PUSH1 0x20 ADD PUSH1 0x40 MLOAD SWAP1 DUP2 ADD PUSH1 0x40 MSTORE DUP1 SWAP3 SWAP2 SWAP1 DUP2 DUP2 MSTORE PUSH1 0x20 ADD DUP3 DUP1 SLOAD PUSH2 0x1332 SWAP1 PUSH2 0x285E JUMP JUMPDEST DUP1 ISZERO PUSH2 0x137D JUMPI DUP1 PUSH1 0x1F LT PUSH2 0x1354 JUMPI PUSH2 0x100 DUP1 DUP4 SLOAD DIV MUL DUP4 MSTORE SWAP2 PUSH1 0x20 ADD SWAP2 PUSH2 0x137D JUMP JUMPDEST DUP3 ADD SWAP2 SWAP1 PUSH0 MSTORE PUSH1 0x20 PUSH0 KECCAK256 SWAP1 JUMPDEST DUP2 SLOAD DUP2 MSTORE SWAP1 PUSH1 0x1 ADD SWAP1 PUSH1 0x20 ADD DUP1 DUP4 GT PUSH2 0x1360 JUMPI DUP3 SWAP1 SUB PUSH1 0x1F AND DUP3 ADD SWAP2 JUMPDEST POP POP POP POP POP SWAP1 DUP1 PUSH1 0x4 ADD PUSH0 SWAP1 SLOAD SWAP1 PUSH2 0x100 EXP SWAP1 DIV PUSH1 0xFF AND SWAP1 DUP1 PUSH1 0x5 ADD SLOAD SWAP1 POP DUP7 JUMP JUMPDEST PUSH0 PUSH0 SHL DUP2 JUMP JUMPDEST PUSH2 0x13CF PUSH32 0xEDCC084D3DCD65A1F7F23C65C46722FACA6953D28E43150A467CF43E5C309238 CALLER PUSH2 0x1053 JUMP JUMPDEST PUSH2 0x140E JUMPI PUSH1 0x40 MLOAD PUSH32 0x8C379A000000000000000000000000000000000000000000000000000000000 DUP2 MSTORE PUSH1 0x4 ADD PUSH2 0x1405 SWAP1 PUSH2 0x28D8 JUMP JUMPDEST PUSH1 0x40 MLOAD DUP1 SWAP2 SUB SWAP1 REVERT JUMPDEST PUSH2 0x1417 DUP4 PUSH2 0x1A4E JUMP JUMPDEST PUSH2 0x1456 JUMPI PUSH1 0x40 MLOAD PUSH32 0x8C379A000000000000000000000000000000000000000000000000000000000 DUP2 MSTORE PUSH1 0x4 ADD PUSH2 0x144D SWAP1 PUSH2 0x2D1F JUMP JUMPDEST PUSH1 0x40 MLOAD DUP1 SWAP2 SUB SWAP1 REVERT JUMPDEST PUSH1 0x7 PUSH0 DUP5 DUP2 MSTORE PUSH1 0x20 ADD SWAP1 DUP2 MSTORE PUSH1 0x20 ADD PUSH0 KECCAK256 DUP3 DUP3 SWAP1 SWAP2 DUP1 PUSH1 0x1 DUP2 SLOAD ADD DUP1 DUP3 SSTORE DUP1 SWAP2 POP POP PUSH1 0x1 SWAP1 SUB SWAP1 PUSH0 MSTORE PUSH1 0x20 PUSH0 KECCAK256 ADD PUSH0 SWAP1 SWAP2 SWAP3 SWAP1 SWAP2 SWAP3 SWAP1 SWAP2 SWAP3 SWAP1 SWAP2 SWAP3 POP SWAP2 DUP3 PUSH2 0x149F SWAP3 SWAP2 SWAP1 PUSH2 0x2EE7 JUMP JUMPDEST POP DUP3 PUSH32 0x6CAEBDCD73CBCB009FAB607CEB05AA2625597EE6A3861BEF11D3ACE03EEE65D1 DUP4 DUP4 PUSH1 0x40 MLOAD PUSH2 0x14D2 SWAP3 SWAP2 SWAP1 PUSH2 0x301C JUMP JUMPDEST PUSH1 0x40 MLOAD DUP1 SWAP2 SUB SWAP1 LOG2 POP POP POP JUMP JUMPDEST PUSH0 PUSH0 SHL PUSH2 0x14EC DUP2 CALLER PUSH2 0x1053 JUMP JUMPDEST PUSH2 0x152B JUMPI PUSH1 0x40 MLOAD PUSH32 0x8C379A000000000000000000000000000000000000000000000000000000000 DUP2 MSTORE PUSH1 0x4 ADD PUSH2 0x1522 SWAP1 PUSH2 0x3088 JUMP JUMPDEST PUSH1 0x40 MLOAD DUP1 SWAP2 SUB SWAP1 REVERT JUMPDEST PUSH2 0x1555 PUSH32 0xEDCC084D3DCD65A1F7F23C65C46722FACA6953D28E43150A467CF43E5C309238 DUP4 PUSH2 0x1CFE JUMP JUMPDEST POP POP JUMP JUMPDEST PUSH2 0x1583 PUSH32 0xEDCC084D3DCD65A1F7F23C65C46722FACA6953D28E43150A467CF43E5C309238 CALLER PUSH2 0x1053 JUMP JUMPDEST PUSH2 0x15C2 JUMPI PUSH1 0x40 MLOAD PUSH32 0x8C379A000000000000000000000000000000000000000000000000000000000 DUP2 MSTORE PUSH1 0x4 ADD PUSH2 0x15B9 SWAP1 PUSH2 0x28D8 JUMP JUMPDEST PUSH1 0x40 MLOAD DUP1 SWAP2 SUB SWAP1 REVERT JUMPDEST PUSH2 0x15CB DUP5 PUSH2 0x1A4E JUMP JUMPDEST PUSH2 0x160A JUMPI PUSH1 0x40 MLOAD PUSH32 0x8C379A000000000000000000000000000000000000000000000000000000000 DUP2 MSTORE PUSH1 0x4 ADD PUSH2 0x1601 SWAP1 PUSH2 0x2D1F JUMP JUMPDEST PUSH1 0x40 MLOAD DUP1 SWAP2 SUB SWAP1 REVERT JUMPDEST DUP3 PUSH1 0x6 PUSH0 DUP7 DUP2 MSTORE PUSH1 0x20 ADD SWAP1 DUP2 MSTORE PUSH1 0x20 ADD PUSH0 KECCAK256 PUSH1 0x4 ADD PUSH0 PUSH2 0x100 EXP DUP2 SLOAD DUP2 PUSH1 0xFF MUL NOT AND SWAP1 DUP4 PUSH1 0x3 DUP2 GT ISZERO PUSH2 0x1640 JUMPI PUSH2 0x163F PUSH2 0x228F JUMP JUMPDEST JUMPDEST MUL OR SWAP1 SSTORE POP DUP4 PUSH32 0xDF137F228C4A282196C6C7A66E306BE2B21EF02FAE4CE1480F1AB71F90C6AA5 DUP5 DUP5 DUP5 PUSH1 0x40 MLOAD PUSH2 0x1679 SWAP4 SWAP3 SWAP2 SWAP1 PUSH2 0x30A6 JUMP JUMPDEST PUSH1 0x40 MLOAD DUP1 SWAP2 SUB SWAP1 LOG2 POP POP POP POP JUMP JUMPDEST PUSH0 PUSH0 SHL PUSH2 0x1694 DUP2 CALLER PUSH2 0x1053 JUMP JUMPDEST PUSH2 0x16D3 JUMPI PUSH1 0x40 MLOAD PUSH32 0x8C379A000000000000000000000000000000000000000000000000000000000 DUP2 MSTORE PUSH1 0x4 ADD PUSH2 0x16CA SWAP1 PUSH2 0x3088 JUMP JUMPDEST PUSH1 0x40 MLOAD DUP1 SWAP2 SUB SWAP1 REVERT JUMPDEST PUSH2 0x16FD PUSH32 0xEDCC084D3DCD65A1F7F23C65C46722FACA6953D28E43150A467CF43E5C309238 DUP4 PUSH2 0x1DAC JUMP JUMPDEST POP POP JUMP JUMPDEST PUSH1 0x60 PUSH2 0x170C DUP3 PUSH2 0x1A4E JUMP JUMPDEST PUSH2 0x174B JUMPI PUSH1 0x40 MLOAD PUSH32 0x8C379A000000000000000000000000000000000000000000000000000000000 DUP2 MSTORE PUSH1 0x4 ADD PUSH2 0x1742 SWAP1 PUSH2 0x2D1F JUMP JUMPDEST PUSH1 0x40 MLOAD DUP1 SWAP2 SUB SWAP1 REVERT JUMPDEST PUSH1 0x7 PUSH0 DUP4 DUP2 MSTORE PUSH1 0x20 ADD SWAP1 DUP2 MSTORE PUSH1 0x20 ADD PUSH0 KECCAK256 DUP1 SLOAD DUP1 PUSH1 0x20 MUL PUSH1 0x20 ADD PUSH1 0x40 MLOAD SWAP1 DUP2 ADD PUSH1 0x40 MSTORE DUP1 SWAP3 SWAP2 SWAP1 DUP2 DUP2 MSTORE PUSH1 0x20 ADD PUSH0 SWAP1 JUMPDEST DUP3 DUP3 LT ISZERO PUSH2 0x1823 JUMPI DUP4 DUP3 SWAP1 PUSH0 MSTORE PUSH1 0x20 PUSH0 KECCAK256 ADD DUP1 SLOAD PUSH2 0x1798 SWAP1 PUSH2 0x285E JUMP JUMPDEST DUP1 PUSH1 0x1F ADD PUSH1 0x20 DUP1 SWAP2 DIV MUL PUSH1 0x20 ADD PUSH1 0x40 MLOAD SWAP1 DUP2 ADD PUSH1 0x40 MSTORE DUP1 SWAP3 SWAP2 SWAP1 DUP2 DUP2 MSTORE PUSH1 0x20 ADD DUP3 DUP1 SLOAD PUSH2 0x17C4 SWAP1 PUSH2 0x285E JUMP JUMPDEST DUP1 ISZERO PUSH2 0x180F JUMPI DUP1 PUSH1 0x1F LT PUSH2 0x17E6 JUMPI PUSH2 0x100 DUP1 DUP4 SLOAD DIV MUL DUP4 MSTORE SWAP2 PUSH1 0x20 ADD SWAP2 PUSH2 0x180F JUMP JUMPDEST DUP3 ADD SWAP2 SWAP1 PUSH0 MSTORE PUSH1 0x20 PUSH0 KECCAK256 SWAP1 JUMPDEST DUP2 SLOAD DUP2 MSTORE SWAP1 PUSH1 0x1 ADD SWAP1 PUSH1 0x20 ADD DUP1 DUP4 GT PUSH2 0x17F2 JUMPI DUP3 SWAP1 SUB PUSH1 0x1F AND DUP3 ADD SWAP2 JUMPDEST POP POP POP POP POP DUP2 MSTORE PUSH1 0x20 ADD SWAP1 PUSH1 0x1 ADD SWAP1 PUSH2 0x177B JUMP JUMPDEST POP POP POP POP SWAP1 POP SWAP2 SWAP1 POP JUMP JUMPDEST PUSH32 0xEDCC084D3DCD65A1F7F23C65C46722FACA6953D28E43150A467CF43E5C309238 DUP2 JUMP JUMPDEST PUSH1 0x1 DUP2 PUSH0 ADD PUSH0 DUP3 DUP3 SLOAD PUSH2 0x1865 SWAP2 SWAP1 PUSH2 0x3103 JUMP JUMPDEST SWAP3 POP POP DUP2 SWAP1 SSTORE POP POP JUMP JUMPDEST PUSH0 DUP2 PUSH0 ADD SLOAD SWAP1 POP SWAP2 SWAP1 POP JUMP JUMPDEST PUSH0 PUSH20 0xFFFFFFFFFFFFFFFFFFFFFFFFFFFFFFFFFFFFFFFF AND DUP3 PUSH20 0xFFFFFFFFFFFFFFFFFFFFFFFFFFFFFFFFFFFFFFFF AND SUB PUSH2 0x18E9 JUMPI PUSH1 0x40 MLOAD PUSH32 0x8C379A000000000000000000000000000000000000000000000000000000000 DUP2 MSTORE PUSH1 0x4 ADD PUSH2 0x18E0 SWAP1 PUSH2 0x2FFE JUMP JUMPDEST PUSH1 0x40 MLOAD DUP1 SWAP2 SUB SWAP1 REVERT JUMPDEST PUSH2 0x18F2 DUP2 PUSH2 0x1A4E JUMP JUMPDEST ISZERO PUSH2 0x1932 JUMPI PUSH1 0x40 MLOAD PUSH32 0x8C379A000000000000000000000000000000000000000000000000000000000 DUP2 MSTORE PUSH1 0x4 ADD PUSH2 0x1929 SWAP1 PUSH2 0x3180 JUMP JUMPDEST PUSH1 0x40 MLOAD DUP1 SWAP2 SUB SWAP1 REVERT JUMPDEST PUSH1 0x1 PUSH1 0x3 PUSH0 DUP5 PUSH20 0xFFFFFFFFFFFFFFFFFFFFFFFFFFFFFFFFFFFFFFFF AND PUSH20 0xFFFFFFFFFFFFFFFFFFFFFFFFFFFFFFFFFFFFFFFF AND DUP2 MSTORE PUSH1 0x20 ADD SWAP1 DUP2 MSTORE PUSH1 0x20 ADD PUSH0 KECCAK256 PUSH0 DUP3 DUP3 SLOAD PUSH2 0x197F SWAP2 SWAP1 PUSH2 0x3103 JUMP JUMPDEST SWAP3 POP POP DUP2 SWAP1 SSTORE POP DUP2 PUSH1 0x2 PUSH0 DUP4 DUP2 MSTORE PUSH1 0x20 ADD SWAP1 DUP2 MSTORE PUSH1 0x20 ADD PUSH0 KECCAK256 PUSH0 PUSH2 0x100 EXP DUP2 SLOAD DUP2 PUSH20 0xFFFFFFFFFFFFFFFFFFFFFFFFFFFFFFFFFFFFFFFF MUL NOT AND SWAP1 DUP4 PUSH20 0xFFFFFFFFFFFFFFFFFFFFFFFFFFFFFFFFFFFFFFFF AND MUL OR SWAP1 SSTORE POP DUP1 DUP3 PUSH20 0xFFFFFFFFFFFFFFFFFFFFFFFFFFFFFFFFFFFFFFFF AND PUSH0 PUSH20 0xFFFFFFFFFFFFFFFFFFFFFFFFFFFFFFFFFFFFFFFF AND PUSH32 0xDDF252AD1BE2C89B69C2B068FC378DAA952BA7F163C4A11628F55A4DF523B3EF PUSH1 0x40 MLOAD PUSH1 0x40 MLOAD DUP1 SWAP2 SUB SWAP1 LOG4 PUSH2 0x1A4A PUSH0 DUP4 DUP4 PUSH1 0x40 MLOAD DUP1 PUSH1 0x20 ADD PUSH1 0x40 MSTORE DUP1 PUSH0 DUP2 MSTORE POP PUSH2 0x1E59 JUMP JUMPDEST POP POP JUMP JUMPDEST PUSH0 PUSH0 PUSH20 0xFFFFFFFFFFFFFFFFFFFFFFFFFFFFFFFFFFFFFFFF AND PUSH1 0x2 PUSH0 DUP5 DUP2 MSTORE PUSH1 0x20 ADD SWAP1 DUP2 MSTORE PUSH1 0x20 ADD PUSH0 KECCAK256 PUSH0 SWAP1 SLOAD SWAP1 PUSH2 0x100 EXP SWAP1 DIV PUSH20 0xFFFFFFFFFFFFFFFFFFFFFFFFFFFFFFFFFFFFFFFF AND PUSH20 0xFFFFFFFFFFFFFFFFFFFFFFFFFFFFFFFFFFFFFFFF AND EQ ISZERO SWAP1 POP SWAP2 SWAP1 POP JUMP JUMPDEST DUP4 PUSH20 0xFFFFFFFFFFFFFFFFFFFFFFFFFFFFFFFFFFFFFFFF AND PUSH2 0x1AD6 DUP4 PUSH2 0xD35 JUMP JUMPDEST PUSH20 0xFFFFFFFFFFFFFFFFFFFFFFFFFFFFFFFFFFFFFFFF AND EQ PUSH2 0x1B2C JUMPI PUSH1 0x40 MLOAD PUSH32 0x8C379A000000000000000000000000000000000000000000000000000000000 DUP2 MSTORE PUSH1 0x4 ADD PUSH2 0x1B23 SWAP1 PUSH2 0x31E8 JUMP JUMPDEST PUSH1 0x40 MLOAD DUP1 SWAP2 SUB SWAP1 REVERT JUMPDEST PUSH0 PUSH20 0xFFFFFFFFFFFFFFFFFFFFFFFFFFFFFFFFFFFFFFFF AND DUP4 PUSH20 0xFFFFFFFFFFFFFFFFFFFFFFFFFFFFFFFFFFFFFFFF AND SUB PUSH2 0x1B9A JUMPI PUSH1 0x40 MLOAD PUSH32 0x8C379A000000000000000000000000000000000000000000000000000000000 DUP2 MSTORE PUSH1 0x4 ADD PUSH2 0x1B91 SWAP1 PUSH2 0x2FFE JUMP JUMPDEST PUSH1 0x40 MLOAD DUP1 SWAP2 SUB SWAP1 REVERT JUMPDEST PUSH1 0x1 PUSH1 0x3 PUSH0 DUP7 PUSH20 0xFFFFFFFFFFFFFFFFFFFFFFFFFFFFFFFFFFFFFFFF AND PUSH20 0xFFFFFFFFFFFFFFFFFFFFFFFFFFFFFFFFFFFFFFFF AND DUP2 MSTORE PUSH1 0x20 ADD SWAP1 DUP2 MSTORE PUSH1 0x20 ADD PUSH0 KECCAK256 PUSH0 DUP3 DUP3 SLOAD PUSH2 0x1BE7 SWAP2 SWAP1 PUSH2 0x3206 JUMP JUMPDEST SWAP3 POP POP DUP2 SWAP1 SSTORE POP PUSH1 0x1 PUSH1 0x3 PUSH0 DUP6 PUSH20 0xFFFFFFFFFFFFFFFFFFFFFFFFFFFFFFFFFFFFFFFF AND PUSH20 0xFFFFFFFFFFFFFFFFFFFFFFFFFFFFFFFFFFFFFFFF AND DUP2 MSTORE PUSH1 0x20 ADD SWAP1 DUP2 MSTORE PUSH1 0x20 ADD PUSH0 KECCAK256 PUSH0 DUP3 DUP3 SLOAD PUSH2 0x1C3B SWAP2 SWAP1 PUSH2 0x3103 JUMP JUMPDEST SWAP3 POP POP DUP2 SWAP1 SSTORE POP DUP3 PUSH1 0x2 PUSH0 DUP5 DUP2 MSTORE PUSH1 0x20 ADD SWAP1 DUP2 MSTORE PUSH1 0x20 ADD PUSH0 KECCAK256 PUSH0 PUSH2 0x100 EXP DUP2 SLOAD DUP2 PUSH20 0xFFFFFFFFFFFFFFFFFFFFFFFFFFFFFFFFFFFFFFFF MUL NOT AND SWAP1 DUP4 PUSH20 0xFFFFFFFFFFFFFFFFFFFFFFFFFFFFFFFFFFFFFFFF AND MUL OR SWAP1 SSTORE POP DUP2 DUP4 PUSH20 0xFFFFFFFFFFFFFFFFFFFFFFFFFFFFFFFFFFFFFFFF AND DUP6 PUSH20 0xFFFFFFFFFFFFFFFFFFFFFFFFFFFFFFFFFFFFFFFF AND PUSH32 0xDDF252AD1BE2C89B69C2B068FC378DAA952BA7F163C4A11628F55A4DF523B3EF PUSH1 0x40 MLOAD PUSH1 0x40 MLOAD DUP1 SWAP2 SUB SWAP1 LOG4 PUSH2 0x1CF8 DUP5 DUP5 DUP5 DUP5 PUSH2 0x1E59 JUMP JUMPDEST POP POP POP POP JUMP JUMPDEST PUSH1 0x1 PUSH1 0x4 PUSH0 DUP5 DUP2 MSTORE PUSH1 0x20 ADD SWAP1 DUP2 MSTORE PUSH1 0x20 ADD PUSH0 KECCAK256 PUSH0 ADD PUSH0 DUP4 PUSH20 0xFFFFFFFFFFFFFFFFFFFFFFFFFFFFFFFFFFFFFFFF AND PUSH20 0xFFFFFFFFFFFFFFFFFFFFFFFFFFFFFFFFFFFFFFFF AND DUP2 MSTORE PUSH1 0x20 ADD SWAP1 DUP2 MSTORE PUSH1 0x20 ADD PUSH0 KECCAK256 PUSH0 PUSH2 0x100 EXP DUP2 SLOAD DUP2 PUSH1 0xFF MUL NOT AND SWAP1 DUP4 ISZERO ISZERO MUL OR SWAP1 SSTORE POP DUP1 PUSH20 0xFFFFFFFFFFFFFFFFFFFFFFFFFFFFFFFFFFFFFFFF AND DUP3 PUSH32 0x2AE6A113C0ED5B78A53413FFBB7679881F11145CCFBA4FB92E863DFCD5A1D2F3 PUSH1 0x40 MLOAD PUSH1 0x40 MLOAD DUP1 SWAP2 SUB SWAP1 LOG3 POP POP JUMP JUMPDEST PUSH0 PUSH1 0x4 PUSH0 DUP5 DUP2 MSTORE PUSH1 0x20 ADD SWAP1 DUP2 MSTORE PUSH1 0x20 ADD PUSH0 KECCAK256 PUSH0 ADD PUSH0 DUP4 PUSH20 0xFFFFFFFFFFFFFFFFFFFFFFFFFFFFFFFFFFFFFFFF AND PUSH20 0xFFFFFFFFFFFFFFFFFFFFFFFFFFFFFFFFFFFFFFFF AND DUP2 MSTORE PUSH1 0x20 ADD SWAP1 DUP2 MSTORE PUSH1 0x20 ADD PUSH0 KECCAK256 PUSH0 PUSH2 0x100 EXP DUP2 SLOAD DUP2 PUSH1 0xFF MUL NOT AND SWAP1 DUP4 ISZERO ISZERO MUL OR SWAP1 SSTORE POP DUP1 PUSH20 0xFFFFFFFFFFFFFFFFFFFFFFFFFFFFFFFFFFFFFFFF AND DUP3 PUSH32 0x155AAAFB6329A2098580462DF33EC4B7441B19729B9601C5FC17AE1CF99A8A52 PUSH1 0x40 MLOAD PUSH1 0x40 MLOAD DUP1 SWAP2 SUB SWAP1 LOG3 POP POP JUMP JUMPDEST PUSH0 DUP4 PUSH20 0xFFFFFFFFFFFFFFFFFFFFFFFFFFFFFFFFFFFFFFFF AND EXTCODESIZE GT ISZERO PUSH2 0x1FBA JUMPI DUP3 PUSH20 0xFFFFFFFFFFFFFFFFFFFFFFFFFFFFFFFFFFFFFFFF AND PUSH4 0x150B7A02 CALLER DUP7 DUP6 DUP6 PUSH1 0x40 MLOAD DUP6 PUSH4 0xFFFFFFFF AND PUSH1 0xE0 SHL DUP2 MSTORE PUSH1 0x4 ADD PUSH2 0x1EB7 SWAP5 SWAP4 SWAP3 SWAP2 SWAP1 PUSH2 0x328B JUMP JUMPDEST PUSH1 0x20 PUSH1 0x40 MLOAD DUP1 DUP4 SUB DUP2 PUSH0 DUP8 GAS CALL SWAP3 POP POP POP DUP1 ISZERO PUSH2 0x1EF2 JUMPI POP PUSH1 0x40 MLOAD RETURNDATASIZE PUSH1 0x1F NOT PUSH1 0x1F DUP3 ADD AND DUP3 ADD DUP1 PUSH1 0x40 MSTORE POP DUP2 ADD SWAP1 PUSH2 0x1EEF SWAP2 SWAP1 PUSH2 0x332A JUMP JUMPDEST PUSH1 0x1 JUMPDEST PUSH2 0x1F31 JUMPI PUSH1 0x40 MLOAD PUSH32 0x8C379A000000000000000000000000000000000000000000000000000000000 DUP2 MSTORE PUSH1 0x4 ADD PUSH2 0x1F28 SWAP1 PUSH2 0x339F JUMP JUMPDEST PUSH1 0x40 MLOAD DUP1 SWAP2 SUB SWAP1 REVERT JUMPDEST PUSH4 0x150B7A02 PUSH1 0xE0 SHL PUSH28 0xFFFFFFFFFFFFFFFFFFFFFFFFFFFFFFFFFFFFFFFFFFFFFFFFFFFFFFFF NOT AND DUP2 PUSH28 0xFFFFFFFFFFFFFFFFFFFFFFFFFFFFFFFFFFFFFFFFFFFFFFFFFFFFFFFF NOT AND EQ PUSH2 0x1FB8 JUMPI PUSH1 0x40 MLOAD PUSH32 0x8C379A000000000000000000000000000000000000000000000000000000000 DUP2 MSTORE PUSH1 0x4 ADD PUSH2 0x1FAF SWAP1 PUSH2 0x3407 JUMP JUMPDEST PUSH1 0x40 MLOAD DUP1 SWAP2 SUB SWAP1 REVERT JUMPDEST POP JUMPDEST POP POP POP POP JUMP JUMPDEST PUSH0 DUP2 MLOAD SWAP1 POP SWAP2 SWAP1 POP JUMP JUMPDEST PUSH0 DUP3 DUP3 MSTORE PUSH1 0x20 DUP3 ADD SWAP1 POP SWAP3 SWAP2 POP POP JUMP JUMPDEST DUP3 DUP2 DUP4 MCOPY PUSH0 DUP4 DUP4 ADD MSTORE POP POP POP JUMP JUMPDEST PUSH0 PUSH1 0x1F NOT PUSH1 0x1F DUP4 ADD AND SWAP1 POP SWAP2 SWAP1 POP JUMP JUMPDEST PUSH0 PUSH2 0x2002 DUP3 PUSH2 0x1FC0 JUMP JUMPDEST PUSH2 0x200C DUP2 DUP6 PUSH2 0x1FCA JUMP JUMPDEST SWAP4 POP PUSH2 0x201C DUP2 DUP6 PUSH1 0x20 DUP7 ADD PUSH2 0x1FDA JUMP JUMPDEST PUSH2 0x2025 DUP2 PUSH2 0x1FE8 JUMP JUMPDEST DUP5 ADD SWAP2 POP POP SWAP3 SWAP2 POP POP JUMP JUMPDEST PUSH0 PUSH1 0x20 DUP3 ADD SWAP1 POP DUP2 DUP2 SUB PUSH0 DUP4 ADD MSTORE PUSH2 0x2048 DUP2 DUP5 PUSH2 0x1FF8 JUMP JUMPDEST SWAP1 POP SWAP3 SWAP2 POP POP JUMP JUMPDEST PUSH0 PUSH0 REVERT JUMPDEST PUSH0 PUSH0 REVERT JUMPDEST PUSH0 PUSH20 0xFFFFFFFFFFFFFFFFFFFFFFFFFFFFFFFFFFFFFFFF DUP3 AND SWAP1 POP SWAP2 SWAP1 POP JUMP JUMPDEST PUSH0 PUSH2 0x2081 DUP3 PUSH2 0x2058 JUMP JUMPDEST SWAP1 POP SWAP2 SWAP1 POP JUMP JUMPDEST PUSH2 0x2091 DUP2 PUSH2 0x2077 JUMP JUMPDEST DUP2 EQ PUSH2 0x209B JUMPI PUSH0 PUSH0 REVERT JUMPDEST POP JUMP JUMPDEST PUSH0 DUP2 CALLDATALOAD SWAP1 POP PUSH2 0x20AC DUP2 PUSH2 0x2088 JUMP JUMPDEST SWAP3 SWAP2 POP POP JUMP JUMPDEST PUSH0 PUSH0 REVERT JUMPDEST PUSH0 PUSH0 REVERT JUMPDEST PUSH0 PUSH0 REVERT JUMPDEST PUSH0 PUSH0 DUP4 PUSH1 0x1F DUP5 ADD SLT PUSH2 0x20D3 JUMPI PUSH2 0x20D2 PUSH2 0x20B2 JUMP JUMPDEST JUMPDEST DUP3 CALLDATALOAD SWAP1 POP PUSH8 0xFFFFFFFFFFFFFFFF DUP2 GT ISZERO PUSH2 0x20F0 JUMPI PUSH2 0x20EF PUSH2 0x20B6 JUMP JUMPDEST JUMPDEST PUSH1 0x20 DUP4 ADD SWAP2 POP DUP4 PUSH1 0x1 DUP3 MUL DUP4 ADD GT ISZERO PUSH2 0x210C JUMPI PUSH2 0x210B PUSH2 0x20BA JUMP JUMPDEST JUMPDEST SWAP3 POP SWAP3 SWAP1 POP JUMP JUMPDEST PUSH0 PUSH0 PUSH0 PUSH0 PUSH0 PUSH0 PUSH0 PUSH0 PUSH0 PUSH1 0xA0 DUP11 DUP13 SUB SLT ISZERO PUSH2 0x2130 JUMPI PUSH2 0x212F PUSH2 0x2050 JUMP JUMPDEST JUMPDEST PUSH0 PUSH2 0x213D DUP13 DUP3 DUP14 ADD PUSH2 0x209E JUMP JUMPDEST SWAP10 POP POP PUSH1 0x20 DUP11 ADD CALLDATALOAD PUSH8 0xFFFFFFFFFFFFFFFF DUP2 GT ISZERO PUSH2 0x215E JUMPI PUSH2 0x215D PUSH2 0x2054 JUMP JUMPDEST JUMPDEST PUSH2 0x216A DUP13 DUP3 DUP14 ADD PUSH2 0x20BE JUMP JUMPDEST SWAP9 POP SWAP9 POP POP PUSH1 0x40 DUP11 ADD CALLDATALOAD PUSH8 0xFFFFFFFFFFFFFFFF DUP2 GT ISZERO PUSH2 0x218D JUMPI PUSH2 0x218C PUSH2 0x2054 JUMP JUMPDEST JUMPDEST PUSH2 0x2199 DUP13 DUP3 DUP14 ADD PUSH2 0x20BE JUMP JUMPDEST SWAP7 POP SWAP7 POP POP PUSH1 0x60 DUP11 ADD CALLDATALOAD PUSH8 0xFFFFFFFFFFFFFFFF DUP2 GT ISZERO PUSH2 0x21BC JUMPI PUSH2 0x21BB PUSH2 0x2054 JUMP JUMPDEST JUMPDEST PUSH2 0x21C8 DUP13 DUP3 DUP14 ADD PUSH2 0x20BE JUMP JUMPDEST SWAP5 POP SWAP5 POP POP PUSH1 0x80 DUP11 ADD CALLDATALOAD PUSH8 0xFFFFFFFFFFFFFFFF DUP2 GT ISZERO PUSH2 0x21EB JUMPI PUSH2 0x21EA PUSH2 0x2054 JUMP JUMPDEST JUMPDEST PUSH2 0x21F7 DUP13 DUP3 DUP14 ADD PUSH2 0x20BE JUMP JUMPDEST SWAP3 POP SWAP3 POP POP SWAP3 SWAP6 SWAP9 POP SWAP3 SWAP6 SWAP9 POP SWAP3 SWAP6 SWAP9 JUMP JUMPDEST PUSH0 DUP2 SWAP1 POP SWAP2 SWAP1 POP JUMP JUMPDEST PUSH2 0x221B DUP2 PUSH2 0x2209 JUMP JUMPDEST DUP3 MSTORE POP POP JUMP JUMPDEST PUSH0 PUSH1 0x20 DUP3 ADD SWAP1 POP PUSH2 0x2234 PUSH0 DUP4 ADD DUP5 PUSH2 0x2212 JUMP JUMPDEST SWAP3 SWAP2 POP POP JUMP JUMPDEST PUSH2 0x2243 DUP2 PUSH2 0x2209 JUMP JUMPDEST DUP2 EQ PUSH2 0x224D JUMPI PUSH0 PUSH0 REVERT JUMPDEST POP JUMP JUMPDEST PUSH0 DUP2 CALLDATALOAD SWAP1 POP PUSH2 0x225E DUP2 PUSH2 0x223A JUMP JUMPDEST SWAP3 SWAP2 POP POP JUMP JUMPDEST PUSH0 PUSH1 0x20 DUP3 DUP5 SUB SLT ISZERO PUSH2 0x2279 JUMPI PUSH2 0x2278 PUSH2 0x2050 JUMP JUMPDEST JUMPDEST PUSH0 PUSH2 0x2286 DUP5 DUP3 DUP6 ADD PUSH2 0x2250 JUMP JUMPDEST SWAP2 POP POP SWAP3 SWAP2 POP POP JUMP JUMPDEST PUSH32 0x4E487B7100000000000000000000000000000000000000000000000000000000 PUSH0 MSTORE PUSH1 0x21 PUSH1 0x4 MSTORE PUSH1 0x24 PUSH0 REVERT JUMPDEST PUSH1 0x4 DUP2 LT PUSH2 0x22CD JUMPI PUSH2 0x22CC PUSH2 0x228F JUMP JUMPDEST JUMPDEST POP JUMP JUMPDEST PUSH0 DUP2 SWAP1 POP PUSH2 0x22DD DUP3 PUSH2 0x22BC JUMP JUMPDEST SWAP2 SWAP1 POP JUMP JUMPDEST PUSH0 PUSH2 0x22EC DUP3 PUSH2 0x22D0 JUMP JUMPDEST SWAP1 POP SWAP2 SWAP1 POP JUMP JUMPDEST PUSH2 0x22FC DUP2 PUSH2 0x22E2 JUMP JUMPDEST DUP3 MSTORE POP POP JUMP JUMPDEST PUSH2 0x230B DUP2 PUSH2 0x2077 JUMP JUMPDEST DUP3 MSTORE POP POP JUMP JUMPDEST PUSH0 PUSH1 0xC0 DUP3 ADD SWAP1 POP DUP2 DUP2 SUB PUSH0 DUP4 ADD MSTORE PUSH2 0x2329 DUP2 DUP10 PUSH2 0x1FF8 JUMP JUMPDEST SWAP1 POP DUP2 DUP2 SUB PUSH1 0x20 DUP4 ADD MSTORE PUSH2 0x233D DUP2 DUP9 PUSH2 0x1FF8 JUMP JUMPDEST SWAP1 POP DUP2 DUP2 SUB PUSH1 0x40 DUP4 ADD MSTORE PUSH2 0x2351 DUP2 DUP8 PUSH2 0x1FF8 JUMP JUMPDEST SWAP1 POP PUSH2 0x2360 PUSH1 0x60 DUP4 ADD DUP7 PUSH2 0x22F3 JUMP JUMPDEST PUSH2 0x236D PUSH1 0x80 DUP4 ADD DUP6 PUSH2 0x2212 JUMP JUMPDEST PUSH2 0x237A PUSH1 0xA0 DUP4 ADD DUP5 PUSH2 0x2302 JUMP JUMPDEST SWAP8 SWAP7 POP POP POP POP POP POP POP JUMP JUMPDEST PUSH0 PUSH0 PUSH1 0x40 DUP4 DUP6 SUB SLT ISZERO PUSH2 0x239B JUMPI PUSH2 0x239A PUSH2 0x2050 JUMP JUMPDEST JUMPDEST PUSH0 PUSH2 0x23A8 DUP6 DUP3 DUP7 ADD PUSH2 0x2250 JUMP JUMPDEST SWAP3 POP POP PUSH1 0x20 PUSH2 0x23B9 DUP6 DUP3 DUP7 ADD PUSH2 0x209E JUMP JUMPDEST SWAP2 POP POP SWAP3 POP SWAP3 SWAP1 POP JUMP JUMPDEST PUSH0 PUSH1 0x20 DUP3 ADD SWAP1 POP PUSH2 0x23D6 PUSH0 DUP4 ADD DUP5 PUSH2 0x2302 JUMP JUMPDEST SWAP3 SWAP2 POP POP JUMP JUMPDEST PUSH0 PUSH0 PUSH0 PUSH0 PUSH0 PUSH1 0x60 DUP7 DUP9 SUB SLT ISZERO PUSH2 0x23F5 JUMPI PUSH2 0x23F4 PUSH2 0x2050 JUMP JUMPDEST JUMPDEST PUSH0 PUSH2 0x2402 DUP9 DUP3 DUP10 ADD PUSH2 0x2250 JUMP JUMPDEST SWAP6 POP POP PUSH1 0x20 DUP7 ADD CALLDATALOAD PUSH8 0xFFFFFFFFFFFFFFFF DUP2 GT ISZERO PUSH2 0x2423 JUMPI PUSH2 0x2422 PUSH2 0x2054 JUMP JUMPDEST JUMPDEST PUSH2 0x242F DUP9 DUP3 DUP10 ADD PUSH2 0x20BE JUMP JUMPDEST SWAP5 POP SWAP5 POP POP PUSH1 0x40 DUP7 ADD CALLDATALOAD PUSH8 0xFFFFFFFFFFFFFFFF DUP2 GT ISZERO PUSH2 0x2452 JUMPI PUSH2 0x2451 PUSH2 0x2054 JUMP JUMPDEST JUMPDEST PUSH2 0x245E DUP9 DUP3 DUP10 ADD PUSH2 0x20BE JUMP JUMPDEST SWAP3 POP SWAP3 POP POP SWAP3 SWAP6 POP SWAP3 SWAP6 SWAP1 SWAP4 POP JUMP JUMPDEST PUSH0 PUSH1 0x20 DUP3 DUP5 SUB SLT ISZERO PUSH2 0x2482 JUMPI PUSH2 0x2481 PUSH2 0x2050 JUMP JUMPDEST JUMPDEST PUSH0 PUSH2 0x248F DUP5 DUP3 DUP6 ADD PUSH2 0x209E JUMP JUMPDEST SWAP2 POP POP SWAP3 SWAP2 POP POP JUMP JUMPDEST PUSH0 PUSH0 PUSH1 0x40 DUP4 DUP6 SUB SLT ISZERO PUSH2 0x24AE JUMPI PUSH2 0x24AD PUSH2 0x2050 JUMP JUMPDEST JUMPDEST PUSH0 PUSH2 0x24BB DUP6 DUP3 DUP7 ADD PUSH2 0x2250 JUMP JUMPDEST SWAP3 POP POP PUSH1 0x20 PUSH2 0x24CC DUP6 DUP3 DUP7 ADD PUSH2 0x2250 JUMP JUMPDEST SWAP2 POP POP SWAP3 POP SWAP3 SWAP1 POP JUMP JUMPDEST PUSH0 DUP2 SWAP1 POP SWAP2 SWAP1 POP JUMP JUMPDEST PUSH2 0x24E8 DUP2 PUSH2 0x24D6 JUMP JUMPDEST DUP2 EQ PUSH2 0x24F2 JUMPI PUSH0 PUSH0 REVERT JUMPDEST POP JUMP JUMPDEST PUSH0 DUP2 CALLDATALOAD SWAP1 POP PUSH2 0x2503 DUP2 PUSH2 0x24DF JUMP JUMPDEST SWAP3 SWAP2 POP POP JUMP JUMPDEST PUSH0 PUSH0 PUSH1 0x40 DUP4 DUP6 SUB SLT ISZERO PUSH2 0x251F JUMPI PUSH2 0x251E PUSH2 0x2050 JUMP JUMPDEST JUMPDEST PUSH0 PUSH2 0x252C DUP6 DUP3 DUP7 ADD PUSH2 0x24F5 JUMP JUMPDEST SWAP3 POP POP PUSH1 0x20 PUSH2 0x253D DUP6 DUP3 DUP7 ADD PUSH2 0x209E JUMP JUMPDEST SWAP2 POP POP SWAP3 POP SWAP3 SWAP1 POP JUMP JUMPDEST PUSH0 DUP2 ISZERO ISZERO SWAP1 POP SWAP2 SWAP1 POP JUMP JUMPDEST PUSH2 0x255B DUP2 PUSH2 0x2547 JUMP JUMPDEST DUP3 MSTORE POP POP JUMP JUMPDEST PUSH0 PUSH1 0x20 DUP3 ADD SWAP1 POP PUSH2 0x2574 PUSH0 DUP4 ADD DUP5 PUSH2 0x2552 JUMP JUMPDEST SWAP3 SWAP2 POP POP JUMP JUMPDEST PUSH0 PUSH1 0xC0 DUP3 ADD SWAP1 POP DUP2 DUP2 SUB PUSH0 DUP4 ADD MSTORE PUSH2 0x2592 DUP2 DUP10 PUSH2 0x1FF8 JUMP JUMPDEST SWAP1 POP DUP2 DUP2 SUB PUSH1 0x20 DUP4 ADD MSTORE PUSH2 0x25A6 DUP2 DUP9 PUSH2 0x1FF8 JUMP JUMPDEST SWAP1 POP DUP2 DUP2 SUB PUSH1 0x40 DUP4 ADD MSTORE PUSH2 0x25BA DUP2 DUP8 PUSH2 0x1FF8 JUMP JUMPDEST SWAP1 POP DUP2 DUP2 SUB PUSH1 0x60 DUP4 ADD MSTORE PUSH2 0x25CE DUP2 DUP7 PUSH2 0x1FF8 JUMP JUMPDEST SWAP1 POP PUSH2 0x25DD PUSH1 0x80 DUP4 ADD DUP6 PUSH2 0x22F3 JUMP JUMPDEST PUSH2 0x25EA PUSH1 0xA0 DUP4 ADD DUP5 PUSH2 0x2212 JUMP JUMPDEST SWAP8 SWAP7 POP POP POP POP POP POP POP JUMP JUMPDEST PUSH2 0x25FE DUP2 PUSH2 0x24D6 JUMP JUMPDEST DUP3 MSTORE POP POP JUMP JUMPDEST PUSH0 PUSH1 0x20 DUP3 ADD SWAP1 POP PUSH2 0x2617 PUSH0 DUP4 ADD DUP5 PUSH2 0x25F5 JUMP JUMPDEST SWAP3 SWAP2 POP POP JUMP JUMPDEST PUSH0 PUSH0 PUSH0 PUSH1 0x40 DUP5 DUP7 SUB SLT ISZERO PUSH2 0x2634 JUMPI PUSH2 0x2633 PUSH2 0x2050 JUMP JUMPDEST JUMPDEST PUSH0 PUSH2 0x2641 DUP7 DUP3 DUP8 ADD PUSH2 0x2250 JUMP JUMPDEST SWAP4 POP POP PUSH1 0x20 DUP5 ADD CALLDATALOAD PUSH8 0xFFFFFFFFFFFFFFFF DUP2 GT ISZERO PUSH2 0x2662 JUMPI PUSH2 0x2661 PUSH2 0x2054 JUMP JUMPDEST JUMPDEST PUSH2 0x266E DUP7 DUP3 DUP8 ADD PUSH2 0x20BE JUMP JUMPDEST SWAP3 POP SWAP3 POP POP SWAP3 POP SWAP3 POP SWAP3 JUMP JUMPDEST PUSH1 0x4 DUP2 LT PUSH2 0x2686 JUMPI PUSH0 PUSH0 REVERT JUMPDEST POP JUMP JUMPDEST PUSH0 DUP2 CALLDATALOAD SWAP1 POP PUSH2 0x2697 DUP2 PUSH2 0x267A JUMP JUMPDEST SWAP3 SWAP2 POP POP JUMP JUMPDEST PUSH0 PUSH0 PUSH0 PUSH0 PUSH1 0x60 DUP6 DUP8 SUB SLT ISZERO PUSH2 0x26B5 JUMPI PUSH2 0x26B4 PUSH2 0x2050 JUMP JUMPDEST JUMPDEST PUSH0 PUSH2 0x26C2 DUP8 DUP3 DUP9 ADD PUSH2 0x2250 JUMP JUMPDEST SWAP5 POP POP PUSH1 0x20 PUSH2 0x26D3 DUP8 DUP3 DUP9 ADD PUSH2 0x2689 JUMP JUMPDEST SWAP4 POP POP PUSH1 0x40 DUP6 ADD CALLDATALOAD PUSH8 0xFFFFFFFFFFFFFFFF DUP2 GT ISZERO PUSH2 0x26F4 JUMPI PUSH2 0x26F3 PUSH2 0x2054 JUMP JUMPDEST JUMPDEST PUSH2 0x2700 DUP8 DUP3 DUP9 ADD PUSH2 0x20BE JUMP JUMPDEST SWAP3 POP SWAP3 POP POP SWAP3 SWAP6 SWAP2 SWAP5 POP SWAP3 POP JUMP JUMPDEST PUSH0 DUP2 MLOAD SWAP1 POP SWAP2 SWAP1 POP JUMP JUMPDEST PUSH0 DUP3 DUP3 MSTORE PUSH1 0x20 DUP3 ADD SWAP1 POP SWAP3 SWAP2 POP POP JUMP JUMPDEST PUSH0 DUP2 SWAP1 POP PUSH1 0x20 DUP3 ADD SWAP1 POP SWAP2 SWAP1 POP JUMP JUMPDEST PUSH0 DUP3 DUP3 MSTORE PUSH1 0x20 DUP3 ADD SWAP1 POP SWAP3 SWAP2 POP POP JUMP JUMPDEST PUSH0 PUSH2 0x2751 DUP3 PUSH2 0x1FC0 JUMP JUMPDEST PUSH2 0x275B DUP2 DUP6 PUSH2 0x2737 JUMP JUMPDEST SWAP4 POP PUSH2 0x276B DUP2 DUP6 PUSH1 0x20 DUP7 ADD PUSH2 0x1FDA JUMP JUMPDEST PUSH2 0x2774 DUP2 PUSH2 0x1FE8 JUMP JUMPDEST DUP5 ADD SWAP2 POP POP SWAP3 SWAP2 POP POP JUMP JUMPDEST PUSH0 PUSH2 0x278A DUP4 DUP4 PUSH2 0x2747 JUMP JUMPDEST SWAP1 POP SWAP3 SWAP2 POP POP JUMP JUMPDEST PUSH0 PUSH1 0x20 DUP3 ADD SWAP1 POP SWAP2 SWAP1 POP JUMP JUMPDEST PUSH0 PUSH2 0x27A8 DUP3 PUSH2 0x270E JUMP JUMPDEST PUSH2 0x27B2 DUP2 DUP6 PUSH2 0x2718 JUMP JUMPDEST SWAP4 POP DUP4 PUSH1 0x20 DUP3 MUL DUP6 ADD PUSH2 0x27C4 DUP6 PUSH2 0x2728 JUMP JUMPDEST DUP1 PUSH0 JUMPDEST DUP6 DUP2 LT ISZERO PUSH2 0x27FF JUMPI DUP5 DUP5 SUB DUP10 MSTORE DUP2 MLOAD PUSH2 0x27E0 DUP6 DUP3 PUSH2 0x277F JUMP JUMPDEST SWAP5 POP PUSH2 0x27EB DUP4 PUSH2 0x2792 JUMP JUMPDEST SWAP3 POP PUSH1 0x20 DUP11 ADD SWAP10 POP POP PUSH1 0x1 DUP2 ADD SWAP1 POP PUSH2 0x27C7 JUMP JUMPDEST POP DUP3 SWAP8 POP DUP8 SWAP6 POP POP POP POP POP POP SWAP3 SWAP2 POP POP JUMP JUMPDEST PUSH0 PUSH1 0x20 DUP3 ADD SWAP1 POP DUP2 DUP2 SUB PUSH0 DUP4 ADD MSTORE PUSH2 0x2829 DUP2 DUP5 PUSH2 0x279E JUMP JUMPDEST SWAP1 POP SWAP3 SWAP2 POP POP JUMP JUMPDEST PUSH32 0x4E487B7100000000000000000000000000000000000000000000000000000000 PUSH0 MSTORE PUSH1 0x22 PUSH1 0x4 MSTORE PUSH1 0x24 PUSH0 REVERT JUMPDEST PUSH0 PUSH1 0x2 DUP3 DIV SWAP1 POP PUSH1 0x1 DUP3 AND DUP1 PUSH2 0x2875 JUMPI PUSH1 0x7F DUP3 AND SWAP2 POP JUMPDEST PUSH1 0x20 DUP3 LT DUP2 SUB PUSH2 0x2888 JUMPI PUSH2 0x2887 PUSH2 0x2831 JUMP JUMPDEST JUMPDEST POP SWAP2 SWAP1 POP JUMP JUMPDEST PUSH32 0x4E6F742072656769737472617200000000000000000000000000000000000000 PUSH0 DUP3 ADD MSTORE POP JUMP JUMPDEST PUSH0 PUSH2 0x28C2 PUSH1 0xD DUP4 PUSH2 0x1FCA JUMP JUMPDEST SWAP2 POP PUSH2 0x28CD DUP3 PUSH2 0x288E JUMP JUMPDEST PUSH1 0x20 DUP3 ADD SWAP1 POP SWAP2 SWAP1 POP JUMP JUMPDEST PUSH0 PUSH1 0x20 DUP3 ADD SWAP1 POP DUP2 DUP2 SUB PUSH0 DUP4 ADD MSTORE PUSH2 0x28EF DUP2 PUSH2 0x28B6 JUMP JUMPDEST SWAP1 POP SWAP2 SWAP1 POP JUMP JUMPDEST PUSH32 0x496E76616C6964206F776E657200000000000000000000000000000000000000 PUSH0 DUP3 ADD MSTORE POP JUMP JUMPDEST PUSH0 PUSH2 0x292A PUSH1 0xD DUP4 PUSH2 0x1FCA JUMP JUMPDEST SWAP2 POP PUSH2 0x2935 DUP3 PUSH2 0x28F6 JUMP JUMPDEST PUSH1 0x20 DUP3 ADD SWAP1 POP SWAP2 SWAP1 POP JUMP JUMPDEST PUSH0 PUSH1 0x20 DUP3 ADD SWAP1 POP DUP2 DUP2 SUB PUSH0 DUP4 ADD MSTORE PUSH2 0x2957 DUP2 PUSH2 0x291E JUMP JUMPDEST SWAP1 POP SWAP2 SWAP1 POP JUMP JUMPDEST PUSH32 0x4C52206E756D6265722072657175697265640000000000000000000000000000 PUSH0 DUP3 ADD MSTORE POP JUMP JUMPDEST PUSH0 PUSH2 0x2992 PUSH1 0x12 DUP4 PUSH2 0x1FCA JUMP JUMPDEST SWAP2 POP PUSH2 0x299D DUP3 PUSH2 0x295E JUMP JUMPDEST PUSH1 0x20 DUP3 ADD SWAP1 POP SWAP2 SWAP1 POP JUMP JUMPDEST PUSH0 PUSH1 0x20 DUP3 ADD SWAP1 POP DUP2 DUP2 SUB PUSH0 DUP4 ADD MSTORE PUSH2 0x29BF DUP2 PUSH2 0x2986 JUMP JUMPDEST SWAP1 POP SWAP2 SWAP1 POP JUMP JUMPDEST PUSH32 0x4E487B7100000000000000000000000000000000000000000000000000000000 PUSH0 MSTORE PUSH1 0x41 PUSH1 0x4 MSTORE PUSH1 0x24 PUSH0 REVERT JUMPDEST PUSH0 DUP2 SWAP1 POP DUP2 PUSH0 MSTORE PUSH1 0x20 PUSH0 KECCAK256 SWAP1 POP SWAP2 SWAP1 POP JUMP JUMPDEST PUSH0 PUSH1 0x20 PUSH1 0x1F DUP4 ADD DIV SWAP1 POP SWAP2 SWAP1 POP JUMP JUMPDEST PUSH0 DUP3 DUP3 SHL SWAP1 POP SWAP3 SWAP2 POP POP JUMP JUMPDEST PUSH0 PUSH1 0x8 DUP4 MUL PUSH2 0x2A4F PUSH32 0xFFFFFFFFFFFFFFFFFFFFFFFFFFFFFFFFFFFFFFFFFFFFFFFFFFFFFFFFFFFFFFFF DUP3 PUSH2 0x2A14 JUMP JUMPDEST PUSH2 0x2A59 DUP7 DUP4 PUSH2 0x2A14 JUMP JUMPDEST SWAP6 POP DUP1 NOT DUP5 AND SWAP4 POP DUP1 DUP7 AND DUP5 OR SWAP3 POP POP POP SWAP4 SWAP3 POP POP POP JUMP JUMPDEST PUSH0 DUP2 SWAP1 POP SWAP2 SWAP1 POP JUMP JUMPDEST PUSH0 PUSH2 0x2A94 PUSH2 0x2A8F PUSH2 0x2A8A DUP5 PUSH2 0x2209 JUMP JUMPDEST PUSH2 0x2A71 JUMP JUMPDEST PUSH2 0x2209 JUMP JUMPDEST SWAP1 POP SWAP2 SWAP1 POP JUMP JUMPDEST PUSH0 DUP2 SWAP1 POP SWAP2 SWAP1 POP JUMP JUMPDEST PUSH2 0x2AAD DUP4 PUSH2 0x2A7A JUMP JUMPDEST PUSH2 0x2AC1 PUSH2 0x2AB9 DUP3 PUSH2 0x2A9B JUMP JUMPDEST DUP5 DUP5 SLOAD PUSH2 0x2A20 JUMP JUMPDEST DUP3 SSTORE POP POP POP POP JUMP JUMPDEST PUSH0 PUSH0 SWAP1 POP SWAP1 JUMP JUMPDEST PUSH2 0x2AD8 PUSH2 0x2AC9 JUMP JUMPDEST PUSH2 0x2AE3 DUP2 DUP5 DUP5 PUSH2 0x2AA4 JUMP JUMPDEST POP POP POP JUMP JUMPDEST JUMPDEST DUP2 DUP2 LT ISZERO PUSH2 0x2B06 JUMPI PUSH2 0x2AFB PUSH0 DUP3 PUSH2 0x2AD0 JUMP JUMPDEST PUSH1 0x1 DUP2 ADD SWAP1 POP PUSH2 0x2AE9 JUMP JUMPDEST POP POP JUMP JUMPDEST PUSH1 0x1F DUP3 GT ISZERO PUSH2 0x2B4B JUMPI PUSH2 0x2B1C DUP2 PUSH2 0x29F3 JUMP JUMPDEST PUSH2 0x2B25 DUP5 PUSH2 0x2A05 JUMP JUMPDEST DUP2 ADD PUSH1 0x20 DUP6 LT ISZERO PUSH2 0x2B34 JUMPI DUP2 SWAP1 POP JUMPDEST PUSH2 0x2B48 PUSH2 0x2B40 DUP6 PUSH2 0x2A05 JUMP JUMPDEST DUP4 ADD DUP3 PUSH2 0x2AE8 JUMP JUMPDEST POP POP JUMPDEST POP POP POP JUMP JUMPDEST PUSH0 DUP3 DUP3 SHR SWAP1 POP SWAP3 SWAP2 POP POP JUMP JUMPDEST PUSH0 PUSH2 0x2B6B PUSH0 NOT DUP5 PUSH1 0x8 MUL PUSH2 0x2B50 JUMP JUMPDEST NOT DUP1 DUP4 AND SWAP2 POP POP SWAP3 SWAP2 POP POP JUMP JUMPDEST PUSH0 PUSH2 0x2B83 DUP4 DUP4 PUSH2 0x2B5C JUMP JUMPDEST SWAP2 POP DUP3 PUSH1 0x2 MUL DUP3 OR SWAP1 POP SWAP3 SWAP2 POP POP JUMP JUMPDEST PUSH2 0x2B9C DUP3 PUSH2 0x1FC0 JUMP JUMPDEST PUSH8 0xFFFFFFFFFFFFFFFF DUP2 GT ISZERO PUSH2 0x2BB5 JUMPI PUSH2 0x2BB4 PUSH2 0x29C6 JUMP JUMPDEST JUMPDEST PUSH2 0x2BBF DUP3 SLOAD PUSH2 0x285E JUMP JUMPDEST PUSH2 0x2BCA DUP3 DUP3 DUP6 PUSH2 0x2B0A JUMP JUMPDEST PUSH0 PUSH1 0x20 SWAP1 POP PUSH1 0x1F DUP4 GT PUSH1 0x1 DUP2 EQ PUSH2 0x2BFB JUMPI PUSH0 DUP5 ISZERO PUSH2 0x2BE9 JUMPI DUP3 DUP8 ADD MLOAD SWAP1 POP JUMPDEST PUSH2 0x2BF3 DUP6 DUP3 PUSH2 0x2B78 JUMP JUMPDEST DUP7 SSTORE POP PUSH2 0x2C5A JUMP JUMPDEST PUSH1 0x1F NOT DUP5 AND PUSH2 0x2C09 DUP7 PUSH2 0x29F3 JUMP JUMPDEST PUSH0 JUMPDEST DUP3 DUP2 LT ISZERO PUSH2 0x2C30 JUMPI DUP5 DUP10 ADD MLOAD DUP3 SSTORE PUSH1 0x1 DUP3 ADD SWAP2 POP PUSH1 0x20 DUP6 ADD SWAP5 POP PUSH1 0x20 DUP2 ADD SWAP1 POP PUSH2 0x2C0B JUMP JUMPDEST DUP7 DUP4 LT ISZERO PUSH2 0x2C4D JUMPI DUP5 DUP10 ADD MLOAD PUSH2 0x2C49 PUSH1 0x1F DUP10 AND DUP3 PUSH2 0x2B5C JUMP JUMPDEST DUP4 SSTORE POP JUMPDEST PUSH1 0x1 PUSH1 0x2 DUP9 MUL ADD DUP9 SSTORE POP POP POP JUMPDEST POP POP POP POP POP POP JUMP JUMPDEST DUP3 DUP2 DUP4 CALLDATACOPY PUSH0 DUP4 DUP4 ADD MSTORE POP POP POP JUMP JUMPDEST PUSH0 PUSH2 0x2C7B DUP4 DUP6 PUSH2 0x1FCA JUMP JUMPDEST SWAP4 POP PUSH2 0x2C88 DUP4 DUP6 DUP5 PUSH2 0x2C62 JUMP JUMPDEST PUSH2 0x2C91 DUP4 PUSH2 0x1FE8 JUMP JUMPDEST DUP5 ADD SWAP1 POP SWAP4 SWAP3 POP POP POP JUMP JUMPDEST PUSH0 PUSH1 0x40 DUP3 ADD SWAP1 POP DUP2 DUP2 SUB PUSH0 DUP4 ADD MSTORE PUSH2 0x2CB5 DUP2 DUP7 DUP9 PUSH2 0x2C70 JUMP JUMPDEST SWAP1 POP DUP2 DUP2 SUB PUSH1 0x20 DUP4 ADD MSTORE PUSH2 0x2CCA DUP2 DUP5 DUP7 PUSH2 0x2C70 JUMP JUMPDEST SWAP1 POP SWAP6 SWAP5 POP POP POP POP POP JUMP JUMPDEST PUSH32 0x50617263656C20646F6573206E6F742065786973740000000000000000000000 PUSH0 DUP3 ADD MSTORE POP JUMP JUMPDEST PUSH0 PUSH2 0x2D09 PUSH1 0x15 DUP4 PUSH2 0x1FCA JUMP JUMPDEST SWAP2 POP PUSH2 0x2D14 DUP3 PUSH2 0x2CD5 JUMP JUMPDEST PUSH1 0x20 DUP3 ADD SWAP1 POP SWAP2 SWAP1 POP JUMP JUMPDEST PUSH0 PUSH1 0x20 DUP3 ADD SWAP1 POP DUP2 DUP2 SUB PUSH0 DUP4 ADD MSTORE PUSH2 0x2D36 DUP2 PUSH2 0x2CFD JUMP JUMPDEST SWAP1 POP SWAP2 SWAP1 POP JUMP JUMPDEST PUSH32 0x50617263656C206E6F7420616374697665000000000000000000000000000000 PUSH0 DUP3 ADD MSTORE POP JUMP JUMPDEST PUSH0 PUSH2 0x2D71 PUSH1 0x11 DUP4 PUSH2 0x1FCA JUMP JUMPDEST SWAP2 POP PUSH2 0x2D7C DUP3 PUSH2 0x2D3D JUMP JUMPDEST PUSH1 0x20 DUP3 ADD SWAP1 POP SWAP2 SWAP1 POP JUMP JUMPDEST PUSH0 PUSH1 0x20 DUP3 ADD SWAP1 POP DUP2 DUP2 SUB PUSH0 DUP4 ADD MSTORE PUSH2 0x2D9E DUP2 PUSH2 0x2D65 JUMP JUMPDEST SWAP1 POP SWAP2 SWAP1 POP JUMP JUMPDEST PUSH32 0x496E76616C696420726563697069656E74000000000000000000000000000000 PUSH0 DUP3 ADD MSTORE POP JUMP JUMPDEST PUSH0 PUSH2 0x2DD9 PUSH1 0x11 DUP4 PUSH2 0x1FCA JUMP JUMPDEST SWAP2 POP PUSH2 0x2DE4 DUP3 PUSH2 0x2DA5 JUMP JUMPDEST PUSH1 0x20 DUP3 ADD SWAP1 POP SWAP2 SWAP1 POP JUMP JUMPDEST PUSH0 PUSH1 0x20 DUP3 ADD SWAP1 POP DUP2 DUP2 SUB PUSH0 DUP4 ADD MSTORE PUSH2 0x2E06 DUP2 PUSH2 0x2DCD JUMP JUMPDEST SWAP1 POP SWAP2 SWAP1 POP JUMP JUMPDEST PUSH32 0x4E6F742070617263656C206F776E657200000000000000000000000000000000 PUSH0 DUP3 ADD MSTORE POP JUMP JUMPDEST PUSH0 PUSH2 0x2E41 PUSH1 0x10 DUP4 PUSH2 0x1FCA JUMP JUMPDEST SWAP2 POP PUSH2 0x2E4C DUP3 PUSH2 0x2E0D JUMP JUMPDEST PUSH1 0x20 DUP3 ADD SWAP1 POP SWAP2 SWAP1 POP JUMP JUMPDEST PUSH0 PUSH1 0x20 DUP3 ADD SWAP1 POP DUP2 DUP2 SUB PUSH0 DUP4 ADD MSTORE PUSH2 0x2E6E DUP2 PUSH2 0x2E35 JUMP JUMPDEST SWAP1 POP SWAP2 SWAP1 POP JUMP JUMPDEST PUSH32 0x4E6F6E6578697374656E7420746F6B656E000000000000000000000000000000 PUSH0 DUP3 ADD MSTORE POP JUMP JUMPDEST PUSH0 PUSH2 0x2EA9 PUSH1 0x11 DUP4 PUSH2 0x1FCA JUMP JUMPDEST SWAP2 POP PUSH2 0x2EB4 DUP3 PUSH2 0x2E75 JUMP JUMPDEST PUSH1 0x20 DUP3 ADD SWAP1 POP SWAP2 SWAP1 POP JUMP JUMPDEST PUSH0 PUSH1 0x20 DUP3 ADD SWAP1 POP DUP2 DUP2 SUB PUSH0 DUP4 ADD MSTORE PUSH2 0x2ED6 DUP2 PUSH2 0x2E9D JUMP JUMPDEST SWAP1 POP SWAP2 SWAP1 POP JUMP JUMPDEST PUSH0 DUP3 SWAP1 POP SWAP3 SWAP2 POP POP JUMP JUMPDEST PUSH2 0x2EF1 DUP4 DUP4 PUSH2 0x2EDD JUMP JUMPDEST PUSH8 0xFFFFFFFFFFFFFFFF DUP2 GT ISZERO PUSH2 0x2F0A JUMPI PUSH2 0x2F09 PUSH2 0x29C6 JUMP JUMPDEST JUMPDEST PUSH2 0x2F14 DUP3 SLOAD PUSH2 0x285E JUMP JUMPDEST PUSH2 0x2F1F DUP3 DUP3 DUP6 PUSH2 0x2B0A JUMP JUMPDEST PUSH0 PUSH1 0x1F DUP4 GT PUSH1 0x1 DUP2 EQ PUSH2 0x2F4C JUMPI PUSH0 DUP5 ISZERO PUSH2 0x2F3A JUMPI DUP3 DUP8 ADD CALLDATALOAD SWAP1 POP JUMPDEST PUSH2 0x2F44 DUP6 DUP3 PUSH2 0x2B78 JUMP JUMPDEST DUP7 SSTORE POP PUSH2 0x2FAB JUMP JUMPDEST PUSH1 0x1F NOT DUP5 AND PUSH2 0x2F5A DUP7 PUSH2 0x29F3 JUMP JUMPDEST PUSH0 JUMPDEST DUP3 DUP2 LT ISZERO PUSH2 0x2F81 JUMPI DUP5 DUP10 ADD CALLDATALOAD DUP3 SSTORE PUSH1 0x1 DUP3 ADD SWAP2 POP PUSH1 0x20 DUP6 ADD SWAP5 POP PUSH1 0x20 DUP2 ADD SWAP1 POP PUSH2 0x2F5C JUMP JUMPDEST DUP7 DUP4 LT ISZERO PUSH2 0x2F9E JUMPI DUP5 DUP10 ADD CALLDATALOAD PUSH2 0x2F9A PUSH1 0x1F DUP10 AND DUP3 PUSH2 0x2B5C JUMP JUMPDEST DUP4 SSTORE POP JUMPDEST PUSH1 0x1 PUSH1 0x2 DUP9 MUL ADD DUP9 SSTORE POP POP POP JUMPDEST POP POP POP POP POP POP POP JUMP JUMPDEST PUSH32 0x5A65726F20616464726573730000000000000000000000000000000000000000 PUSH0 DUP3 ADD MSTORE POP JUMP JUMPDEST PUSH0 PUSH2 0x2FE8 PUSH1 0xC DUP4 PUSH2 0x1FCA JUMP JUMPDEST SWAP2 POP PUSH2 0x2FF3 DUP3 PUSH2 0x2FB4 JUMP JUMPDEST PUSH1 0x20 DUP3 ADD SWAP1 POP SWAP2 SWAP1 POP JUMP JUMPDEST PUSH0 PUSH1 0x20 DUP3 ADD SWAP1 POP DUP2 DUP2 SUB PUSH0 DUP4 ADD MSTORE PUSH2 0x3015 DUP2 PUSH2 0x2FDC JUMP JUMPDEST SWAP1 POP SWAP2 SWAP1 POP JUMP JUMPDEST PUSH0 PUSH1 0x20 DUP3 ADD SWAP1 POP DUP2 DUP2 SUB PUSH0 DUP4 ADD MSTORE PUSH2 0x3035 DUP2 DUP5 DUP7 PUSH2 0x2C70 JUMP JUMPDEST SWAP1 POP SWAP4 SWAP3 POP POP POP JUMP JUMPDEST PUSH32 0x4163636573732064656E69656400000000000000000000000000000000000000 PUSH0 DUP3 ADD MSTORE POP JUMP JUMPDEST PUSH0 PUSH2 0x3072 PUSH1 0xD DUP4 PUSH2 0x1FCA JUMP JUMPDEST SWAP2 POP PUSH2 0x307D DUP3 PUSH2 0x303E JUMP JUMPDEST PUSH1 0x20 DUP3 ADD SWAP1 POP SWAP2 SWAP1 POP JUMP JUMPDEST PUSH0 PUSH1 0x20 DUP3 ADD SWAP1 POP DUP2 DUP2 SUB PUSH0 DUP4 ADD MSTORE PUSH2 0x309F DUP2 PUSH2 0x3066 JUMP JUMPDEST SWAP1 POP SWAP2 SWAP1 POP JUMP JUMPDEST PUSH0 PUSH1 0x40 DUP3 ADD SWAP1 POP PUSH2 0x30B9 PUSH0 DUP4 ADD DUP7 PUSH2 0x22F3 JUMP JUMPDEST DUP2 DUP2 SUB PUSH1 0x20 DUP4 ADD MSTORE PUSH2 0x30CC DUP2 DUP5 DUP7 PUSH2 0x2C70 JUMP JUMPDEST SWAP1 POP SWAP5 SWAP4 POP POP POP POP JUMP JUMPDEST PUSH32 0x4E487B7100000000000000000000000000000000000000000000000000000000 PUSH0 MSTORE PUSH1 0x11 PUSH1 0x4 MSTORE PUSH1 0x24 PUSH0 REVERT JUMPDEST PUSH0 PUSH2 0x310D DUP3 PUSH2 0x2209 JUMP JUMPDEST SWAP2 POP PUSH2 0x3118 DUP4 PUSH2 0x2209 JUMP JUMPDEST SWAP3 POP DUP3 DUP3 ADD SWAP1 POP DUP1 DUP3 GT ISZERO PUSH2 0x3130 JUMPI PUSH2 0x312F PUSH2 0x30D6 JUMP JUMPDEST JUMPDEST SWAP3 SWAP2 POP POP JUMP JUMPDEST PUSH32 0x416C7265616479206D696E746564000000000000000000000000000000000000 PUSH0 DUP3 ADD MSTORE POP JUMP JUMPDEST PUSH0 PUSH2 0x316A PUSH1 0xE DUP4 PUSH2 0x1FCA JUMP JUMPDEST SWAP2 POP PUSH2 0x3175 DUP3 PUSH2 0x3136 JUMP JUMPDEST PUSH1 0x20 DUP3 ADD SWAP1 POP SWAP2 SWAP1 POP JUMP JUMPDEST PUSH0 PUSH1 0x20 DUP3 ADD SWAP1 POP DUP2 DUP2 SUB PUSH0 DUP4 ADD MSTORE PUSH2 0x3197 DUP2 PUSH2 0x315E JUMP JUMPDEST SWAP1 POP SWAP2 SWAP1 POP JUMP JUMPDEST PUSH32 0x4E6F74206F776E65720000000000000000000000000000000000000000000000 PUSH0 DUP3 ADD MSTORE POP JUMP JUMPDEST PUSH0 PUSH2 0x31D2 PUSH1 0x9 DUP4 PUSH2 0x1FCA JUMP JUMPDEST SWAP2 POP PUSH2 0x31DD DUP3 PUSH2 0x319E JUMP JUMPDEST PUSH1 0x20 DUP3 ADD SWAP1 POP SWAP2 SWAP1 POP JUMP JUMPDEST PUSH0 PUSH1 0x20 DUP3 ADD SWAP1 POP DUP2 DUP2 SUB PUSH0 DUP4 ADD MSTORE PUSH2 0x31FF DUP2 PUSH2 0x31C6 JUMP JUMPDEST SWAP1 POP SWAP2 SWAP1 POP JUMP JUMPDEST PUSH0 PUSH2 0x3210 DUP3 PUSH2 0x2209 JUMP JUMPDEST SWAP2 POP PUSH2 0x321B DUP4 PUSH2 0x2209 JUMP JUMPDEST SWAP3 POP DUP3 DUP3 SUB SWAP1 POP DUP2 DUP2 GT ISZERO PUSH2 0x3233 JUMPI PUSH2 0x3232 PUSH2 0x30D6 JUMP JUMPDEST JUMPDEST SWAP3 SWAP2 POP POP JUMP JUMPDEST PUSH0 DUP2 MLOAD SWAP1 POP SWAP2 SWAP1 POP JUMP JUMPDEST PUSH0 DUP3 DUP3 MSTORE PUSH1 0x20 DUP3 ADD SWAP1 POP SWAP3 SWAP2 POP POP JUMP JUMPDEST PUSH0 PUSH2 0x325D DUP3 PUSH2 0x3239 JUMP JUMPDEST PUSH2 0x3267 DUP2 DUP6 PUSH2 0x3243 JUMP JUMPDEST SWAP4 POP PUSH2 0x3277 DUP2 DUP6 PUSH1 0x20 DUP7 ADD PUSH2 0x1FDA JUMP JUMPDEST PUSH2 0x3280 DUP2 PUSH2 0x1FE8 JUMP JUMPDEST DUP5 ADD SWAP2 POP POP SWAP3 SWAP2 POP POP JUMP JUMPDEST PUSH0 PUSH1 0x80 DUP3 ADD SWAP1 POP PUSH2 0x329E PUSH0 DUP4 ADD DUP8 PUSH2 0x2302 JUMP JUMPDEST PUSH2 0x32AB PUSH1 0x20 DUP4 ADD DUP7 PUSH2 0x2302 JUMP JUMPDEST PUSH2 0x32B8 PUSH1 0x40 DUP4 ADD DUP6 PUSH2 0x2212 JUMP JUMPDEST DUP2 DUP2 SUB PUSH1 0x60 DUP4 ADD MSTORE PUSH2 0x32CA DUP2 DUP5 PUSH2 0x3253 JUMP JUMPDEST SWAP1 POP SWAP6 SWAP5 POP POP POP POP POP JUMP JUMPDEST PUSH0 PUSH32 0xFFFFFFFF00000000000000000000000000000000000000000000000000000000 DUP3 AND SWAP1 POP SWAP2 SWAP1 POP JUMP JUMPDEST PUSH2 0x3309 DUP2 PUSH2 0x32D5 JUMP JUMPDEST DUP2 EQ PUSH2 0x3313 JUMPI PUSH0 PUSH0 REVERT JUMPDEST POP JUMP JUMPDEST PUSH0 DUP2 MLOAD SWAP1 POP PUSH2 0x3324 DUP2 PUSH2 0x3300 JUMP JUMPDEST SWAP3 SWAP2 POP POP JUMP JUMPDEST PUSH0 PUSH1 0x20 DUP3 DUP5 SUB SLT ISZERO PUSH2 0x333F JUMPI PUSH2 0x333E PUSH2 0x2050 JUMP JUMPDEST JUMPDEST PUSH0 PUSH2 0x334C DUP5 DUP3 DUP6 ADD PUSH2 0x3316 JUMP JUMPDEST SWAP2 POP POP SWAP3 SWAP2 POP POP JUMP JUMPDEST PUSH32 0x5472616E7366657220746F206E6F6E2045524337323152656365697665720000 PUSH0 DUP3 ADD MSTORE POP JUMP JUMPDEST PUSH0 PUSH2 0x3389 PUSH1 0x1E DUP4 PUSH2 0x1FCA JUMP JUMPDEST SWAP2 POP PUSH2 0x3394 DUP3 PUSH2 0x3355 JUMP JUMPDEST PUSH1 0x20 DUP3 ADD SWAP1 POP SWAP2 SWAP1 POP JUMP JUMPDEST PUSH0 PUSH1 0x20 DUP3 ADD SWAP1 POP DUP2 DUP2 SUB PUSH0 DUP4 ADD MSTORE PUSH2 0x33B6 DUP2 PUSH2 0x337D JUMP JUMPDEST SWAP1 POP SWAP2 SWAP1 POP JUMP JUMPDEST PUSH32 0x45524337323152656365697665722072656A656374656420746F6B656E730000 PUSH0 DUP3 ADD MSTORE POP JUMP JUMPDEST PUSH0 PUSH2 0x33F1 PUSH1 0x1E DUP4 PUSH2 0x1FCA JUMP JUMPDEST SWAP2 POP PUSH2 0x33FC DUP3 PUSH2 0x33BD JUMP JUMPDEST PUSH1 0x20 DUP3 ADD SWAP1 POP SWAP2 SWAP1 POP JUMP JUMPDEST PUSH0 PUSH1 0x20 DUP3 ADD SWAP1 POP DUP2 DUP2 SUB PUSH0 DUP4 ADD MSTORE PUSH2 0x341E DUP2 PUSH2 0x33E5 JUMP JUMPDEST SWAP1 POP SWAP2 SWAP1 POP JUMP INVALID LOG2 PUSH5 0x6970667358 0x22 SLT KECCAK256 PUSH17 0x7DD5CBBCA38D877CE8708484EE4F61314C DUP5 DUP16 0xC2 REVERT EXTSTATICCALL 0xAF 0xED 0xBC 0xBD RETF 0xB1 SSTORE 0x28 POP PUSH5 0x736F6C6343 STOP ADDMOD 0x1E STOP CALLER "
		},
		"gasEstimates": {
			"creation": {
				"codeDepositCost": "2680600",
				"executionCost": "infinite",
				"totalCost": "infinite"
			},
			"external": {
				"DEFAULT_ADMIN_ROLE()": "396",
				"REGISTRAR_ROLE()": "435",
				"addParcelDocument(uint256,string)": "infinite",
				"addRegistrar(address)": "28855",
				"balanceOf(address)": "2930",
				"getParcel(uint256)": "infinite",
				"getParcelDocuments(uint256)": "infinite",
				"hasRole(bytes32,address)": "3232",
				"name()": "infinite",
				"ownerOf(uint256)": "2963",
				"parcelDocuments(uint256,uint256)": "infinite",
				"parcels(uint256)": "infinite",
				"registerParcel(address,string,string,string,string)": "infinite",
				"removeRegistrar(address)": "28898",
				"safeTransferParcel(uint256,address)": "infinite",
				"setParcelStatus(uint256,uint8,string)": "infinite",
				"symbol()": "infinite",
				"updateParcelMetadata(uint256,string,string)": "infinite"
			}
		},
		"methodIdentifiers": {
			"DEFAULT_ADMIN_ROLE()": "a217fddf",
			"REGISTRAR_ROLE()": "f68e9553",
			"addParcelDocument(uint256,string)": "a3384f83",
			"addRegistrar(address)": "af92a693",
			"balanceOf(address)": "70a08231",
			"getParcel(uint256)": "4d0434f2",
			"getParcelDocuments(uint256)": "bdca2f67",
			"hasRole(bytes32,address)": "91d14854",
			"name()": "06fdde03",
			"ownerOf(uint256)": "6352211e",
			"parcelDocuments(uint256,uint256)": "7ad00f60",
			"parcels(uint256)": "a0fa8ede",
			"registerParcel(address,string,string,string,string)": "22bdfd0e",
			"removeRegistrar(address)": "ba904eed",
			"safeTransferParcel(uint256,address)": "4f1c4b84",
			"setParcelStatus(uint256,uint8,string)": "b9238fb3",
			"symbol()": "95d89b41",
			"updateParcelMetadata(uint256,string,string)": "6b5b94f3"
		}
	},
	"abi": [
		{
			"inputs": [
				{
					"internalType": "address",
					"name": "ministryAdmin",
					"type": "address"
				}
			],
			"stateMutability": "nonpayable",
			"type": "constructor"
		},
		{
			"anonymous": false,
			"inputs": [
				{
					"indexed": true,
					"internalType": "uint256",
					"name": "tokenId",
					"type": "uint256"
				},
				{
					"indexed": false,
					"internalType": "string",
					"name": "docHash",
					"type": "string"
				}
			],
			"name": "ParcelDocumentAdded",
			"type": "event"
		},
		{
			"anonymous": false,
			"inputs": [
				{
					"indexed": true,
					"internalType": "uint256",
					"name": "tokenId",
					"type": "uint256"
				},
				{
					"indexed": false,
					"internalType": "string",
					"name": "lrNumber",
					"type": "string"
				},
				{
					"indexed": false,
					"internalType": "string",
					"name": "county",
					"type": "string"
				},
				{
					"indexed": true,
					"internalType": "address",
					"name": "owner",
					"type": "address"
				}
			],
			"name": "ParcelRegistered",
			"type": "event"
		},
		{
			"anonymous": false,
			"inputs": [
				{
					"indexed": true,
					"internalType": "uint256",
					"name": "tokenId",
					"type": "uint256"
				},
				{
					"indexed": false,
					"internalType": "enum LandRegistryNFT.ParcelStatus",
					"name": "newStatus",
					"type": "uint8"
				},
				{
					"indexed": false,
					"internalType": "string",
					"name": "reason",
					"type": "string"
				}
			],
			"name": "ParcelStatusChanged",
			"type": "event"
		},
		{
			"anonymous": false,
			"inputs": [
				{
					"indexed": true,
					"internalType": "uint256",
					"name": "tokenId",
					"type": "uint256"
				},
				{
					"indexed": true,
					"internalType": "address",
					"name": "from",
					"type": "address"
				},
				{
					"indexed": true,
					"internalType": "address",
					"name": "to",
					"type": "address"
				}
			],
			"name": "ParcelTransferred",
			"type": "event"
		},
		{
			"anonymous": false,
			"inputs": [
				{
					"indexed": true,
					"internalType": "bytes32",
					"name": "role",
					"type": "bytes32"
				},
				{
					"indexed": true,
					"internalType": "address",
					"name": "account",
					"type": "address"
				}
			],
			"name": "RoleGranted",
			"type": "event"
		},
		{
			"anonymous": false,
			"inputs": [
				{
					"indexed": true,
					"internalType": "bytes32",
					"name": "role",
					"type": "bytes32"
				},
				{
					"indexed": true,
					"internalType": "address",
					"name": "account",
					"type": "address"
				}
			],
			"name": "RoleRevoked",
			"type": "event"
		},
		{
			"anonymous": false,
			"inputs": [
				{
					"indexed": true,
					"internalType": "address",
					"name": "from",
					"type": "address"
				},
				{
					"indexed": true,
					"internalType": "address",
					"name": "to",
					"type": "address"
				},
				{
					"indexed": true,
					"internalType": "uint256",
					"name": "tokenId",
					"type": "uint256"
				}
			],
			"name": "Transfer",
			"type": "event"
		},
		{
			"inputs": [],
			"name": "DEFAULT_ADMIN_ROLE",
			"outputs": [
				{
					"internalType": "bytes32",
					"name": "",
					"type": "bytes32"
				}
			],
			"stateMutability": "view",
			"type": "function"
		},
		{
			"inputs": [],
			"name": "REGISTRAR_ROLE",
			"outputs": [
				{
					"internalType": "bytes32",
					"name": "",
					"type": "bytes32"
				}
			],
			"stateMutability": "view",
			"type": "function"
		},
		{
			"inputs": [
				{
					"internalType": "uint256",
					"name": "tokenId",
					"type": "uint256"
				},
				{
					"internalType": "string",
					"name": "docHash",
					"type": "string"
				}
			],
			"name": "addParcelDocument",
			"outputs": [],
			"stateMutability": "nonpayable",
			"type": "function"
		},
		{
			"inputs": [
				{
					"internalType": "address",
					"name": "account",
					"type": "address"
				}
			],
			"name": "addRegistrar",
			"outputs": [],
			"stateMutability": "nonpayable",
			"type": "function"
		},
		{
			"inputs": [
				{
					"internalType": "address",
					"name": "owner",
					"type": "address"
				}
			],
			"name": "balanceOf",
			"outputs": [
				{
					"internalType": "uint256",
					"name": "",
					"type": "uint256"
				}
			],
			"stateMutability": "view",
			"type": "function"
		},
		{
			"inputs": [
				{
					"internalType": "uint256",
					"name": "tokenId",
					"type": "uint256"
				}
			],
			"name": "getParcel",
			"outputs": [
				{
					"internalType": "string",
					"name": "",
					"type": "string"
				},
				{
					"internalType": "string",
					"name": "",
					"type": "string"
				},
				{
					"internalType": "string",
					"name": "",
					"type": "string"
				},
				{
					"internalType": "enum LandRegistryNFT.ParcelStatus",
					"name": "",
					"type": "uint8"
				},
				{
					"internalType": "uint256",
					"name": "",
					"type": "uint256"
				},
				{
					"internalType": "address",
					"name": "",
					"type": "address"
				}
			],
			"stateMutability": "view",
			"type": "function"
		},
		{
			"inputs": [
				{
					"internalType": "uint256",
					"name": "tokenId",
					"type": "uint256"
				}
			],
			"name": "getParcelDocuments",
			"outputs": [
				{
					"internalType": "string[]",
					"name": "",
					"type": "string[]"
				}
			],
			"stateMutability": "view",
			"type": "function"
		},
		{
			"inputs": [
				{
					"internalType": "bytes32",
					"name": "role",
					"type": "bytes32"
				},
				{
					"internalType": "address",
					"name": "account",
					"type": "address"
				}
			],
			"name": "hasRole",
			"outputs": [
				{
					"internalType": "bool",
					"name": "",
					"type": "bool"
				}
			],
			"stateMutability": "view",
			"type": "function"
		},
		{
			"inputs": [],
			"name": "name",
			"outputs": [
				{
					"internalType": "string",
					"name": "",
					"type": "string"
				}
			],
			"stateMutability": "view",
			"type": "function"
		},
		{
			"inputs": [
				{
					"internalType": "uint256",
					"name": "tokenId",
					"type": "uint256"
				}
			],
			"name": "ownerOf",
			"outputs": [
				{
					"internalType": "address",
					"name": "",
					"type": "address"
				}
			],
			"stateMutability": "view",
			"type": "function"
		},
		{
			"inputs": [
				{
					"internalType": "uint256",
					"name": "",
					"type": "uint256"
				},
				{
					"internalType": "uint256",
					"name": "",
					"type": "uint256"
				}
			],
			"name": "parcelDocuments",
			"outputs": [
				{
					"internalType": "string",
					"name": "",
					"type": "string"
				}
			],
			"stateMutability": "view",
			"type": "function"
		},
		{
			"inputs": [
				{
					"internalType": "uint256",
					"name": "",
					"type": "uint256"
				}
			],
			"name": "parcels",
			"outputs": [
				{
					"internalType": "string",
					"name": "lrNumber",
					"type": "string"
				},
				{
					"internalType": "string",
					"name": "county",
					"type": "string"
				},
				{
					"internalType": "string",
					"name": "coordinatesHash",
					"type": "string"
				},
				{
					"internalType": "string",
					"name": "ownerIdHash",
					"type": "string"
				},
				{
					"internalType": "enum LandRegistryNFT.ParcelStatus",
					"name": "status",
					"type": "uint8"
				},
				{
					"internalType": "uint256",
					"name": "registeredAt",
					"type": "uint256"
				}
			],
			"stateMutability": "view",
			"type": "function"
		},
		{
			"inputs": [
				{
					"internalType": "address",
					"name": "owner",
					"type": "address"
				},
				{
					"internalType": "string",
					"name": "lrNumber",
					"type": "string"
				},
				{
					"internalType": "string",
					"name": "county",
					"type": "string"
				},
				{
					"internalType": "string",
					"name": "coordinatesHash",
					"type": "string"
				},
				{
					"internalType": "string",
					"name": "ownerIdHash",
					"type": "string"
				}
			],
			"name": "registerParcel",
			"outputs": [
				{
					"internalType": "uint256",
					"name": "",
					"type": "uint256"
				}
			],
			"stateMutability": "nonpayable",
			"type": "function"
		},
		{
			"inputs": [
				{
					"internalType": "address",
					"name": "account",
					"type": "address"
				}
			],
			"name": "removeRegistrar",
			"outputs": [],
			"stateMutability": "nonpayable",
			"type": "function"
		},
		{
			"inputs": [
				{
					"internalType": "uint256",
					"name": "tokenId",
					"type": "uint256"
				},
				{
					"internalType": "address",
					"name": "to",
					"type": "address"
				}
			],
			"name": "safeTransferParcel",
			"outputs": [],
			"stateMutability": "nonpayable",
			"type": "function"
		},
		{
			"inputs": [
				{
					"internalType": "uint256",
					"name": "tokenId",
					"type": "uint256"
				},
				{
					"internalType": "enum LandRegistryNFT.ParcelStatus",
					"name": "newStatus",
					"type": "uint8"
				},
				{
					"internalType": "string",
					"name": "reason",
					"type": "string"
				}
			],
			"name": "setParcelStatus",
			"outputs": [],
			"stateMutability": "nonpayable",
			"type": "function"
		},
		{
			"inputs": [],
			"name": "symbol",
			"outputs": [
				{
					"internalType": "string",
					"name": "",
					"type": "string"
				}
			],
			"stateMutability": "view",
			"type": "function"
		},
		{
			"inputs": [
				{
					"internalType": "uint256",
					"name": "tokenId",
					"type": "uint256"
				},
				{
					"internalType": "string",
					"name": "newCoordinatesHash",
					"type": "string"
				},
				{
					"internalType": "string",
					"name": "newOwnerIdHash",
					"type": "string"
				}
			],
			"name": "updateParcelMetadata",
			"outputs": [],
			"stateMutability": "nonpayable",
			"type": "function"
		}
	]
}